:02000004000AF0
:10E0000000400220B5F50A00C7F50A00C9F50A006C
:10E01000CBF50A00CBF50A00CBF50A0000000000A2
:10E02000000000000000000000000000CBF50A0026
:10E03000CBF50A0000000000CBF50A00CBF50A0082
:10E04000CBF50A00CBF50A00CBF50A00CBF50A00A8
:10E05000CBF50A00CBF50A00CBF50A00CBF50A0098
:10E06000CBF50A00CBF50A00CBF50A00CBF50A0088
:10E07000CBF50A00CBF50A00CBF50A00CBF50A0078
:10E08000CBF50A00CBF50A00CBF50A00CBF50A0068
:10E09000CBF50A00CBF50A00CBF50A00CBF50A0058
:10E0A000CBF50A00CBF50A00CBF50A00CBF50A0048
:10E0B000CBF50A00CBF50A00CBF50A00CBF50A0038
:10E0C000CBF50A00CBF50A00CBF50A00CBF50A0028
:10E0D000CBF50A00CBF50A00DFF85406006800F023
:10E0E0000F0080027047F8B5C0B005460C461646D2
:10E0F000DFF840060268A019401EB0FBF2F016F0EF
:10E10000030F25D1B6FBF2F1884221D359281FD243
:10E110002146304600F065F8002819D14FF4807789
:10E1200002E07D19BE19E41B002C14D0BC4201D2C0
:10E130002746BFB26A463946284600F008FC002848
:10E1400006D03A466946304600F0CBFC0028E8D0BD
:10E150004FF0FF3000E0002041B0F0BD30B58BB093
:10E16000044601256A4608212046C0B2000300F09B
:10E17000EEFB684600F052FD01280DD0684600F025
:10E1800031FD01280CD0641C2046C0B2582800DBA9
:10E1900000252800E6D106E0204640B20BB030BD95
:10E1A0004FF0FF30FAE76FF00100F7E7FEB50446E5
:10E1B0000D464FF0FF362C276A460C21381900F027
:10E1C000C6FB00280BD09DF80000012806D001985E
:10E1D000002804D0C719AF42EED300E0029E3046BB
:10E1E000FEBDF8B50024B0FBF2F5EDB2B1FBF2F0E4
:10E1F0000646F6B202FB1011002901D0761CF6B2D9
:10E200002F4600E07F1C3846C0B27119884207DAF9
:10E210003846C0B200F096FCFF28F3D14FF0FF342F
:10E220002046C0B2F2BDF8B5A0B006460C4617466F
:10E230001D4602E0C0F181008619A64221D280224B
:10E240006946304600F01AFC0021284601E0491CCE
:10E25000C9B28029EEDA0122002301E05B1CDBB2A7
:10E26000834209DAEC4603EB010E1CF80EC017F8E6
:10E2700003E0F445F2D00022002AE8D08E1930469F
:10E2800000E0002021B0F0BD2DE9F84FDFF8A474C4
:10E290003B68B2FBF3F4A3468D186D1EB5FBF3F992
:10E2A00012F0030F04D1D94502D3B9F1590F02D3AB
:10E2B0004FF0FF3045E0012603FB142280460C4658
:10E2C000154602E000250BF1010B5846C0B281450E
:10E2D00031D33B689BB23A1D00215846C0B200F0D2
:10E2E000E5FB002827D15846C0B200F02BFC0028DF
:10E2F00021D1D7F800A0AAEB050A1FFA8AFA5445E3
:10E3000002D2A2461FFA8AFA381D421951464046E7
:10E3100000F01DFB00280ED03B689BB23A1D002187
:10E320005846C0B200F0F3FB002804D1D044B4EB4F
:10E330000A04C7D10026002E02D04FF0FF3000E0C3
:10E340000020BDE8F28F2DE9F04192B006468846E4
:10E350000922DFF8E41301A800F078FC01AF3120B6
:10E360003872082207A9002000F088FB07A800F0F7
:10E3700039FC01284DD12C2207A9002000F07EFB9A
:10E38000092301AA0D990020FFF74DFF040040D09A
:10E3900032203872092301AA0D9904F10900FFF710
:10E3A00042FF050035D02D1B093508F12C0804AAC1
:10E3B0000C21404600F0CBFA00282AD0E81C800847
:10E3C000800005990C39884223D108F10C0804AA71
:10E3D0000921404600F0BBFA00281AD031203872DB
:10E3E000092204A901A800F06DFC002811D12246E1
:10E3F00029464046FFF748FFC0B2002809D1FC205B
:10E400008DF800006A46012136031036304600F0D0
:10E41000CCFAFF2012B0BDE8F0812DE9F0419AB0AE
:10E420000025DFF818030078FF2803D000F05BFA1E
:10E43000002853D14FF0FF3097E0FC208DF8040006
:10E4400001AA012104F1110000F0AFFA3CE03246CC
:10E450002046FFF748FE804601AA012110373846C2
:10E4600000F0A3FA5FFA88F8B8F1000F35D1760B07
:10E4700000200090089B0246AE4801683046C0B2BA
:10E4800000F071FC04998842D7D1FE208DF8040079
:10E4900001AA01216803113000F087FA012301AAC3
:10E4A00011213046C0B200F032FB9DF81A0001285D
:10E4B00005D0002803D0032801D0072804D100F09C
:10E4C0003DFA099800F082FBFC208DF8040001AAB7
:10E4D00001211034204600F068FA6D1C2846C0B2B5
:10E4E000FFF73CFE05003DD42F030DAA342138462A
:10E4F00000F02DFA9DF84400FE28EED19DF8400072
:10E500000328EAD19DF841000128E6D19DF8450095
:10E51000FC28E2D0189C1398001989498842DCD263
:10E52000FC208DF8040002AA2C21204600F00FFAEE
:10E5300008992046FFF73AFE064616F1010FCCD0A7
:10E540000998B042C9D308998A198242C5D3B1F556
:10E55000805FBFF47CAF02AA21462846FFF7F3FE96
:10E56000804679E700F0EAF900201AB0BDE8F081B2
:10E57000F0B58DB006463446E4B265032F46082256
:10E5800002A9384600F07AFA02A800F02BFB012815
:10E5900050D12C2202A9384600F070FA9DF81A00DA
:10E5A000012803D0032801D0072843D1089B002B62
:10E5B00040D013F1010F3DD0624883423AD217F1A7
:10E5C000010F37D00998B84234D3DF19874231D3CD
:10E5D0009DF8141003292DD19DF81510012929D17A
:10E5E0009DF81910FC2925D0FF291FD1FE208DF898
:10E5F00004000020009002464E4801683046C0B238
:10E6000000F0B1FB07460498874202D0FC208DF849
:10E610000400012201A91135284600F062FA04988D
:10E62000874207D1099800F0D1FA03E0FE2901D111
:10E6300000F0CCFA761C572C9DDB00200DB0F0BD0D
:10E6400038B58EB03D480078FF2820D000F04BF957
:10E6500000281CD001AA3421002000F078F99DF890
:10E660001500FE2813D10C9D07994819344A904291
:10E670000DD22846FFF79AFD044614F1010F06D08B
:10E680000898A04203D307990A19824201D20020B8
:10E6900023E022462846FFF726FD00281AD1640B06
:10E6A00000200090079B0246224801682046C0B225
:10E6B00000F059FB039988420CD1FE208DF8000030
:10E6C00001236A4611212046C0B200F020FA0898C2
:10E6D00000F07CFA00F032F900200FB030BD80B5B8
:10E6E000FFF79BFE0020FFF743FFBDE80140A7E7CF
:10E6F00010B5002080F314880F4C607B0F49087020
:10E70000FF2802D1A82000F061FAA07A0E49087013
:10E71000E07A0E490870207B0D490870FFF7DCFC99
:10E7200004490860FFF7DBFF00F06CFA002010BD21
:10E7300030240340E40F00209CF50A00E00F002085
:10E740000100100001000B00E10F0020E20F00208B
:10E75000E30F0020012101FA00F0704908607047C2
:10E76000012101FA00F06E49086070476D48007899
:10E77000F6E76C480078EDE71CB5B9208DF800008D
:10E78000FFF7F4FF0121684600F0D9FB441EA441C5
:10E79000E40FFFF7EEFF204616BD1CB5AB208DF849
:10E7A0000200FFF7E3FF01210DF1020000F0C7FBBB
:10E7B000441EA441E40FFFF7DCFF200014D04FF407
:10E7C000C870ADF80000BDF8000004E0BDF800001E
:10E7D000401EADF80000BDF800000028F6D100F0A2
:10E7E0003FF8002800D00024204616BD000000009D
:10E7F00010B5FFF7BBFF04218BA000F0A0FB0028A1
:10E8000003D0FFF7B6FF002010BD0221464800F0FC
:10E81000ADFB0446FFF7ADFF2046401E8041C00F10
:10E8200010BD10B5FFF7E4FF002801D1002010BD96
:10E830003D493E48486002E002F1080048604A68ED
:10E840001068002807D00B781479A342F4D14B78D4
:10E850005479A342F0D1401E8041C043C00F10BD87
:10E860001CB5FFF783FF00F09FFBFFF782FFFFF768
:10E870007DFF01216DA000F062FB0121684600F0E0
:10E8800075FB0446FFF775FF002C04D19DF80000CE
:10E89000C007ECD402E06FF0010016BD002016BDE9
:10E8A00010B5002400E0641C2046C0B20A2805DA36
:10E8B000FFF7B7FF0028F6D1002010BD4FF0FF3062
:10E8C00010BD000010B5FFF751FF012158A000F066
:10E8D00036FB0446FFF74DFF002C02D06FF002001C
:10E8E00010BD002010BD10B511480178114800F08E
:10E8F00066FB0C48007810490968C96B8847FFF728
:10E9000038FFFFF74AFF040003D0FFF78AFF0446F1
:10E9100001E000F013F8204610BD000090200240F6
:10E92000A0200240E00F0020E84F002044F40A003D
:10E93000E30F002000093D00B401001080B5FFF78F
:10E940001BFFFFF7ADFFBDE8014000F089BB7CB5C0
:10E9500006460C461546FFF783FF002801D000202D
:10E9600076BD03208DF8000068463146090C4170E1
:10E970003146090A8DF80210C670FFF7F7FE042130
:10E98000684600F0DCFA002803D0FFF7F2FE002012
:10E9900076BD2146284600F0E9FA0446FFF7E9FE75
:10E9A0002046401E8041C00F76BDF8B505460C4696
:10E9B000164627E005F0FF00C0F580702746844228
:10E9C00000D9074602208DF8000068462946090C48
:10E9D00041702946090A817028468DF803007D1987
:10E9E000E41BFFF7C3FE0421684600F0A8FA0028E4
:10E9F00014D13946304600F0A2FA00280ED13E4428
:10EA0000FFF7B7FE002C0DD0FFF72AFF002803D137
:10EA1000FFF758FF0028CDD00020F2BDFFF7A9FE78
:10EA20000020F2BD0120F2BD90FFFF0005000000B4
:10EA300006000EE002684368024408305FEAC37CC7
:10EA400044BF4B445B1E52F804CB43F804CB091F70
:10EA5000F9D150F8041B0029ECD1704780B500F0C3
:10EA600035FB401E8041C043C00F02BD80B500F0A1
:10EA700029FB401E8041C043C00F02BD70B5044653
:10EA80000D461646FFF7F2FF411E8941C90F03E00C
:10EA900014F8010B05F8010B3046461E0028F7D18B
:10EAA000002901D0FFF7DAFF002070BD70B50C46D9
:10EAB00015461E4604EB4034FFF7D8FF401E804148
:10EAC000C00F03E014F8011B05F8011B31464E1E70
:10EAD00089B20029F6D1002801D0FFF7BFFF00203E
:10EAE00070BDF8B504460D46164600F03FF80746DF
:10EAF00032462146284600F0F6FA0446384600F031
:10EB00004EF8002C01D10020F2BDFF20F2BD2DE90E
:10EB1000F04104460D4616461F4600F027F8804691
:10EB20003A4605EB44352946304600F0DCFA044607
:10EB3000404600F034F8002C01D1002000E0FF2016
:10EB4000BDE8F08138B5044600F010F805466403CE
:10EB5000204600F0BFFA0446284600F020F8E4B250
:10EB6000002C01D1002032BDFF2032BD70B5114C08
:10EB7000114D28462168896888470646C0B200289A
:10EB80000AD000212846226852689047284621680A
:10EB9000896888470028F9D13046C0B270BD002886
:10EBA00005D001210448034A126852681047704793
:10EBB00000000000D80100100040034080B500F0C4
:10EBC00081FA401E8041C043C00F02BD01B4001D48
:10EBD000009068460268D2F80020D0F800D01047B4
:10EBE00001B07047072101E0491E49B2002907D44E
:10EBF00010F8012011A35B5C9A42F5D00020704709
:10EC00000120704780B5FFF7D9FF4FF0FF32002198
:10EC10000846BDE8084000F073BA0000072101E093
:10EC2000491E49B2002907D410F8012005A35B5CF6
:10EC30009A42F5D00020704701207047434331339A
:10EC4000783252314F4144204E564D3162B38B07DA
:10EC500008D0521E11F8013B00F8013B00F024805F
:10EC60008B07F6D1830740F0208000BF103A07D30E
:10EC700030B4B1E83810103AA0E83810F9D230BCFE
:10EC8000530724BFB1E80810A0E8081044BF51F8AA
:10EC9000043B40F8043BD20724BF31F8022B20F894
:10ECA000022B44BF0B7803707047083A07D3B1E8D2
:10ECB0000810083A40F8043B40F804CBF7D2530759
:10ECC000E4E700000300002013F0030F09D0521EF8
:10ECD00022BF13F8010B11F801CBB0EB0C00F3D0FD
:10ECE0007047121F22BF53F8040B51F804CB604544
:10ECF000F7D0121D0AD200BA9CFA8CFCB0EB0C00C3
:10ED000038BF6FF0000088BF01207047521E22BF3D
:10ED100013F8010B11F801CBB0EB0C00F6D0521C2C
:10ED200008BF10467047000010B4002805D100202D
:10ED300008E013469BB2CC5CC45413465A1E9BB2E7
:10ED4000002BF6D110BC7047082107E0024652089C
:10ED5000C007104601D5694A5040491E0A46D2B242
:10ED6000002AF3D170472DE9F04F85B014461D46B7
:10ED700002460392002D10D015F1010F0DD09DF821
:10ED80003820012A02D15E4A954206D29DF83820E9
:10ED9000002A04D15B4A954201D30020ABE05A4FD0
:10EDA00001919DF83810002908D14FF48072019923
:10EDB000484301463846FFF7B7FF05E04FF480733C
:10EDC0003A460021FFF772FE6D1E0198B5FBF0F187
:10EDD00003984018C0B20290019800FB11556D1CB9
:10EDE000ADB200954FF0FF3503A890F80080ADF864
:10EDF000104003E008F101085FFA88F802984045E6
:10EE000075DB804511D10098C011009901EB1061AC
:10EE1000091289465FFA89F90098B0EB01200AD0FF
:10EE200009F101095FFA89F905E0DDF804904FEA7C
:10EE300019295FFA89F90026A9F1010A12E0711C6B
:10EE400009024046FFF732FE0AE056454FF4807350
:10EE50003A46F4D1002108F10100C0B2FFF726FEC6
:10EE6000761CF6B24E45C5DA564514D10298804557
:10EE700011D10098C011009901EB1061091200989E
:10EE8000B0EB012004D0009CA4EB0124A4B204E068
:10EE90004FF4807401E04FF480740398804506D1EC
:10EEA000002E04D1BDF810B00BF10C0B0CE04FF0AC
:10EEB000000B09E0385C684000F0FF00FFF744FFFA
:10EEC00080EA15250BF1010B584680B2A042F1DB18
:10EED0009DF838000028B8D14FF480720199701C59
:10EEE000000201FB08013846FFF71EFFB8E74FF0AC
:10EEF000FF304540284605B0BDE8F08F2083B8EDCF
:10EF00000100100001000B00F04F0020001D0168FF
:10EF100041F00201016070471430026822EA0101E9
:10EF20000160704720300160704701205D49086032
:10EF300070475D480068400800F0010070477CB5EC
:10EF400005460C46594E002C0DE015F8011B4FF0FC
:10EF5000804032685268904769464FF0804032687E
:10EF6000D2689047641EF0D1002076BD7CB505467E
:10EF70000C464E4E09E069464FF080403268D26838
:10EF80009047009805F8010B641E002C0AD0002160
:10EF90004FF080403268926890470028EBD14FF0E4
:10EFA000FF3076BD002076BD80B569464FF08040C9
:10EFB0003E4A1268126990470028F6D101BD7CB51F
:10EFC00004460D463A4E0620716849698847062076
:10EFD00000F02DF90128FAD14FF4A0607168C969D9
:10EFE0008847FFF7A2FFFFF7A4FF0028FBD04FF4EC
:10EFF00080707168C9698847FFF797FFFFF799FF2D
:10F000000028FBD00F214FF08040FFF785FF032140
:10F010004FF08040FFF786FF082001900094002306
:10F020001A4624494FF0804034692468A04700956F
:10F030004FF0FF3320480278204801784FF080409D
:10F040003468646CA0474FF08040FFF75FFF69466B
:10F050004FF080403269126990470028F7D173BDA4
:10F0600010B5174C4FF480702168096A8847FFF784
:10F070005CFFFFF75EFF0028FBD04FF4A060216823
:10F08000096A8847FFF751FFFFF753FF0028FBD0BD
:10F090000620216889698847062000F0C8F8022800
:10F0A000FAD110BD2820086028200840C4010010B3
:10F0B000B4010010006CDC02E10F0020E20F002020
:10F0C000B8010010EFF3108072B67047EFF31080B4
:10F0D00062B6704780B508490A6853699847074A7D
:10F0E0000021116002BD38B5034B1C68A569A84713
:10F0F000024A0021116032BDA80100108404604260
:10F100002DE9F047344D334F304C344E814628685A
:10F110008A46810744BF3248E86032480021904661
:10F12000016027203A6821688A699047316B2E4830
:10F13000014031634FF48060B16F21F48071B16799
:10F1400021680A6B904721680A6B4FF481609047F1
:10F1500021680A6B4FF4C060904724491A4A012085
:10F160000860C2F800A030602868810707D418F151
:10F17000010F06BF4FF04040E860C5F80C803868CA
:10F18000F0698007FCD5072000F034F80228FAD196
:10F19000B9F1000F12D1216A154D8A6828469047AF
:10F1A0000428F8D0012804D1226A53680321284694
:10F1B0009847074801688908890001602068816BC9
:10F1C000BDE8F047084700008C210840B801001056
:10F1D000242208402C200940100009400C2008403F
:10F1E000FD0000400C400940FFFFFEFE28200860A3
:10F1F0000040034030B51C4B1A685B6D0021C50709
:10F2000004D5D40701D45B0700D50121830703D5BA
:10F21000540804F001042143400703D5920802F08A
:10F220000102114309B1012030BD022030BD30B5CB
:10F230000D4B1A685B6D0121C50704D5D40702D4B4
:10F240005B0758BF0021830703D5540804F001046D
:10F250002140400703D5920802F00102114009B194
:10F26000012030BD022030BD4021084038B544485F
:10F27000444C056815F1010F08BF002500F0BEF8E9
:10F28000414900200860206C816C88473F4A106823
:10F2900020B13F490868284600F02AF83D4900207F
:10F2A00008603D493D480A686FF31B4202430A600B
:10F2B0003B490868C0F30130012806D10A68394883
:10F2C000024042F400330B600A600120364DE861D1
:10F2D000142021680A6A90473448354A016841F48D
:10F2E000E02101600121296010680028FCD131BDB6
:10F2F000F8B504462F4841688A0705D401682E4AAC
:10F30000090C41F0F00111704FF001212B4B2C4AF8
:10F310002C4E2D4F19601588856831680A6828467B
:10F32000904705F04070B0F1807F03D1397841F00B
:10F3300002013970294632685368204698472348AD
:10F34000234A0068010B01F03F011170C10502D58D
:10F350004022FA7402E01F4A40211170800900F037
:10F3600038001D4940F46050088028463268936890
:10F370009847022000F04AF8184901200860F1BDC2
:10F380001C130050B0010010840460428001284327
:10F39000800520438C2108404820034000003901AB
:10F3A00028000940EFFFFCFC000024430020094036
:10F3B0000C006842AC4F00505662084004A40C4058
:10F3C00000A00C40F0010010096208400C1400502D
:10F3D0000EB00C402C6208406AB00C4094046042AD
:10F3E00005490968C1F30F314BF677324FF0FF3012
:10F3F000914208BF052070471813005080B5FFF7F1
:10F40000EFFF052800D101BDFEE7000030B50A4935
:10F410000A4A09E0CC5C0D5C094B2344AC422CBF8A
:10F4200013F8013C5B78136013685468A342FCD165
:10F430008342EFD130BD00BFCCF50A0000600C4024
:10F44000D0F50A0000002000C215000000001000E6
:10F45000C214000000000002EF18000000000001CC
:10F46000EF17000000008000EF16000000004000D1
:10F47000EF15000000002000EF1400000000100055
:10F48000EF130000000004009D13000000000000C6
:10F490000000000030B4002512E050F8042BD30720
:10F4A00044BF4A44521E091F042942F8045BFAD2A1
:10F4B00013468C0744BF15809B1CC90748BF1D70AD
:10F4C00050F8041B0029E8D130BC704710B507493B
:10F4D00079441831064C7C44163404E00A68081D4F
:10F4E000114488470146A142F8D110BD2C0000000C
:10F4F0004C0000004EF68851CEF20001086840F43E
:10F5000070000860BFF34F8FBFF36F8F4FF0017033
:10F51000E1EE100A704700007DFFFFFF0C40000085
:10F52000E40F0020000000000BF5FFFF04000000C6
:10F53000A4000000E00F0020000000000120C046F1
:10F54000002801D0FFF7C2FFAFF300800020AFF327
:10F550000080FFF7CDF800F000F800F001B80000DF
:10F560000746384600F002F8FBE7000080B5AFF32D
:10F570000080024A11001820ABBEFBE72600020003
:10F580000548014603B4684680F30988AFF300805C
:10F59000FFF7B0FFFFF7D2FFA5EDF5FE5054564F31
:10F5A0005349474E35070A08090B5054564F5349E3
:10F5B000474E360080B5FFF759FEFFF7E1FFBDE883
:10F5C000014000F001B8FEE7FEE7FEE7010200039C
:08F5D00002000103FFFFFFFF31
:10FFA80000008001100080FFFDFF58003AC1B9F33E
:10FFB800FFFFFFFFFFFFFFFFFFFFFFFFFFFFFFFF49
:10FFC800FFFFFFFFFFFFFFFFFFFFFFFFFFFFFFFF39
:10FFD800FFFFFF00FFFFFFFF00FFFFFF00C5C5FF9A
:10FFE800000000FF00E00A00FFFFFFFFFFFFFFFF28
:08FFF800FFFFFFFFFFFFFFFF09
:04000005000AF58177
:00000001FF
