:100000004343323678325231FFFFFFFF0301F7FFDF
:10001000FFFF0701FFFFFFFFFFFFFFFFA80000003A
:100020003030303133F503002C00FFFF01F7FFFFC4
:080030000000000000000000C8
:1000A800004001209DEE030039FB021039FB0210CD
:1000B80039FB021039FB021039FB021039FB021020
:1000C80039FB021039FB021039FB021039FB021010
:0C00D80039FB021039FB021011FB021072
:1010000001000000000000000000000000000000DF
:10101000FFFFFFFF5C2E0020040000000000000026
:10102000000000001400000064160000180000001A
:10103000D0140000C0100000C82D002004000000E3
:101040000000000000000000240000005015000017
:10105000180000003542030008000000B011000035
:1010600074100000C1C8021001BB021091EB021005
:10107000DDE5021081E00210B9E5021071E5021011
:101080003100000001000000010000007C1600009B
:1010900000000000FFFFFFFF342E002004000000CE
:1010A0000000000000000000280000003C160000C6
:1010B000240000001E0000001800000000000000D6
:1010C00028130000D41000009BEC021025E202104F
:1010D00005EB021025DE0210FDE10210E1E4021032
:1010E0002F00000034000000240028000000000051
:1010F000A82D0020FFFFFFFF7C2E00200400000031
:10110000000000000000000038000000F0160000A1
:101110002800000001000000100000000000000096
:1011200000000000F7F1021000001A00100000009B
:101130000400000054170000262A020008000000E6
:10114000360000003C2E0020842E002009001D00E7
:10115000EB4C0100D02D0020010000000000120027
:10116000FFFFFFFF6C2E00200400000000000000C5
:101170000000000010000000B4160000180000007D
:101180000000000000001300FFFFFFFFE42E00201E
:1011900004000000000000000000000054000000F7
:1011A000181700003C000000000001002D000000A6
:1011B0000410000067B101003000000000000000D2
:1011C000B0110000D8110000A1C80300D9DB021043
:1011D00059EC0210CDD6021085DE02104DE502104A
:1011E00029E5021030000000000016000000000099
:1011F00000000000FF7F0000EC2E0020FFFFFFFF3B
:10120000642E002004000000000000000000000028
:1012100058000000801600003400000039FB021066
:1012200001002F0006000000000000002000000068
:10123000010000001BF80210280000002813000025
:101240005012000093EC02106DEB02104DEC0210F6
:1012500029E00210BDE4021099E402102D00000004
:1012600000000000102E002004000000000000001C
:101270000000000010000000681500002C000000B5
:10128000000000000000030000000F003C00000010
:1012900000000000000000002FF902101000000004
:1012A0000800000064170000FFFFFFFF742E0020FD
:1012B0000400000000000000000000001C0000000E
:1012C000CC160000240000003C120000C02D0020BD
:1012D0000400000000000000000000000C000000FE
:1012E000D814000018000000B7DE01000000000064
:1012F00000000000080000000100000004000000E1
:10130000000000000000140000000000C8330000CE
:10131000000019000000180024000000D5EF0300B1
:101320000040000000020000041000000000100057
:1013300055F002100C0000006B420300000000009A
:10134000A02D0020040000000000000000000000AC
:1013500020000000A014000030000000E033000076
:10136000010000002B4303000360010000000000A7
:101370000000170000020000310000000000230000
:101380000000150001000000C01100002C2E0020FC
:101390000400000000000000000000002000000029
:1013A000181600002400000010450300202E002025
:0813B000200000007817000086
:1013C000AD410300BF430300C3430300C743030011
:1013D000CB430300CF430300D343030071C7030093
:1013E00025C803002DC7030071EF030053EF03006E
:1013F000FDC7030009C80300A3EF030059C8030099
:10140000D9C90300EDC90300012800000000000055
:10141000000000000001003000000000000000009B
:101420000003FF186400000000000000000000003E
:101430007856341200000000BAAB00000000000132
:10144000000000000000000000008001100080FF8C
:10145000FDFF58003AFFBBF3FFFFFFFFFFFFFFFF59
:10146000FFFFFFFFFFFFFFFFFFFFFFFFFFFFFFFF8C
:10147000FFFFFFFFFFFFFFFFFFFFFFC5FFFFFFFFB6
:1014800000FFFFFF00C5C5FF000000FF00000000D7
:10149000FFFFFFFFFFFFFFFFFFFFFFFFFFFFFFFF5C
:1014A000300000000000000000000000C814000030
:1014B000040000000000000001000000FFFFFFFF2B
:1014C000FF00000001000000080000000000000014
:1014D00000000000000000001800000000000000F4
:1014E00000000000E81400000800000000000000F8
:1014F000100000002813000008150000CDEF0300C5
:10150000B945030041450300F54303004944030086
:10151000D94303002E000000F4140000082E002020
:101520000400000000000000000000002000000097
:10153000381500001800000018000000000000002E
:101540000000000048150000080000000000000036
:1015500018000000000000000000000060150000FE
:1015600008000000000000002C0000000000000047
:10157000000000008C1500000400000000000000C6
:1015800001000000FFFFFFFFFFFFFFFF080000005A
:1015900000000000B0110000AC150000A1C903005C
:1015A000B1C90300CDC90300C1C903008B440300C6
:1015B000B5440300694403003200000094150000A4
:1015C000182E0020040000000000000000000000B1
:1015D00014000000DC1500001C0000001C000000CE
:1015E0000000000000000000F015000000000000F6
:1015F000080000000000000001000000035F000080
:10160000D1EF0300EB270100075F00000B5F000034
:10161000F75E0000155F00002400000000000000DD
:101620000000000034160000000000000000000070
:10163000000000000800000000000000240000007E
:10164000000000000000000058160000000000002C
:101650000000000000000000080000000000000082
:101660000A00000018000000000000000000000058
:10167000741600000800000000000000D56700009C
:10168000340000000000000000000000AC16000064
:101690000000000000000000010000000000000049
:1016A0000100000000000000000000000800000031
:1016B0000000000018000000000000000000000012
:1016C000C416000008000000000000002400000014
:1016D0000000000000000000E8160000000000000C
:1016E00001000000000000000800000000000000F1
:1016F000280000000000000000000000101700009B
:101700000000000000000000FFFFFFFF00000000DD
:1017100008000000000000003C0000000000000085
:10172000000000004C170000000000000000000056
:1017300001000000000000000000000000000000A8
:101740000000000001000000000000000800000090
:1017500000000000A543030025DD021005C70300BB
:1017600075DF021001000000000000000000000012
:10177000000001000000010015F9021001E602104E
:101780002DDA021045E7021041D10210C9D3021030
:10179000A5DF02102DE4021061EA02105DC903000A
:1017A00005000600080009001600020102020302FB
:1017B000000301030105020500060106040B1406DF
:1017C00015061706000701070207030700090409A9
:1017D00007000A000C000D000E000F0010001100A1
:1017E0001200130014001B0000010101000201029D
:1017F00002040004010403040404050406040005B3
:10180000020603060406050606060706080609067C
:101810000A060B060C060D060E060F06100611062C
:101820001206130604070009000B010B020B030B41
:1018300053554E004D4F4E005455450057454400FA
:10184000544855004652490053415400464F4F00FA
:101850004A414E00464542004D415200415052001F
:101860004D4159004A554E004A554C0041554700DC
:10187000534550004F4354004E4F560044454300DB
:101880004C180000501800005418000058180000B0
:101890005C18000060180000641800006818000060
:1018A0006C18000070180000741800007818000010
:1018B0007C1800000097B92EE5725CCB5DCAE4731A
:1018C000B82F0196BA2D03945FC8E671E7705EC920
:1018D0000295BB2CE3745ACD0691BF28BE29079010
:1018E0005BCCE27559CEE077BC2B05920493BD2A00
:1018F000E17658CF51C6E87FB4230D9A0C9BB522F0
:10190000E97E50C7EB7C52C50E99B720B6210F98DF
:1019100053C4EA7DB2250B9C57C0EE79EF7856C1CF
:101920000A9DB324089FB126ED7A54C355C2EC7BBF
:10193000B027099EA2351B8C47D0FE69FF6846D1AF
:101940001A8DA334188FA136FD6A44D345D2FC6B9F
:10195000A037198E41D6F86FA4331D8A1C8BA5328F
:10196000F96E40D7FB6C42D51E89A730A6311F887F
:1019700043D4FA6DF3644ADD1681AF38AE3917806F
:101980004BDCF26549DEF067AC3B15821483AD3A5F
:10199000F16648DF1087A93EF5624CDB4DDAF4634F
:1019A000A83F1186AA3D13844FD8F661F7604ED93F
:1019B0001285AB3C510010000000005500100000E3
:1019C0000000670018000000006F00180000000011
:1019D000040042000000004300230000000000005B
:1019E0007C8E00203C860020688D00201C87002013
:1019F00000000000D08A0020848E00204C8B002044
:101A0000788D00204888002090340000C834000001
:101A1000D8340000E4340000F4340000888D002045
:101A2000748F0020788F00207C8F0020EC30002005
:101A3000808F0020848F0020888F00208C8F0020D2
:101A4000908F0020988D0020B08600203C8C0020D4
:101A5000748800200435000078350000EC35000063
:101A600060360000D43600004837000060370000C0
:101A70006C370000BB900020208E0020F03000204A
:101A8000688B0020AC890020BC900020BD90002015
:101A9000E8870020508C002078820020BE90002033
:101AA000802000000821000000000000000000006D
:101AB00078370000207F0020948F0020988F00202E
:101AC00004310020083100209C8F0020883700005E
:101AD000E88B0020E48200200000000000000000ED
:101AE000DC1B0020000000000000000000000000DF
:101AF000000000005087002048790020C88E002098
:101B0000014A031049480310D54903101547031033
:101B10000FB403005D49031081470310A146031071
:101B20009548031045450310254A0310214403102E
:101B3000ED47031099490310E148031021490310B0
:101B40005553031089520310CD52031065500310F2
:101B50008D4E0310A9A9030093AA030011AD030041
:101B60000000000059510310ED500310B1AE030006
:101B7000CD4B03102952031011530310A955031024
:101B80007555031069530310DD55031035550310C7
:101B900063BC030021540310855C03100D56031031
:101BA0004D5D0310A9640310B55B03106D5703105E
:101BB000E5610310095E0310C5580310856003102A
:101BC00071610310B1620310996303105563031030
:101BD000FD600310B15E03102DB30300D55A03104E
:101BE000D559031009630310D96303101964031056
:101BF000555F0310C56403104D6203107164031038
:101C00008D64031055640310E164031029750310FB
:101C100079720310A16B0310F57203109D74031009
:101C2000797403102D74031061730310FD73031096
:101C30005574031015750310D96C0310FD7403104F
:101C400029BA0300E17403103D75031091BB030032
:101C5000F9640310CD6803102D710310C1740310D3
:101C6000F56E0310B973031029670310056E031096
:101C7000C56F03103DBD0300A1770310797D0310EC
:101C80003D7E031049750310157E0310357D03104A
:101C900099760310997C0310257B0310717803104B
:101CA000B57D0310ED7C0310857E03102D790310A4
:101CB000B97A0310917B0310B1790310ED7B031007
:101CC000E97D0310617E0310357A0310D57E031081
:101CD000457C0310A57E0310BD7E031067A803009A
:101CE000D9800310E97E031049830310898403100F
:101CF0008D8103107D820310E58403102B84031073
:101D0000C583031091870310618803104588031071
:101D1000F1850310B18803107D880310C988031072
:101D20001D870310A186031001850310E1880310AD
:101D300099880310F9870310FFB80300359C03103E
:101D4000819D0310E99A0310359B0310C19B03107A
:101D5000419A0310F18803101D8C0310618F03104A
:101D6000F1940310919E0310C19E03103D9E031039
:101D7000699E0310259E0310619D03100D9E0310A4
:101D8000819B0310ED93031055990310C99703101D
:101D9000D9980310BD950310959C0310C19D0310A5
:101DA000A59E03107D9E0310C991031071B8030016
:101DB000699C0310DD9D031095900310FD9B03109B
:101DC000CD990310158E0310019D0310E19C0310A3
:101DD000219D0310419D0310BD9C0310F59D031030
:101DE000A19D031055980310E1920310999A0310D6
:101DF000B99E0310559E031091A60300DFA60300B1
:101E000039A2031003A7030069A1031075A20310F0
:101E1000C59E0310B9A10310F9A1031015A1031069
:101E20009DA20310F1BD0300F9BD0300FBBD03003B
:101E300039BE03004DBE030053BE030031A9031099
:101E4000ADA2031049B10300B9A8031099A503106E
:101E500043AC030039A803106DA9031051AB030074
:101E60006DAC031099B1031009AF031059B1031001
:101E700001B103109DA90310D9B4030045AB0300C1
:101E80004DAB0300DDB40300E1B4030049AB030034
:101E9000E5B40300E9B40300EDB40300F1B40300BA
:101EA000F5B40300F1B9031075BA031081BB031038
:101EB00029C0030061C0030041C10300E1C1030068
:101EC000CBC2030009C303008FC30300BDC30300DB
:101ED0001DC4030051C4030073C4030091C4030074
:101EE000F3C403003FC5030047C5030081C50300D9
:101EF00003C603001BC60300A5C6030025AB0300F1
:101F0000D1B40300D5B40300F9B4030011B7030042
:101F1000E9C60310CDB40300BDA3030031A603003E
:101F20003D960000D79600007196000097F30200DE
:101F3000252E02002DA6030027A703002BA70300D0
:101F40002DA70300C3A70300156400002B64000045
:101F50001164000013640000E1630000D9EF030086
:101F6000E5EF0300475F00006F5F0000B96100000C
:101F70004D6100007B6100004D620000396200008D
:101F8000316000008D5F0000796200008360000016
:101F9000DBFD0210D51E010059670000F56200004C
:101FA000D36300006DF9000093F90000C5F900004B
:101FB000A7F9000055310020C2900020C3900020F6
:101FC000C1900020C4900020C59000205631002010
:101FD0003B3502008B65020079A8020057540200CD
:101FE000C7540200D5A9020041AA020031550200DF
:101FF0007F54020033540200F354020005A802008B
:10200000FDA70200D55C0100A95C01008BBC0200A9
:10201000D5A702003BA8020049A8020057A8020069
:10202000F35A0100B3580100B15B01006F5C01007D
:10203000B1BF030047A9020035BC020041BC020049
:1020400000000000CDAC0200FBA702000DAC0200B6
:102050009FAC020000000000AF35020019620200D0
:10206000E7680200E15A01000000000000000000E3
:10207000A16D020071A60200795B01004DBC020057
:10208000360001000600000000000000000F000004
:10209000000000000000000000000000000003003D
:1020A000FFFF00000403FFFF0000FFFF0F00E80335
:1020B0000005401F0310000100000000FF3F0F005B
:1020C0000800050B00000000000000000300010FE5
:1020D0000000000000000000000000000000000000
:1020E00000000000000000000000000000000000F0
:1020F00000000000000000000000000000000000E0
:10210000AD000002000000000001363601010001B0
:102110000201000103010001040106060804000099
:102120000C0100340D01000F10040101140100FF27
:102130001608000020020000220100FF2301000118
:10214000240100FE250100082602000028010001EC
:10215000290100012A0200002C01000F2E020000BC
:102160003001000131010008320200FF3401000794
:10217000350102FF3601000037010001380100017E
:10218000390100FF3A01000F3C0200FF3E01010F40
:102190003F0100014001041F41010001420100FF15
:1021A00043010080440800004E0100084F01000F69
:1021B00050010001510100FF5201000053010000D5
:1021C00054010001580400005C0400006004000099
:1021D00064040000680400006C0400007004000047
:1021E00074040000780400007C040000800100FFFB
:1021F00081010001820100018301020284010001CA
:10220000CF9602008199020000000000000000004B
:1022100000000000519F02006F9F0200B59E020067
:10222000899F0200B99F0200BF9F020091A1020096
:102230000000000087A10200A1A20200D39A0200C0
:10224000C59F0200E59F020075A002001DA30200C9
:102250005B9B020021A50200FDA40200000000001B
:102260009DA50200419B020045A402008547020093
:10227000A3460200DF47020091460200B146020079
:10228000474902004B4902004FB0020091AF0200E3
:10229000C9B0020071AF020083AF02001FB102009B
:1022A00023B10200B9530100C55301007C2C00206A
:1022B0002C2C002028300000403000005830000056
:1022C0000814000070300000903000000000000092
:1022D0005054564F5349474E310000000000000053
:1022E00000000000000000000000000000000000EE
:1022F00000000000000000000000000000000000DE
:1023000000000000000000000000000000000000CD
:1023100000000000000000000000000000000000BD
:1023200000000000000000003C0010010305070948
:102330000B0D0F00020406080A0C0DBFFB09707498
:10234000766F2E696E666F202020202020200B7073
:1023500074766F2E737769746368202020202000C4
:10236000202020202020202020202020202020206D
:102370000A323032352D30332D3035010000000067
:10238000000000000000000000000000000000004D
:10239000000000000000000000000000000000003D
:1023A000000000000000000000000000000000002D
:1023B000000000000000000000000000000000001D
:1023C000000000000000000000000000000000000D
:1023D00000000000000000000000000000000000FD
:1023E00000000000000000000000000000000000ED
:1023F00000000000000000000000000000000000DD
:1024000000000000000000000000000000000000CC
:1024100000000000000000000000000000000000BC
:1024200000000000000000000000000000000000AC
:10243000000000000000000000000000000000009C
:10244000000000000000000000000000000000008C
:10245000000000000000000000000000000000007C
:10246000000000000000000000000000000000006C
:10247000000000000000000000000000000000005C
:10248000000000000000000000000000000000004C
:102490005054564F5349474E3200000002576800CF
:1024A00002487A000270660002506100036B670008
:1024B000026C78000370706D056D63706D30000004
:1024C000056E63706D300000057073697A650000F9
:1024D000034552520173000000000000000000009C
:1024E0000000000001200000DD3D000000010000B0
:1024F00002200000DD3D000000010000032000007C
:10250000DD3D00000100000004200000DD3D000072
:10251000000100000500000009EC000000000000C0
:10252000060000000000000000000000070000009E
:102530001F7301000000000008000000676D030029
:10254000000000000000000000000000000000008B
:102550000A00000000000000000000000B20000046
:10256000756B0300100000000C0200003DC4020067
:10257000000000000D00000000000000000000004E
:102580000E200000DD3D0000100100000F200000C3
:10259000DD3D000010000000000000000000000011
:1025A000000000000000000000000000000000002B
:1025B0000000000000000000000000001300000008
:1025C000876701000000000000000000000000001C
:1025D0000000000015000000A357030041000000A8
:1025E00016000000A3570300500000001701000070
:1025F000876701000000000018010000736B0100F4
:102600000000000019000000DD450100000000008E
:102610001A000000DD450100000000001B00000062
:10262000577B0300100000001C010000F1EE0200C7
:10263000000100001D010000F1EE02000001000099
:102640001E000000F16F0300100300001F010000D6
:102650009BC002000800000020000000EBA2010067
:1026600000000000210000008B6401000000000059
:1026700022000000595D030010000000230000004C
:102680003DC4020000000000000000000000000047
:10269000000000000000000000000000000000003A
:1026A0002601000041620300100000002711000015
:1026B00045A003001000000028090000E35E0300AD
:1026C0000000000029000000ED960300100000004B
:1026D0002A6000002DE90200000300002B22000008
:1026E000756B0300100000002C0000004D9A0300E1
:1026F000100000002D0200004D9A030010000000A1
:102700002E01000003E50200000400002F0000007D
:10271000EDDF020000080000300000000D71030032
:102720001000000031010000000000000000000067
:10273000320100005F4D0300100000003301000073
:102740005D7803004300000034000000000000003A
:102750000000000035000000000000000000000044
:1027600036000000000000000000000037110000EB
:1027700075EC02001000000038320000DFA20300F8
:102780000000000039010000F1EE0200000100002D
:102790003A000000D97A0100000000003B00000070
:1027A00089670300130000003C00000000000000E7
:1027B000000000003D0000000000000000000000DC
:1027C00002040504030400040C000C040D042A0494
:1027D000040B02070A0011005054564F5349474E4C
:1027E00033BFFB07000503252000000000FFFFFFAB
:1027F000FFFF000000000000000000000000505437
:10280000564F5349474E34004F4144204E564D31A8
:1028100000000000000000000000000000000000B8
:1028200000000000000000000000000000000000A8
:102830000000000000000000000000000000000098
:102840005054564F5349474E3700000000000000D7
:102850000000000000000000000000000000000078
:102860000000000000000000000000000000000068
:102870000000000000000000000000000000000058
:102880000000000000000000000000000000000048
:102890000000000000000000000000000000000038
:1028A0000000000000000000000000000000000028
:1028B0000000000000000000000000000000000018
:1028C0000000000000000000000000000000000008
:1028D00000000000000000000000000000000000F8
:1028E00000000000000000000000000000000000E8
:1028F00000000000000000000000000000000000D8
:1029000000000000000000000000000000000000C7
:102910000000000000000000000000005054564F6E
:102920005349474E3800000000000000000020011D
:10293000724102000000000001002001724102000B
:1029400000000000020020017341020000000000AE
:1029500003002001EF3D02000000000004004201DE
:102960003D23000000000000050042014E2300004E
:10297000000000000600420170230000000000007B
:10298000070020017B23000000000000100042012E
:102990005F23000000000000110020019090002043
:1029A0000000000000404201702300000000000011
:1029B00000804201492800000300000000002103BC
:1029C0006C900020060000000000101100000000C4
:1029D0000700000000003033000000000700000086
:1029E00010003033000000000700000001402033D9
:1029F000000000000700000002402033000000003B
:102A00000800000000002033000000000A00000061
:102A10000000E233000000000A000000010018334B
:102A2000000000000C0000005500393300000000D9
:102A30000C0000001C0042330000000011000000E8
:102A40000400423300000000110000004300233363
:102A500000000000110000005100101100000000F3
:102A600011000000550010110000000011000000CE
:102A70006700181100000000110000006F0018111D
:102A800000000000120000005500210100000000BD
:102A9000140000000E004222000000001900000097
:102AA0000000F081FC2800201900000001002381B3
:102AB000042900201900000002002301BC8E002020
:102AC00019000000030021811431002019000000CA
:102AD000040023810829002019000000050021813D
:102AE0001631002019000000060030818E90002071
:102AF0001900000007002101689000201900000063
:102B000008002101669000201900000009002181C1
:102B10006490002019000000FDFF2181525A00003E
:102B20000004000000002104000000000204000076
:102B30000000290400000000030400000000290434
:102B4000000000000504000000002904000000004F
:102B50000C04000000003904000000000D04000017
:102B600000003904000000002A04000000003904BD
:102B7000000000000207000000002904000000001F
:102B800002070000000218055A6502000207000053
:102B900000033005000000000207000001032205C9
:102BA000002D00000207000002032205042D000092
:102BB00002070000030318010F540200020700007F
:102BC0000603180100000000040B000000001B05B4
:102BD000FC2C0000040B000000012905000000008F
:102BE000040B00000301290500000000040B000095
:102BF0000601290400000000040B0000000221056A
:102C00003A5D0000040B000001022105467200003D
:102C1000040B0000020221053A5D0000040B0000D5
:102C200003022105AE720000040B0000040221051E
:102C30003A5D0000040B000005022105C29500006A
:102C4000040B00000003210400000000040B00003E
:102C5000000421053A5D0000040B00000104210579
:102C600032960000040B000005052105000000005D
:102C7000040B00000805210500000000040B000003
:102C80000B05290400000000040B000010052804B7
:102C900000000000040B0000000621053A5D000062
:102CA000040B00000106210546720000040B000021
:102CB000020621053A5D0000040B00000306210511
:102CC000AE720000040B0000040621053A5D00000E
:102CD000040B000005062105B6720000050B00007C
:102CE000010021020000000001000401FEFF0000BD
:102CF00000000000000000000000000021000000B3
:102D000001000000E80300000000C84200247449EC
:102D10000A0000000200000004000000080000009B
:102D200010000000200000004000000080000000B3
:102D30000001000000020000000400000008000084
:102D4000001000000020000000400000E803000028
:102D5000D0D1D2D3D4D5D6D7D8D9DADBDCDDDEDFFB
:102D60005A6967426565416C6C69616E63653039AB
:102D70006A00780003850300438503005385030040
:102D80006C00F000ADEE0300EBEE0300FBEE030081
:102D90006B00F00069840300A784030053850300DF
:102DA0006600F00069840300A784030053850300D4
:102DB00067001400FB860300298703003B8703009C
:102DC00069001400B987030069880300E9870300DC
:102DD000EE28E8032D7C03005F7F0300517D030094
:102DE0002F00640091880300F788030029890300FD
:102DF00068000A00FD850300B586030035860300E0
:102E00006D0004000582030059820300098303005A
:102E1000640001000000000000000000C77F030004
:102E2000630001000000000000000000C77F0300F5
:102E3000620001000000000000000000C77F0300E6
:102E4000610001000000000000000000C77F0300D7
:102E5000700001000000000000000000C77F0300B8
:102E60000C380000288C0020A42A00200C38000018
:102E70002A8C0020B02A00200C3800002C8C002066
:102E8000BC2A00200C3800002E8C0020C82A00200C
:102E90000C380000308C0020D42A00200C380000B0
:102EA000328C0020E02A00200C380000348C0020F6
:102EB000EC2A00200C380000368C0020F82A002074
:102EC0000C380000388C0020042B0020D08B002010
:102ED000A8470300A0880020A94703000000024083
:102EE0000929FF00508A0020DC2E00000020050088
:102EF000004000002838000093900020EC2E0000D5
:102F000050380000FC8D0020202B00207838000075
:102F1000F87D0020482B002078380000187E002023
:102F20004A2B002078380000387E00204C2B0020EF
:102F300078380000587E00204E2B002078380000A2
:102F4000787E0020502B002000000000798F0000C8
:102F5000516D00000101010000000000FF000100B0
:102F600000000000000000009C380000E46C00201D
:102F7000542B00209C380000E46D0020942B00208E
:102F8000FF0000000000000080A90300A87F0020CF
:102F9000802F0000E8700020D42B002000000840A3
:102FA000E8030000B4380000C88800209C2F00000F
:102FB000000001401FFF000017000000001001404A
:102FC00021FF0100190000000020014023FF020042
:102FD0001B0000000030014025FF03001D00000021
:102FE0000000014020FF000018000000D8720020FF
:102FF000B02F00000000000024730020BC2F000050
:103000000000000070730020C82F000000000000C6
:10301000BC730020D42F00000000000008740020C2
:10302000E02F000001000000020800000000000086
:103030000000000000010100000053288C2C00203B
:103040000308000000000000000000000001650906
:103050000000000000000000012C00000000000043
:10306000000000000001001E000000000000000041
:10307000022C000000000000000000000000000022
:103080000000000000000000000000000000000040
:10309000032C000000000000000000000000000001
:1030A0000000000001500000D0070000BD890300AF
:1030B0003F8A0300518B0300021080005802000079
:1030C000998B0300698C03000D8C03000000000045
:1030D00000000000000000000000000000000000F0
:1030E0000100000000C20100030000000000000019
:1030F000E7CB00007DD000002BCC00004D4C000041
:10310000D9CC00005BD10000D9CC0000B3D20000C4
:10311000DBCC00004D4C0000D9CC00005BD100009E
:103120003FCD00004D4C00000000000000000000FA
:1031300079CE00004D4C00000000000000000000AF
:10314000C5CE00004D4C000071CF00004D4C00007A
:1031500075CF0000B5D4000091CF00004D4C0000A9
:10316000000000000000000000000000000000005F
:103170000000000000000000D3CF000009D60000CE
:10318000E9CF00004D4C0000D3CF000009D600006D
:10319000E9CF00004D4C000075CF0000B5D4000011
:1031A00019D000004D4C000013000000F113020084
:1031B0000000000097B100000100000097B100007E
:1031C000020000003B0A020002800000390A0200EF
:1031D00003000000590A0200040000009F0A0200D8
:1031E00004800000F70A020005000000F90A02004E
:1031F00006000000710B020030000000FB1002000E
:1032000031000000FD0E020033000000B511020085
:10321000340000005B12020011000000FD120200E9
:10322000140000005913020015000000CD0E02002A
:10323000FFFF0000000000008F0001004C31002063
:10324000870001004A31002035002800188900203D
:10325000280001002F31002029000100303100201A
:1032600084000400F88E0020860001007D1B0020F1
:103270002A000100313100202B00010032310020F2
:103280002C000100363100202D000800702D002098
:103290002E000100373100202F00010038310020BE
:1032A0003000010039310020320001009E900020E2
:1032B000330001009F900020340001003A310020CB
:1032C00036000100A0900020380001003B310020B2
:1032D0003900010035310020830002002431002034
:1032E00063000100A490002065000100333100203C
:1032F0006D000100A590002071000800548E002090
:1033000066000100493100204300010044310020E3
:10331000440002001A310020450001004531002020
:10332000460002001C310020470008005C8E00208F
:1033300048000100463100204B00010047310020C9
:10334000040001004B310020A10001005131002098
:103350003700010050310020880001004D3100206D
:103360003C0001003C3100203D0001003D310020C7
:10337000490002001E31002067000100A6900020D5
:103380004D000200203100204E0001004831002095
:103390004F000200223100203E0001004231002097
:1033A00051000100A1900020520001003F31002097
:1033B000530001004131002054000100A290002080
:1033C00000000000000000007B7374617469632DCD
:1033D000696E7374616E63652D6E616D657D00004D
:1033E0007B656D7074792D696E7374616E63652D84
:1033F0006E616D657D000000202E0020FFFFFFFF45
:10340000FFFFFFFF0A000000E7DD010002000000EF
:10341000E3D801000500000081DA01000700000088
:10342000F3D901000C000000BBD301000D00000027
:10343000D9D50100FF000000000000008E00000050
:103440008E0001008E0002008E0003008F0000013C
:103450008F0000028F0000038E0001048E00000523
:103460008E0008048E000004890000065000000051
:103470007F0001003F0004003F0002003F00010008
:103480007F0002008E0002048E0001028E00010106
:103490000000000002000000020000000A0000001E
:1034A0000200000002000100000000000000000017
:1034B000000000000000000000000000000000000C
:1034C000000000000E00000000A6AAACA4A9A9A359
:1034D00099B19ABCB6A800000204020101010109D9
:1034E00002000000313117191A21241B1D1F313130
:1034F00033310000313118191A22311C1E203131AC
:1035000034310000030071003001600011007000D0
:103510003102200350048000070010006100000009
:103520001400630073007200620043000000130087
:10353000060000000000040012000000000000006F
:10354000000004000400370037003C024400000083
:103550000000000000006500000035008100000050
:103560000500000083000000660000000000080065
:1035700009000A000B0000000101710101010101B5
:10358000110101013101010101018001000110015E
:1035900061013B0014006301730172016201430188
:1035A0000001130106013D01350004011201000173
:1035B00000010001000104010401330133013C0159
:1035C00044013201360000010001650100013500AF
:1035D00081010001050182018301000166010001F2
:1035E0000001080109010A010B0100000302710238
:1035F0003001600211027002010202020202800226
:103600000002100261023A0041006302730272027A
:1036100062024302000213023800000200020402A8
:10362000120200020002000200020402040237003B
:1036300037003C0244020002390000020002650229
:1036400000023502810200020502820283020002AA
:10365000660200020002080209020A020B020000D0
:1036600001037103010301030103010301032203A9
:10367000020301030003100300030003000300031F
:1036800000030003000342030003240306030003B6
:103690000003040312032503230325032303040368
:1036A0000403000300030003440300030003230397
:1036B00000036503210035038103000305030003B4
:1036C00000030003000325032303080309030A037F
:1036D0000B0300000304710402046004110470046D
:1036E0000204020401040204000410046104000442
:1036F0001404630473047204620443040004130496
:10370000060400040004040412040004000400047D
:103710000004510464000004000400044404000494
:1037200000040004000465040004350481046400FE
:103730000504000483040004660400040004080473
:1037400009040A040B04000000000500BD00B700D6
:10375000B100BC001C003000380008003801020035
:10376000000120181A18182C34041E000C0E020B2D
:10377000040B0A070800110F88B224008813000008
:103780001000000000000001C003000080070000DE
:10379000000F0000001E0000003C00000078000048
:1037A00000F0000000E0010000C0030000800700FE
:1037B00000000F0000001E0000003C000000780028
:1037C0000000F0000000F000000000000000000019
:1037D00000000000000000000000000000000000E9
:1037E00000000000000000000000000000000000D9
:1037F00000BE040A00BE0208303132333435363799
:1038000038396162636465660000000039CA0300EC
:1038100071CA030077CA030053CB03003FCC0300F7
:1038200099CC0300A1CC03003DCD030045CD03009E
:103830004BCD03007BCD030095CD0300E3CD03000A
:10384000FBCD03006FCE0300ADCE0300B5CE030069
:1038500045D10300D9D103004FD203007FD203002A
:1038600091D20300C7D20300DFD2030005D40300C6
:1038700049D4030055D403008DDC0300A7DC03000A
:10388000DDD90300DFD90300DDDA030085DA0300A8
:1038900021DB03006DDC030051DC0300D5DF0300F6
:1038A0004BE003003FE3030049E3030021E503008D
:1038B00041E8030079EC030081EC030083EC030092
:1038C00089EC030091EC030021ED030049ED0300B6
:1038D0005D40002189400021954000213B410021AD
:1038E000074C657900F009F861796940490703D50B
:1038F0000121044A8903116070BD70B5024908476F
:1039000080030021081104402D59000000F00AF83E
:1039100000480047577F000000F00AF800480047C1
:103920001B880000806B0C490007000F487170472E
:10393000094A0A4918235079CB56497EC01881425A
:1039400001DD084602E00F2800DD0F20D1890909BA
:1039500009010143D1817047E00200218800002164
:103960000122274B02212548184710B525488047DA
:103970002548406A00280DD124490A20085600280D
:1039800009DA401C07D008462038406A204988429E
:1039900000D1804710BDFFF7E3FF10BD00211E4B93
:1039A0001C4A0846184701201C49400208601C4870
:1039B000FB220178114001701248EC38004710B525
:1039C0001849884711492039012807D0020404D535
:1039D0000020088514484862012010BD4A6A094B3E
:1039E000EC3B9A4201D1114A05E007494A6A104B63
:1039F0009A42F2D10F4A4A6210BD00000608000048
:103A00009F060000A192020008010021540100213C
:103A100063920200E7400021B5B4020080E100E0BB
:103A200080030021F7960200DD40002123410021A0
:103A300069950200194100210102000302000103FF
:103A40002200000000002115110E0D0C0B0B0A0ABC
:103A500009090909090808080808080807070707E5
:103A60000707070707070707070000003031323351
:103A70003435363738396162636465666768696A08
:103A80006B6C6D6E6F707172737475767778797A0E
:103A90000000000070B504466569E678802000F0FB
:103AA000CFFA0A220321304600F014FB0146298098
:103AB000207A40F0040020726078BDE8704000F089
:103AC000C8BC00002DE9F04704462DED028B257897
:103AD00005F07F050E2D40F08580207AD4F814A0E3
:103AE000010711D5DFF8A02411880009C140CB07D8
:103AF0000AD4DFF898140144487A28B12046FFF729
:103B0000C9FF9FEDB50ABDE0BAF8029094F80380B2
:103B1000802000F095FA207A470807F0010787F027
:103B2000010700250026BF02400748BFBAF9007010
:103B30009AF804C000EE10CAB8EE400A10EE100A5F
:103B400000F08EFCDFF84824DFF8483400F0ACFCCD
:103B500000F080FD08EE100A00F098F800F096F8EA
:103B600000F0DFFD824612E0381A00B200280BD5C3
:103B7000404200B208E000F089F8217A8A0700B2DA
:103B8000F2D5B842B8BF002010FB0055761C00F0FB
:103B9000C8FDA0EB0A004845EDD3002E9FED8E0A2C
:103BA00070D0B5FBF6F000F0F7FD41EC100B00F023
:103BB00001FE53EC102B4FF06630DFF8DC1300F001
:103BC00073FC04460D4618EE100A00F049FC02464C
:103BD0000B462046294600F06FFE00F03BFD00EE4C
:103BE000100A4FE0E678032D1CBF042D012D01D1F2
:103BF000002000E0802000F023FA0F2D14BF0122E6
:103C000000220321304600F01CFA0F2D04D100EEF3
:103C1000100AB8EE400A35E000F072FF032D41ECC7
:103C2000100B04D100F07EFF00F06AFF1AE0F9D01B
:103C3000042D0FD153EC102BDFF86003DFF8601375
:103C400000F032FC00F06EFF00F05AFF0022DFF8B7
:103C5000543305E000F066FF00F052FF0022D24B23
:103C600000F02AFE00F0F6FC00EE100A207AC107F0
:103C700008D56069D0ED000AB0EE401A90ED010A57
:103C800001EE200ABDEC028BBDE8F087032140461F
:103C900000F01DBAFEB504462C200899C34D4443DC
:103CA0002819022904D10C2A15D1FFF7F3FE2CE0C4
:103CB00000F108067788974204BFB6889E420AD171
:103CC0000B0006D10C2A0CBF042102210A980180A6
:103CD0001BE0012901D00020FEBDFFF7F3FE8DEDB2
:103CE000000A295D099801F07F01012918BF022906
:103CF0000DD0032913D0042909D00E291DD00F2976
:103D0000E9D10422694600F0C0FF0120FEBDA849A8
:103D100000F019F81BB20193022201A9F3E7A549AB
:103D2000D1ED000A60EE200AFDEEE00A10EE902AC6
:103D3000ADF8042001A90222E5E79F4900F003F84D
:103D4000ADF80430E8E7DDED000A0A8800EE102A3D
:103D5000B8EE400A60EE200AFDEEE00A10EE903A5E
:103D6000704770B504462C214C43904D2E192DED13
:103D7000028B3046FFF7A6FE295D01F07F01032983
:103D8000B0EE408A0DD18B4890ED000A707828EE95
:103D9000000ABDEEC00A10EE101A09B201F032FAA4
:103DA00015E0295D01F07F000F2806D1012000F009
:103DB000B4FA68B180ED018A0AE001F07F01707801
:103DC0000E2902D101F085FA01E001F04CFA002041
:103DD000BDEC028B70BD0000000000002DE9FE4F1D
:103DE0008046764F4D79764911F808A0504600F08C
:103DF000FFF8814600F005F9002000F021F93A783B
:103E00006A492C2042438C186E4966696162012020
:103E100005F07F0584F8280040F6043161814FF4F5
:103E20008070032DA08106D140F202404FF00909B5
:103E3000608100213AE0042D08BF4FF0080921D02D
:103E40000421504601F0B2FB0C2010FB09F05E4942
:103E500001F800A0012D1FD108445C4A42600021F6
:103E6000009101916A460121404600F02FFA01AA13
:103E70000221404600F02AFA9DED000AB5EE400A04
:103E8000F1EE10FA6CD0207A40F001002072009818
:103E900030600199716063E018BF022DDFD00E2DF4
:103EA00006D00F2D5CD10C2060815521A18157E0F7
:103EB00094F8280040F0020084F828004FF4A16133
:103EC000A1816A46666942480090012194F801B0D8
:103ED000584600F0CDF99DF8000000210C2805DAC5
:103EE0000FF2F4013FA2085C115C49003071207AA6
:103EF00000F0FD00014321720098000A00900106C5
:103F000014BF3C20322070714FF47A70717990FBAD
:103F1000F1F171806A460221584600F0A9F90028A3
:103F20001CBF009800280AD0207A40F008002072B8
:103F300000F00F0000994A1E40EA02102072002093
:103F400000906946584600F080FA48B100993180E7
:103F5000009800B10420217A01F0FB01084320728F
:103F600084F8018084F802A084F80390002120786E
:103F700000F0800005432570A1711648E061397892
:103F8000491C3970BDE8F78F60900020D0220000F6
:103F900038842A357BA0453F66665A3F9A9999999D
:103FA0009999B93F0000594000408F40801400208B
:103FB00046720000082D0000AE7200008D900020B7
:103FC000D88C0020953C0000A42A0020308C1100E1
:103FD0000132E600633D0000B96436203010200B4A
:103FE000170810000000000001000100010001009E
:103FF000A0F11701082902D21738C0B27047FF207C
:1040000070470C480178CA0700D5704710B541F0D9
:10401000010101700020084905E0C3B20C2463438C
:10402000FF22CA54401C054B1C78C2B2A242F4D3F2
:1040300010BD000092900020A42A0020FB40030045
:104040007047134601222DE9FE4309280446914694
:104050001D4605D101F05DFC01F08AFC80B234E020
:104060005FEA09000BD001F0ACFC01A801F0E4FC10
:1040700001A9204601F0C0FC5FEA000801D1002040
:1040800023E000270024002609E06946404601F0AD
:1040900092FC18B9BDF80000641C3F18761CF0B201
:1040A0004845F2D3E0B20228A4BFE4B2B7FBF4F76C
:1040B0003DB1B9B2404601F081FC4FF47A71B0FBDA
:1040C000F1F7404601F074FCB8B2BDE8FE8300236E
:1040D0000122B8E70023B6E770B504462C214C4313
:1040E000BF4D2E19304601F0B1FC2A5DBD4942F0AA
:1040F00080022A55FF200870304670BDF0B5BA4BDB
:10410000BA4C1B5C245C024600E0491CB84D2E787A
:10411000C8B2B04217D25FFA81FC2C25B04F15FB14
:104120000CFC07EB0C052878C0090CD0687890428D
:1041300002BF2F7807F07F079F4204BFA878A042F4
:10414000E3D148B2F0BD4FF0FF30F0BDF0B503460B
:10415000002400200EE0E4B266440E5507F00F077D
:104160006C1C0A2FACBF37263026EDB2F6194E551F
:10417000401CC0B29E79B042E5B212DAEF1CBA42DE
:104180000FDB10B12D264E55641C1D182F7AC7F376
:104190000316651C0A2EB4BF4FF0300C4FF0370CDD
:1041A000D9E7E0B290423CBF00204855E0B2F0BDF4
:1041B00010B500F001F811E0012303FA00F000F05F
:1041C000FF0000EB01208B4C704710B5012303FA70
:1041D00000F000F0FF0000EB0120874C81B2207856
:1041E000BDE8104001F04EBC70B500F006F8824EFC
:1041F00000F00AF800B90FE070BD0446012000FA93
:1042000004F404F0FF047047307804EB0124A4B2F6
:104210001546214601F066BC30782A462146BDE8A5
:10422000704001F02FBC012202FA00F000F0FF0004
:1042300000EB01206F4B07E0012202FA00F000F0D2
:10424000FF0000EB01206C4B81B2187801F01EBC1E
:10425000012303FA01F101F0FF0101EB0221002823
:1042600019BF64480078644A107889B201F03ABCFA
:104270001CB500F045F80CBF02F1FC0102F1AC01E5
:10428000052201F007FD9DF80000012816D0022844
:104290000FD0032807D0042810D0052809D00628FD
:1042A00018BF0B2810D10DF1010108682060012012
:1042B00016BD0DF10101086880B2F7E70DF10101AB
:1042C000086800F0FF00F1E7002016BD1CB500F003
:1042D00017F80CBF02F1FC0102F1AC01052201F05C
:1042E000D9FC9DF80000072808D10DF101000168F4
:1042F00000EE101A84ED000A012016BD002016BD44
:1043000014463E4A00EB800002440229684670478A
:104310000A78521C001D02F071B870B510260228F0
:10432000054603DB0C2110FB01F6361D304602F07A
:104330006FF8040003D0314601F088FB2570204659
:1043400070BD420602D5491E8941C90F01F0B6B9B8
:104350002C22234B504318440079002818BFFFF744
:10436000F0BF704738B50024214D03E00021FFF76E
:10437000EFFF641C2978E0B28842F7D32048027826
:1043800002F0FD02027031BD70B52C2606E0D5B2F8
:10439000134C75432C44521C20716171D4B29C4261
:1043A000F5D370BD70B52C220D4B0446191D544336
:1043B0000C5D00E0401C0E4D2E78C1B2B1420CD213
:1043C00051435D18297900291CBFA9780029F1D033
:1043D0002979A142EED1012070BD002070BD0000FE
:1043E0008014002026310020C88C0020D88C0020AA
:1043F0008D9000207F28002080280020D0220000FF
:104400006A900020C000103070477CB5C0001030AA
:10441000461814461D463146102002F062F848B98D
:104420000095234600223146102002F0BFF808B95B
:10443000012076BD002076BDC00080B51030411847
:10444000102002F091F8012002BD0B460422002149
:10445000DBE702B56B4604220021FFF7EDFF02BD4A
:10446000C0F3C75181B1FF2906D0C110400721F028
:10447000E04101F16051704741020CBF40F4E0019E
:104480006FF000410020704700F0004100020AD0A8
:10449000B0FA80FC00FA0CF001F16051A1EB0C5174
:1044A00001EBD0214005704730B540F2FF7C1CEA9B
:1044B00011541DBF1CEA1355644565453FE064195E
:1044C00081EA030C6FF35F530CF0004C43F480134C
:1044D000C90241F0004141EA505EC5021100A5FB4E
:1044E000020200284FF00000EEFB01204FF0000117
:1044F000E3FB052118BF42F00102401800214941A9
:10450000E3FB0E01A4F580640D0302D29218404132
:10451000494154F1010470DD450872F1004250F147
:10452000000051EB0451A1F5801102D441EA0C01C5
:1045300030BD40F2FF7E4CEA0E51002030BD0CEA47
:104540001355644518BF654581EA030C0CF0004C17
:1045500041D050EA410E1CBF52EA430E02E06146D0
:10456000002030BD24422C441BD15FEA050EF6D05A
:10457000090302BF01460020AEF1140EB1FA81F525
:10458000AEEB050401FA05FE0C35C5F1200100FA79
:1045900005F5C8404EEA000E6FF35F5343F48013F5
:1045A0009CE733F00043B3FA83F504BFB2FA82FE0E
:1045B00075440B3D641BB5F1200E2FBF02FA0EF3BC
:1045C000AB40C5F1200E22FA0EFE38BF43EA0E03BF
:1045D000AA40641C7CE750EA410E14BF52EA430E25
:1045E0006FF000014FF4001515EB430F8EBF194615
:1045F00015EB410F9DE7B4D830BDD4F10104B4F1FF
:1046000020050FDAC4F12005520828BF42F001024C
:1046100010FA05FE01FA05F57244E2BFE0402843B6
:10462000E1400FE0352C9ADCC5F1200452EA40024B
:1046300020FA05F218BF42F0010231FA05F0A1405C
:104640000A43002172F1004250F1000051EB0C01CD
:1046500030BD014301F000428B1AA3F16051B1F566
:10466000801F0ADBB1F17F6F1FD242EAC102C10095
:1046700071F1004142EB507070470B15C3F1090313
:10468000212B10D2890241EA905180020128494130
:1046900041F0004121FA03F0C3F12003994071F188
:1046A000004150417047100070476FF0000013EB5D
:1046B000103F5CBF000E42EAC0507047DFF800F0C8
:1046C000DBFD021038B50446FFF7F8FF002504E0D3
:1046D000615D225C625521546D1C401E8542F7DBF2
:1046E00031BD38B5020048BF524200230A2500F010
:1046F0000EF8002AFBDCFFE7002802D52D22CA5461
:104700005B1C0020C8540846BDE83240DAE70A24A2
:1047100092FBF4F405FB14223032CA545B1C22468F
:10472000704710B502F018F84FF47A71B0FBF1F44D
:1047300002F00FF8604310BD38B5044601F06AFE80
:1047400005460E480178220008D10A0710D441F02E
:1047500008010170022002F065F909E0012C07D17F
:104760000A0705D501F0F7010170022002F0EFF809
:104770002846BDE8324001F058BE0000929000206B
:10478000E0B5684601F0A6FB0198B0F5803F28BF70
:104790004FF6FF7080B20EBD50B1B0FA80F1884084
:1047A000C91CC1F58461090501EBD02140057047A2
:1047B0000146704751EC100B00B500F003F841ECD6
:1047C000100B00BD40F2FF7C0B0D4DD0634566D24F
:1047D00030B421EA035141F4801103F2FD3C5FEA59
:1047E0005C0C01D300184941890041EA90718000B6
:1047F0004FF440140023E202D50AB1F5100107D4AA
:104800006D081DD2091B641900184941491BF7D5D1
:104810006D080AD20919641B00184941491BEFD5DC
:104820006D08F7D301E0520817D0C01861419B1AF8
:10483000AC4100184941801AA941F4D452080AD069
:10484000C01AA1419B186C4100184941801AA94126
:10485000E9D45208F4D15B1C6C4161084FEA330083
:1048600001EB0C5130BC704750EA0103FBD030B46F
:10487000B1FA81F311B9B0FA80F41B190B3BB3F113
:1048800020042FBF00FA04F19940C3F1200420FA5C
:1048900004F438BF21439840D3F101039DE76345F9
:1048A00014BF50EA410CDEE711F5801FDBD8D94375
:1048B00002F0C2BB70470156F0B540F2FF7581EAC5
:1048C000030C0CF0004C15EA11541DBF15EA1357E8
:1048D000AC42AF42E5E0BC41C1F31301C3F31303A3
:1048E000801A994143F4801304D2641E0018494190
:1048F00080185941C90241EA5051B1FBF3F603FB5C
:104900001611A2FB0675D7EBC020A94102D2761E74
:1049100080185941C90241EA5051B1FBF3FE03FB33
:104920001E11A2FB0E75D7EBC020A94103D2AEF138
:10493000010E80185941890241EA9051760546EAF4
:104940008E2EB1FBF3F603FB1611A2FB0675D7EB17
:104950008020A94102D2761E80185941C90241EA3D
:1049600050514EEA060EB1FBF3F603FB1611A2FB03
:104970000675D7EBC020A94102D2761E8018594196
:10498000C90241EA5051B1FBF3F703FB1711A2FB37
:104990000735D3EBC020A94167F100070CBF0042E7
:1049A00047F0010766F3D5274FEA1E31B80814F522
:1049B000806412DDBD0775F1004250EB0E5051EBE3
:1049C000045111F5801F5CBF41EA0C01F0BD4CF0B1
:1049D0007F6141F0E0410020F0BDBD076D0840EA75
:1049E0000E5041F48011D4F10104B4F120060ADA2A
:1049F000C4F120060200E04001FA06F3E14018434A
:104A0000B24015430EE0342C13DCC6F1200445EA15
:104A100040056D0820FA06F2154321FA06F0A14080
:104A20000D43002175F1004250F1000051EB0C01E3
:104A3000F0BD00205FEA0C01F0BDCFB992185B41D8
:104A4000B3FA83F704BFB2FA82F6BF190B3FB7F18E
:104A500020062FBF02FA06F3BB40C7F1200622FA58
:104A600006F638BF3343BA401CB1E419641E33E77D
:104A70007F4231F00041B1FA81F404BFB0FA80F610
:104A8000A4190B3CB4F120062FBF00FA06F1A14097
:104A9000C4F1200620FA06F638BF3143A0403C1B83
:104AA0001AE7AC421ABF05EA1357AF4212E050EAC8
:104AB00041061CBF52EA4306BFE750EA41073046B1
:104AC00061461CBF41EA0551F0BD52EA430C08BFE4
:104AD000C143F0BD00204FF4001616EB410F98BF04
:104AE00016EB430F08BF16EB410F24BFC14305E08F
:104AF00016EB430F0CBF61464CEA0551F0BD014176
:104B000010F0004160B148BF4042B0FA80F29040DE
:104B1000D21CC2F5846241EA025202EBD021400568
:104B200070470157C1F30A5340F21E42D31A0CDDFD
:104B3000CA0283F3070342EA505242F00042DA40CD
:104B400002EBE17282EAE17070476FEAE17203F210
:104B5000E13008B182F0004070470125F8B50D46FC
:104B600088B00446287800F0BAF800283ED1DFF873
:104B70003C220021131D53F8310018B1491C1029A3
:104B8000F9DB33E005A800230026002780E8C800F1
:104B900002F83140121D42F8315028788DF800009B
:104BA000A8684188ADF802108188ADF804108079BA
:104BB00000F00F008DF80600A868C1798DF8071085
:104BC000A86881680291007B8DF80C00A8680169D3
:104BD000049105A928788DF814008DF81C30CDF8C3
:104BE00018D0204602F0AEFA012000E0002009B003
:104BF000F0BDDFF8BC11086070472DE9F041DFF827
:104C0000B4512C6880460F4600F069F8002630B990
:104C10000020BDE8F081206800B9264604462CB18A
:104C200020794045F7D1A7600120F2E70C2001F080
:104C3000EFFB0028ECD00022026080F8048087603F
:104C40002968002914BF30602860EDE710B5594984
:104C50000A6800E0126852B1036811791C7DA14214
:104C6000F8D191680029F5D0BDE81040084701202F
:104C700010BD01F0CDBB10B5044610460A460146F2
:104C8000204602F0E1FA204610BD03E011F8013B96
:104C900000F8013B13465A1E002BF7D1704700283D
:104CA00018BF01F0B6BB704701700A0A0B0C090E61
:104CB00042708370C170001D704700223B4B03EBB4
:104CC000C201496811B10978884203D0521C102AE8
:104CD000F5DB02E013F8320070470020704710B592
:104CE00001460022314800EBC203586810B1047835
:104CF000A14203D0521C102AF4DB00E010BD0020BA
:104D000010BDF0B58BB007460C4615461E462C214B
:104D1000684602F0CDFA397A8DF80010032906D1E1
:104D2000082239460DF1020001F068FB03E011B1E1
:104D30003988ADF80210797A12988DF80A107989BD
:104D4000ADF80C10810744BF01228DF81C20C1066C
:104D500044BF01228DF81D20010744BF01228DF8B8
:104D60001E20810644BF01228DF81F20410644BF4A
:104D700001228DF82020000644BF01218DF821106A
:104D80001398119B109A27788DF822008DF81470D3
:104D9000ADF816500693ADF824600A922078FFF71C
:104DA0008CFF694602F0D2F90BB0F0BD2C800020D8
:104DB000DC8E0020E08E0020F8B50D2805462DD2AF
:104DC00001F028FBDFF820371A7800240146BAB139
:104DD00000265FFA86FC2820DFF8107710FB0CFC19
:104DE0006744787C000904D0761CF0B23028F0DBF0
:104DF00006E0521E3C461A70607C40F0F000607481
:104E0000084601F012FB4CB1280014BF04F11C004D
:104E10000020A061E57504F10C00F2BDFFF7B0FCC5
:104E200040F20131884206DB05F11006B0B201F014
:104E30008AF8040001D10020F2BDB1B200F006FEF4
:104E4000280014BF04F110000020E060E572204645
:104E5000F2BD38B504462079C0F30210022806D10D
:104E6000E06820B1A17A022908BF01F0D2FA607986
:104E7000000910D001F0CEFA05461C21204602F0B0
:104E800017FADFF864060178491C01702846BDE86E
:104E9000324001F0CABA2046BDE8324001F067B89E
:104EA0002DE9F04704468A462668257901F0B2FAD2
:104EB000DFF83C2680465068C5F302190027002120
:104EC00002E0014650F80C0C18B30368B34202BF6D
:104ED0000379C3F3021CCC4504BFDB09B3EBD51F38
:104EE000EFD17F1CBAF1000F13D0FBB29A45E8D185
:104EF00050F80C3C44F80C3C5668B04208BF546073
:104F000009B141F80C4C002140F80C1CFFF7A1FF3F
:104F100000E00446404601F088FA2046BDE8F087EC
:104F200070B501F077FA0646DFF8C405446800253D
:104F3000456005E0204654F80C4CFFF78AFF6D1CD5
:104F4000002CF7D1304601F070FAE8B270BD2DE9BF
:104F5000F0430C468FB0200448BF84F4004000F1B9
:104F6000C680E007DFF8886540F1B58070780028DA
:104F700084F001091BD1FFF703FC002740F2011167
:104F800088424FF0000813DAB078401CB070C0B20D
:104F90001F28A4BFB770FFF7C3FFB078052190FBAF
:104FA000F1F101EB8101401A03D000F0A3F890E089
:104FB000B770301D01F000F90400F8D0162106F199
:104FC000080002F075F921791625080910F007008C
:104FD00003D0022851D014D358E0C809E57A0590CF
:104FE00004970397029701F00F01E068019006F122
:104FF0000800A27A009216352389E28803F076FC35
:1050000043E0E179FF290AD02C20DFF8E82441436E
:1050100057181E2207A93846FFF798F88046E0681F
:105020000168069107AB21790279CDF81080001D47
:105030000290039306A8552302EB0805CA090592BE
:1050400001903922009201F00F010C2206F10800B4
:1050500003F04CFC1A35010017D1243738790107C9
:1050600014D5FF210020009102900190A179E079F0
:105070003F6855230C22B84708E0E288E068E57AEB
:1050800001F00F0103F0E6FB163570B9652D05DB65
:1050900030783222012100F0F5FC17E03078012150
:1050A00000F0EFFF49F0010910E0607900F00F0116
:1050B000022908DC411C61F3030060712146301DA8
:1050C00001F0BAF8002400F015F814B12046FFF7FB
:1050D000C0FE48460BE0A00708D5002171700121F1
:1050E000307800F0CEFF84F0020000E000200FB026
:1050F000BDE8F083012070704FF47A72307802219D
:1051000000F0C0BC4FF6F07300F00F0003EA02138A
:10511000184340EA014070472DE9FE4F0C9DDFF82F
:10512000D8A38B46904699460027461C1AE0F1B258
:105130002C22DFF8C0035143084443789B4510D22A
:1051400090F828100A060CD5446A54B10020029049
:105150000195FE2000904B4642465946F0B2A047CA
:105160007F1C761C9AF80010F0B28842DFD3DFF87B
:105170008C030278FF2A08BF0770BDE8F78F2DE97E
:10518000FE4F8846DFF874138346087891461E4622
:1051900048B10C990091002401944B46424659466F
:1051A000FF20FFF7B9FFDDF834A0D14F5046FFF7DD
:1051B00003FE040021D00E9D4A4641465846FFF7A3
:1051C000A1FF206052460BF00F0040EAC51020718D
:1051D000A4F80680A4F80890A6720C99E06801F083
:1051E0000DF9102E0CBF032101212046FFF758FEB8
:1051F00018B92146381D00F0A9FF387803B0BDE882
:10520000F04F1BE103B583B000F00CF8292340F206
:10521000024137E003B583B000F004F8212340F2E7
:1052200005412FE00021022204AB0291019200937C
:105230000022704738B500EE102AB14AD2ED000ABC
:10524000002384B0B8EE400A029380EE200A0424C2
:1052500003AD8DED030A0194009539230022FFF779
:105260008EFF05B030BDF8B5A64900F016F84FF432
:10527000807205E0F8B5A44900F00FF840F203127F
:1052800040F60431FFF77BFF05B000BDF8B59F493C
:1052900000F003F84FF48372F2E70A8800EE902AD8
:1052A000F8EE600A20EE800ABDEEC00A10EE102A69
:1052B000ADF80C200023022103AA02930191009271
:1052C00029237047F8B58F4900F00AF840F20552DB
:1052D000D6E7F8B58C4900F003F84FF4A162CFE7A8
:1052E0000A8800EE902AF8EE600A20EE800ABDEEF1
:1052F000C00A10EE102AADF80C200023022103AAE8
:1053000002930191009221237047F8B58049FFF77D
:10531000C4FF40F20B52B3E703B583B00021012272
:1053200004AB0291019200934FF4A2622823A7E7F5
:10533000FEB50E467749D1ED000AF8EE600A20EE80
:10534000800A0546BCEEC00A8DED010A162001F068
:105350005FF804001ED0022020700E226EA1601C97
:1053600001F04CF804F10F07042201A9384601F0BE
:1053700045F8676000203871787107F8066FC4F847
:105380000B70022000901623224640F2027128463C
:1053900000F057F8F7BD1FB50B0018BF012301211E
:1053A0008DF80C300292019103AC0094102300227E
:1053B0000621FFF7E4FE1FBD2DE9FC470F464F49CC
:1053C0000A9D064608789046994640B10195CDF869
:1053D000008055230C2231463846FFF79DFE0C20F5
:1053E000FFF7EAFC0400DFF808A123D07A1C494645
:1053F0003046FFF787FE206006F00F062079A57182
:1054000000F0800006433920A07246F01006E068E4
:105410002671E77184F808900C22414600F0EEFFF7
:1054200001212046FFF73CFD20B921460AF1040086
:1054300000F08CFE9AF80000BDE8FC47012100F066
:1054400020BE2DE9F0478046894614009A4618BFD1
:10545000BAF1000F11D0089E370908BF012706F0E6
:105460000F06022E0CBF00205046FFF7A5FC0500DA
:1054700005D116B1204600F0CCFF002031E000221B
:1054800049464046FFF73EFE286008F00F012879A4
:1054900000F08000084340F02000287185F80BA040
:1054A0000020A5F806902881AE72022E08BFEC609D
:1054B00008D0E8685246214600F0A0FF16B1204609
:1054C00000F0A7FF39462846FFF7EAFC084C18B958
:1054D0002946201D00F03AFE2078012100F0D1FD80
:1054E0000120BDE8F087000027310020646500201E
:1054F000308A0020801400208D900020263100206A
:105500000C2D000046720000AE720000C295000033
:10551000B6720000042D0000000025000000000607
:1055200003300000000000000146012001F01F01CF
:1055300000FA01F1002000291FBF844A13680B42C2
:105540000120704700F03F02282A0ADA012200F009
:105550001F0012FA00F004D07D4A09B110607047B4
:1055600010617047F8B500F04CF81EDA00F043F80F
:105570001BD078490A681043086024F0605403F097
:10558000FEFA00F04CF830001CBF032E042E02D1AE
:1055900044F4C04408E0012E08BF44F4804403D022
:1055A000022E08BF44F4005449E0F1BDF8B500F004
:1055B00028F81FDA00F01FF81CD066490A6822EAB2
:1055C0000000086044F0005403F0D9FA00F027F816
:1055D00030001CBF032E042E02D144F4C04408E066
:1055E000012E08BF44F4804403D0022E08BF44F4C7
:1055F000005424E0F1BD012100F01F0011FA00F079
:105600007047850005F0FC0505F1804505F501258D
:105610000E462F4600F03F013C68282970470021C4
:1056200039706F1C220AA91C3A70230C0B704FEAC8
:10563000146C05F803CF24F4C04403F0D1BA03F08E
:105640009EFA240A3C70BDE8F24003F0C9BA70B576
:1056500000F02CF8254600F03F022E68282A24DAB4
:10566000012200F01F0002FA00F0C243E8B1394BFA
:1056700029B11968084326F06056186004E01868DC
:10568000024046F000561A6003F079FA0021631CCC
:105690002970320AA11C1A70350C0D70360E04F8F0
:1056A000036FBDE8704003F09BBA70BD840004F046
:1056B000FC0404F1804404F50124704700F03F022B
:1056C000282A0DDA012200F01F0012FA00F007D09C
:1056D0001F4A136C0343136409B1106070471061D3
:1056E00070470000F8B50D4600F03F0128292BDA7D
:1056F000FFF7DCFF184A2668137800F03F0083426A
:1057000022D3164903F06EFA26F4E027032D47F45E
:10571000C02047F4A0210ED8DFE805F00C0A0502EE
:1057200047F4E02707E006F4E026B6F5C02F01D1E4
:105730000F4600E0074603F022FA621C390A117096
:105740003F0C04F8027F7EE7F1BD0000C02002405C
:1057500090200240D02002408F5403008BF80000BC
:10576000F8B504460D4601260027344203D02946E9
:10577000F8B2FFF7B7FF7F1C7600F8B22028F4DB01
:10578000F1BD016D70B503F0FAF906467D48406839
:10579000FA246FF0F90560B1B0F90C108C42C8BF63
:1057A0000C46B0F90E1000688D42B8BF0D460028B7
:1057B000F2D12946204600F005F83046BDE8704099
:1057C00003F00EBAF0B46F4BB3F90040A0421ADAFE
:1057D0006D4D6E4C2E782568A5F5407576B2821C0D
:1057E0007543D7052D1105EBE735803D12F1F90F13
:1057F0002ADA4FF4803505F47F4525631880206A46
:1058000040F004002062B3F9020088421ADA5E4CCC
:105810005E4A25781468A4F540746DB2881E6C4306
:10582000C605241104EBE634803C10F1F90F15DABB
:105830004FF4803404F47F4454635980106A40F07C
:1058400008001062F0BC7047FA2AA8BF4FF47F45E9
:10585000D1DA002DCFD54E4A1540CEE7FA28A8BFA1
:105860004FF47F44E6DA002CE4D549480440E3E7EE
:105870002DE9F0474448454D01782A68414E454F8F
:105880004FF47F432B63FA2131802A6A22F004020D
:105890002A620022007829686A636FF0F90070803C
:1058A000296A21F008012962F86B7468D0F80010A9
:1058B00088470FFA80FAE4B1B4F90E90D4F800806A
:1058C000D145BCBFB4F90C108A450FDBD145B8BF38
:1058D000B4F90C902146301D03F012FA0020226921
:1058E00020752346A46849465046A0475FEA08044D
:1058F000E2D1FFF747FF686A00F00C006862686A4F
:1059000010F00C0FF7D139680A6ABDE8F04735206E
:10591000104770B584B003F032F91F4D0446287863
:1059200008BB684603F054F91C490A78019201212A
:105930008DF808106B461A4A3521281D03F0FCF833
:105940001848194B816C21F0040181640322816C99
:1059500021F008018164026009211A68166802209A
:10596000B04701202870204603F03AF904B070BD1A
:1059700000B50E4881B001680A68904700B201B0D6
:1059800000BD0000E03000200C13005028500940FA
:1059900000FF0100B0010010B08A00201F63030067
:1059A000715800000050094084010010EC01001003
:1059B00001680A681047026893681847026813690B
:1059C000184770B503F0DBF818490546087860B948
:1059D000012217480A7004783CB1164E304656F83A
:1059E0000C1B4A699047641EF8D12846BDE87040F8
:1059F00003F0F6B80000000030B50C4C237881B0FD
:105A000000227BB10A4C2578A8420BD209B900BF0D
:105A10000CA100EB40029200064B98189B589A6923
:105A200090470246104601B030BD0000B7900020FC
:105A3000FB400300602E000002A1D1E90023C0E971
:105A4000002370470000000001000000002201F068
:105A5000FFBB0100DFF800F09DEB0210DFF800F063
:105A600025DB0210DFF800F0C5E20210DFF800F0DD
:105A7000C3EC0210DFF800F0E7E90210DFF800F0F5
:105A8000BBEC021000238EE001238CE070B50446CD
:105A90000E4600F0BFFC05463146204600F0E5F812
:105AA00004001AD02068FFF7DDFF2046FFF7E6FF6D
:105AB000754881688C4203D12169816005E0014607
:105AC0000869A042FBD120690861204600F0A1FCD2
:105AD000284600F0AAFC002070BD284600F0A5FC76
:105AE000022070BDF8B505460E4600F093FC044652
:105AF0003146284600F0B9F8002750B1006803F09D
:105B000016F9624A13684FF47A71B1FBF3F3B0FBF4
:105B1000F3F7204600F089FC3846F2BDF8B55A4E3E
:105B200000F078FCF468054654B127692046FFF779
:105B3000A5FF204600F06DFC3C00F6D10020F0608F
:105B40002846BDE8F24000F070BC4F4A107051602A
:105B5000704710B50446A168207900F092FA207BC6
:105B600000BB2068FFF77EFF474A9068844203D15C
:105B70002069906005E008460169A142FBD12169D6
:105B800001610020D168206111B9D46004E00146B0
:105B900008690028FBD10C61BDE8104051681078FD
:105BA00000F06FBA10BD2DE9F8471E46374B80460E
:105BB000894618684FF47A71B1FBF0F0424389B01E
:105BC000154600F027FC82464946404600F04DF855
:105BD000082704000AD02068FFF744FF2068294600
:105BE000FFF744FF2068FFF745FF37E0142000F07F
:105BF0000FFC040032D00823242200216846FFF75E
:105C000029FF002E14BF059505960121ADF810104F
:105C1000069400236A4629461D48FFF71FFF2060AF
:105C2000C8B184F80480C4F808902673002020616D
:105C30001548816811B9846004E0014608690028AC
:105C4000FBD10C6120682946FFF710FF2068FFF7A1
:105C500011FF002702E0204600F0DBFB504600F079
:105C6000E4FB38460AB0BDE8F08720B50246064896
:105C7000806800E0006928B10379934204BF856819
:105C80008D42F7D120BD0000088D00206016000075
:105C9000535B000062B38B0708D0521E11F8013B22
:105CA00000F8013B00F024808B07F6D1830740F019
:105CB000208000BF103A07D330B4B1E83810103A52
:105CC000A0E83810F9D230BC530724BFB1E808105F
:105CD000A0E8081044BF51F8043B40F8043BD20749
:105CE00024BF31F8022B20F8022B44BF0B7803703D
:105CF0007047121F17D35B0009D151F8043B20F8FD
:105D0000023B1B0C121F20F8023BF6D20BE051F8AD
:105D1000043B00F8013B1B0A20F8023B1B0C121F3E
:105D200000F8013BF3D238BF121D521E24BF11F8F8
:105D3000013B00F8013BF8D870470100DFF800F0A4
:105D4000F5EA0210DFF800F021CD0210DFF800F0D4
:105D5000B1BF0210DFF800F04DEA0210DFF800F0EA
:105D600045DF0210F8B542F20C74DFF810562E1918
:105D7000307901281DD02846002101E040F8041B9D
:105D800042F210722A449042F8D3E82129600020A0
:105D900042F22462DFF8E8753060C5F8E82005F1CA
:105DA000E801796000F006F8B8607D60FC600120D1
:105DB0003071F1BDF8B500260027051D15F0030070
:105DC0001CBF291D0D1A00F025FB0146DFF8B02588
:105DD000112D34BF546894682068002803D580F0E2
:105DE000004000271AE03B0014D03368D4F800C00C
:105DF0006344AB42336011D334461846ECB1401BC8
:105E0000042811D3605145F000402060D3685D1B29
:105E1000D56011E0A842F1D201272646044420684B
:105E20000028DAD1002408E0D36820681B1AD36068
:105E3000256845F000452560241D11600846F3E003
:105E400038B5040019D0DFF8385500F0E3FA2860BF
:105E500054F8041C002903D42969491C29610BE06A
:105E600021F0004144F8041CEA688918E960211F08
:105E70006A68914238BF69607CE131BD2DE9F0412B
:105E800000F0C8FADFF8F824936800240025002603
:105E9000002709E00E4601251C4604E011D581F0DB
:105EA0000041002547460B441968B046BE4238BF42
:105EB000B8460029F2D1106000F0B7FA4046BDE8BC
:105EC000F081002DE6D0D4F800C08C44C4F800C0A6
:105ED0008E19E8E710B5044642F21070DFF8A014FE
:105EE0002060CA686260FFF7C9FF09282CBF083824
:105EF0000020A06010BD80B5FFF734FF4BF6BE2038
:105F000002BD084656E708469AE702B56846FFF71D
:105F1000E1FF01BD01207047F0B5DFF86844257846
:105F20002E460F2E0BDA1823DFF85C745E43BB1984
:105F3000586000201D70D960986018745A616D1CFB
:105F40002570681EF0BD38B504460025200001D13B
:105F5000002032BD04F10C0000F05AFA28B10560AF
:105F6000FF220481827200F10C05284632BD80B503
:105F700008B9052002BD10F8021CFF2901D0042039
:105F800002BD0C3800F045FA002002BD2DE9F041B9
:105F90000C00064602D10520BDE8F0810020DFF8A4
:105FA000E85300E0401CDFF8DC231378C1B29942CB
:105FB00017D2C7B218214F43EA5DB242F2D100F0C6
:105FC00029FA8046E8192146083000F0BFF84FF45E
:105FD0000041304600F055F8404600F026FA002017
:105FE000DAE70320D8E7F8B505460E4600F012FAC6
:105FF00000240021DFF8902300E0491CDFF88473BF
:106000003F78CBB2BB420FD2182717FB03F3D75C04
:10601000AF42F2D1D1188C6801E054F80C4C002C3E
:106020001CBF2178B142F8D100F0FFF92046F2BD43
:106030002DE9F84380464FF000090026DFF8484379
:10604000DFF8405316E000F01CF812E0182250432D
:10605000215C41450DD1271807F1080000F0ACF88C
:106060008146B86800284FF40041F0B2EBD100F04F
:1060700046F8761C2978F0B28842E7D34846BDE856
:10608000F2832DE9F04781468A4603260025BD4C60
:1060900018E01821BC48694347183A784A450FD19F
:1060A00000F0B8F98046786901684AEA01010160A8
:1060B000F86808B1FFF746FE404600F0B6F9002642
:1060C0006D1CEDB220788542E3DB3046BDE8F087F9
:1060D00070B504460025AB4E0DE01821AA4869436F
:1060E00008444268A24204D1C0684FF0FF31FFF774
:1060F0002DFE6D1CEDB230788542EEDB70BD2DE9D2
:10610000F04180460C4600279E4E04E0287840452A
:1061100010D07F1CFFB23078874215DA18229A49D6
:106120007A438D18B8F1FF0FF0D1FFF707FE6968C9
:106130008142EED100F06EF969690A6822EA04042E
:106140000C60BDE8F04170E1BDE8F08138B505466E
:106150000C4600F05FF96CB1002144F80C1C2A6871
:1061600012B92C6006E00A4652F80C1C0029FAD13C
:1061700042F80C4CBDE8324057E12DE9F8430446A3
:106180000D46904600F046F981462068002700261B
:1061900028B100E07F1C50F80C0C0028FAD14745CC
:1061A00004D229462046FFF7D1FF0126484600F0D9
:1061B0003CF93046BDE8F28338B5044600F02AF9D0
:1061C0002168002541B10D46A5F10C0100230A68A4
:1061D0002260FF240B608C7200F027F9284632BD44
:1061E000F8B507460E4600F015F9002400250021F9
:1061F000654A00E0491C634B1B7899421BDA18235F
:106200004B4312F803E0BE45F4D1D1188C6801E08D
:10621000254614467CB1237854F80C2CB342F7D1B0
:10622000002D0CBF8A6045F80C2C0021FF2244F899
:106230000C1C04F8022CF7E638B504460D4600F0B5
:10624000E9F8216845F80C1C256093E770B5044611
:106250000D46164600F0DEF8A5F10C0123680A6829
:106260009D420CBF226046F80C2C0022FF230A60DE
:106270008B72BDE87040D8E0F8B5424C424A657870
:106280000026002311E018275F4302EB070CD75DBF
:10629000874204D10F0018BF01278CF810709CF8BA
:1062A00010703E4318BF01265B1C2778BB42EADB17
:1062B00002F065FC0746300009D1012D28460FD1B8
:1062C00000F045FB022000F042FB002508E028001A
:1062D00006D1012000F0A6FB022000F0A3FB01255F
:1062E000384602F07DFC65703046F2BD0146886894
:1062F000496808472DE9F84189B080460F4616469F
:106300001D0008BF022035D02C68F4B90C20FFF71F
:1063100051FD040015D00823242200216846FFF710
:1063200099FB00200590ADF81000069400236A4602
:1063300041461648FFF792FB20606760A660206820
:1063400008B9082016E02C600CE000F063F8054660
:10635000206802F005FD10B12068FFF783FB284696
:1063600000F063F820684146FFF780FB2068FFF7E4
:1063700081FB00200AB0BDE8F08100006031002000
:10638000148C00201C01002054740020ED620000D9
:1063900070B505001CBF2C68002C01D0206808B91E
:1063A000022070BD00F036F80646206802F0D8FCE6
:1063B00010B12068FFF756FB2046FFF75FFB204631
:1063C00000F027F800202860304600F02EF800206A
:1063D00070BD20B10068002818BFFFF743BB7047AD
:1063E00010B513465A1E3BB110F8013B11F8014B92
:1063F000A342F6D0002010BD012010BD03E011F82B
:10640000013B00F8013B13465A1E002BF7D17047A1
:10641000D0E415E580B5FFF79DFCADF8000002F073
:10642000AEFBADF80200009802BD01B5BDF8020058
:1064300002F0D6FBBDF80000BDE80240FFF78EBCBD
:1064400080B5022100F002F880B202BD012901D11D
:1064500000787047022904D10178407801EB0020D0
:106460007047032907D102784378807802EB032133
:1064700001EB0040704704290AD10278437802EB0F
:1064800003218278C07801EB024101EB0060704784
:106490004FF0FE30704701700A0A0B0C090E427073
:1064A0008370C170001D704710B540B1002300E03B
:1064B0005B1CDCB2944204D2045D8C42F8D0002014
:1064C00010BD012010BD80B502F076FC80B202BD87
:1064D0006C48006820B1816800291CBF0020084773
:1064E0007047FEB5674E1D4633681446002B1CBF2F
:1064F0001A69002A1AD001228DF8002000F04CF809
:1065000000279A6A1AB1DDE9000190470746A742C1
:1065100001D10020FEBD224634682B46DDE9000192
:106520002569A847012801D10A20FEBD0920FEBD2A
:1065300013460A4601460020D3E71CB5514B1B68A1
:106540000022002B1CBF9B6A002B08D0012400F006
:1065500023F88DF80040DDE900019847024690B22B
:1065600016BD01460020E8E7BCB5464C246800256E
:10657000002C1CBF6469002C0CD0012700F00CF823
:106580008DF80070DDE90001A04718B10A280CBFA2
:1065900009250A252846B6BDADF80200ADF804105D
:1065A000704713460A4601460020DDE77FB5354CAB
:1065B0002468002C1CBFE469002C0FD00126ADF824
:1065C0000600ADF808108DF80460DDE90101089DB2
:1065D0000095A047012818BF002000D10A2004B070
:1065E00070BD78B5274C246887B0002C1CBF246A86
:1065F000002C16D00491ADF8160001260F99BDF8B5
:1066000038000C9D03918DF814600026BDF83410FD
:1066100002900191ADF81860DDE905010095A047F1
:1066200000B10A2008B070BD80B5009313460A4639
:1066300001460020FFF7BAFF02BDFEB5114E3368D8
:1066400000251446002B1CBF9A69002A18D0012788
:106650008DF80070FFF7A0FF9A6A1AB1DDE900011A
:10666000904708B909250BE0A04218BF0C2507D1B7
:1066700032689369DDE900019847012808BF0A25BF
:106680002846FEBDB4580020DFF800F001CE02100D
:10669000DFF800F08DDD0210DFF800F049E60210AF
:1066A000DFF800F0FDE90210DFF800F011DC021065
:1066B000F0B51C0089B005460E46174605D10023EB
:1066C000FFF7E6FF284609B0F0BD08232422002189
:1066D0006846FFF7BFF9A16806916B462278ADF8CE
:1066E00010203A466068059031462846FFF7D0FFF3
:1066F000284609B0F0BDF0B5140089B005460E4635
:10670000264F05D13B460022FFF7A8F909B0F0BD9E
:106710000823242200216846FFF79CF9A16806910E
:106720003B462278ADF810206A46606805903146F5
:106730002846FFF793F909B0F0BD00B581B000908D
:106740006846FFF79BF901B000BDFFF7A5BFFFF753
:10675000A7BF134800687047FFF7A6BF02F0E7BA6B
:1067600000B581B002F0FCFA401E8041C043C00F6A
:1067700001B000BD00218160017041607047FFF7EA
:1067800075B9FFF777B9FFF76DB90549096800EBEF
:106790005100B0FBF1F0FFF777BF0000802D002023
:1067A00060160000DFF83C0880687047DFF8341896
:1067B000084490F84A01704702460020022904D19B
:1067C000012A06D140F2EE207047012A08BF4FF49B
:1067D0007A707047DFF80C1891F8410120B1D1F8B8
:1067E0006C01002818BF00477047F0B5DFF8F44788
:1067F00094F84201002883B040F090800121DFF836
:10680000E867DFF8E85784F84211307B84F84101EB
:106810007168C4F86C11A868C0F38140A0B93069F0
:1068200090B12F68FFF795FFC7F30662642111FB53
:1068300002F2B2FBF0F200230FF2ED7104F19400CA
:10684000FFF736FF02F0E0FA6846FFF793FF0020FB
:1068500001908DF80000002202926B460FF2016158
:10686000DFF88C7704F10C00FFF722FF6846FFF792
:1068700081FF002001908DF8000002906B460822F5
:10688000DFF8701704F15000FFF712FF00230FF23A
:106890007152322104F1D80002F04EF90020386024
:1068A0000023DFF854272C2104F1F40002F044F90E
:1068B000A968707BC1F3815128B1032903D101205C
:1068C00084F8390109E0032918BF022905D00129FC
:1068D00002D102F0AAFA11E081B9386840F0400014
:1068E000386002F04CF9A16841F00401A16094F80D
:1068F0004511491C84F8451102F072F96868400797
:106900000CD402F03CF9A16841F00101A16094F8B7
:106910004311491C84F8431102F062F9002003B0CE
:10692000F0BD30B581B0002408B1150004D16FF07E
:106930000204204601B030BD8160C260036101469F
:10694000DFF8A00602F0B2F9204601B030BD10B564
:10695000044602F014F9DFF88C160A1992F8433154
:106960005B1E82F84331DBB233B98A68012303FA34
:1069700004F422EA04048C6002F032F9002010BD15
:10698000F0B581B0054602F0FAF80446DFF8541677
:10699000481990F84A21521E80F84A21D2B232BBDF
:1069A000DFF8580600EB850210F8255056882806B7
:1069B00023D5DFF84C7639680A6A30469047396843
:1069C0008A6A3046904739680A6B30469047DFF84C
:1069D000341601200860DFF8300601688907FCD50D
:1069E00005F03F05152DBCBF2846FFF7C9FF20461F
:1069F00002F0F6F8002001B0F0BD680606D501EB04
:106A000086010020D1F860219047E9E7DFF8F01512
:106A10000B689A6930469047304602F067FA0228C0
:106A2000FAD1DDE710B5044602F0A9F8DFF8B41595
:106A30008A680123A3401A438A60214491F84321C4
:106A4000521C81F8432102F0CBF8002010BD2DE943
:106A5000F041064602F093F80446DFF88855A8197D
:106A600090F84A114A1C80F84A2139BBDFF88C851E
