:020000040000FA
:060000000217CC020A7B8E
:03001300020B37A6
:03002B0002155D5E
:03003300020CC5F7
:03003B00020B8C29
:030053000209B0EF
:03005B000212CFBF
:030063000212F096
:03006B00020C6B19
:03007B00020C9CD8
:10008300020A0F010020FD00020196050000000195
:10009300561D681D00006E1D741D000000007A1DB2
:1000A300921D981D9E1D0000000000000000060028
:1000B30004140004FF0801FF0D0106FFFFFFFFFF0B
:1000C300FFFF0101010400E51A000000E80300003E
:1000D300FFFF5D1BE803000064006400B801A0BBE0
:1000E3000D00A0BB0D00020200F8FF0705021E046D
:1000F30001051E02051E020A0A0101080801031078
:100103002702803E0102FEFFE8030A050001FFFF0C
:10011300010A1401E0C503423F1A51123FF304B52B
:100123003F0000803E010105030101FF0F10FEFFA8
:10013300C54000000000373F00000000FF00000042
:10014300FF00C082C083E9FA5407F8748D28F58252
:10015300E43483F583E0F879006022EAC4540F5451
:1001630003600814600914600D8012E5808002E5C5
:10017300905870078007E5A0586002790102026E6B
:10018300C082C08312027340047800800312032BE1
:10019300E8F4FCEB600814601214601C802BEA6026
:1001A30005E842808023EC5280801EEA6005E84225
:1001B300908016EC52908011E8C39420500BEA60B3
:1001C30005E842A08003EC52A002026EC082C08305
:1001D30012027340047800800312032BE8F4FCE856
:1001E300700302026EEB600814602C146050807B75
:1001F300EC52F374016A601274026A601574046A43
:100203007003E8428FE842FD806153F7DFEC528FC1
:1002130080F343F72080F6EC52F474016A601274A1
:10022300026A601574046A7003E842F6E842FE80CD
:100233003A53F7BFEC52F680F343F74080F6E8C336
:1002430094205027EC52F574016A601274026A60BC
:100253001574046A7003E842F7E842FF800D53F710
:100263007FEC52F780F343F78080F6D083D082226D
:10027300E9C4540F5403FB743F59C394302274F8F8
:10028300120EC1E9C4540F5403FE743F59C3943092
:1002930040047800800312032BE8F4FBE86077EE58
:1002A300600814602B14604E806CEB52F352FD74A3
:1002B300016A600F74026A600F74046A7058E8423E
:1002C3008F805353F7DF800343F720EB528F804631
:1002D300EB52F452FE74016A600F74026A600F7489
:1002E300046A7032E842F6802D53F7BF800343F768
:1002F30040EB52F68020E8C39420501AEB44E0FB15
:1003030052F552FF74016A601274026A6015740434
:100313006A7003E842F77F0102125053F77FEB52F2
:10032300F780F343F78080F6E95407FC748D2CF5CE
:1003330082E43483F583E0F822C082C0831202731F
:1003430040047800800312032BE8F4FCE86038EBE8
:10035300600814601214601C802DEA6005E842FDF9
:100363008025EC52FD8020EA6005E842FE8018EC0F
:1003730052FE8013E8C39420500DEA6005E842FF63
:10038300800574E04C52FF02026EC082C0831202E9
:100393007340047800800312032BE8F4FCE8603F09
:1003A300EB60081460151460228034EA6005E842AB
:1003B300808003EC5280E842FD8024EA6005E84235
:1003C300908003EC5290E842FE8014E8C3942050DE
:1003D3000EEA6005E842A08003EC52A0E842FF0267
:1003E300026E743F59C394305042E9C4540F54030E
:1003F3006007146013146020227801E8F4FBEA60BC
:100403002414601814601922740F59C394045004FF
:10041300780280E7780480E3780880DFE8428C2262
:10042300E58C586004EB528C22E8428C221217DCD4
:10043300601D1217EB7005191919801A12166D70C9
:100443001F121645C37003E66733191919400718BD
:1004530018182208080874FFF618F618F618F6227A
:100463001216456017121891702192F012189A70A3
:1004730019501720F014080808090909E7F6181994
:10048300E7F61819E7F61819E7F62212189A60E644
:10049300E869701F0808E62480F608E436F6185465
:1004A3007FB47F0CE654806007F6E418F618F62252
:1004B300181822E9C6CC08C6CD08C6CE08C6CFC0D8
:1004C300E0E8C0E0EAC0E0EBC0E009E9F809E7FAD8
:1004D30009E7FBE6F918E6F8C3EC98ED99EE9AEB19
:1004E300C2E7F5F0EFC2E795F0500E600CEBCFFBDF
:1004F300EACEFAE9CDF9E8CCF8EAA2E7D2E7FAEBDB
:1005030033FB13F5F0EEA2E7D2E7FEEF33FFC5F0BE
:1005130013A2E730E601B313C5F0C3C0E0C0F07F18
:1005230000C39BFB605E9418600F401D14601AD0DB
:10053300E023F9D0E0F80206118AF0E9486003D21B
:10054300F0E4AFF0FAF9F8803BEB30E40D89F0EA20
:100553006003D2F0E4AFF0F9CAF8EB30E30D88F0B2
:10056300EF6002D2F0AFF0E4CAC9F8EB54076014AD
:10057300FBC3EA13FAE913F9E813F8EF135002D2B5
:10058300E0FFDBEDD0E0C0E030E739C3E49FFFF5E7
:10059300F0EC98FC42F0ED99FD42F0EE9AFE42F049
:1005A300D0E0F9D0E0F8E5F0607AE923F9EE20E74E
:1005B30042D8028067C3EF33FFEC33FCED33FDEE2B
:1005C30033FE80EAEC28FCED39FDEE3AFED0E02361
:1005D300F9D0E0F84002801BC3EE13FEED13FDECEF
:1005E30013FCEF135002D2E0FF08B800067F7F74BC
:1005F300FF802EEF3350178CF020F00260100CBCFC
:10060300000C0DBD00080EBE000408E860DFE933EE
:10061300E813FFEE2313FE4F4D4C8008E95480FF8F
:10062300E4FEFDFCEE33EF33F47004FCFD7E80D07A
:10063300E0FBD0E0FAD0E0F8D0E0CFC618CEC61881
:10064300CDC618CCC6F9221217DC7004181818226C
:100653001217EB700D74FFF61819F61819F618191E
:10066300F622E7548066F612189A700F12189170EA
:10067300F014F608F608F608F680D1121891700CFB
:10068300F608F608768008E6447F80EC1216487078
:100693000C12167060BFE65480F6E480BB1216702D
:1006A300700519191980A5E869700C763F187680D2
:1006B30018F618F6E8F922E6CDC0E018ECC0E0E63B
:1006C30033CD33CDD313F6E719FCE7191933CC3304
:1006D300C3947F400ECD9D502408E65480F6E41861
:1006E300F6800FF4043D14501408E6447FF61876A0
:1006F30080E418F618F6D0E0FCD0E0FD22CCD3134A
:10070300CCFD18E4C6CBC0E018E4C6CAC0E00808B4
:10071300ED08C633E613F618E433C675F003C3CA0F
:1007230097CA09CB97CB199C40047D08802EBD0046
:10073300030207F316B6FF050606081618C3CA33E5
:10074300CACB33CB33CA27CA09CB37CB193CC37DBA
:1007530008803E187D0820E75CC633C6CA33CACB7F
:1007630033CB33DDF1D5F0EB30E77BCA97CA09CB46
:10077300974ACB199C406F4B7025E620E021806699
:10078300187D08C3CA97CA09CB97CB199CD3C63324
:10079300C6CA33CACB33CB3350C9DDE7D5F0E1D377
:1007A300E4C636C608C636C608C636C608C636C642
:1007B3001818188031C3CA97CA09CB97CB199CB3B1
:1007C3004097C633C6CA33CACB33CB33DD34D5F0F7
:1007D3002EC6A2E0C640C8CA27CA09CB37194A7039
:1007E300BECB3CB480B90808E63308E633601F1873
:1007F3001818D0E0FAD0E0FBD0E0FCD0E0FD2218DE
:100803007D08CA27CA09CB37CB193CD3808013F69E
:1008130018E4B67F11F618B6FF0EF618C60470D2A8
:100823000808768080CAF618F618F680C5001217F5
:10083300DC604F1217EB6012E7548066F612166DF8
:100843007011121891703B090909F4F618F618F69D
:1008530018F622121645701512189A08080860EA4D
:10086300E6447FF618768018E4F618F62212189AF2
:1008730060161218917012E4F608F608F608E654AA
:1008830080F609090918181822EAC0E0EBC0E0EC69
:10089300C0E0EDC0E0E687F0A4FBACF008E687F02B
:1008A300A42CFCE435F0FA1809E687F0A42C4B607D
:1008B300027401CA35F0FCE433FB09E687F0D2F792
:1008C300A42CCB35F0FC1908E687F0A42BCC35F02B
:1008D300FBE433FD0819E687F0D2E7A42C4ACB35B5
:1008E300F0CD3400FC09E687F0D2E7A42DCC35F037
:1008F300FDE433FA0918E687F0D2F7A42CCD35F0DE
:10090300CA3400FC08E687F0D2E7D2F7A42ACC3534
:10091300F07A7E20E70B0ACB33CBCD33CDCC33CC6F
:1009230033CB3350147004ED30E00ED2F1E4CD3DFF
:10093300CDCC3CCC3B5005DA05C2F1EB547FC6333A
:1009430008E63392F0FBE73309E733C39A502D2BC4
:1009530070190C0D4C4D70151806E608C333700D55
:1009630020F10AA2F013F6E418800B4024E4F630D9
:10097300F002768018F618F618F68024D33B14504C
:100983001074FFA2F013F6187680E418F618F680B8
:100993000FA2F013F618E63303F618ECF618EDF68B
:1009A300D0E0FDD0E0FCD0E0FBD0E0FA22C0E07460
:1009B300F1120F27A2AFE433F509D2AF85A708AF31
:1009C300A1EF5508FE74105E6006121A3275A1EF8E
:1009D30074085E6008121A3875A1F78024EFA2E04C
:1009E30092F0E508A2E082F05017906198E0F89049
:1009F3000504E0C398A2D265D0335002E8F075A194
:100A0300FEE509A2E092AF7F02020F86C0E074F216
:100A1300120F27A2AFE433FED2AF9061A4E0F875C2
:100A23009B00E59158540860087591F7121A80806D
:100A330023E59158541060087591EF121A868014BB
:100A4300E591A2E092F0E8A2E082F05007E0C2E074
:100A5300F0121BDC9061A3E0F8E5E9585404600E42
:100A6300121BB275E9FB906193E0A2E640F2EEA29D
:100A7300E092AF7F01020F86C0E074F2120F27A24B
:100A8300AFE433FED2AF9061A5E0F8E5BF5854045C
:100A9300600675BFFB121BF480D4C3E498F8E49995
:100AA300F9120ADE8026C3E49AFAE49BFBE920E705
:100AB300E9120ADEE498F8E499F922C3E498F8E429
:100AC30099F9120ADEE498F8E499F9C3E49AFAE48E
:100AD3009BFB22EB20E7CFE920E7E0B90010BB0046
:100AE30008E88AF084F8AAF022E4FBC8FA22EB7043
:100AF300227B10C833C8C933C9335007C39AC3DB39
:100B0300F280069A50012ADBEAC833F4C8C933F4E9
:100B1300C9FA2275F008E4C833C8C933C933C99A7E
:100B2300C99B5004C92AC93BD5F0ECFBC833F4C8B0
:100B3300E4C9FA22C0E0C0D0E8C0E0E9C0E0C08266
:100B4300C083A8C1E8C0E09004B1E0F8743028F590
:100B530082E43404F583D0E0F09004B0E0F8A3E03D
:100B6300687006E5959004B3F09004B1E004F0C317
:100B730094804002E4F0A374C6F0D083D082D0E026
:100B8300F9D0E0F8D0D0D0E032C0E0C0D0E8C0E087
:100B9300E9C0E0C082C0839004F4E0F8A3E0687089
:100BA30008539AFBA374018022C2E99004F4E0F88D
:100BB300740128F074B428F582E43404F583E0F575
:100BC300C19004F4E0C394404002E4F080AC120C02
:100BD3001C30F039120C618034120C1C20F01430DC
:100BE300E72B74FFFCFBFA747F8022E4FCFBFA74AE
:100BF30080801AB48008BC00F2BB00EF800F50EB7A
:100C0300F9E4C39AFAE49BFBE49CFCE499C6CC1890
:100C1300C6CB18C6CA18C6F922E4C9C608CAC6088C
:100C2300CBC6D3330308CCC63392F0C3947F402E94
:100C330094184019C9B90704CACBCC225025C3095B
:100C4300CA33CACB33CBCC33CC33D9F422F4600DC3
:100C5300C9CCC313CB13CBCA13CAD9F6CC22E4FC39
:100C6300FBFA2214FCFBFA22C0E074F2120F27A253
:100C7300AFE433FED2AF9006ADE05589600FE5894E
:100C8300FA7900121EB89006ADE0F45289C2C5EE9F
:100C9300A2E092AF7F01020F86C0E074F2120F2729
:100CA300A2AFE433FED2AF9006AEE0558A600FE503
:100CB3008AFA7901121EB89006AEE0F4528AC2EBAA
:100CC30080CDC0E074F2120F27A2AFE433FED2AF9F
:100CD3009006AFE0558B600FE58BFA7902121EB8D0
:100CE3009006AFE0F4528BC2E880A4080808EAC07B
:100CF300E0EBC0E086F0E7A4FA180986F0E7A42A3F
:100D0300FA180986F0E7A42AFA180986F0E7A42A54
:100D1300FA1986F0E7A4FBE5F02AFA190886F0E74A
:100D2300A42BFBE5F03AFA190886F0E7A42BFBE5C0
:100D3300F03AFA18180986F0E7A4C5F02BFBE43A59
:100D4300FA1908E7C5F0C6A426F6E5F03BFBE43A3A
:100D5300FA1886F0E7A4F6E5F00826F6E43B08F671
:100D6300E43A08F6D0E0FBD0E0FA22080808E630BF
:100D7300E7111216A9120D86080808C64480C61882
:100D8300181822181818E9799EC608CAC608CBC6CF
:100D930008CCC6C370207996CACBCC7019798ECB98
:100DA300CC70137986CC700EF9802ACA33CACB3340
:100DB300CBCC33CC331930E7F2CCCBCA33501470DD
:100DC30004EA30E00DE4CA3ACACB3BCBCC3CCC506E
:100DD3000209C3E913C6CC182313C6CB18C6CA1815
:100DE300C6F922E4CFC0E0E4CEC0E0E4CDC0E0E445
:100DF300CCC0E075F020E626F608E633F608E633C5
:100E0300F608E633F6181818EC33FCED33FDEE3331
:100E1300FEEF33FFC3EC9709ED9709EE9709EF97C0
:100E2300191919400FFFEC97FC09ED97FD09EE978F
:100E3300FE191906D5F0BFECF709EDF709EEF7092E
:100E4300EFF7191919D0E0FCD0E0FDD0E0FED0E0B7
:100E5300FF222518C582C0E0E51934FFC583C0E031
:100E6300E518C3958224F810AF0885831985821885
:100E73008008858319858218D2AFCEF0A3E520F0D0
:100E8300A37808E608F0A3DEFAEFF0A3E58124FADD
:100E9300F8E608F0A3E608F0A3E608F0A30808E6DE
:100EA30008F0A3E608F0A315811581D0E0FED0E099
:100EB300F8158115811581E8C0E0EEC0E022251800
:100EC300C582C0E0E51934FFC583C0E0E518C395CA
:100ED3008224F910AF0885831985821880088583D9
:100EE30019858218D2AFCEF0A3E520F0A37808E6E7
:100EF30008F0A3DEFAEFF0A3E58124FBF8E608F09F
:100F0300A3E608F0A30808E608F0A3E608F0A31593
:100F1300811581D0E0FED0E0F815811581E8C0E0AD
:100F2300EEC0E022C0D02518C582C0E0E51934FF29
:100F3300C583C0E0E518C3958224F310AF08858309
:100F4300198582188008858319858218D2AFC8F065
:100F5300A3E9F0A3EAF0A3EBF0A37908E709F0A370
:100F6300D8FAECF0A3EDF0A3EEF0A3EFF0A3D0E0FA
:100F7300F0A3D0E0F0A3D0E0F0A3E520F0A3E5F0E8
:100F8300F0A322851983851882E0C0E0A3E0F9A3CA
:100F9300E0FAA3E0FBA37808E0F608A3DFFAE0FC9D
:100FA300A3E0FDA3E0FEA3E0FFA3E0C0E0A3E0C055
:100FB300E0A3E0F5D0A3E0F520A3E0A3F5F010AFA4
:100FC300088583198582188008858319858218D23C
:100FD300AFD082D083D0E0F8D0E0321216AC18182C
:100FE30018120DE612177B1919192212177B1919FA
:100FF30019080808E618181820E7E0120DE612167B
:10100300AC18181822090909E719191920E7DC088F
:101013000808E618181820E703020DE61216AC18A4
:101023001818120DE61216AC18181812177B191996
:10103300192212187CB90003021074E49003D978C2
:1010430053791B8002F0A3D8FCD9FA7A2B7B1E902C
:10105300008678C079018015E493A3AD82AE838ABC
:10106300828B83F0A3AA82AB838D828E83D8E9D946
:10107300E77582157583FE74061214D47582707534
:10108300833974001214D4E47375F0108E1A8F1B15
:1010930085821F85831E851882851983E0CEA3E090
:1010A300CF851F82851E83EBC9EAC8EDCBECCAC38B
:1010B300E833C8E933C9EA33CAEB33CBC3EA9EF555
:1010C3001DEB9FF51CB35004AB1CAA1DEC33CCEDF8
:1010D30033CDD5F0DAAE1AAF1B221217DC601C1227
:1010E30017EB601712189A70071218917001D32228
:1010F300C0D01218917006D0D0B322C32233D0D0FF
:10110300501430E0F6C3E7960809E7960809E79616
:101113000809E796B32220E0D5E6970809E6970881
:1011230009E6970809E697B3221217DC601B12172A
:10113300EB601612189A7007121891600CB322C054
:10114300D01218917005D0D022C32233D0D05013BF
:1011530030E0EBC3E7960809E7960809E796080924
:10116300E7962220E0E4E6970809E6970809E69760
:101173000809E69722D083D082ECC0E0EDC0E0E41A
:1011830093A3FCE493A3FDED4C600D121290EC24A9
:10119300FFFCED34FFFD80EFE493A3FCE493A3FD98
:1011A300ED4C600D121397EC24FFFCED34FFFD8032
:1011B300EFD0E0FDD0E0FCE493A3C0E0E493C0E013
:1011C30022D083D082E9C0E0E493A3C386F0C5F0C4
:1011D30095F0F908E493A386F0C5F095F0700BE45D
:1011E30093A3C3994005E9048002A3E475F002A424
:1011F3002582F582E5F03583F583D0E0F9E493A306
:10120300C0E0E493C0E022851983851882E0A3FE41
:10121300E0A3F5207808E0A3F608DFFAE0A3FFE0F7
:10122300A3C0E0E0A3C0E0E0A3C0E0E0A3C0E0E02F
:10123300A3C0E010AF0885821885831980088582D2
:1012430018858319D2AFD083D0820214DA8519832B
:10125300851882E0A3FEE0A3F5207808E0A3F60852
:10126300DFFAE0A3FFE0A3C0E0E0A3C0E0E0A3C097
:10127300E0E0A3C0E010AF088582188583198008D9
:10128300858218858319D2AFD083D08222C0E0C370
:10129300E49396087401939618400FE493667008DC
:1012A30008740193661870007019A3A3C3E493969E
:1012B300087401939618A3A3400DD0E0D0E0D0E0CA
:1012C3000211B4A3A3A3A3A3A3D0E022C0E074F2AA
:1012D300120F27C2D9901E65E0C39400A2D265D035
:1012E300334005E0F91222907F01020F86C0E074BB
:1012F300F2120F27C2DC901E67E0F9C39400A2D25A
:1013030065D033400312229080DE7404800474029B
:101313008000CCC0E0EDC0E0E518C39CCCAD195013
:10132300011D10AF068C188D1980068C188D19D2EB
:10133300AF121456D0E0FDD0E0FC2274028000CC42
:10134300C0E0EDC0E0E518C39CCCAD1950011D1001
:10135300AF068C188D1980068C188D19D2AF121414
:1013630012D0E0FDD0E0FC221217DC60251217EB4F
:10137300602012189A7003021891080808E7667033
:10138300101819E766700A1819E76670041819E748
:101393006622F422C0E0C0F088F0E4936670080887
:1013A30074019366187000A8F0A3A3700BD0F0D05B
:1013B300E0D0E0D0E00211B4A3A3D0F0D0E022D07B
:1013C30083D082CCC0E0E493A36006121477147038
:1013D300FAE493A360061215DA1470FAD0E0FCE481
:1013E30093A3C0E0E493C0E022C008C3E096F508ED
:1013F30008A3E096420808A3E096420808A3E096F3
:101403004208A2D265D033E5087001D3D00822CABE
:10141300C0E0E493A3C582CCC582C583CDC583F068
:10142300A3C582CCC582C583CDC583DAE5D0E0CA26
:1014330022A2E792D65002F40430F70663F0FF05C8
:10144300F0B3400384800384F40430D60563F0FFD3
:1014530005F022CAC0E0E0A3C582CCC582C583CD16
:10146300C583F0A3C582CCC582C583CDC583DAE627
:10147300D0E0CA22C0E0E493A3D39C5010E493A32A
:10148300C39C400AD0E0D0E0D0E00213DFA3A3A3C3
:10149300D0E0227009080808226016181818C6C37D
:1014A30033C608C633C608C633C608C633C6D5E036
:1014B300EA22C008C3E096F50808A3E096420808AC
:1014C300A3E096420808A3E09645087001D3D0082C
:1014D30022C09FF59FE473D09F22D083D082C09F08
:1014E300E493C0E0740193C0E0740293F59F227407
:1014F30004800A74038006740280027401C0E0F45D
:1015030004121528D0E01218272200C0D025181085
:10151300AF08F518500C05198008F5185002051985
:10152300D2AFD0D0222518F58210AF08F518400CA1
:1015330015198008F51840021519D2AF85198322B1
:10154300BB0102E722C082C08389828A83BB000376
:10155300E08002E493D083D08222C0E0C0D0E8C010
:10156300E0A8A8D2AFC2C7E8A2E792AFD0E0F8D014
:10157300D0D0E0326017080808C6A2E713C618C621
:1015830013C618C613C618C613C6D5E0E9226016DB
:10159300080808C6C313C618C613C618C613C61848
:1015A300C613C6D5E0EA22C3E0C696F608A3E0C692
:1015B30096F608A3E0C696F608A3E0C696F622259B
:1015C30018F8E43519F9222518FAE43519FB222510
:1015D30018FCE43519FD22C0E0E493A36C7009D034
:1015E300E0D0E0D0E00213DFA3A3D0E0222518105F
:1015F300AF08F518400C15198008F51840021519A5
:10160300D2AF22E76670100809E766700A0809E797
:101613006670040809E76622C3E09608A3E096080B
:10162300A3E09608A3E096A2D265D03322E06670C9
:101633001008A3E066700A08A3E066700408A3E03C
:101643006622191919E70947097009E7270970057F
:10165300E733F4220922C3E096F008A3E096F008EA
:10166300A3E096F008A3E096F022181818E60846BF
:10167300087009E626087005E633F4220822C3E45D
:1016830093960874019396087402939608740393CF
:101693009622C3E697F60809E697F60809E697F651
:1016A3000809E697F622181818E4C396F608E49694
:1016B300F608E496F608E496F622E493F608740135
:1016C30093F608740293F608740393F622E667F61A
:1016D3000809E667F60809E667F60809E667F622E9
:1016E300E056F608A3E056F608A3E056F608A3E092
:1016F30056F622E657F60809E657F60809E657F6BE
:101703000809E657F622E627F60809E637F6080938
:10171300E637F60809E637F622E026F608A3E036B0
:10172300F608A3E036F608A3E036F622E026F00832
:10173300A3E036F008A3E036F008A3E036F022E693
:1017430047F60809E647F60809E647F60809E647B3
:10175300F622700422600D18C6C333C608C633C60A
:10176300D5E0F41822E056F008A3E056F008A3E011
:1017730056F008A3E056F022E4C397F709E497F77D
:1017830009E497F709E497F722600D08C6A2E71367
:10179300C618C613C6D5E0F322C6F4C608C6F4C6F7
:1017A30008C6F4C608C6F4C622C3E09608A3E096AA
:1017B30008A3E09608A3E09622C3E7960809E796F4
:1017C3000809E7960809E7962275D00075813F75E9
:1017D30018D975190300021035E6084608C31346E5
:1017E30008336002E633F422E7094709C3134709C4
:1017F300336002E733F422600C08C6C313C618C66D
:1018030013C6D5E0F422E6F008A3E6F008A3E6F059
:1018130008A3E6F022E0F608A3E0F608A3E0F60842
:10182300A3E0F622CAC0E0E6F0A308DAFAD0E0FAB1
:1018330022E0FCA3E0FDA3E0FEA3E0FF22EAF0A385
:10184300EBF0A3ECF0A3EDF022E0FAA3E0FBA3E0BE
:10185300FCA3E0FD22E8F0A3E9F0A3EAF0A3EBF098
:1018630022ECF0A3EDF0A3EEF0A3EFF022E0F8A357
:10187300E0F9A3E0FAA3E0FB22E5C754F84401F53D
:10188300C77901222518F582E43519F58322E72764
:1018930019471947194722E62618461846184622BB
:1018A300C2AF75D69F020000221214DD05C10712D4
:1018B30014DD61C1071214DDB9C1071214DD40C282
:1018C300071214DD7CC2071214DDA8DE071214DD33
:1018D300B8DE071214DDA499071214DD079A071264
:1018E30014DD569A071214DD839A071214DDD99A70
:1018F300071214DDBCDD071214DD7B7D001214DD3D
:10190300C57D001214DD5B7E001214DDE17E001242
:1019130014DD127F001214DD2A7F001214DD9E7F76
:10192300001214DDB47F001214DDC77F001214DD32
:10193300D17F001214DD0080061214DD5A850612D1
:1019430014DD8C85061214DDB885061214DD458678
:10195300061214DD2C88061214DDB1D7051214DD2E
:101963001DD8051214DDCDD8051214DD98D9051242
:1019730014DDEEDA051214DDDCDB051214DDE3DC25
:10198300051214DDE1DE051214DD14DF051214DD8A
:101993007EDF051214DDA5DF051214DD22E1051239
:1019A30014DDA6E1051214DDBAE1051214DD30E2FF
:1019B300051214DD44F7021214DDBBF9021214DD23
:1019C3001CFB021214DD23FD021214DDA0EA061231
:1019D30014DDCCEA061214DD3DED061214DD7DEDB7
:1019E300061214DDBDED061214DDD1ED061214DD71
:1019F300EAED061214DDDBEE061214DD80EF0612AB
:101A030014DD94EF061214DD36CE071214DD5ACE20
:101A1300071214DD73CE071214DDA5CE071214DDF1
:101A2300D5CE071214DD02CF071214DD64CF0712DF
:101A330014DD73CF071214DD7DCF071214DD8ACFB7
:101A4300071214DD68B7071214DD88B7071214DD17
:101A5300C7B7071214DDE2B7071214DD01B8071286
:101A630014DD67B8071214DD70B8071214DDCDB8A2
:101A7300071214DDF1B8071214DDB2B9071214DD31
:101A8300BFB9071214DDD0B9071214DDB9FF031271
:101A930014DDD1FF031214DDFDFF031214DD4280B8
:101AA300071214DD9681071214DDA481071214DDD9
:101AB300B781071214DDCC81071214DDE18107120F
:101AC30014DDF481071214DD6882071214DDCD8260
:101AD300071214DD6F83071214DD3384071214DD3C
:101AE3004384071214DD5284071214DD34DB07121A
:101AF30014DD58DB071214DD80DB071214DDA8DBCD
:101B0300071214DDA7BE071214DDCEBE071214DDC3
:101B1300ECBE071214DD5FBF071214DDAEAE071271
:101B230014DDC7AE071214DDD3AE071214DDE7AE22
:101B3300071214DD05AF071214DD0FAF071214DD12
:101B430019AF071214DD2CAF071214DDB6AF07125D
:101B530014DD2BB0071214DD5FB0071214DDADB036
:101B6300071214DDFAB0071214DD15B1071214DDE4
:101B73001FB1071214DD45B1071214DDAAB1071214
:101B830014DD09FF031214DD2BFF031214DD7BDECA
:101B9300071214DD7993061214DDA393061214DDE4
:101BA300C093061214DDD393061214DDE9930612D3
:101BB30014DD4794061214DD7F94061214DD779822
:101BC300061214DDBC99061214DDEF99061214DD1A
:101BD300529A061214DDCB9B061214DDF39B0612F8
:101BE30014DD089C061214DD189C061214DD5C9C9F
:101BF300061214DDB79C061214DDC79C061214DD11
:101C0300CBD4071214DDE5D4071214DD0DD507126A
:101C130014DD26D5071214DD4AD5071214DD68D565
:101C2300071214DD7FD5071214DDADD5071214DDBD
:101C3300C8D5071214DDF2DC071214DDF7A407126E
:101C430014DD07A5071214DD0CA6071214DD3EA64A
:101C5300071214DD64A6071214DD87A6071214DD2C
:101C63009EA6071214DDD8A6071214DD3DA707129E
:101C730014DD7FA7071214DDBEA7071214DDEFA73B
:101C8300071214DD26A8071214DD35BD061214DD74
:101C93000BBE061214DD36BE061214DD53BE061249
:101CA30014DD4EBF061214DD90BF061214DDFEBF15
:101CB300061214DD50C0061214DDB8C0061214DD7E
:101CC3009AC1061214DD73C2061214DD999D071220
:101CD30014DDEE9D071214DD409E071214DD819E74
:101CE300071214DD949E071214DDCC9E071214DD37
:101CF300339F071214DDC99F071214DDBDA5061219
:101D030014DDE8A5061214DDB3A6061214DDFAA647
:101D1300061214DD8BA7061214DD04AB061214DDC4
:101D230077AC061214DDF5AD041214DD35AE0412E2
:101D330014DD34B0041214DD5AB0041214DD55B3AB
:101D4300041214DD91B4041214DD24B8041214DD5A
:101D53008EB8041214DD28B9041214DD7BB9041201
:101D630014DDE3B9041214DD33BA041214DD65BAC9
:101D7300041214DD68BA041214DD78BA041214DDF7
:101D83008ABA041214DDCFBA041214DD8CBC041217
:101D930014DDF9BC041214DD44BD041214DDE0BDEE
:101DA300041214DD6CBE041214DD5CC0041214DDD5
:101DB30003C2041214DDA2C2041214DDB9C4041256
:101DC30014DD97C5041214DD4BC7041214DD36D29B
:101DD300071214DD50D2071214DD92D2071214DD5C
:101DE300C5D2071214DDDFD2071214DDF8D20712B1
:101DF30014DD2BD3071214DD4DD3071214DD50CF9E
:101E0300061214DD87CF061214DDDBCF061214DDB4
:101E1300ABD0061214DDE1D0061214DD0ED106128A
:101E230014DD60D1061214DD7ED1061214DDA2D1B9
:101E3300061214DD24D2061214DDAED2061214DD0E
:101E4300DFD2061214DD25D3061214DD43D30612A6
:101E530014DD71D3061214DD95D3061214DDCBD332
:101E6300061214DD2AD4061214DD4CD4061214DD36
:101E7300ABD4061214DDE4D4061214DDF2D4061238
:101E830014DDF79C061214DD319D061214DD709EDD
:101E9300061214DDA09F061214DD97A5061214DDA9
:101EA30076C3061214DD5FC4061214DDA0C4061245
:101EB30014DD4FC5061214DD23D8071214DD94D8A0
:101EC300071214DDF7D8071214DDC489061214DDD6
:101ED300E38A061214DDF18B061214DD388D061227
:101EE30014DD908D061214DDD58D061214DDE38DFD
:101EF300061214DD138E061214DDAA8E061214DDEB
:101F0300478F061214DD5390061214DDEB9106126F
:101F130014DD6E93061214DD7EA8071214DDD9A812
:101F2300071214DD12A9071214DDFAAA071214DD31
:101F330067F9061214DDACF9061214DDE2F9061294
:101F430014DD99FA061214DD3AFC061214DDA7FC1F
:101F5300061214DDF7FD061214DD41B3051214DD7C
:101F630045B4051214DDBBB4051214DDA7B5051283
:101F730014DDF3B5051214DD5BB9051214DDA3B945
:101F8300051214DD73BA051214DDBDBA051214DD92
:101F930026BB051214DD6BBB051214DDBDBB051298
:101FA30014DD0FBC051214DD68BC051214DDCBBCB7
:101FB300051214DD39BD051214DD8EBD051214DDC5
:101FC30083BE051214DDE8BE051214DDB6BF05128B
:101FD30014DD2DC8071214DD6AC8071214DD8FC87B
:101FE300071214DDABC8071214DDC0C8071214DDD5
:101FF3008B84071214DD9A85071214DD42860712BB
:1020030014DD3C87071214DD5D87071214DD778723
:10201300071214DD1988071214DD4A88071214DD2C
:10202300CA88071214DD91F6051214DDF3F60512C2
:1020330014DD87F7051214DD16F9051214DD57FCBC
:10204300051214DD6DFC051214DD2FFD051214DDE0
:10205300D2CC071214DDF2CC071214DD06CE071220
:1020630014DD09CE071214DD85D3071214DDBBD3AB
:10207300071214DDD5D3071214DD17D4071214DDAC
:1020830027D4071214DDC1D4071214DD3AB60612A1
:1020930014DD44B6061214DD7EB6061214DDE7B66F
:1020A300061214DD04B7061214DDA6B7061214DDFA
:1020B300AFB7061214DDF4B7061214DD1DB806120D
:1020C30014DD2AB8061214DD9BB8061214DD26B9F6
:1020D300061214DD74B9061214DDB2B9061214DD4A
:1020E30017BA061214DD3ABA061214DDB1BA061293
:1020F30014DD08BB061214DD43BB061214DD78BBE6
:10210300061214DD8ABB061214DD9CBB061214DD15
:10211300BBBB061214DDC4BB061214DD7FBC061262
:1021230014DDCBBC061214DD09BD061214DDE5D0A7
:10213300071214DD25D2071214DDE47F001214DD2B
:10214300A4AB071214DDE8AB071214DD30AC0712A1
:1021530014DD16AE071214DDA5AE071214DD7EFFE3
:10216300041214DD0080051214DD2481051214DD30
:102173005E81051214DD0883051214DD3283051216
:1021830014DDA785051214DDE785051214DD7D87AF
:10219300051214DD1A88051214DD6C88051214DD8E
:1021A3000F89051214DD4789051214DD898905128B
:1021B30014DDF88A051214DD468C051214DD778EC2
:1021C300051214DDA58E051214DDCC8E051214DD67
:1021D300D58E051214DD258F051214DDB78F051278
:1021E30014DDE692051214DD6993051214DD3DDE5C
:1021F300071214DD53DE071214DDA491071214DD58
:10220300BA91071214DD5E92071214DD9D92071234
:1022130014DDBA92071214DDEB92071214DD389322
:10222300071214DD6B93071214DDA693071214DD56
:102233009B95071214DD20D5061214DDC6D60612AF
:1022430014DD07D8061214DD1FD8061214DD4C8DD9
:10225300071214DD838E071214DDE28F071214DDDB
:102263003AAE061214DD63AF061214DD62B0061235
:1022730014DDA6B1061214DDC5B2061214DD97B340
:10228300061214DDCAC2071214DD98C3071214DD47
:10229300B693051214DD7B94051214DD86940512A2
:1022A30014DD3795051214DD9695051214DD92970A
:1022B300051214DD0298051214DD079A051214DDC8
:1022C300409A051214DDE69C051214DD0E9D0512DD
:1022D30014DD909D051214DD0B9E051214DD6E9F17
:1022E300051214DDCB9F051214DD49A0051214DD80
:1022F30045A5051214DDA6F4061214DDCDF406126D
:1023030014DDDBF6061214DD02F7061214DD57F7AF
:10231300061214DD25F8061214DD9DF8061214DDED
:10232300FEB9071214DD16BA071214DD15BB071226
:1023330014DD1CBB071214DD45BB071214DD2DDAB7
:10234300071214DD8CDA071214DDCADA071214DD62
:102353000BDB071214DD48E0061214DD6EE00612F3
:1023630014DDAEE1061214DDA3E2061214DDCAE2A7
:10237300061214DD63E3061214DDB7E3061214DD5F
:10238300D2E4061214DD65C9061214DD07CA06126B
:1023930014DD27CB061214DD79CC061214DD37CEFB
:1023A300061214DD3EF4031214DD92F4031214DD5D
:1023B300BCF5031214DDE8F6031214DDD6F703129D
:1023C30014DD72FA031214DD29FC031214DD74FC0C
:1023D300031214DD82FE031214DD5EA1071214DD65
:1023E300B1A1071214DD34A2071214DDC0A4071231
:1023F30014DD94CF071214DD0ED0071214DD29D09B
:10240300071214DD7CC6071214DD7FC7071214DD23
:10241300E7C7071214DDC5C4071214DD10C5071280
:1024230014DD60C5071214DD7BC5071214DD4BCB29
:10243300071214DDA6CB071214DDA2CC071214DD9C
:1024430056BC071214DDBFBC071214DD35BD0712DD
:1024530014DD50BD071214DDCDDB071214DD0CDCD7
:10246300071214DDE3DA061214DD59DC061214DD5B
:1024730089DC061214DD50DD061214DDC7DD0612F9
:1024830014DD45DE061214DD24DF061214DD19DE29
:10249300071214DD2CDE071214DDFBD5071214DD41
:1024A3000AD6071214DD6AD6071214DDE1FF021201
:1024B30014DDE7FF021214DDEDFF021214DD0080CC
:1024C300041214DD0C80041214DD6E80041214DD7A
:1024D3007880041214DD0B81041214DD4781041289
:1024E30014DD0382041214DD1682041214DD6682E5
:1024F300041214DDD082041214DD3583041214DDBA
:102503006B83041214DDED83041214DD9C85041225
:1025130014DD7087041214DD5688041214DDA889B3
:10252300041214DDFE8B041214DD678D041214DD16
:10253300048E041214DDAC92041214DD9A93041277
:1025430014DD3894041214DD6494041214DD009530
:10255300041214DD1595041214DD3995041214DDEB
:102563009F95041214DDBC95041214DDE695041244
:1025730014DD6397041214DD8497041214DD0A98A2
:10258300041214DDB098041214DDF798041214DD5C
:102593006A99041214DDF699041214DD5A9A04128E
:1025A30014DDBA9A041214DD509B041214DDCB9B84
:1025B300041214DDFE9B041214DD609C041214DD6E
:1025C300C29D041214DD329E041214DDE19E041236
:1025D30014DD37A0041214DDCFA0041214DD3BA1D7
:1025E300041214DD7EA3041214DD0AA5041214DD03
:1025F30035A5041214DD1BA7041214DDB1A80412BF
:1026030014DDBAA9041214DD67A5051214DD1EA694
:10261300051214DD25A7051214DDA3A7051214DD89
:10262300E5A8051214DD06A9051214DDBEA90512DD
:1026330014DD69AA051214DD49AE051214DD65B077
:10264300051214DDCCB1051214DD36DD071214DDDD
:10265300CAD6031214DD25D7031214DDAFD7031234
:1026630014DD20D9031214DDF8D9031214DDE1DAE5
:10267300031214DDF8DA031214DD4ADB031214DD4E
:10268300AEDB031214DDEFDB031214DD02DC0312F5
:1026930014DD58DC031214DDB1DC031214DDC9DCD4
:1026A300031214DD56DF031214DDEBDF031214DD16
:1026B30015E0031214DD5EE0031214DD4EE2031293
:1026C30014DDB8E2031214DD8CE3031214DDCFE34F
:1026D300031214DDE9E3031214DD30E4031214DD05
:1026E30052E4031214DDFCE4031214DDF4E50312D7
:1026F30014DD4EE6031214DD9FE6031214DD37E802
:10270300031214DDAFEA031214DD2DEB031214DD03
:102713005AEB031214DDCDEB031214DDF0EB0312BD
:1027230014DD6AEC031214DD35ED031214DD72EDD2
:10273300031214DDD4ED031214DD95EE031214DD40
:1027430098EE031214DDA2EE031214DDACEE0312B5
:1027530014DDBFEE031214DD31EF031214DD5AEF63
:10276300031214DD6DEF031214DD99EF031214DD70
:10277300C0EF031214DDE4EF031214DD1FF00312A4
:1027830014DD91F0031214DDB9F0031214DDFAF035
:10279300031214DD2FF1031214DD4FF1031214DDC4
:1027A3008CF1031214DDC3F1031214DDC3F203121F
:1027B30014DDF6F3031214DD0CF4031214DD9ADCBA
:1027C300071214DDB2DC071214DDF6FF041214DD68
:1027D3007EF8041214DDCDF8041214DD6DFA041230
:1027E30014DD28FC041214DD6AFC041214DD53FD0D
:1027F300041214DD5DFE041214DD7FFE041214DDE9
:1028030041B2071214DD4AFF041214DD2ED802125E
:1028130014DD51D8021214DD44D9021214DD8DD90E
:10282300021214DDE5D9021214DD43DA021214DDBB
:102833008FDA021214DD05DB021214DD91DB0212C2
:1028430014DD06DC021214DD49DC021214DD29E07A
:10285300021214DD78E2021214DDABE2021214DD7F
:1028630022E3021214DD53E6021214DDC8E602125B
:1028730014DD53E8021214DD60E9021214DD76EA76
:10288300021214DDECEA021214DDB3EB021214DDC2
:102893001CEC021214DDCAC0071214DDFCEC021298
:1028A30014DD38EE021214DDF3EF021214DD9FF192
:1028B300021214DD91F2021214DD21F3021214DD6F
:1028C30075F4021214DD97F5021214DDEEF502120F
:1028D30014DD8BF6021214DD07E3041214DDA7E303
:1028E300041214DD11E4041214DDB8E4041214DD3F
:1028F30017E5041214DDC3E5041214DD6CE80412B9
:1029030014DD92E9041214DD16EA041214DDF3EB6C
:10291300041214DD98EC041214DD3BED041214DDF3
:102923009AED041214DD53EE041214DDD2EF0412F7
:1029330014DD8FF1041214DD10F3041214DD6AF4B4
:10294300041214DD7AF5041214DD20F6041214DDEA
:102953003FF7041214DD86C8041214DDFEC8041206
:1029630014DD46C9041214DD8AC9041214DDD3C967
:10297300041214DD1DCA041214DD52CA041214DD3C
:10298300D0CA041214DD2ACB041214DD83CC041242
:1029930014DD02CD041214DD19CE041214DD3BCE76
:1029A300041214DD47CF041214DD58CF041214DDD2
:1029B30070CF041214DD90D0041214DDADD00412D4
:1029C30014DD80D1041214DDA4D1041214DDBBD1B3
:1029D300041214DDDCD1041214DDFED1041214DD63
:1029E300F0D2041214DD48D3041214DDBED4041251
:1029F30014DD1CD5041214DD3BD5041214DD6DD691
:102A0300041214DDEAD6041214DD57D7041214DDC0
:102A130097D7041214DDF9D7041214DDA9D80412D0
:102A230014DD7BDA041214DD66DB041214DD60DCD2
:102A3300041214DD66DD041214DD82DE041214DDDB
:102A430090DE041214DD69DF041214DD09E00412C0
:102A530014DD4DE0041214DD62E0041214DD73E1B1
:102A6300041214DD16E2041214DD6EE2041214DD06
:102A730090B4071214DDC9B5071214DD86B6071228
:102A830014DDEAB6071214DDA895071214DDC69506
:102A9300071214DD0A96071214DD3096071214DDAF
:102AA3005696071214DD6E96071214DD86960712EA
:102AB30014DD9E96071214DD0197071214DD439768
:102AC300071214DD6598071214DD6E98071214DDE2
:102AD3007798071214DD8098071214DD8A9807127D
:102AE30014DDAB98071214DDF288071214DDD28CC3
:102AF300071214DDE08C071214DDE58C071214DDD8
:102B03008BFE061214DD39DC071214DDD4FF01122B
:102B130014DDBFC9071214DD5DDE071214DD00806A
:102B2300021214DD5780021214DDC380021214DD79
:102B33004F81021214DD0582021214DD4D8202124E
:102B430014DD6682021214DD8982021214DDAB8267
:102B5300021214DDE982021214DD3883021214DD3D
:102B63006383021214DDC183021214DD688402122E
:102B730014DD1085021214DD8C85021214DD5986D2
:102B8300021214DDA086021214DDEC86021214DD9B
:102B93007487021214DDAD87021214DD038802125A
:102BA30014DD1F88021214DD4E88021214DD5A8AC6
:102BB300021214DD888B021214DDB48B021214DDB1
:102BC300E88B021214DD098C021214DD188C021238
:102BD30014DD238C021214DDD28C021214DD428D1B
:102BE300021214DDCD8D021214DDD58D021214DD17
:102BF300428E021214DD7E8E021214DD448F021205
:102C030014DD1790021214DD6C90021214DD0B9187
:102C1300021214DD6591021214DDAA91021214DD71
:102C23004394021214DD8695021214DD7098021289
:102C330014DD5499021214DD389A021214DD499AF4
:102C4300021214DDBB9A021214DD529B021214DD30
:102C5300B79B021214DDA79C021214DDCC9C021256
:102C630014DDEA9C021214DD069D021214DD799D27
:102C7300021214DD889D021214DD109E021214DD6F
:102C83000D9F021214DD1A9F021214DD239F0212FC
:102C930014DD05A1021214DD27A2021214DD37A2EE
:102CA300021214DD65A3021214DDE4A3021214DD83
:102CB300FFA4021214DD3BA5021214DD15A70212B4
:102CC30014DDD2AA021214DDE6AA021214DDF0AA60
:102CD300021214DDFAAA021214DD04AB021214DD8F
:102CE3001DAB021214DD27AB021214DD94AB0212EA
:102CF30014DD9FAB021214DDC7AB021214DDD2AB9D
:102D0300021214DD37AC021214DD42AC021214DDE0
:102D130066AC021214DD8AAC021214DDFCAC0212A2
:102D230014DD45AD021214DD61AD021214DDD2AD26
:102D3300021214DD1EAE021214DD67AE021214DDA0
:102D4300A5AE021214DD26AF021214DDCDAF0212BE
:102D530014DD9CB1021214DD01B2021214DD2FB393
:102D6300021214DD55B3021214DD9DB4021214DDF8
:102D7300D7B7021214DDD5B9021214DDA0BB0212BB
:102D830014DD39BC021214DD3ABE021214DDEFBEAB
:102D9300021214DD28BF021214DD8EBF021214DDED
:102DA30098BF021214DDC1C1021214DD00C3021266
:102DB30014DD57C3021214DD02C4021214DDB2C5BE
:102DC300021214DDFFC6021214DD1FC7021214DD46
:102DD30074C7021214DD75C8021214DD9DC80212F5
:102DE30014DDFCC8021214DDF4C9021214DD6BCA2F
:102DF300021214DD7ECB021214DDECCB021214DDC1
:102E0300EBCC021214DD45CF021214DD6ECF021299
:102E130014DDD4D0021214DD56D2021214DDADD269
:102E2300021214DD5BD3021214DD00D4021214DD8E
:102E330059D4021214DD17D5021214DDA9D50212DA
:102E430014DD08D6021214DD4AD6021214DD7BD635
:102E5300021214DDD2D7021214DD0080031214DD36
:102E63003280031214DD6B80031214DD29820312F6
:102E730014DDFF82031214DD5E83031214DD7484F8
:102E8300031214DDC084031214DD4E87031214DD14
:102E9300288A031214DD6F8B031214DD078C0312CF
:102EA30014DD138C031214DD5C8C031214DD9E8D70
:102EB300031214DD948E031214DDBE8E031214DD8F
:102EC300148F031214DD6D8F031214DDE08F0312D0
:102ED30014DD1692031214DD9893031214DD839408
:102EE300031214DDCD95031214DD0598031214DDCE
:102EF300029B031214DD119B031214DDA59B031225
:102F030014DD509C031214DD939C031214DDDC9C2E
:102F1300031214DD2C9D031214DD909D031214DDA6
:102F2300029E031214DD1E9E031214DD4D9E031236
:102F330014DD8C9E031214DD879F031214DD36A06B
:102F4300031214DDB3A2031214DDE5A3031214DD8F
:102F5300BDA4031214DD3FA5031214DD74A90312EB
:102F630014DD81A9031214DDB0A9031214DD0BAA29
:102F7300031214DD3EAA031214DDB6AA031214DDF4
:102F8300E9AA031214DD4AAB031214DD9AAB031250
:102F930014DD67AC031214DD20AD031214DDE4ADC0
:102FA300031214DD5EB0031214DDC0B1031214DD8D
:102FB30011B3031214DD35B4031214DD38B4031254
:102FC30014DD67B4031214DD5FB6031214DD1EB7FC
:102FD300031214DD4DB7031214DD6BB8031214DDB5
:102FE30033B9031214DDF1BA031214DD23BB031248
:102FF30014DD65BB031214DD64BC031214DDD7BCFE
:10300300031214DD00BF031214DD5FBF031214DDCE
:10301300B3BF031214DDE2C1031214DDC5C20312F0
:1030230014DD81C3031214DD95C3031214DDA9C398
:10303300031214DDD6C3031214DD06C4031214DD18
:10304300C1C5031214DDD3C6031214DD28C703124E
:1030530014DD71C7031214DD98C7031214DD60C8B1
:10306300031214DD06C9031214DD8CCA031214DD26
:10307300D3CA031214DD45CB031214DD9ACC031219
:1030830014DD43CD031214DD77CD031214DD8FCD90
:10309300031214DD32CE031214DDAED0031214DD9D
:1030A30056D2031214DD74D2031214DD92D203122A
:1030B30014DD5ED3031214DDACD6031214DDC18517
:1030C300011214DDF985011214DDF98A011214DDF0
:1030D3003F8B011214DD758C011214DDDA8C0112A1
:1030E30014DD4F8E011214DD5991011214DD829209
:1030F300011214DD959C011214DD259D011214DDCE
:103103000FA0011214DD1CA1011214DD7FA1011215
:1031130014DDC7A2011214DD35A5011214DDC7A603
:10312300011214DD54A7011214DD73A8011214DD7A
:1031330000A9011214DD0AA9011214DD32A901123A
:1031430014DDD2A9011214DDBDAA011214DD8AAB6C
:10315300011214DDA7AB011214DDD0AB011214DD93
:10316300FDAB011214DD44AE011214DD13AF0112E5
:1031730014DD52AF011214DDD4AF011214DD75B0AA
:10318300011214DDA7B0011214DDEEB0011214DD3B
:1031930021B1011214DD65B1011214DDB4B10112C4
:1031A30014DDB9B1011214DD15B2011214DD59B2E7
:1031B300011214DD33B3011214DD98B3011214DDCF
:1031C300FEB3011214DD79B4011214DDE1B701126B
:1031D30014DDE4B8011214DD62BA011214DD78BD06
:1031E300011214DD1ABE011214DD63C0011214DDD5
:1031F3001EC1011214DD5DC1011214DD35C30112BC
:1032030014DD52C3011214DD5BC3011214DD64C368
:10321300011214DD6FC3011214DD8EC3011214DD1C
:1032230032C5011214DD8FC5011214DD99C50112D7
:1032330014DDA3C5011214DD02C6011214DD4CC650
:10324300011214DD4DC7011214DDA4C7011214DDF0
:10325300B5C8011214DDFEC8011214DDB8C901128C
:1032630014DDCFCA011214DDA4CB011214DDEBCCA3
:10327300011214DDEFCD011214DDE8CE011214DDCD
:1032830000CF011214DD37CF011214DD41CF01123B
:1032930014DD4BCF011214DD56CF011214DD74CFB0
:1032A300011214DDBCCF011214DD1AD0011214DD9A
:1032B30041D0011214DD53D0011214DD08D10112E3
:1032C30014DD41D1011214DD63D2011214DDB6D233
:1032D300011214DD9CD3011214DDC3D3011214DDDA
:1032E30033D4011214DDAFD4011214DD0BD6011255
:1032F30014DD32D7011214DDF4D7011214DDC2D864
:10330300011214DD80D9011214DD68DA011214DD13
:1033130012DB011214DD7ADB011214DD2FDC011242
:1033230014DD8BDC011214DDE3DC011214DDA9DDF5
:10333300011214DDCCDD011214DD87DE011214DD70
:10334300A9DE011214DD0ADF011214DD3AE10112D4
:1033530014DD33E2011214DDDFE2011214DD00E5B6
:10336300011214DD49E5011214DD94E5011214DDA7
:10337300F0E5011214DD4EE6011214DD72E60112CE
:1033830014DD96E6011214DDCBE6011214DDF3E63B
:10339300011214DD38E7011214DD8CE7011214DD8C
:1033A300E5E7011214DDDFE8011214DD7DEA011205
:1033B30014DDC2EA011214DDEBEA011214DD74EB31
:1033C300011214DDE7EB011214DDF5EB011214DD3C
:1033D30019EC011214DD6FEC011214DD8AEC0112F9
:1033E30014DD45ED011214DD71ED011214DDB4EDB0
:1033F300011214DD17EE011214DD25F0011214DDA4
:1034030051F0011214DD0CF1011214DDF0F101127F
:1034130014DD84F2011214DD4AE2051214DD82E2A6
:10342300051214DDA3E2051214DDE5E2051214DD35
:1034330049E3051214DD53E3051214DD63E30512BA
:1034430014DD9AE3051214DD43E7051214DD0BE9DD
:10345300051214DDEFEA051214DD91EB051214DDFC
:103463001BEC051214DDC243001214DD6B44001281
:1034730014DD4A45001214DD5646001214DD76466B
:10348300001214DD9847001214DD4849001214DDC0
:10349300B549001214DD864A001214DD8C4B00126C
:1034A30014DD044C001214DD3F4C001214DD984C63
:1034B300001214DDD34C001214DD1C4D001214DD78
:1034C300B04D001214DD464E001214DD1B4F0012E6
:1034D30014DDEE4F001214DD7C50001214DDA250F7
:1034E300001214DDCF50001214DD0051001214DD60
:1034F300CD51001214DDDD51001214DD30520012E3
:1035030014DD3D52001214DD4A52001214DD5352F1
:10351300001214DDB752001214DD1553001214DD2E
:103523006053001214DD7B53001214DDA25300120A
:1035330014DDBF53001214DDCB53001214DD5C55B0
:10354300001214DD7555001214DDF155001214DD5F
:103553000456001214DD1456001214DDB85600127E
:1035630014DD2458001214DD3759001214DDD75925
:10357300001214DDE159001214DD605A001214DD4B
:10358300715A001214DDB05A001214DDDE5A001213
:1035930014DDAB5B001214DD025C001214DD3B5C36
:1035A300001214DD915C001214DDAF5C001214DD17
:1035B300FD5C001214DDC85D001214DD165E0012FE
:1035C30014DD635E001214DDE65E001214DD105F8D
:1035D300001214DD465F001214DD555F001214DD86
:1035E300B45F001214DD2C60001214DD6D60001254
:1035F30014DDBD60001214DDE860001214DD026109
:10360300001214DD1C61001214DDF161001214DDDF
:10361300FB61001214DD3662001214DD46620012F3
:1036230014DD9762001214DDAB62001214DDCD636A
:10363300001214DDE263001214DD7564001214DD60
:10364300E964001214DD8E65001214DD9965001221
:1036530014DDFC66001214DD1867001214DD6467C4
:10366300001214DDD267001214DD0468001214DDA9
:103673001E68001214DD7E68001214DD1D6900123D
:1036830014DD6869001214DDBB6B001214DD536C8A
:10369300001214DDCA6C001214DD276F001214DD52
:1036A3003F6F001214DD426F001214DD4E6F0012E3
:1036B30014DD626F001214DD6A6F001214DDA16F56
:1036C300001214DD9570001214DD1F71001214DD59
:1036D300A171001214DD2172001214DDF8720012C0
:1036E30014DD1A73001214DDB373001214DD1074A9
:1036F300001214DD1374001214DD8274001214DD41
:10370300CE75001214DDE176001214DD6C77001221
:1037130014DD7F78001214DD4679001214DD777909
:10372300001214DD9D79001214DDA679001214DD58
:10373300D579001214DD857A001214DD357B001271
:1037430014DDA87B001214DD4B7C001214DDBE7C5B
:10375300001214DDFD7C001214DD467D001214DD21
:10376300B5B1071214DDEBCB051214DD60CA0512E7
:1037730014DD4FC9051214DD97C8051214DD04C703
:10378300051214DDA0C6051214DDBEC3051214DD37
:10379300EAC2051214DDEAC1051214DD0BC10512DC
:1037A30014DD95DD071214DD14DA071214DDAED92A
:1037B300071214DD7ADD071214DDF4DD071214DDC0
:1037C3002BD9071214DDF4FF051214DD31E80612BC
:1037D30014DD0AE7061214DD86E6061214DD78E529
:1037E300061214DDFBFE011214DD21FE011214DDAD
:1037F30057FD011214DDC6FB011214DD8FFB01120C
:1038030014DD61FB011214DD15FB011214DD7EFAD8
:10381300011214DDEEF9011214DDC8F9011214DDF1
:103823007DF9011214DD47F9011214DDCAF8011202
:1038330014DD65F8011214DD14F8011214DD3CF7F0
:10384300011214DDACF6011214DD60F6011214DD71
:10385300DBF5011214DD96F5011214DD7AF5011280
:1038630014DD22F4011214DD8EFF051214DDF4F3CE
:10387300011214DD79FF051214DD69FF051214DD51
:1038830095DE071214DDF9FF041214DD0BD80712BD
:1038930014DD00D8071214DDF1D7071214DD2CD77D
:1038A300071214DDC1F3011214DD45F3011214DD17
:1038B300FAF2061214DD55F1061214DD1BD70712B6
:1038C30014DD63F0061214DDA8EF061214DD66D7CB
:1038D300051214DD0DD7051214DD6AB3071214DDCA
:1038E300D8D6051214DD1FEC021214DDA3D605127F
:1038F30014DD6FD6051214DD02D6051214DDEAD5E8
:10390300051214DDC5D5051214DD96D2051214DD9A
:1039130069D0051214DD69CE051214DDEFCD051251
:1039230014DDA0CD051214DD5ACD051214DDFCCC37
:10393300051214DD83F4051214DD08F4051214DDF9
:10394300A0F2051214DD27F1051214DD4EB30712A0
:1039530014DDB0EE051214DD35ED051214DDD9ECDE
:10396300051214DDCAEC051214DDC9FE04000000C3
:1039730080FB000000002001C08500000100200141
:10398300C085000002002001B8850000030020016B
:10399300B9850000040042016D800000050042016A
:1039A3007E80000006004201A08000000700200185
:1039B300AB800000100042018F8000001100200145
:1039C3008208000000404201A08000000080420104
:1039D300D281060000001011000007000000303300
:1039E30000000700100030330000070001402033BF
:1039F30000000700024020330000080000002033CD
:103A030000000C005500393300000C001C00423349
:103A13000000120055002101000014000E00422294
:103A23000000000400002104000002040000290437
:103A33000000030400002904000005040000290419
:103A430000000C040000390400000D0400003904D8
:103A530000002A04000039040000020700002904C2
:103A63000000020700021805BB85020700033005AA
:103A73000000020701032205E48402070203220572
:103A8300E884020703031801BE8502070603180131
:103A93000000040B00001B05CC84040B0001290566
:103AA3000000040B030129050000040B060129048F
:103AB3000000040B00022105AB85040B0102210564
:103AC300B385040B02022105AB85040B0302210518
:103AD300B185040B04022105AB85040B0502210506
:103AE300AD85040B000321040000040B0004210531
:103AF300AB85040B01042105A985040B05052105EC
:103B03000000040B080521050000040B0B05290424
:103B13000000040B100528040000040B0006210517
:103B2300AB85040B01062105B385040B02062105B1
:103B3300AB85040B03062105B185040B040621059F
:103B4300AB85040B05062105AF85000000000000CE
:103B530001203439000102203439000103203439B3
:103B630001000420343900010500A01E00000600F6
:103B73000000000007006637000008008A220000EA
:103B83000000000000000A00000000000B207E225D
:103B930010000C02CC3700000D00000000000E20C6
:103BA300343910010F2034391000000000000000E8
:103BB30000000000000000000000000013009E232E
:103BC30000000000000000001500C61C41001600A4
:103BD300C61C500017019E230000180100000000BE
:103BE3001900F02200001A00F02200001B008023BD
:103BF30010001C01C61900011D01C61900011E0099
:103C03001A2310031F01B03808002000A624000067
:103C13002100DA3800002200201D10002300CC37D9
:103C2300000000000000000000000000000026016A
:103C33005A22100027000000000028094822000033
:103C430029005E2410002A60541900032B227E22CF
:103C530010002C00882410002D02882410002E0050
:103C6300000000002F000000000030003823100087
:103C730031010000000032000000000033000000AA
:103C83000000340000000000350000000000360092
:103C930000000000370000000000380000000000B2
:103CA3003901C61900013A00000000003B00000082
:103CB30000003C00000000003D00000000008F00F9
:103CC3000100F71B87000100B81E350004007C1EAD
:103CD30025000200801E26000200821E270002002B
:103CE300841E280001008E1E290001008F1E8400FF
:103CF3000400901E86000100941E2A000100951EF8
:103D03002B000100961E2C0001009A1E2D000800B6
:103D1300DF1B2E0001009B1E2F0001009C1E3000A4
:103D230001009D1E310001009E1E32000100E71BB1
:103D330033000100E81B340001009F1E3600010020
:103D4300E91B38000100A01E39000100991E830001
:103D53000200B61E63000100F41B64000100971EFD
:103D630065000100981E6D000100F51B710008003D
:103D7300D71B66000100B51E43000100A61E4400C8
:103D83000200A71E45000100A91E46000200AA1E4C
:103D930047000800EC1B48000100AC1E4B0001006B
:103DA300AD1E04000100B91EA1000100BC1E3700B6
:103DB3000100BB1E88000100BA1E3C000100EA1B83
:103DC3003D000100A11E49000200AE1E6700010074
:103DD300F61B4D000200B01E4E000100B21E4F0044
:103DE3000200B31E3E000100A51E51000100A21EE9
:103DF30052000100A31E53000100A41E5400010041
:103E0300EB1B000000000000000136360101000139
:103E1300020100010301000104010606050200007E
:103E2300070100340801000F090401010D0100FF1F
:103E33000E08000017020000190100FF1A0100011B
:103E43001B0100FE1C0100081D0200001F010001F0
:103E530020010001210200002301000F24020000C1
:103E63002601000127010008280200FF2A0100079C
:103E73002B0102402C0100002D0100012E01000145
:103E83002F0100FF30010B1D310800003A0100082B
:103E93003B01000F3C0100013D0100FF3E04000017
:103EA30042040000460400004A0400004E040000DF
:103EB30052040000560400005A0400006A0078000F
:103EC30046244C2452246C00F000F223F823FE23F2
:103ED3006B00F0000A24102452246600F0000A2428
:103EE30010245224670014001C242224282469006F
:103EF30014002E243A243424EE22E803B623D423D8
:103F0300CE236400010000000000EC2363000100E5
:103F130000000000EC236200010000000000EC231D
:103F23006100010000000000EC23700001000000AC
:103F33000000EC23010371030103010301030103E7
:103F43000103220302030103100300030003000320
:103F530000030003000300034203000324030603DA
:103F63000003000304031203250323032503230390
:103F730004030403000300030003440300030003DA
:103F830023030003650321003503810300030503B5
:103F93000003000300030003250323030304710448
:103FA3000204600411047004020402040104020404
:103FB30010046104000414046304730472046204AF
:103FC300430400041304060400040004040412045C
:103FD300000400040004000451046400000400040D
:103FE3000004440400040004000400046504000405
:103FF3003504810464000504000483040004010102
:1040030071010101010111010101310101010101ED
:104013008001100161013B0014006301730172010F
:10402300620143010001130106013D013500040152
:104033001201000100010001000104010401330128
:1040430033013C01440132013600000100016501E6
:104053000001350081010001050182018301000196
:1040630003027102300160021102700201020202B6
:1040730002028002100261023A00410063027302ED
:1040830072026202430200021302380000020002BD
:1040930004021202000200020002000204020402EF
:1040A300370037003C0244020002390000020002DC
:1040B30065020002350281020002050282028302C8
:1040C3000002030071003001600011007000310232
:1040D30020035004800010006100000014006300FE
:1040E300730072006200430000001300060000002A
:1040F30000000400120000000000000000000400A3
:104103000400370037003C024400000000000000B8
:10411300000065000000350081000000050000007C
:104123008300000036000100060000000F000000BD
:104133000000000000000000000003FFFF00000477
:1041430003FFFF0000FFFF0FF4010005C404032079
:10415300000100000B000000000000000003010F3D
:10416300000000000000000000000000000000004C
:10417300000000000000000000000000000000003C
:104183000000B425F025BA25DC24C025F625C0257A
:104193000226C625DC24C025F625CC25DC24D22521
:1041A300DC24D825DC24DE25DC24E425DC24EA25F4
:1041B300DC240000000000000000000000000000FC
:1041C30000000000000000000000000000000000EC
:1041D30000000000000000000000000000000000DC
:1041E300F6281300A2281F00A8281F80AE2801006C
:1041F300F62802002A280300302804003628050088
:104203003C28060048283000662831006028320028
:1042130072283300782835007E283400842836003D
:104223008A281100E63814009C2815005A28FFFF3D
:1042330000000A0000000200000004000000080063
:10424300000010000000200000004000000080007B
:10425300000000010000000200000004000000084C
:10426300000000100000002000000040000001FAE0
:1042730030062431081E310B3C31100C2E02003164
:104283000512310706310CE2300DEE3064082CFFC5
:10429300000007ECFDFDFDECDCDCCCBCACAC9C9C75
:1042A3008C7C7C6C6C5C5C5C4C4C3C3C2C2C1C1CFB
:1042B30000160F00000B150B020002220F33000043
:1042C3000E5A6967426565416C6C69616E6365305E
:1042D3003901030507090B0D0F00020406080A0C38
:1042E3000D150AF4D4C0A595827263615550490037
:1042F3000119161816161823030030301718192140
:10430300301B1D1F30303016181920231A1C1E3085
:1043130000393D3F373C3C362C442D00034A49438A
:104323004E181A2505020C0E020B040B0A0708008F
:104333000F02040201010101090200BE040AE8039D
:104343000000FA060000000095420E00E803E44274
:104353007F001E1E0510FF04040C04080C2800092E
:104363000903010C080508150300FF03100A00E008
:1043730004124BF2A2E792AF22E4F0A3F0A3F022DF
:10438300A312437CA3F0227F0C02120AE0F508E497
:10439300F509F50AF50B227401F090051CE0640F92
:1043A30022740912150D7F0402120AA3A3E024F557
:1043B300C394132290053C126EE27A147B0022C050
:1043C30082C083901D1374C6F0A37434F0A374D811
:1043D300F0A37434F0901D1774AEF0A37434F0A3FB
:1043E30074A8F0A37434F0A374E4F0A37434F0A3BA
:1043F30074EAF0A37434F0A374DEF0A37434F0A36E
:104403007496F0A37434F0901D2374BAF0A374343B
:10441300F0A374C0F0A37434F0A374B4F0A37434A1
:10442300F0A374F0F0A37434F0901D3412646F6041
:10443300061266D9122152901D31125B9B7408F04B
:10444300A3E4F0A3F0901DD4F0901D36F07C0BFD97
:10445300F97A377B1D12209E7C0B7D0079007A420E
:104463007B1D12209E025BA474F7120E5574F71283
:1044730015F0EAFEEBFF1259C274051245387403B6
:10448300F0EE2402FAE43F124512242DFCE43FFD32
:104493008C828D831246501245216008124D9A7406
:1044A300FFF0A3F0EE242BE43F1C1CFD8C828D83D4
:1044B300A3E0C0E08A828B831259D3D0E012452156
:1044C300888289831261CB2403126CAC122350744B
:1044D300081218877403F090053112131174021235
:1044E30015D27903EEFAEFFB123682740212150D20
:1044F300E9F5087007EEFAEFFB123568A9087409AD
:10450300024DAAF582E43FF5831279171261C0FBCD
:104513008A828B83124530E8F0A3E9F0EE22126F12
:1045230000124530E8F0A3E912747CE02212461B26
:104533008A828B8322F0A3E4F012454022EE240DFD
:10454300F582E43FF5832274F1120E55EAFEEBFF88
:104553008C088D09890A1246258A828B8312461B91
:10456300740F12188712463EE824FF18E934FFF946
:1045730088828983E50A12463090053612462D90CB
:10458300053512462D741112188712463EEE240487
:10459300FCE43FFD880B8A828B83E0F50C8C828DD3
:1045A30083E0250CC3950B126EFCE8F0A3E91259C6
:1045B3002FA3A3A3A3A3A3A3A3E064037008125C84
:1045C3008BF0A3E4800312493112453B7409F07563
:1045D3000C37750D1D750E00780C1214F612492553
:1045E300122092740312150D750CFF750DFF780CD4
:1045F3001214FAAC08AD097903EEFAEFFB12368216
:10460300740212150DE9F5087007EEFAEFFB123587
:1046130068A9087F0702120AE024FFF8A3E034FF29
:10462300F922EE2402FAE43FFB22124650124634EA
:1046330022F0E824FF18E934FFF922E0F50CA31275
:10464300465012463488828983E50CF022E0888242
:10465300898322C082C083901D53E0C39408400421
:1046630074078001E08A828B83F033333354F8F983
:10467300025BA474F0120E55EAFEEBFF890C8C0E5C
:104683008D0F750A00A2AFE433F50BC2AF901D4D39
:10469300803F12475E503712476F64037030EE2439
:1046A300F9FEEF34FFFF850882850983A3A3E02485
:1046B30005FCA3E03400FDEEFAEFFB122350EE24D9
:1046C300FF1EEF34FFFF7410250AF50A150C12586C
:1046D300FC127913E50C6006E508450970B4E50B97
:1046E300A2E092AFA2AFE433F50BC2AF901D4D80B1
:1046F3002C2402FAE43509FB8A828B83126EEB24A5
:1047030006F582E438F58312477C8A828B8312474D
:1047130064A3A312477C050A150C1258FC12591105
:10472300602212476F640270F112475EE50840C1D0
:10473300124A5FA2E550E3850E82850F837401F070
:10474300E50C70D6E50BA2E092AF8E828F83E50A6B
:10475300F0EE24FFFAEF34FFFB8035124A6AA2E63B
:1047630022124768221272E0A3A3A322850882853E
:1047730009831272DA12691422E08E828F83F0EEBB
:1047830024FF1EEF34FFFF2212374E740412150D5F
:104793007F0802120A74EC120E5574F51215F08993
:1047A300138A128B0F851882851983E4F00412157E
:1047B300CA123478E9F890051BE0292434F508FA85
:1047C3007B001220B08A0A8B0BAE0AAF0BEE4F7040
:1047D30003024919EE2402F50AE43FF50BA808EE9B
:1047E30028F8E43FF9850A82850B8312451A2404CD
:1047F300F510E43FF511851082F583E4F090051B75
:10480300E0FCF8C3E498F895E0F9850A82850B8308
:10481300E028F508A3E039F509900519126BA47592
:104823000E00780C1214F67D00AA08AB0912209230
:10483300740312150DAC18AD197401121887E0F941
:10484300E50824FFFAE50934FFFB12347E8A828BE4
:1048530083E4F0EA24FFF508EB34FFF509E50FC420
:1048630054F0F9901DD5E0C4333354C0F8900515C6
:10487300E0A2E0E43313134849440F124939E51227
:10488300C454F04513850882850983F0A808850A76
:1048930082850B83E0FA851082851183E02AC39811
:1048A300F0850A82850B83E8F0A3E509F01249310C
:1048B30012453BE4F0740A121887E4F07508427558
:1048C300091DF50A78081214F6124925122092746C
:1048D3000312150D851882851983E06009EE240EF5
:1048E300125A584408F012366AE9F9E4F508F50952
:1048F30078081214FA74041215D2EEFAEFFB12368A
:1049030082740212150DE97006EEFAEFFB800BEECE
:10491300FAEFFB1220B67A007B00740B12150D021E
:10492300438A7C0B7D00EE2418FAE43FFB221259E4
:10493300C6E4F0A322E08508828509831249432255
:10494300F0126B782274F3120E558A0A8B0BA2AF06
:10495300E433F50CC2AF750800750900901D4D8056
:104963002C124B865024850A82850B83A3A3127DC8
:10497300408E828F83A3A31266DC123670E9600A2D
:104983001249ACC2E6F08E088F09124B7B124E34EB
:1049930070CFE50845096006124A66D2E6F0E50CD9
:1049A300A2E092AF7F0502120A1249B022126B9164
:1049B300E02274F0120E55EAFEEBFF8C0C8D0D75A0
:1049C3000E00A2AFE433F50FC2AF750800750900FE
:1049D300901D4D8020850A08850B09124A66D2E492
:1049E300F0E508124A5FD2E7F0E50A24FBF582E519
:1049F3000B34FFF583E0F50AA3E0F50BE50A450B5D
:104A03006043E50A1257E7350BF583E0A2E750D977
:104A1300850A82850B83A3A3121311AC0CAD0DEE93
:104A2300FAEFFB123676740212150DE960BBE50846
:104A3300450960A1E508240D124A7264017006124B
:104A43004A7BD2E4F0E50FA2E092AFE508450960A6
:104A530006123562750E01A90E0247931258111200
:104A63004A7522124A6A22E5082411124A7222F573
:104A730082E43509F583E022850882850983127271
:104A8300DAE02274F2120E5574FE1215F0750C0062
:104A9300750D00851882851983E4F0A3F0A2AF3366
:104AA300F50AC2AF901D4DE0FEA3E0FF8035EE2472
:104AB300FBF582EF34FF127911780C1214FAEEFC35
:104AC300EFFD7A4D7B1D1220E6740212150DEEFCEC
:104AD300EFFDAA18AB191220D4AE08AF09901D53ED
:104AE300E014F0EE4F6027124B86501DEE240BF8B6
:104AF300E43FF988828983E024FFF0A3E034FFF0E8
:104B03008882898312646F60A5124B778099E50AC6
:104B1300A2E092AF901D53E0603190051CE0640F5A
:104B23006006901DD4E070237A2B7B1D12375A90B8
:104B330084B812130D7A2B7B1D12374E7404121591
:104B43000D800874F0125DC2123556AA18AB191203
:104B530020DA8A0A8B0BAE0AAF0BEE4F60131234C6
:104B63008A1249ACA2E28E828F83A350D674E98065
:104B7300D4024E3C8E0C8F0DEE24FBF582EF34FFF6
:104B8300F583221249B0A2E72274F7120E55EAFE0A
:104B9300EBFF12348A1259D012108AE9640190058E
:104BA30038700AE02401F8A3E034008004E0F8A39D
:104BB300E0F912601E1263C7901D53E07021900547
:104BC3001CE0640F70197A2B7B1D12375A9084B83E
:104BD30012130D7A2B7B1D12374E740412150DA977
:104BE300A8C2AF901D53E004124BF2A2E7800DF070
:104BF300E9A2E7E433F8E922E508A2E092AF025E16
:104C03005E74F7120E55EAFEEBFF124C39F01234C4
:104C13008AEEFCEFFD7A4D7B1D1220E0A9A8C2AFFE
:104C2300901D5312437290051CE0640F70057908C0
:104C3300123622025E5E1249B0C2E42274F7120EEB
:104C43005574EA1215F0EAFEEBFF900515E060409B
:104C53008518828519837401F0121887E4124D11A7
:104C6300121887AA82AB831223508E828F83124A33
:104C730081C0E0740A121887D0E0126F11740B120E
:104C83001887AA82AB8312369AAA18AB19122AE89C
:104C93007416024DAA74F7120E55EAFEEBFF123496
:104CA3006CE9F974DC69601E74DD69601974E46988
:104CB300601474F369600F74DE69600A74DF6960FD
:104CC3000574DB697007EEFAEFFB123628025E5EAD
:104CD30074F7120E5574EB1215F0EAFEEBFF85180C
:104CE300828519837406124D11121887AA82AB8329
:104CF300122350126F16740A121887AA82AB8312FA
:104D0300369AAA18AB19122AE87415024DAAF0EEC6
:104D13002413FCE43FFD74022274F7120E5574F75A
:104D23001215F0EAFEEBFFEE242D125A58606512BD
:104D330055E9AA18AB191223507408121887740383
:104D4300F0900531121311124D9A1213119005446C
:104D5300E0F974041215D2EEFAEFFB123472740404
:104D630012150DE9F974DC69602374DD69601E7442
:104D7300E469601974F369601474DE69600F74DFA9
:104D830069600A74E869600574DB697007EEFAEF1D
:104D9300FB123628024501EE124D9F22242BF58289
:104DA300E43FF58322740312150D025E5E74F21262
:104DB3000E558A088B09750C00750D00750AE7A25C
:104DC300AFE433F50BC2AF901D4D8003124B771246
:104DD3004E346035124B8650F3125A55640170EC11
:104DE300EE242FF582E43F124FE3E06870DE780C87
:104DF3001214FAEEFCEFFD7A4D7B1D1220E67402CD
:104E030012150D901D53E014F0E50BA2E092AFEEE6
:104E13004F6013EEFAEFFB12348A79F0EEFAEFFBF0
:104E2300123628750A00A90AAA08AB091236288087
:104E33000DE0FEA3E0FFEE4F22740212150D7F0674
:104E430002120A74F4120E5574F71215F0EAFEEB0F
:104E5300FF8E828F83A3E064F37003024EF08E8291
:104E63008F83A3E064DF7003024EF08E828F83A3EF
:104E7300E064E860788E828F83A3E064DB606E1267
:104E830034CCE9F508705EEE240E125A58605612BF
:104E93004EFA123514EA4B604C7408121887124FFD
:104EA300041213117508FF7509FF78081214FA8E9E
:104EB300828F83A3A3A3A3A3A3A3A3E0F9740412E0
:104EC30015D2123472740412150DE9F50874F365E2
:104ED30008601274DF6508600C74E8650860067486
:104EE300DB6508700F8E828F83A3E508F0EEFAEF7F
:104EF300FB1234D80243A4EE240FFAE43FFB7909F2
:104F03002274021276D974FFF0A3124F1122124FAA
:104F130015221261D4A3A32274F5120E558A088BAD
:104F2300097E008A828B83A3A3A3A3A3A31243AE08
:104F330040027EE88A828B83A3A3A3A3A3A3A3A394
:104F4300A3A3E0C3941040047EE880138A828B837A
:104F5300A3A3A3A3A3A3A3A3A3A3E0640F600A90A3
:104F63001DB1E0540870027EE8EA240BF582E435B3
:104F730009124FE3A3A3A3A3A3A3A3A3E0C398503E
:104F83000CEA240B124A72640F60027EE890053526
:104F9300E0F47003A3E0F470027EEC7A237B00124A
:104FA300214C901D341266EC901D3412646F6029FD
:104FB300850882850983A3A3A982AA8389088A090C
:104FC300750A0078081214F67C237D001266D91244
:104FD3002092740312150D80027E1AEEF902787A7C
:104FE300F583E0F88A828B83A3A32274F5120E550E
:104FF300EAFEEBFF8E828F83A3A3A3A3A3A3A3A3A2
:10500300E090051C1275BC9005371275A290051728
:105013001275C1901DD5F0F9121B2E901DD5E060BD
:1050230018EE2404FAE43FFB7950121B16EE240613
:10503300FAE43FFB79E1121B16901DD412439A60E8
:1050430004740180027400901D361275A81214F6C0
:105053007C0B7D007A377B1D122092740312150D91
:10506300EE2418F508E43FF50978081214F67C0BD2
:105073007D007A427B1D02787274F7120E55EAFEA8
:10508300EBFF8E828F83A3E070061266D91234D2AF
:105093008E828F83742C125DC2123634025E5E746C
:1050A300F7120E55EAFEEBFF901D3412646F600D8C
:1050B3001266D9901D34E4F0A3F01221528E828F30
:1050C300837408125DC2122AE8025E5E74F6120E41
:1050D30055901DD4E06013901D36E0700D1250F012
:1050E300123484EA4B600312356802721C90051770
:1050F300E0FB900537E0FA90051CE0F92274F41206
:105103000E5574E71215F0EAFEEBFF750B018E8264
:105113008F83A3A3A3A3A3A3A3E0A2E25068EE24D7
:105123002BF582E43F127D3E1251BE123490E9709A
:10513300559083D1E064017005750B0080481251CE
:10514300C61214F67C0B7D0074111215CA1220923C
:10515300740312150D12366AE9FA740E1215C28819
:1051630008890978081214FA750830750900780857
:105173001214FA124D9A121311126EB279011236E9
:1051830088740612150D8518828519837410124DC3
:1051930011121887AA82AB83122344124D9A126EFE
:1051A300DE740B1218871263C7740D121887E50B90
:1051B300125C35122AE874190243A6EE2413FAE4AA
:1051C3003FFB22EE24081275B022C082C083901DDB
:1051D300D5E060031236DC025BA4C082C083901D5D
:1051E300CC7413F0A3741DF0A37417F0A3741DF013
:1051F300A37423F0A3741DF0901EE0749FF0A374B6
:105203003FF0901DB67466F0A37434F0901D58748B
:105213009CF0A37434F0901D5A74A2F0A37434F07C
:10522300901DB1E044028001E4F0025BA4C082C09F
:1052330083EAFCEBFD7903026240C082C083EAFC8F
:10524300EBFD7905026240C082C08379080273AD29
:10525300C082C08374FE1215F0901D607450F0A3D9
:105263007435F0901D62744AF0A37435F0800D7AA2
:105273004D7B1D1220DA125C2B123658901D4D12F5
:10528300646F70EB901D4F12646F600F7A4F7B1D3C
:105293001220DA125C2B12365880E9901D4DE4F08F
:1052A300A3F0901D5312437D7402800274111215F2
:1052B3000D025BA474F6120E55E9FF741329F582EF
:1052C300E43443F583E493FEFA7B001220B0EA4B07
:1052D3006011EA2E1263BD8A828B83A3A3A3A3E486
:1052E300F0802C7A027B001220B0EA4B601D74FD23
:1052F3002FF582E43442F583E4938A828B83F0A30F
:10530300741AF0901DACE0F91220BC7A007B000205
:10531300721CE9FC740629F8EAA2E0501EE875F055
:105323000A84E5F0F96014740A28C399F8E9C39470
:10533300054004740A28F8740B28F8ECC39413404E
:10534300047A1480027A06EA2879002409F85001C5
:10535300097A0A7B00120AD6E8F90214DAC082C07D
:1053630083901DB1E05402600A122AEEE9600479C9
:105373000180027900025BA4C082C083901DB1E06A
:1053830054026016901D53E0700C12646C600BE0C5
:10539300C81259095004790180027900025BA4C044
:1053A30082C0839083CEE0F8901D55E0C3985005EA
:1053B3001220B080047A007B00025BA4C082C08309
:1053C3001236587900025BA474F7120E5574FE125C
:1053D30015F0851882851983EAF0A3EB12553AA3D9
:1053E300A3A3A3A3E0600A14606024FE60690254CF
:1053F300BB90051CE0640F601812362EE97012850D
:1054030018828519831266DC901D5C1259D3121021
:105413008A900544E0C0E085188285198312619E55
:10542300D0E012553A74141276D5127D407A4F7B30
:105433001D1220D4A8A8C2AF901D55E0041266F235
:1054430079201236227402024DAA851882851983A7
:105453001272E2741580D085188285198312551D46
:10546300A3A3E06053851882851983E02402F8A37F
:10547300E03400F988828983127B13E0C0E0851849
:1054830082851983E0FCA3E0CC2406F582E43CF595
:1054930083D0E0126F1E888289831266EC8518829E
:1054A300851983125805851882851983601312554F
:1054B30022600512552A4043AA18AB1912365880A8
:1054C3008412552260F212552A501C125919FA857A
:1054D3001882851983125524F874331263B8344340
:1054E300F583E4936A601485188285198312552223
:1054F300640870C4125919640870BD125919141242
:105503005542240AC0E08518828519831259D3D0E5
:10551300E01255420402542AE0F8A31261EB22E0A0
:10552300F8A3E012554922851882851983126EEF7C
:1055330012554AC3940A22125554F58388822212C3
:10554300555412554922C82406F582E438F583E000
:10555300221276D9E0F8A3E022C082C083901D64B2
:1055630012646F60081272E312108A8002790002DB
:105573005BA474F7120E55EAFEEBFF12454074016B
:10558300F0EE2430F582E43FF583126C4C12451A99
:105593002432125A58C0E0EE2413F582E43FF58317
:1055A300D0E0F0EE2433125A58C0E0EE2414F58212
:1055B300E43FF583D0E0F0EE242CF582E43FF5835D
:1055C3001213111255E9EE242E125A58F91236828B
:1055D300740212150DE9F5087007EEFAEFFB1235A8
:1055E30068A908025E5EEE2423FCE43FFD22C0822C
:1055F300C08312362EE96004792080027901025BB0
:10560300A4C082C083EA1257E71256A8D2E002521E
:105613002CC082C0831256A2640170111256AD4091
:105623000C8A828B83A3E0F9123628806FEA241058
:105633001256A5A2E650128A828B83A3E0F9901D2D
:105643005E1259D312108A80531256A26401700D50
:105653001256AD50088A828B83743080368A828BCF
:1056630083A3E0641B8A828B83700474228024A347
:10567300E0700D1256A2F874081263B83443800B1D
:105683001256A2F874FD1263B83442F583E4938A88
:10569300828B83F0901DACE0F91220BC025BA4EA7C
:1056A300240DF582E43BF583E022EA1258113BF521
:1056B30083E0A2E32274F7120E55E9FE12646C70C4
:1056C300030257DEEE6011741B6E7013E0C81257AD
:1056D300E1640570030257A91272D2E40257AD7454
:1056E300E96E70621257FD700B122AF4E96005121D
:1056F3005817606279EE121A98901D561257FA9055
:105703001D56603B12581A901D56700B1257FA140F
:10571300F0121C5A0257DE125805C2E7125925121D
:1057230057E16403700C126EE81257E712554FD21B
:10573300E2F079ED121A981257ED12108A80751261
:1057430072D574E9806474E16E703E122AF4E960E4
:1057530055125817705090053EE0C0E0126EE824D1
:1057630012F582E438F583D0E0F090052DE0C0E037
:10577300901D5612551B12551BD0E0F090052DE0DD
:1057830004F07901121C428052741C6E7018901D33
:10579300561266DC901D661259D312108A901D565C
:1057A300E4F0A3F080351272D2EEF0901D5612662B
:1057B300DC123556126EE8126EBAE0548060109017
:1057C3000544E0F9121B52900543E0F9121B469081
:1057D3001D56E4F0A3F07910123622025E5E240D0A
:1057E30012554C222411F582E422901D561266E0D4
:1057F300901D5A1272DC22E0F8A3E0C8241212555D
:105803004C22E0F8A3E0C812581112554F2224107D
:10581300F582E422901D56126EEF126EBEE0540420
:105823002274F4120E55750A00750B00A2AFE4330F
:10583300FFC2AF12646C60030258E11259D0121018
:105843008AE94410F8901D4D800985080A85090BE3
:105853001258FC12591170030258E1124A66586833
:1058630070E8780A1214FAAC08AD097A4D7B1D1260
:1058730020E6740212150D901D56E508F0A3E50904
:10588300125925125909405D901D54E014F0EFA2FE
:10589300E092AF901D56E0240EF8A3E03400F9889F
:1058A3000889098882F5831266DC901D5612591FF8
:1058B300F912351AE9901D51F012592DE0548090D8
:1058C3001D566026126EEB241312554CF9121B520F
:1058D300126EE8241412554CF9121B468018EFA2DD
:1058E300E092AF8011901D5380A1125805A2E1B33D
:1058F300E433F9121C420243A9E50824FBF582E5CF
:105903000934FFF58322241112554CA2E7221279A0
:1059130017E508450922851882851983124768A36C
:10592300E022F0901D56126EEF22A3E4F085088268
:105933008509832274F7120E55EAFEEBFF123652E5
:10594300EE2410125A58A2E3400C125A5564017007
:10595300059083CC80039083CDE0F9EEFCEFFD7AD4
:105963004D7B1D1220ECE96046EEFAEFFB901D60C3
:105973001259D312108AEE240E125A58540470206E
:10598300A8A8C2AF901D54E0041266D2FAE8A2E7B9
:1059930092AF1259C2A3E054017021123562801CE8
:1059A300EEFAEFFB901D581259D312108A800D8E18
:1059B300828F83A374F1125DC2123556025E5E12AA
:1059C30059C622EE240EF582E43FF58322901D6230
:1059D3001272DC22C082C083123562025BA474F7A8
:1059E300120E55EAFEEBFF7900901DB1E0540270F0
:1059F3000CEE2430125A585404600279E8901DB119
:105A0300E05460700CEE2430125A5854026002794C
:105A1300E88E828F83A3A3A3A3E0F89083D2E0C38D
:105A230098500279E8EE242E125A58700CEE242B6B
:105A3300125A58700479F5800BE97005123544E960
:105A4300F9E96007EEFAEFFB123628025E5E34FFD7
:105A5300F509EE240DF582E43FF583E022C082C010
:105A6300838A828B83740DF0122AE8025BA4C082BE
:105A7300C0838A828B83E4F0A3F0EA24301256A514
:105A830054049083CC7012E0F8901D54E0C3984006
:105A93001279F1123628025BA4E0F8901D53E0C39B
:105AA3009850EE901DACE0F91220BC80E974F61218
:105AB3000E55E9FE244CFAE43400FB1220B0EA4B05
:105AC3006012EE8A828B83A3A3A3A3F0EA244C1271
:105AD30063BD80047A007B0002721CC082C0839085
:105AE3001D6874B0F0A37435F0A374E0F0A37435AB
:105AF300F0A374B6F0A37435F0A374BCF0A37435AB
:105B0300F0A374DAF0A37435F0A374CEF0A3743564
