:100000004343323678325231FFFFFFFF0301F7FFDF
:10001000FFFF0701FFFFFFFFFFFFFFFFA80000003A
:1000200030303031A70604002C00FFFF01F7FFFF3E
:080030000000000000000000C8
:1000A800008000201500040015010400150104005B
:1000B80015010400150104001501040015010400D0
:1000C80015010400150104001501040015010400C0
:0C00D8001501040015010400E100040003
:1000E80001280000000000000000000000010030AE
:1000F80000000000000000000003FF18640000007A
:1001080000000000000000007856341200000000D3
:10011800BAAB000000000001000000000000000071
:1001280000008001100080FFFDFF58003AFFBBF37C
:10013800FFFFFFFFFFFFFFFFFFFFFFFFFFFFFFFFC7
:10014800FFFFFFFFFFFFFFFFFFFFFFFFFFFFFFFFB7
:10015800FFFFFFC5FFFFFFFF00FFFFFF00C5C5FF53
:10016800000000FF00000000FFFFFFFFFFFFFFFF90
:10017800FFFFFFFFFFFFFFFF00000000000000007F
:100188000100000000000F0000000E003600000013
:1001980000000000BC18002004000000000000005F
:1001A8000000000020000000B8010000300000003E
:1001B800300000000000000000000000E001000026
:1001C800040000000000000001000000FFFFFFFF26
:1001D800FF0000000100000008000000000000000F
:1001E80001000000000200000000000015010400EA
:1001F80000000000080000004C0500001402000088
:10020800478800003F88000043880000B59100003F
:10021800E19100009D91000027000000000200000D
:10022800DC180020040000000000000000000000AE
:100238000C00000044020000180000001800000034
:100248000000000000000000540200000800000048
:1002580000000000100000004C05000074020000BF
:100268005989000071880000F1880000919200000F
:10027800E99200007592000028000000600200006A
:100288000C1900200400000000000000000000001D
:1002980020000000A4020000180000001800000060
:1002A8000000000000000000B40200000800000088
:1002B80000000000080000004C050000D402000007
:1002C800EB890000AD890000D98900001592000073
:1002D800519200000392000029000000C0020000B3
:1002E800E8180020040000000000000000000000E2
:1002F800240000000403000018000000180000009B
:1003080000000000000000001403000008000000C6
:10031800000000005005000034030000478A000078
:10032800558A00006D8A0000638A00004993000026
:1003380079930000259300002A0000001C030000A8
:100348001419002004000000000000000000000054
:1003580014000000640300001C0000001C000000E2
:10036800000000000000000078030000000000000A
:100378000800000000000000010000009145000096
:10038800798A00007D8A00009545000099450000A3
:1003980085450000A345000024000000FFFFFFFF83
:1003A80028190020040000000000000000000000E0
:1003B80028000000C40300002400000024000000FE
:1003C8000000000000000000E00300000000000042
:1003D800000000000000000008000000000000000D
:1003E8000A00000030190020514E000001000000F2
:1003F800F0030000FFFFFFFF501900200400000079
:100408000000000000000000100000001C040000B4
:1004180018000000180000000000000000000000A4
:100428002C04000008000000000000000C00000080
:10043800FFFFFFFF58190020040000000000000023
:10044800000000001C000000580400002400000008
:1004580024000000000000000000000074040000F8
:10046800000000000100000000000000080000007B
:1004780000000000FFFFFFFF6019002004000000DB
:100488000000000000000000380000009C0400008C
:100498002800000028000000000000000000000004
:1004A800BC0400000000000000000000FFFFFFFF88
:1004B800000000000800000000000000010000002B
:1004C800000000000600000034000000FFFFFFFFEE
:1004D800C81900200400000000000000000000000F
:1004E80054000000F40400003C0000003C00000040
:1004F80000000000000000002805000000000000C7
:1005080000000000010000000000000000000000E2
:1005180000000000000000000100000000000000D2
:1005280008000000000000000100000000000000BA
:1005380000000000000200000000000000000300AE
:100548000D8C000054050000540500000000000058
:100558001C190020E58F000091900000E582000042
:10056800158800000300000060050000000000007E
:100578000000000020000000010001000000000051
:1005880000000000000000000100000080050000DD
:10059800F58D0000C18E000051740000DB79000069
:1005A800FF7B0000378100009B8600000388000065
:1005B800EF8900009805000000040000F98F000092
:1005C800E4180020658E0000678E0000000000001F
:1005D80005000600080009001600020102020302D5
:1005E800000301030105020500060106040B1406B9
:1005F8001506170600070107020703070009040983
:1006080007000A000C000D000E000F00100011007A
:100618001200130014001B00000101010002010276
:10062800020400040104030404040504060400058C
:100638000206030604060506060607060806090656
:100648000A060B060C060D060E060F061006110606
:100658001206130604070009000B010B020B030B1B
:1006680053554E004D4F4E005455450057454400D4
:10067800544855004652490053415400464F4F00D4
:100688004A414E00464542004D41520041505200F9
:100698004D4159004A554E004A554C0041554700B6
:1006A800534550004F4354004E4F560044454300B5
:1006B80084060000880600008C06000090060000F2
:1006C80094060000980600009C060000A0060000A2
:1006D800A4060000A8060000AC060000B006000052
:1006E800B40600000097B92EE5725CCB5DCAE473CE
:1006F800B82F0196BA2D03945FC8E671E7705EC9FA
:100708000295BB2CE3745ACD0691BF28BE290790E9
:100718005BCCE27559CEE077BC2B05920493BD2AD9
:10072800E17658CF51C6E87FB4230D9A0C9BB522C9
:10073800E97E50C7EB7C52C50E99B720B6210F98B9
:1007480053C4EA7DB2250B9C57C0EE79EF7856C1A9
:100758000A9DB324089FB126ED7A54C355C2EC7B99
:10076800B027099EA2351B8C47D0FE69FF6846D189
:100778001A8DA334188FA136FD6A44D345D2FC6B79
:10078800A037198E41D6F86FA4331D8A1C8BA53269
:10079800F96E40D7FB6C42D51E89A730A6311F8859
:1007A80043D4FA6DF3644ADD1681AF38AE39178049
:1007B8004BDCF26549DEF067AC3B15821483AD3A39
:1007C800F16648DF1087A93EF5624CDB4DDAF46329
:1007D800A83F1186AA3D13844FD8F661F7604ED919
:1007E8001285AB3C510010000000005500100000BD
:1007F8000000670018000000006F001800000000EB
:100808000400420000000043002300000000000034
:10081800360001000600000000000000000F000084
:1008280000000000000000000000000000000300BD
:10083800FFFF00000403FFFF0000FFFF0F00E803B5
:100848000005401F0310000100000000FF3F0F00DB
:100858000800050B00000000000000000300010F65
:100868000000000000000000000000000000000080
:100878000000000000000000000000000000000070
:100888000000000000000000000000000000000060
:10089800AD00000200000000000136360101000131
:1008A800020100010301000104010606080400001A
:1008B8000C0100340D01000F10040101140100FFA8
:1008C8001608000020020000220100FF2301000199
:1008D800240100FE2501000826020000280100016D
:1008E800290100012A0200002C01000F2E0200003D
:1008F8003001000131010008320200FF3401000715
:10090800350102FF360100003701000138010001FE
:10091800390100FF3A01000F3C0200FF3E01010FC0
:100928003F0100014001041F41010001420100FF95
:1009380043010080440800004E0100084F01000FE9
:1009480050010001510100FF520100005301000055
:1009580054010001580400005C0400006004000019
:1009680064040000680400006C04000070040000C7
:1009780074040000780400007C040000800100FF7B
:10098800810100018201000183010202840100014A
:10099800B7F50200FFF702000000000000000000A9
:1009A80000000000DDFD0200FBFD020041FD020029
:1009B80015FE020045FE02004BFE0200190003006E
:1009C800000000000F0003002501030055F9020094
:1009D80051FE020071FE0200FDFE0200A1010300AB
:1009E800DBF90200A50303008103030000000000F7
:1009F80021040300C1F90200C9020300BDD40300A9
:100A0800DBD3030017D50300C9D30300E9D30300E0
:100A18007FD6030083D60300ABD90300EDD80300CB
:100A280025DA0300CDD80300DFD803007BDA030002
:100A38007FDA0300A95F0100B55F0100901700206D
:100A480040170020B4170000CC170000E41700007E
:100A5800E8000000FC1700001C180000000000005F
:100A68005054564F5349474E3100000000000000D3
:100A7800000000000000000000000000000000006E
:100A8800000000000000000000000000000000005E
:100A9800000000000000000000000000000000004E
:100AA800000000000000000000000000000000003E
:100AB80000000000000000003C00100103050709C9
:100AC8000B0D0F00020406080A0C0DBFFB09707419
:100AD800766F2E696E666F202020202020200B70F4
:100AE80074766F2E73776974636820202020200045
:100AF80020202020202020202020202020202020EE
:100B08000A323032352D30332D30350100000000E7
:100B180000000000000000000000000000000000CD
:100B280000000000000000000000000000000000BD
:100B380000000000000000000000000000000000AD
:100B4800000000000000000000000000000000009D
:100B5800000000000000000000000000000000008D
:100B6800000000000000000000000000000000007D
:100B7800000000000000000000000000000000006D
:100B8800000000000000000000000000000000005D
:100B9800000000000000000000000000000000004D
:100BA800000000000000000000000000000000003D
:100BB800000000000000000000000000000000002D
:100BC800000000000000000000000000000000001D
:100BD800000000000000000000000000000000000D
:100BE80000000000000000000000000000000000FD
:100BF80000000000000000000000000000000000ED
:100C080000000000000000000000000000000000DC
:100C180000000000000000000000000000000000CC
:100C28005054564F5349474E32000000025768004F
:100C380002487A000270660002506100036B670088
:100C4800026C78000370706D056D63706D30000084
:100C5800056E63706D300000057073697A65000079
:100C6800034552520173000000000000000000001C
:100C78000000000001200000E12200000001000047
:100C880002200000E1220000000100000320000013
:100C9800E12200000100000004200000E122000021
:100CA80000010000050000009DF3000000000000A6
:100CB800060000000000000000000000070000001F
:100CC80089AC01000000000008000000979E0300A6
:100CD800000000000000000000000000000000000C
:100CE8000A00000000000000000000000B200000C7
:100CF800A39C0300100000000C020000514C0300EC
:100D0800000000000D0000000000000000000000CE
:100D18000E200000E1220000100100000F2000005A
:100D2800E1220000100000000000000000000000A8
:100D380000000000000000000000000000000000AB
:100D48000000000000000000000000001300000088
:100D580033A10100000000000000000000000000B6
:100D680000000000150000001F890300410000007A
:100D7800160000001F890300500000001701000042
:100D880033A101000000000018010000EBA40100DD
:100D98000000000019000000C54D0100000000001F
:100DA8001A000000C54D0100000000001B000000F3
:100DB8001DAC0300100000001C0100008D7603002C
:100DC800000100001D0100008D76030000010000F5
:100DD8001E00000001A10300100300001F01000015
:100DE800B5480300080000002000000037DC0100BF
:100DF8000000000021000000339E010000000000F8
:100E080022000000AB8E0300100000002300000049
:100E1800514C03000000000000000000000000002A
:100E280000000000000000000000000000000000BA
:100E3800260100007D930300100000002711000028
:100E480053D003001000000028090000339003006D
:100E580000000000290000001BC70300100000006C
:100E68002A60000027710300000300002B22000005
:100E7800A39C0300100000002C00000077CA0300A8
:100E8800100000002D02000077CA030010000000C7
:100E98002E010000F76C0300000400002F00000082
:100EA800E1670300000800003000000015A20300FD
:100EB80010000000310100000000000000000000E8
:100EC80032010000EB7E0300100000003301000037
:100ED80031A90300430000003400000000000000B6
:100EE80000000000350000000000000000000000C5
:100EF800360000000000000000000000371100006C
:100F08002D7403001000000038320000EBD20300FB
:100F180000000000390100008D7603000001000088
:100F28003A00000025B40100000000003B0000006A
:100F3800B9980300130000003C0000000000000006
:100F4800000000003D00000000000000000000005C
:100F580002040504030400040C000C040D042A0414
:100F6800040B02070A0011005054564F5349474ECC
:100F780033BFFB09000503252000000000FFFFFF29
:100F8800FFFF0000000000000000000000005054B7
:100F9800564F5349474E34004F4144204E564D3129
:100FA8000000000000000000000000000000000039
:100FB8000000000000000000000000000000000029
:100FC8000000000000000000000000000000000019
:100FD8005054564F5349474E370000000000000058
:100FE80000000000000000000000000000000000F9
:100FF80000000000000000000000000000000000E9
:1010080000000000000000000000000000000000D8
:1010180000000000000000000000000000000000C8
:1010280000000000000000000000000000000000B8
:1010380000000000000000000000000000000000A8
:101048000000000000000000000000000000000098
:101058000000000000000000000000000000000088
:101068000000000000000000000000000000000078
:101078000000000000000000000000000000000068
:101088000000000000000000000000000000000058
:101098000000000000000000000000000000000048
:1010A8000000000000000000000000005054564FEF
:1010B8005349474E3800000000000000000020019E
:1010C8003A18020000000000010020013A1802004E
:1010D80000000000020020013B1802000000000090
:1010E80003002001BFEA01000000000004004201E3
:1010F800D50A00000000000005004201E60A0000D1
:101108000000000006004201080B0000000000007B
:1011180007002001130B000000000000100042012E
:10112800F70A00000000000011002001E77100200C
:101138000000000000404201080B00000000000011
:1011480000804201E10F00000300000000002103BD
:10115800C27100200600000000001011000000000D
:101168000700000000003033000000000700000006
:101178001000303300000000070000000140203359
:1011880000000000070000000240203300000000BB
:101198000800000000002033000000000A000000E2
:1011A8000000E233000000000A00000001001833CC
:1011B800000000000C00000055003933000000005A
:1011C8000C0000001C004233000000001100000069
:1011D80004004233000000001100000043002333E4
:1011E8000000000011000000510010110000000074
:1011F800110000005500101100000000110000004F
:101208006700181100000000110000006F0018119D
:10121800000000001200000055002101000000003D
:10122800140000000E004222000000001900000017
:101238000000F081501400201900000001002381F3
:101248005814002019000000020023011870002023
:1012580019000000030021810C1D00201900000066
:10126800040023815C14002019000000050021817E
:101278000E1D00201900000006003081E5710020D5
:101288001900000007002101BE71002019000000AC
:1012980008002101BC71002019000000090021810B
:1012A800BA71002019000000FDFF2181E241000011
:1012B80000040000000021040000000002040000F7
:1012C80000002904000000000304000000002904B5
:1012D80000000000050400000000290400000000D0
:1012E8000C04000000003904000000000D04000098
:1012F80000003904000000002A040000000039043E
:10130800000000000207000000002904000000009F
:1013180002070000000218055A62020002070000D6
:101328000003300500000000020700000103220549
:101338009814000002070000020322059C14000014
:1013480002070000030318012742020002070000F9
:101358000603180100000000040B000000001B0534
:1013680094140000040B000000012905000000008F
:10137800040B00000301290500000000040B000015
:101388000601290400000000040B000000022105EA
:10139800C2580000040B0000010221052A59000070
:1013A800040B000002022105C2580000040B0000D3
:1013B8000302210532590000040B00000402210534
:1013C800C2580000040B000005022105329E0000EF
:1013D800040B00000003210400000000040B0000BF
:1013E80000042105C2580000040B00000104210577
:1013F800A29E0000040B0000050521050000000066
:10140800040B00000805210500000000040B000083
:101418000B05290400000000040B00001005280437
:1014280000000000040B000000062105C25800005F
:10143800040B0000010621052A590000040B0000D6
:1014480002062105C2580000040B0000030621050E
:1014580032590000040B000004062105C2580000A0
:10146800040B0000050621051E740000050B000092
:10147800010021020000000001000401FEFF00003D
:101488000000000000000000000000002100000033
:1014980001000000E80300000000C842002474496D
:1014A8000A0000000200000004000000080000001C
:1014B8001000000020000000400000008000000034
:1014C8000001000000020000000400000008000005
:1014D800001000000020000000400000E8030000A9
:1014E800D0D1D2D3D4D5D6D7D8D9DADBDCDDDEDF7C
:1014F8005A6967426565416C6C69616E636530392C
:101508006A0078008BB50300CBB50300DBB5030098
:101518006C00F0003D0104007B0104008B01040015
:101528006B00F000F1B403002FB50300DBB5030036
:101538006600F000F1B403002FB50300DBB503002B
:101548006700140083B70300B1B70300C3B70300F3
:101558006900140041B80300F1B8030071B8030032
:10156800EE28E803F1AC030023B0030015AE030036
:101578002F00640019B903007FB90300B1B9030053
:1015880068000A0085B603003DB70300BDB6030036
:101598006D000400C9B203001DB3030079B3030052
:1015A8006400010000000000000000008BB0030090
:1015B8006300010000000000000000008BB0030081
:1015C8006200010000000000000000008BB0030072
:1015D8006100010000000000000000008BB0030063
:1015E8007000010000000000000000008BB0030044
:1015F800CC1E0000C06D0020F8150020CC1E000095
:10160800C26D002004160020CC1E0000C46D00200E
:1016180010160020CC1E0000C66D00201C160020ED
:10162800CC1E0000C86D002028160020CC1E00002B
:10163800CA6D002034160020CC1E0000CC6D00209E
:1016480040160020CC1E0000CE6D00204C16002055
:10165800CC1E0000D06D002058160020546D0020CC
:101668008B5D03007C6A00208D620300000002404D
:101678000929FF000C6C00207416000000200500EA
:1016880000400000E81E0000EA71002084160000F7
:10169800101F0000506F002074160020381F000033
:1016A800F86000209C160020381F000018610020F8
:1016B8009E160020381F000038610020A016002068
:1016C800381F000058610020A2160020381F0000B3
:1016D80078610020A4160020000000007598000022
:1016E800CD5300000101010000000000FF000100CF
:1016F80000000000000000005C1F0000CC59002022
:10170800A8160020FF0000000000000080A90300C8
:10171800A86200200C17000058520020E81600208C
:1017280000000840E8030000741F0000A46A0020BD
:1017380028170000000001401FFF000017000000EC
:101748000010014021FF01001900000000200140A5
:1017580023FF02001B0000000030014025FF0300AA
:101768001D0000000000014020FF000018000000DC
:10177800485400203C17000000000000945400204A
:101788004817000000000000E05400205417000033
:10179800000000002C550020601700000000000029
:1017A800785500206C1700000100000002080000B6
:1017B8000000000000000000000101000000A2205D
:1017C800A01700200308000000000000000000002F
:1017D800000165090000000000000000012C000065
:1017E80000000000000000000001001E00000000D2
:1017F80000000000022C00000000000000000000B3
:1018080000000000000000000000000000000000D0
:1018180000000000032C0000000000000000000091
:10182800000000000000000001500000D007000088
:1018380045BA0300C7BA0300D9BB030002108000F1
:101848005802000021BC0300E7BC03008BBC030066
:101858000000000000000000000000000000000080
:10186800000000000100000000C2010003000000A9
:10187800000000007BD3000011D80000BFD3000097
:10188800613300006DD40000D9D800006DD4000089
:1018980039DA00006FD40000613300006DD4000015
:1018A800D9D80000D3D40000613300000000000044
:1018B800000000000DD600006133000000000000A9
:1018C8000000000059D600006133000005D7000071
:1018D8006133000009D7000049DC000025D700006B
:1018E800613300000000000000000000000000005C
:1018F80000000000000000000000000067D70000A2
:101908009DDD00007DD700006133000067D700002F
:101918009DDD00007DD700006133000009D700007D
:1019280049DC0000ADD7000061330000130000005F
:101938006D4D0200000000001BB90000010000000E
:101948001BB9000002000000B7430200028000003B
:10195800B543020003000000D54302000400000064
:101968001B440200048000007344020005000000CC
:101978007544020006000000ED440200300000003B
:10198800774A020031000000794802003300000065
:10199800314B020034000000D74B02001100000058
:1019A800794C020014000000D54C0200150000001C
:1019B80049480200FFFF0000000000008F000100FE
:1019C800441D002087000100421D0020350028002A
:1019D800F46A002028000100271D002029000100CA
:1019E800281D00208400040050700020860001009B
:1019F800AD0600202A000100291D00202B0001004F
:101A08002A1D00202C0001002E1D00202D0008009A
:101A18008C1800202E0001002F1D00202F0001002F
:101A2800301D002030000100311D0020320001006F
:101A3800F571002033000100F67100203400010028
:101A4800321D002036000100F77100203800010027
:101A5800331D0020390001002D1D002083000200E5
:101A68001C1D002063000100FB71002065000100BF
:101A78002B1D00206D000100FC7100207100080082
:101A8800C06F002066000100411D002043000100D6
:101A98003C1D002044000200121D002045000100EA
:101AA8003D1D002046000200141D002047000800CC
:101AB800C86F0020480001003E1D00204B000100B7
:101AC8003F1D002004000100431D0020A10001006B
:101AD800491D002037000100481D00208800010032
:101AE800451D00203C000100341D00203D00010080
:101AF800351D002049000200161D00206700010066
:101B0800FD7100204D000200181D00204E0001004C
:101B1800401D00204F0002001A1D00203E00010059
:101B28003A1D002051000100F87100205200010008
:101B3800371D002053000100391D0020540001000A
:101B4800F971002000000000000000001C190020AE
:101B5800FFFFFFFFFFFFFFFF0A0000006D170200F5
:101B680002000000671202000500000005140200D0
:101B780007000000771302000C000000430D02006C
:101B88000D000000610F0200FF00000000000000CF
:101B98008E0000008E0001008E0002008E000300FF
:101BA8008F0000018F0000028F0000038E000104E7
:101BB8008E0000058E0008048E00000489000006CF
:101BC800500000007F0001003F0004003F000200B9
:101BD8003F0001007F000200000000007864632ECF
:101BE80072756E74696D652E537461727475703A8E
:101BF80020276D617850617373657327206578635A
:101C08006565646564000000009A9EA0989D9D9794
:101C18008DA58EB0AA9C00000204020101010109F1
:101C280002000000313117191A21241B1D1F313100
:101C380033310000313118191A22311C1E2031317C
:101C480034310000030071003001600011007000A1
:101C580031022003500480000700100061000000DA
:101C68001400630073007200620043000000130058
:101C78000600000000000400120000000000000040
:101C8800000004000400370037003C024400000054
:101C98000000000000006500000035008100000021
:101CA8000500000083000000660000000000080036
:101CB80009000A000B000000010171010101010186
:101CC800110101013101010101018001000110012F
:101CD80061013B0014006301730172016201430159
:101CE8000001130106013D01350004011201000144
:101CF80000010001000104010401330133013C012A
:101D0800440132013600000100016501000135007F
:101D180081010001050182018301000166010001C2
:101D28000001080109010A010B0100000302710208
:101D380030016002110270020102020202028002F6
:101D48000002100261023A0041006302730272024B
:101D58006202430200021302380000020002040279
:101D6800120200020002000200020402040237000C
:101D780037003C02440200023900000200026502FA
:101D8800000235028102000205028202830200027B
:101D9800660200020002080209020A020B020000A1
:101DA800010371030103010301030103010322037A
:101DB80002030103000310030003000300030003F0
:101DC8000003000300034203000324030603000387
:101DD8000003040312032503230325032303040339
:101DE8000403000300030003440300030003230368
:101DF8000003650321003503810300030503000385
:101E080000030003000325032303080309030A034F
:101E18000B03000000000500B100AB00A500B000F6
:101E28001C003000380008002C01020000012018B6
:101E38001A18182C34041E000C0E020B040B0A0787
:101E48000800110F88B22400881300001000000059
:101E580000000001C003000080070000000F000020
:101E6800001E0000003C00000078000000F00000A8
:101E780000E0010000C003000080070000000F0020
:101E880000001E0000003C00000078000000F00088
:101E98000000F0000000000000000000000000004A
:101EA800000000000000000000000000000000002A
:101EB80000000000000000000000000000BE040A4E
:101EC80000BE020819DC030051DC030057DC0300E4
:101ED80033DD03001FDE030079DE030081DE03002B
:101EE8001DDF030025DF03002BDF03005BDF03009A
:101EF80075DF0300C3DF0300DBDF03004FE00300EF
:101F08008DE0030095E0030025E30300B9E3030037
:101F18002FE403005FE4030071E40300A7E4030077
:101F2800BFE40300E5E5030029E6030035E6030006
:101F38006DEE030087EE0300BDEB0300BFEB03006B
:101F4800BDEC030065EC030001ED03004DEE03005A
:101F580031EE0300B5F103002BF203001FF5030077
:101F680029F5030001F7030021FA030059FE0300D5
:101F780061FE030063FE030069FE030071FE0300B7
:101F880001FF030029FF030001020003020001030F
:101F98002200000000002115110E0D0C0B0B0A0A7F
:101FA80009090909090808080808080807070707A8
:101FB8000707070707070707070000003031323314
:101FC8003435363738396162636465666768696ACB
:101FD8006B6C6D6E6F707172737475767778797AD1
:101FE8000000000070B504466569E678802000F0BE
:101FF800A3FA0A220321304600F0E8FA01462980B4
:10200800207A40F0040020726078BDE8704000F04B
:1020180086BC2DE9F84F0446257805F07F050E2D7E
:1020280076D1207A6769010711D5DFF854240009B1
:10203800117801238340194209D1DFF8481401447B
:10204800487A20B12046FFF7CDFF0020A9E0B7F875
:1020580002A094F80390802000F06EFA207A4608D7
:1020680006F0010686F001060025B6024FF00008CA
:10207800400748BF7E5F387900F058FC00F064FCE8
:10208800DFF80424DFF8043400F082FC00F056FD89
:10209800074600F088F800F086F800F0B2FD8346A5
:1020A80012E0301A00B200280BD5404200B208E016
:1020B80000F079F8217A8A0700B2F2D5B042B8BFA9
:1020C800002010FB00886D1C00F09BFDA0EB0B00AE
:1020D8005045EDD30020002D63D0B8FBF5F000F09B
:1020E800CBFD00F0D7FD4FF06632DFF8A43300F0E7
:1020F8004FFC04460D46384600F026FC02460B46C7
:102108002046294600F040FEBDE8F44F00F016BD19
:10211800E678032D1CBF042D012D01D1002000E01D
:10212800802000F009FA0F2D14BF0122002203219C
:10213800304600F002FA0F2D03D1BDE8F24F00F04F
:10214800F5BB00F045FF032D02460B4604D100F015
:1021580051FF00F03DFF15E0F9D0042D0AD1CD481C
:10216800CD4900F015FC00F045FF00F031FF0022DA
:10217800CA4B05E000F03EFF00F02AFF0022C84BE2
:1021880000F002FE00F0DAFC0146207AC20707D50B
:102198006469206800F04AFF616800F0B3FF0146F7
:1021A8000846BDE8F28F0321484600F00CBAFEB598
:1021B80004462C200899BB4D44432819022904D110
:1021C8000C2A15D1FFF70EFF2CE000F108067788DE
:1021D800974204BFB6889E420AD10B0006D10C2A4A
:1021E8000CBF042102210A9801801BE0012901D0BB
:1021F8000020FEBDFFF70DFF0090285D099E00F04E
:102208007F00012818BF02280ED003281AD00428FE
:102218000AD00E2820D00F28EAD104226946304679
:1022280001F0B9F80120FEBD9F48008800F07EFB50
:10223800009900F0FBFE01F045F900B2019002227E
:1022480001A9ECE799480099006800F0EFFE01F059
:1022580039F9ADF80400F2E79548008800F066FB0C
:10226800009900F0E3FE01F02DF9ADF80400E6E76F
:10227800F8B505462C214D438A4E77193846FFF7A5
:10228800C8FE715D01F07F01032904460BD1874820
:102298000068214600F0CAFE01F014F901B278780E
:1022A80001F04BFB15E0715D01F07F000F2805D1AF
:1022B800012000F098FA68B14460F2BD01F07F0196
:1022C80078780E29214602D101F0B0FB01E001F037
:1022D80069FB0020F2BD00002DE9FE4F8046754FD6
:1022E8004D79754911F808A0504600F0FDF881466F
:1022F80000F003F9002000F01FF93A7869492C2012
:1023080042438C186D4966696162012005F07F05BA
:1023180084F8280040F6043161814FF48070032D61
:10232800A08106D140F202404FF0090960810021E6
:1023380038E0042D08BF4FF008091FD0042150468B
:1023480001F0EAFC0C2010FB09F05D4901F800A03F
:10235800012D1DD108445B4A426000210091019182
:102368006A460121404600F023FA01AA02214046AC
:1023780000F01EFA0098002101F0BAFD6CD0207A16
:1023880040F001002072009830600199716063E0AC
:1023980018BF022DE1D00E2D06D00F2D5CD10C20D8
:1023A80060815521A18157E094F8280040F002008F
:1023B80084F828004FF4A161A1816A466669424801
:1023C8000090012194F801B0584600F0CDF99DF82D
:1023D800000000210C2805DA0FF2F4013FA2085C86
:1023E800115C49003071207A00F0FD000143217230
:1023F8000098000A0090010614BF3C20322070713A
:102408004FF47A70717990FBF1F171806A4602217C
:10241800584600F0A9F900281CBF009800280AD0E7
:10242800207A40F00800207200F00F0000994A1E40
:1024380040EA02102072002000906946584600F0D9
:102448006AFA48B100993180009800B10420217AD5
:1024580001F0FB010843207284F8018084F802A08F
:1024680084F803900021207800F08000054325704F
:10247800A1711648E0613978491C3970BDE8F78FB9
:10248800E3710020680A000038842A357BA0453FA4
:1024980066665A3F9A9999999999B93F00005940A7
:1024A80000408F402C5700202A590000A01400003B
:1024B80032590000E4710020A06F0020B72100000D
:1024C800F8150020308C11000132E6007922000056
:1024D800B96436203010200B1708100000000000E7
:1024E8000100010001000100A0F11701082902D232
:1024F8001738C0B27047FF2070470C480178CA07E8
:1025080000D5704710B541F001010170002008495D
:1025180005E0C3B20C246343FF22CA54401C054B98
:102528001C78C2B2A242F4D310BD0000E9710020A9
:10253800F81500208A5D03007047134601222DE933
:10254800FE430928044691461D4605D101F0A5FD24
:1025580001F0D2FD80B234E05FEA09000BD001F04F
:10256800F4FD01A801F02CFE01A9204601F008FEA7
:102578005FEA000801D1002023E00027002400269C
:1025880009E06946404601F0DAFD18B9BDF80000D7
:10259800641C3F18761CF0B24845F2D3E0B202281A
:1025A800A4BFE4B2B7FBF4F73DB1B9B2404601F0BD
:1025B800C9FD4FF47A71B0FBF1F7404601F0BCFD5C
:1025C800B8B2BDE8FE8300230122B8E70023B6E7CE
:1025D80070B504462C214C43B44D2E19304601F0F9
:1025E800F9FD2A5DB24942F080022A55FF200870A1
:1025F800304670BDF0B5AF4BAF4C1B5C245C024657
:1026080000E0491CAD4D2E78C8B2B04217D25FFA2F
:1026180081FC2C25A54F15FB0CFC07EB0C05287835
:10262800C0090CD06878904202BF2F7807F07F0766
:102638009F4204BFA878A042E3D148B2F0BD4FF052
:10264800FF30F0BDF0B50346002400200EE0E4B2F0
:1026580066440E5507F00F076C1C0A2FACBF3726CF
:102668003026EDB2F6194E55401CC0B29E79B042E4
:10267800E5B212DAEF1CBA420FDB10B12D264E5527
:10268800641C1D182F7AC7F30316651C0A2EB4BFE5
:102698004FF0300C4FF0370CD9E7E0B290423CBF16
:1026A80000204855E0B2F0BD10B500F001F811E087
:1026B800012303FA00F000F0FF0000EB0120804C3A
:1026C800704710B5012303FA00F000F0FF0000EB9B
:1026D80001207C4C81B22078BDE8104001F07EBD1D
:1026E80070B500F006F8774E00F00AF800B90FE070
:1026F80070BD0446012000FA04F404F0FF0470479A
:10270800307804EB0124A4B21546214601F096BDA9
:1027180030782A462146BDE8704001F05FBD0122AD
:1027280002FA00F000F0FF0000EB0120644B07E024
:10273800012202FA00F000F0FF0000EB0120614BDB
:1027480081B2187801F04EBD012303FA01F101F0BE
:10275800FF0101EB0221002819BF59480078594AA6
:10276800107889B201F06ABD574B00EB800018441D
:10277800022907BF90F8FC10D0F8FD0090F8AC10C3
:10278800D0F8AD0001290ED002290AD0032907D0BC
:10279800042908D0052904D0062918BF0B2905D11A
:1027A80019E080B2FCE700F0FF00F9E7002070476D
:1027B800454B00EB80001844022907BF90F8FC1035
:1027C800D0F8FD0090F8AC10D0F8AD00072900D182
:1027D80001E0002070471060012070470A78521C01
:1027E800001D02F04FB970B510260228054603DB1C
:1027F8000C2110FB01F6361D304602F04DF904009D
:1028080003D0314601F0E6FC2570204670BD420633
:1028180002D5491E8941C90F01F006BB2C22234B62
:10282800504318440079002818BFFFF7F0BF7047DD
:1028380038B50024214D03E00021FFF7EFFF641CA9
:102848002978E0B28842F7D32048027802F0FD02E6
:10285800027031BD70B52C2606E0D5B2134C754315
:102868002C44521C20716171D4B29C42F5D370BDC6
:1028780070B52C220D4B0446191D54430C5D00E025
:10288800401C0E4D2E78C1B2B1420CD251435D1896
:10289800297900291CBFA9780029F1D02979A142FA
:1028A800EED1012070BD002070BD00002C57002023
:1028B8001E1D0020986F0020A06F0020E4710020EA
:1028C800D3130020D4130020680A0000C071002030
:1028D800C000103070477CB5C00010304618144650
:1028E8001D463146102002F040F948B900952346AC
:1028F80000223146102002F09DF908B9012076BD6A
:10290800002076BDC00080B510304118102002F0BC
:102918006FF9012002BD0B4604220021DBE702B556
:102928006B4604220021FFF7EDFF02BD50B1B0FA5B
:1029380080F18840C1F19D01C905020672F100428B
:1029480041EB102070472000C0F3C75181B1FF2927
:1029580006D0C110400721F0E04101F160517047F5
:1029680041020CBF40F4E0016FF0004100207047C5
:1029780000F0004100020AD0B0FA80FC00FA0CF026
:1029880001F16051A1EB0C5101EBD02140057047DA
:1029980030B540F2FF7C1CEA11541DBF1CEA1355E8
:1029A800644565453FE0641981EA030C6FF35F53A2
:1029B8000CF0004C43F48013C90241F0004141EA95
:1029C800505EC5021100A5FB020200284FF000006E
:1029D800EEFB01204FF00001E3FB052118BF42F098
:1029E8000102401800214941E3FB0E01A4F580646F
:1029F8000D0302D292184041494154F1010470DD9F
:102A0800450872F1004250F1000051EB0451A1F564
:102A1800801102D441EA0C0130BD40F2FF7E4CEA3D
:102A28000E51002030BD0CEA1355644518BF6545AA
:102A380081EA030C0CF0004C41D050EA410E1CBF57
:102A480052EA430E02E06146002030BD24422C4485
:102A58001BD15FEA050EF6D0090302BF014600202C
:102A6800AEF1140EB1FA81F5AEEB050401FA05FEDC
:102A78000C35C5F1200100FA05F5C8404EEA000EF4
:102A88006FF35F5343F480139CE733F00043B3FACA
:102A980083F504BFB2FA82FE75440B3D641BB5F1A1
:102AA800200E2FBF02FA0EF3AB40C5F1200E22FA1A
:102AB8000EFE38BF43EA0E03AA40641C7CE750EAC6
:102AC800410E14BF52EA430E6FF000014FF4001597
:102AD80015EB430F8EBF194615EB410F9DE7B4D890
:102AE80030BDD4F10104B4F120050FDAC4F120059A
:102AF800520828BF42F0010210FA05FE01FA05F556
:102B08007244E2BFE0402843E1400FE0352C9ADCF4
:102B1800C5F1200452EA400220FA05F218BF42F03B
:102B2800010231FA05F0A1400A43002172F1004286
:102B380050F1000051EB0C0130BD090001F00042DA
:102B48008B1AA3F16051B1F5801F0ADBB1F17F6FD9
:102B58001FD242EAC102C10071F1004142EB50703C
:102B680070470B15C3F10903212B10D2890241EAE2
:102B7800905180020128494141F0004121FA03F0B7
:102B8800C3F12003994071F1004150417047100092
:102B980070476FF0000013EB103F5CBF000E42EA75
:102BA800C050704738B5044602F0B2F8002504E07A
:102BB800615D225C625521546D1C401E8542F7DB25
:102BC80031BD38B5020048BF524200230A2500F043
:102BD8000EF8002AFBDCFFE7002802D52D22CA5494
:102BE8005B1C0020C8540846BDE83240DAE70A24D6
:102BF80092FBF4F405FB14223032CA545B1C2246C3
:102C0800704710B502F0E2F84FF47A71B0FBF1F4B6
:102C180002F0D9F8604310BD38B5044601F03EFF14
:102C280005460E480178220008D10A0710D441F061
:102C380008010170022002F02FFA09E0012C07D1E7
:102C48000A0705D501F0F7010170022002F0B9F971
:102C58002846BDE8324001F02CBF0000E971002091
:102C6800E0B5684601F079FC0198B0F5803F28BFCF
:102C78004FF6FF7080B20EBD50B1B0FA80F18840B7
:102C8800C91CC1F58461090501EBD02140057047D5
:102C98000146704740F2FF7C0B0D4DD0634566D26C
:102CA80030B421EA035141F4801103F2FD3C5FEA9C
:102CB8005C0C01D300184941890041EA90718000F9
:102CC8004FF440140023E202D50AB1F5100107D4ED
:102CD8006D081DD2091B641900184941491BF7D515
:102CE8006D080AD20919641B00184941491BEFD520
:102CF8006D08F7D301E0520817D0C01861419B1A3C
:102D0800AC4100184941801AA941F4D452080AD0AC
:102D1800C01AA1419B186C4100184941801AA94169
:102D2800E9D45208F4D15B1C6C4161084FEA3300C6
:102D380001EB0C5130BC704750EA0103FBD030B4B2
:102D4800B1FA81F311B9B0FA80F41B190B3BB3F156
:102D580020042FBF00FA04F19940C3F1200420FA9F
:102D680004F438BF21439840D3F101039DE763453C
:102D780014BF50EA410CDEE711F5801FDBD8D943B8
:102D880002F094BC70470100F0B540F2FF7581EA8B
:102D9800030C0CF0004C15EA11541DBF15EA13572B
:102DA800AC42AF42E5E0BC41C1F31301C3F31303E6
:102DB800801A994143F4801304D2641E00184941D3
:102DC80080185941C90241EA5051B1FBF3F603FB9F
:102DD8001611A2FB0675D7EBC020A94102D2761EB8
:102DE80080185941C90241EA5051B1FBF3FE03FB77
:102DF8001E11A2FB0E75D7EBC020A94103D2AEF17C
:102E0800010E80185941890241EA9051760546EA37
:102E18008E2EB1FBF3F603FB1611A2FB0675D7EB5A
:102E28008020A94102D2761E80185941C90241EA80
:102E380050514EEA060EB1FBF3F603FB1611A2FB46
:102E48000675D7EBC020A94102D2761E80185941D9
:102E5800C90241EA5051B1FBF3F703FB1711A2FB7A
:102E68000735D3EBC020A94167F100070CBF00422A
:102E780047F0010766F3D5274FEA1E31B80814F565
:102E8800806412DDBD0775F1004250EB0E5051EB26
:102E9800045111F5801F5CBF41EA0C01F0BD4CF0F4
:102EA8007F6141F0E0410020F0BDBD076D0840EAB8
:102EB8000E5041F48011D4F10104B4F120060ADA6D
:102EC800C4F120060200E04001FA06F3E14018438D
:102ED800B24015430EE0342C13DCC6F1200445EA59
:102EE80040056D0820FA06F2154321FA06F0A140C4
:102EF8000D43002175F1004250F1000051EB0C0127
:102F0800F0BD00205FEA0C01F0BDCFB992185B411B
:102F1800B3FA83F704BFB2FA82F6BF190B3FB7F1D1
:102F280020062FBF02FA06F3BB40C7F1200622FA9B
:102F380006F638BF3343BA401CB1E419641E33E7C0
:102F48007F4231F00041B1FA81F404BFB0FA80F653
:102F5800A4190B3CB4F120062FBF00FA06F1A140DA
:102F6800C4F1200620FA06F638BF3143A0403C1BC6
:102F78001AE7AC421ABF05EA1357AF4212E050EA0B
:102F880041061CBF52EA4306BFE750EA41073046F4
:102F980061461CBF41EA0551F0BD52EA430C08BF27
:102FA800C143F0BD00204FF4001616EB410F98BF47
:102FB80016EB430F08BF16EB410F24BFC14305E0D2
:102FC80016EB430F0CBF61464CEA0551F0BD0143B7
:102FD80010F0004160B148BF4042B0FA80F2904022
:102FE800D21CC2F5846241EA025202EBD0214005AC
:102FF80070470156C1F30A5340F21E42D31A0CDD42
:10300800CA0283F3070342EA505242F00042DA4010
:1030180002EBE17282EAE17070476FEAE17203F253
:10302800E13008B182F0004070470141FF2212EA06
:10303800D05C1DBF12EAD153944593422BE09C44C7
:10304800D30780EA010243EA002043EA01211A403B
:10305800A1FB0030C04238BF00187CF17F010BDBB8
:10306800FE294ADA5B0842EAC15153EA006373F168
:10307800004C51EB10207047D1F1080CDCF1200115
:103088002FDB5B0810FA01F10B4320FA0CF073F107
:1030980000415041704794451CBF02EAD153934206
:1030A80080EA010202F000421DD0400019D0490018
:1030B80017D05BB9634514D00902B1FA81F399407E
:1030C800BCEB030CC00140F00040C1E70002B0FABD
:1030D80080FC10FA0CF0B3EB0C0CC90141F0004174
:1030E800B6E71000704740000AD0490008D010F138
:1030F800807F94BF11F1807F02E042F0FF4070476B
:10310800D043704790EA010F40F16C8081F0004194
:10311800431A4FF000423EBF5340C01AC918D309A2
:103128005FEAD05C13EB400F34BFB3EB410F40E0D4
:103138007CEBD1530CD342EA012122D8D1EB4020B9
:1031480009D3400A28BF5FEA500140EBCC507047D2
:10315800401A15D04002B0FA80F2521C9040400A42
:103168004FEA3C23B3EB026384BF00EB730007E034
:1031780040F400001A16DB07C2F10102D0401843E0
:103188007047182BFCDC31FA03F202FA03F3591AE0
:1031980038BF42F00102D2EB40203CBF0018ACF12E
:1031A800010C5FEACC5CC20572F100414CEB502087
:1031B800704713EB400F0FD2C94209D0ACEBD15383
:1031C800022B03DB4902172BDDDD70479143401AC0
:1031D800C042D5D10020704713EB410FD0D36FF018
:1031E80000007047421A3CBF801A8918C0F3C752C2
:1031F800FF2A4FF0004C22D0C1F3C7534BB3D21A69
:10320800D2F119032EDD4CEA01214CFA03F321EA2D
:103218000303D1404CEA00226FF3160052180FD373
:1032280053EAC2534CEA520273EB0C0C50EB1220D7
:10323800420012F1807F38BF70476FF31600704765
:1032480053EA026322EA0C0273EB0C0C50EB1220D7
:103258007047490212BF9A4200EB5120EFE7D2F1C2
:103268001703D2D570470157F8B50D4688B0044604
:10327800287800F0BAF800283ED1DFF83C22002177
:10328800131D53F8310018B1491C0829F9DB33E044
:1032980005A800230026002780E8C80002F831406E
:1032A800121D42F8315028788DF80000A86841882E
:1032B800ADF802108188ADF80410807900F00F0095
:1032C8008DF80600A868C1798DF80710A86881688C
:1032D8000291007B8DF80C00A8680169049105A98A
:1032E80028788DF814008DF81C30CDF818D02046B9
:1032F80002F062FA012000E0002009B0F0BDDFF81A
:10330800BC11086070472DE9F041DFF8B4512C6812
:1033180080460F4600F069F8002630B90020BDE865
:10332800F081206800B9264604462CB12079404532
:10333800F7D1A7600120F2E70C2001F0ADFB0028CF
:10334800ECD00022026080F8048087602968002998
:1033580014BF30602860EDE710B559490A6800E0ED
:10336800126852B1036811791C7DA142F8D19168A5
:103378000029F5D0BDE810400847012010BD01F034
:103388008BBB10B5044610460A460146204602F09B
:1033980095FA204610BD03E011F8013B00F8013B07
:1033A80013465A1E002BF7D17047002818BF01F0AA
:1033B80074BB704701700A0A0B0C090E42708370C7
:1033C800C170001D704700223B4B03EBC2014968E6
:1033D80011B10978884203D0521C082AF5DB02E0B3
:1033E80013F8320070470020704710B501460022DC
:1033F800314800EBC203586810B10478A14203D0E9
:10340800521C082AF4DB00E010BD002010BDF0B506
:103418008BB007460C4615461E462C21684602F01E
:1034280081FA397A8DF80010032906D10822394625
:103438000DF1020001F026FB03E011B13988ADF867
:103448000210797A12988DF80A107989ADF80C1063
:10345800810744BF01228DF81C20C10644BF012208
:103468008DF81D20010744BF01228DF81E2081061A
:1034780044BF01228DF81F20410644BF01228DF868
:103488002020000644BF01218DF821101398119BBC
:10349800109A27788DF822008DF81470ADF8165020
:1034A8000693ADF824600A922078FFF78CFF6946EE
:1034B80002F086F90BB0F0BD0468002034700020DB
:1034C80038700020C0F3C751D1F19E0108DD020217
:1034D80042F00042CA4002EBE07282EAE0707047B4
:1034E8007FEAE07080F0004070470125F8B50D28AC
:1034F80005462DD201F0D2FADFF858371A780024A1
:103508000146BAB100265FFA86FC2820DFF8487722
:1035180010FB0CFC6744787C000904D0761CF0B2E0
:103528001028F0DB06E0521E3C461A70607C40F022
:10353800F0006074084601F0BCFA4CB1280014BFD2
:1035480004F11C000020A061E57504F10C00F2BD37
:10355800FFF786FB40F20131884206DB05F11006D1
:10356800B0B201F033F8040001D10020F2BDB1B2CD
:1035780000F030FE280014BF04F110000020E060C5
:10358800E5722046F2BD38B504462079C0F3021032
:10359800022806D1E06820B1A17A022908BF01F00B
:1035A8007CFA6079000910D001F078FA05461C21F0
:1035B800204602F0B7F9DFF89C060178491C017033
:1035C8002846BDE8324001F074BA2046BDE83240D2
:1035D80001F010B82DE9F04704468A462668257997
:1035E80001F05CFADFF8742680465068C5F30219CA
:1035F8000027002102E0014650F80C0C18B30368BC
:10360800B34202BF0379C3F3021CCC4504BFDB09F4
:10361800B3EBD51FEFD17F1CBAF1000F13D0FBB26B
:103628009A45E8D150F80C3C44F80C3C5668B04236
:1036380008BF546009B141F80C4C002140F80C1C3B
:10364800FFF7A1FF00E00446404601F032FA2046A9
:10365800BDE8F08770B501F021FA0646DFF8FC05F1
:1036680044680025456005E0204654F80C4CFFF7F7
:103678008AFF6D1C002CF7D1304601F01AFAE8B227
:1036880070BD2DE9F0430C468FB0200448BF84F488
:10369800004000F1C680E007DFF8C06540F1B58062
:1036A8007078002884F001091BD1FFF7D9FA0027A8
:1036B80040F2011188424FF0000813DAB078401C3C
:1036C800B070C0B21F28A4BFB770FFF7C3FFB078AF
:1036D800052190FBF1F101EB8101401A03D000F0C4
:1036E800A3F890E0B770301D01F0A9F80400F8D0F5
:1036F800162106F1080002F015F9217916250809A6
:1037080010F0070003D0022851D014D358E0C8099C
:10371800E57A059004970397029701F00F01E06896
:10372800019006F10800A27A009216352389E288F2
:1037380003F0DCFB43E0E179FF290AD02C20DFF815
:103748002025414357181E2207A93846FEF77AFF5D
:103758008046E0680168069107AB21790279CDF8C7
:103768001080001D0290039306A8552302EB08055C
:10377800CA09059201903922009201F00F010C222A
:1037880006F1080003F0B2FB1A35010017D12437FF
:103798003879010714D5FF2100200091029001908B
:1037A800A179E0793F6855230C22B84708E0E28800
:1037B800E068E57A01F00F0103F04CFB163570B9AB
:1037C800652D05DB30783222012100F007FD17E076
:1037D8003078012100F098FF49F0010910E0607984
:1037E80000F00F01022908DC411C61F3030060713D
:1037F8002146301D01F063F8002400F015F814B1DB
:103808002046FFF7C0FE48460BE0A00708D5002178
:1038180071700121307800F077FF84F0020000E039
:1038280000200FB0BDE8F083012070704FF47A7269
:103838003078022100F0D2BC4FF6F07300F00F0090
:1038480003EA0213184340EA014070472DE9FE4F8E
:103858000C9DDFF810A48B46904699460027461C1D
:103868001AE0F1B22C22DFF8F803514308444378F8
:103878009B4510D290F828100A060CD5446A54B11A
:10388800002002900195FE2000904B464246594682
:10389800F0B2A0477F1C761C9AF80010F0B288425C
:1038A800DFD3DFF8C4030278FF2A08BF0770BDE83A
:1038B800F78F2DE9FE4F8846DFF8AC13834608786A
:1038C80091461E4648B10C990091002401944B463C
:1038D80042465946FF20FFF7B9FFDDF834A0DFF86C
:1038E8007C735046FFF702FE040021D00E9D4A4625
:1038F80041465846FFF7A0FF206052460BF00F00E4
:1039080040EAC5102071A4F80680A4F80890A672B1
:103918000C99E06801F0B6F8102E0CBF03210121C4
:103928002046FFF757FE18B92146381D00F051FF11
:10393800387803B0BDE8F04F36E103B583B000F046
:103948000FF8292340F2024106E003B583B000F0E6
:1039580007F8212340F20541FFF7ABFF05B000BD92
:103968000021022204AB02910192009300227047C9
:1039780038B5044684B00D461046FEF7D7FFBB495C
:10398800096803F0B3FB03900421002003AA029006
:10399800019100923923002229462046FFF789FF2A
:1039A80005B030BD7FB500F065F800F03CF8FFF7D2
:1039B80089FD00F022F84FF480720BE07FB5AC4E21
:1039C80000F059F800F02FF8FFF77CFD00F015F82B
:1039D80040F2031240F604312046FFF76AFF7FBD2C
:1039E8007FB5A44E00F047F800F01DF8FFF76AFD18
:1039F80000F003F84FF48372ECE7ADF80C000025F3
:103A080003A80090022602950196292370477FB5E6
:103A180000F030F800F007F8FFF754FD00F013F855
:103A280040F20552D6E72946FFF700BB7FB5904E16
:103A380000F021F8FFF7F7FFFFF744FD00F003F867
:103A48004FF4A162C6E7ADF80C00002503A800906A
:103A5800022602950196212370477FB5864E00F015
:103A68000AF8FFF7E0FFFFF72DFDFFF7C6FF40F26A
:103A78000B52AFE7814E044630880D46FEF756BF1D
:103A880003B583B00021012204AB02910192009397
:103A98004FF4A262282340F604315DE7FEB5784F63
:103AA800054638680C461646FEF740FF2146FFF7E4
:103AB800BDFA03F0A7FB0190162000F0EDFF04000B
:103AC8001ED0022020700E226EA1601C00F0DAFFCA
:103AD80004F10F07042201A9384600F0D3FF6760FC
:103AE80000203871787107F8066FC4F80B7002204F
:103AF80000901623224640F20271284600F057F83B
:103B0800F7BD1FB50B0018BF012301218DF80C303C
:103B18000292019103AC0094102300220621FFF7C2
:103B2800C8FE1FBD2DE9FC470F464F490A9D0646B2
:103B380008789046994640B10195CDF80080552304
:103B48000C2231463846FFF781FE0C20FFF7CEFCE9
:103B58000400DFF808A123D07A1C49463046FFF755
:103B68006BFE206006F00F062079A57100F080003A
:103B780006433920A07246F01006E0682671E77106
:103B880084F808900C22414600F07CFF0121204671
:103B9800FFF720FD20B921460AF1040000F019FEC4
:103BA8009AF80000BDE8FC47012100F0ADBD2DE901
:103BB800F0478046894614009A4618BFBAF1000FAC
:103BC80011D0089E370908BF012706F00F06022EFC
:103BD8000CBF00205046FFF789FC050005D116B13F
:103BE800204600F05AFF002031E0002249464046B6
:103BF800FFF722FE286008F00F01287900F0800006
:103C0800084340F02000287185F80BA00020A5F893
:103C180006902881AE72022E08BFEC6008D0E868D2
:103C28005246214600F02EFF16B1204600F035FF1F
:103C380039462846FFF7CEFC084C18B92946201DFE
:103C480000F0C7FD2078012100F05EFD0120BDE8ED
:103C5800F08700001F1D0020D84D0020EC6B0020CD
:103C68002C570020E47100201E1D0020A414000021
:103C780032590000329E00001E7400002A590000CC
:103C88009C1400000000250000000006033000001E
:103C9800000000000146012001F01F0100FA01F1B7
:103CA800002000291FBF844A13680B420120704777
:103CB80000F03F02282A0ADA012200F01F0012FA57
:103CC80000F004D07D4A09B1106070471061704758
:103CD800F8B500F04CF81EDA00F043F81BD078492C
:103CE8000A681043086024F0605403F0BCFA00F03E
:103CF8004CF830001CBF032E042E02D144F4C044FB
:103D080008E0012E08BF44F4804403D0022E08BF07
:103D180044F4005449E0F1BDF8B500F028F81FDA82
:103D280000F01FF81CD066490A6822EA0000086003
:103D380044F0005403F097FA00F027F830001CBF55
:103D4800032E042E02D144F4C04408E0012E08BF1B
:103D580044F4804403D0022E08BF44F4005424E005
:103D6800F1BD012100F01F0011FA00F07047850035
:103D780005F0FC0505F1804505F501250E462F46A1
:103D880000F03F013C6828297047002139706F1CFA
:103D9800220AA91C3A70230C0B704FEA146C05F820
:103DA80003CF24F4C04403F08FBA03F05CFA240A6A
:103DB8003C70BDE8F24003F087BA70B500F02CF80B
:103DC800254600F03F022E68282A24DA012200F056
:103DD8001F0002FA00F0C243E8B1394B29B1196853
:103DE800084326F06056186004E01868024046F060
:103DF80000561A6003F037FA0021631C2970320A52
:103E0800A11C1A70350C0D70360E04F8036FBDE84E
:103E1800704003F059BA70BD840004F0FC0404F14A
:103E2800804404F50124704700F03F02282A0DDA87
:103E3800012200F01F0012FA00F007D01F4A136C8D
:103E48000343136409B110607047106170470000A4
:103E5800F8B50D4600F03F0128292BDAFFF7DCFF03
:103E6800184A2668137800F03F00834222D3164987
:103E780003F02CFA26F4E027032D47F4C02047F47A
:103E8800A0210ED8DFE805F00C0A050247F4E02768
:103E980007E006F4E026B6F5C02F01D10F4600E092
:103EA800074603F0E0F9621C390A11703F0C04F868
:103EB800027F7EE7F1BD0000C02002409020024052
:103EC800D02002408F620300FFFF0000F8B50446CF
:103ED8000D4601260027344203D02946F8B2FFF7E1
:103EE800B7FF7F1C7600F8B22028F4DBF1BD016D26
:103EF800884204D040EA010C1CEB0C0F70474FEAD3
:103F0800400C1CF1807F98BF8042704770B503F069
:103F1800AAF906467D484068FA246FF0F90560B1B1
:103F2800B0F90C108C42C8BF0C46B0F90E100068EE
:103F38008D42B8BF0D460028F2D12946204600F030
:103F480005F83046BDE8704003F0BEB9F0B46F4BD9
:103F5800B3F90040A0421ADA6D4D6E4C2E782568F0
:103F6800A5F5407576B2821C7543D7052D1105EB72
:103F7800E735803D12F1F90F2ADA4FF4803505F460
:103F88007F4525631880206A40F004002062B3F959
:103F9800020088421ADA5E4C5E4A25781468A4F555
:103FA80040746DB2881E6C43C605241104EBE634D8
:103FB800803C10F1F90F15DA4FF4803404F47F4493
:103FC80054635980106A40F008001062F0BC7047D2
:103FD800FA2AA8BF4FF47F45D1DA002DCFD54E4A33
:103FE8001540CEE7FA28A8BF4FF47F44E6DA002C44
:103FF800E4D549480440E3E72DE9F0474448454DF6
:1040080001782A68414E454F4FF47F432B63FA21CC
:1040180031802A6A22F004022A6200220078296884
:104028006A636FF0F9007080296A21F0080129623B
:10403800F86B7468D0F8001088470FFA80FAE4B17A
:10404800B4F90E90D4F80080D145BCBFB4F90C1077
:104058008A450FDBD145B8BFB4F90C902146301D15
:1040680003F0C2F90020226920752346A468494656
:104078005046A0475FEA0804E2D1FFF747FF686AA5
:1040880000F00C006862686A10F00C0FF7D139680C
:104098000A6ABDE8F0473520104770B584B003F0D0
:1040A800E2F81F4D0446287808BB684603F004F977
:1040B8001C490A78019201218DF808106B461A4AAA
:1040C8003521281D03F0ACF81848194B816C21F0F4
:1040D800040181640322816C21F00801816402607B
:1040E80009211A6816680220B04701202870204666
:1040F80003F0EAF804B070BD00B50E4881B001685D
:104108000A68904700B201B000BD0000C41B00203F
:104118000C1300502850094000FF0100B0010010A6
:104128006C6C002017860300014000000050094015
:1041380084010010EC01001001680A681047026849
:104148009368184702681369184770B503F08BF82D
:1041580018490546087860B9012217480A7004789A
:104168003CB1164E304656F80C1B4A699047641EFF
:10417800F8D12846BDE8704003F0A6B8000000005A
:1041880030B50C4C237881B000227BB10A4C2578DD
:10419800A8420BD209B900BF0CA100EB4002920063
:1041A800064B98189B589A6990470246104601B0EA
:1041B80030BD00000E7200208A5D0300F815000073
:1041C80002A1D1E90023C0E90023704700000000E4
:1041D80001000000002201F075BB010000238EE001
:1041E80001238CE070B504460E4600F057FC0546E6
:1041F8003146204600F0E5F804001AD0206803F0A4
:104208004AFA204605F00BF9754881688C4203D1BB
:104218002169816005E001460869A042FBD1206957
:104228000861204600F039FC284600F042FC0020D6
:1042380070BD284600F03DFC022070BDF8B505466B
:104248000E4600F02BFC04463146284600F0B9F82B
:10425800002750B1006803F02DFA624A13684FF442
:104268007A71B1FBF3F3B0FBF3F7204600F021FCC1
:104278003846F2BDF8B55A4E00F010FCF468054611
:1042880054B12769204605F0CAF8204600F005FC1D
:104298003C00F6D10020F0602846BDE8F24000F06E
:1042A80008BC4F4A10705160704710B50446A168A9
:1042B800207900F029FA207B00BB206803F0EBF995
:1042C800474A9068844203D12069906005E0084617
:1042D8000169A142FBD1216901610020D1682061F7
:1042E80011B9D46004E0014608690028FBD10C61CB
:1042F800BDE810405168107800F006BA10BD2DE9ED
:10430800F8471E46374B8046894618684FF47A713D
:10431800B1FBF0F0424389B0154600F0BFFB82467E
:104328004946404600F04DF8082704000AD02068A6
:1043380003F0B1F92068294603F0BAF9206803F0C0
:104348009EF937E0142000F0A7FB040032D00823C0
:1043580024220021684605F01CF8002E14BF05959C
:1043680005960121ADF81010069400236A462946E7
:104378001D4805F015F82060C8B184F80480C4F819
:1043880008902673002020611548816811B984605F
:1043980004E0014608690028FBD10C612068294621
:1043A80003F086F9206803F06AF9002702E0204646
:1043B80000F073FB504600F07CFB38460AB0BDE8BD
:1043C800F08720B502460648806800E0006928B1F9
:1043D8000379934204BF85688D42F7D120BD000060
:1043E800706E0020E8030000B3420000F8B541F207
:1043F800FC64DFF810562E19307901281CD02846A5
:10440800002105F5B85201E040F8041B9042FBD3A7
:10441800E8212960002041F21462DFF8EC75306071
:10442800C5F8E82005F1E801796000F006F8B86001
:104438007D60FC6001203071F1BDF8B500260027D1
:10444800051D15F003001CBF291D0D1A00F026FBE1
:104458000146DFF8B425112D34BF546894682068EC
:10446800002803D580F0004000271AE03B0014D054
:104478003368D4F800C06344AB42336011D3344688
:104488001846ECB1401B042811D3605145F0004098
:104498002060D3685D1BD56011E0A842F1D20127E6
:1044A8002646044420680028DAD1002408E0D368AE
:1044B80020681B1AD360256845F000452560241D37
:1044C80011600846F3E038B5040019D0DFF8385514
:1044D80000F0E4FA286054F8041C002903D4296980
:1044E800491C29610BE021F0004144F8041CEA68EA
:1044F8008918E960211F6A68914238BF69607CE1C8
:1045080031BD2DE9F04100F0C9FADFF8FC249368C9
:10451800002400250026002709E00E4601251C4638
:1045280004E011D581F00041002547460B44196885
:10453800B046BE4238BFB8460029F2D1106000F03C
:10454800B8FA4046BDE8F081002DE6D0D4F800C0A6
:104558008C44C4F800C08E19E8E710B504464FF43F
:10456800B850DFF8A4142060CA686260FFF7C9FF7A
:1045780009282CBF08380020A06010BD80B5FFF7BF
:1045880035FF4BF6BE2002BD084656E708469AE7B7
:1045980002B56846FFF7E1FF01BD01207047F0B59D
:1045A800DFF8684425782E460F2E0BDA1823DFF83B
:1045B80060745E43BB19586000201D70D960986014
:1045C80018745A616D1C2570681EF0BD38B5044614
:1045D8000025200001D1002032BD04F10C0000F0BC
:1045E8005BFA28B10560FF220481827200F10C0594
:1045F800284632BD80B508B9052002BD10F8021C56
:10460800FF2901D0042002BD0C3800F046FA002032
:1046180002BD2DE9F0410C00064602D10520BDE897
:10462800F0810020DFF8E85300E0401CDFF8DC23CD
:104638001378C1B2994217D2C7B218214F43EA5D25
:10464800B242F2D100F02AFA8046E8192146083031
:1046580000F0BFF84FF40041304600F055F84046EE
:1046680000F027FA0020DAE70320D8E7F8B5054676
:104678000E4600F013FA00240021DFF8942300E02E
:10468800491CDFF888733F78CBB2BB420FD218279A
:1046980017FB03F3D75CAF42F2D1D1188C6801E065
:1046A80054F80C4C002C1CBF2178B142F8D100F012
:1046B80000FA2046F2BD2DE9F84380464FF0000984
:1046C8000026DFF84C43DFF8445316E000F01CF8EE
:1046D80012E018225043215C41450DD1271807F1FB
:1046E800080000F0ACF88146B86800284FF4004193
:1046F800F0B2EBD100F046F8761C2978F0B2884287
:10470800E7D34846BDE8F2832DE9F04781468A465B
:1047180003260025BD4C18E01821BD4869434718F9
:104728003A784A450FD100F0B9F9804678690168AE
:104738004AEA01010160F86808B103F0A2F84046AE
:1047480000F0B7F900266D1CEDB220788542E3DB56
:104758003046BDE8F08770B504460025AB4E0DE045
:104768001821AB48694308444268A24204D1C06892
:104778004FF0FF3103F027F86D1CEDB23078854219
:10478800EEDB70BD2DE9F04180460C4600279F4EB8
:1047980004E02878404510D07F1CFFB2307887426B
:1047A80015DA18229A497A438D18B8F1FF0FF0D11B
:1047B80003F0A2FA69688142EED100F06FF96969E5
:1047C8000A6822EA04040C60BDE8F04171E1BDE822
:1047D800F08138B505460C4600F060F96CB100214F
:1047E80044F80C1C2A6812B92C6006E00A4652F8F4
:1047F8000C1C0029FAD142F80C4CBDE8324058E1B3
:104808002DE9F84304460D46904600F047F98146E5
:1048180020680027002628B100E07F1C50F80C0C07
:104828000028FAD1474504D229462046FFF7D1FF90
:104838000126484600F03DF93046BDE8F28338B518
:10484800044600F02BF92168002541B10D46A5F179
:104858000C0100230A682260FF240B608C7200F0B0
:1048680028F9284632BDF8B507460E4600F016F975
:10487800002400250021664A00E0491C634B1B7890
:1048880099421BDA18234B4312F803E0BE45F4D1D2
:10489800D1188C6801E0254614467CB1237854F879
:1048A8000C2CB342F7D1002D0CBF8A6045F80C2CB4
:1048B8000021FF2244F80C1C04F8022CF7E638B556
:1048C80004460D4600F0EAF8216845F80C1C2560FE
:1048D80093E770B504460D46164600F0DFF8A5F1DB
:1048E8000C0123680A689D420CBF226046F80C2C14
:1048F8000022FF230A608B72BDE87040D9E0F8B54A
:10490800424C434A65780026002311E018275F438C
:1049180002EB070CD75D874204D10F0018BF0127AF
:104928008CF810709CF810703E4318BF01265B1C71
:104938002778BB42EADB02F096FC0746300009D133
:10494800012D28460FD100F03CFB022000F039FB76
:10495800002508E0280006D1012000F09DFB022078
:1049680000F09AFB0125384602F0AEFC657030462F
:10497800F2BD01468868496808472DE9F84189B0C1
:1049880080460F4616461D0008BF022035D02C6809
:10499800F4B90C20FFF751FD040015D00823242298
:1049A8000021684604F0F5FC00200590ADF81000E1
:1049B800069400236A464146164804F0F1FC20603C
:1049C8006760A660206808B9082016E02C600CE033
:1049D80000F064F80546206802F085FE10B12068F2
:1049E80002F059FE284600F064F82068414602F0BB
:1049F8005FFE206802F043FE00200AB0BDE8F081A7
:104A080000000000581D0020AC6D00205934002023
:104A1800C45500207B49000070B505001CBF2C68F8
:104A2800002C01D0206808B9022070BD00F036F8CB
:104A38000646206802F057FE10B1206802F02BFEEF
:104A4800204604F0ECFC204600F027F800202860FF
:104A5800304600F02EF8002070BD20B10068002814
:104A680018BF02F018BE704710B513465A1E3BB166
:104A780010F8013B11F8014BA342F6D0002010BDFD
:104A8800012010BD03E011F8013B00F8013B13467B
:104A98005A1E002BF7D17047CFE414E580B503F018
:104AA800FAF8ADF8000002F0DEFBADF8020000985D
:104AB80002BD01B5BDF8020002F006FCBDF8000019
:104AC800BDE8024003F0F0B880B5022100F002F81A
:104AD80080B202BD012901D100787047022904D1B2
:104AE8000178407801EB00207047032907D102784C
:104AF8004378807802EB032101EB004070470429DA
:104B08000AD10278437802EB03218278C07801EB5E
:104B1800024101EB006070474FF0FE3070470170B2
:104B28000A0A0B0C090E42708370C170001D704791
:104B380010B540B1002300E05B1CDCB2944204D203
:104B4800045D8C42F8D0002010BD012010BD80B556
:104B580004F0B4FD80B202BD6C48006820B18168E1
:104B680000291CBF002008477047FEB5674E1D4648
:104B780033681446002B1CBF1A69002A1AD0012278
:104B88008DF8002000F04CF800279A6A1AB1DDE988
:104B9800000190470746A74201D10020FEBD2246EA
:104BA80034682B46DDE900012569A847012801D1B1
:104BB8000A20FEBD0920FEBD13460A460146002014
:104BC800D3E71CB5514B1B680022002B1CBF9B6A06
:104BD800002B08D0012400F023F88DF80040DDE90F
:104BE80000019847024690B216BD01460020E8E74A
:104BF800BCB5464C24680025002C1CBF6469002CF9
:104C08000CD0012700F00CF88DF80070DDE90001E8
:104C1800A04718B10A280CBF09250A252846B6BDA1
:104C2800ADF80200ADF80410704713460A46014675
:104C38000020DDE77FB5354C2468002C1CBFE469F3
:104C4800002C0FD00126ADF80600ADF808108DF83D
:104C58000460DDE90101089D0095A047012818BFFF
:104C6800002000D10A2004B070BD78B5274C246814
:104C780087B0002C1CBF246A002C16D00491ADF814
:104C8800160001260F99BDF838000C9D03918DF888
:104C980014600026BDF8341002900191ADF8186038
:104CA800DDE905010095A04700B10A2008B070BDF4
:104CB80080B5009313460A4601460020FFF7BAFF65
:104CC80002BDFEB5114E336800251446002B1CBFEB
:104CD8009A69002A18D001278DF80070FFF7A0FF05
:104CE8009A6A1AB1DDE90001904708B909250BE075
:104CF800A04218BF0C2507D132689369DDE900018D
:104D08009847012808BF0A252846FEBD9C34002084
:104D180000F1010310F8011B11B110F8011BFBE7AA
:104D2800C01A7047F0B51C0089B005460E461746F4
:104D380005D1002304F04EFB284609B0F0BD082336
:104D480024220021684604F024FBA16806916B46E2
:104D58002278ADF810203A4660680590314628461A
:104D680004F038FB284609B0F0BDF0B5140089B04E
:104D780005460E46264F05D13B46002204F010FB9F
:104D880009B0F0BD082324220021684604F001FB85
:104D9800A16806913B462278ADF810206A46606803
:104DA80005903146284604F0FBFA09B0F0BD00B57D
:104DB80081B00090684604F032FB01B000BD04F0F9
:104DC8001FBB02F030BB13480068704702F049BBB4
:104DD80002F070BC00B581B002F085FC401E804135
:104DE800C043C00F01B000BD002181600170416067
:104DF800704702F05DBC02F042BC02F04CBC0549B1
:104E0800096800EB5100B0FBF1F002F0B7BF0000F9
:104E18009C180020E8030000DFF83C088068704711
:104E2800DFF83418084490F84A0170470246002019
:104E3800022904D1012A06D140F2EE207047012A46
:104E480008BF4FF47A707047DFF80C1891F84101E9
:104E580020B1D1F86C01002818BF00477047F0B5A1
:104E6800DFF8F44794F84201002883B040F09080BE
:104E78000121DFF8E867DFF8E85784F84211307B52
:104E880084F841017168C4F86C11A868C0F38140C6
:104E9800A0B9306990B12F68FFF795FFC7F3066294
:104EA800642111FB02F2B2FBF0F200230FF2ED7164
:104EB80004F19400FFF736FF04F028FC6846FFF77A
:104EC80093FF002001908DF80000002202926B46AB
:104ED8000FF20161DFF88C7704F10C00FFF722FF75
:104EE8006846FFF781FF002001908DF800000290CE
:104EF8006B460822DFF8701704F15000FFF712FF25
:104F080000230FF27152322104F1D80002F088F91F
:104F1800002038600023DFF854272C2104F1F40026
:104F280002F07EF9A968707BC1F3815128B1032989
:104F380003D1012084F8390109E0032918BF0229A7
:104F480005D0012902D104F0F2FB11E081B93868DB
:104F580040F04000386002F086F9A16841F0040191
:104F6800A16094F84511491C84F8451102F0ACF988
:104F7800686840070CD402F076F9A16841F0010195
:104F8800A16094F84311491C84F8431102F09CF97C
:104F9800002003B0F0BD30B581B0002408B1150081
:104FA80004D16FF00204204601B030BD8160C260B8
:104FB80003610146DFF8A00602F0ECF9204601B0D3
:104FC80030BD10B5044602F04EF9DFF88C160A1908
:104FD80092F843315B1E82F84331DBB233B98A68F9
:104FE800012303FA04F422EA04048C6002F06CF949
:104FF800002010BDF0B581B0054602F034F9044632
:10500800DFF85416481990F84A21521E80F84A21B0
:10501800D2B232BBDFF8580600EB850210F82550F3
:105028005688280623D5DFF84C7639680A6A304650
:10503800904739688A6A3046904739680A6B304623
:105048009047DFF8341601200860DFF83006016861
:105058008907FCD505F03F05132DBCBF2846FFF78F
:10506800C9FF204602F030F9002001B0F0BD680603
:1050780006D501EB86010020D1F860219047E9E7C9
:10508800DFF8F0150B689A6930469047304604F00F
:10509800AFFB0228FAD1DDE710B5044602F0E3F8C9
:1050A800DFF8B4158A680123A3401A438A602144B3
:1050B80091F84321521C81F8432102F005F90020A0
:1050C80010BD2DE9F041064602F0CDF80446DFF8A0
:1050D8008855A81990F84A114A1C80F84A2139BB0A
:1050E800DFF88C8518F8260000F03F001328B8BFB9
:1050F800FFF7E7FF08EB8600478818F82600010647
:105108001CD5DFF870552A68D169384688472A685F
:10511800516A384688472A68D16A38468847DFF88E
:10512800582501201060DFF8540501688907FCD56F
:10513800204602F0C9F80020BDE8F081400606D5F7
:1051480005EB87010120D1F860219047F0E7DFF8EF
:1051580024150B685A6938469047384604F065FBB1
:105168000128FAD1E4E72DE9F047002700250128B6
:10517800A94618BF6FF0010840F01081DFF8D84445
:10518800D4F8340101285DD10221C4F8341104F0A7
:10519800C8FB012000F0A1F95FEA000857D194F894
:1051A8005A0100B1012794F8590108B147F00207E4
:1051B80094F8580108B147F00407012004F0B3FA45
:1051C80001281CBF94F83801012833D104F0A9FA4A
:1051D800DFF8B00401680125C1F3814058B9DFF850
:1051E8007C0406693EB104F19400FFF706FE04F062
:1051F800D0FA0020B04794F83801D8B1DFF8880415
:10520800D0F8841221F08001C0F884128022C0F8FE
:105218008C2202F028F894F84611491E84F84611A9
:10522800C9B219B9A16821F00801A16002F04CF8CF
:1052380084F83891207ADFF83C64C1070FD54FF025
:10524800010915E06FF004084046BDE8F087012029
:10525800C4F8340104F06EFB4046BDE8F087316ABB
:10526800DFF828048A6890478246BAF1040FF6D01E
:10527800484604F0A0FAB9F1000F0AD1BAF1010FBB
:1052880005D1326ADFF8040453680121984704F015
:1052980042FA31684A693846904794F8540120B177
:1052A8003168CA6A4FF48060904794F8530120B17E
:1052B8003168CA6A4FF481609047DFF8BC13DFF8A1
:1052C800C893012008600022C9F800200320C4F810
:1052D8003401384604F0A9FA0128FAD1DFF8A0739E
:1052E8003868042000F0F9F80646DFF8A413012016
:1052F8000860002D3A6843D004F015FA01283FD021
:1053080094F8380100283BD1DFF878733868C0F387
:10531800814078B9DFF8440305695DB104F02CFADF
:10532800502004F025FB0120A84704F19400FFF762
:1053380062FD01E004F036FB012084F8380138688A
:10534800C0F3814018B9DFF81413086958B9207AF6
:10535800810608D48020C9F88C02D9F8841241F05B
:105368008001C9F8841201F07EFFA16841F00801AC
:10537800A16094F84611491C84F8461101F0A4FF75
:1053880004F0F2FA082000F0A8F806430120C4F857
:10539800340104F0CFFA0EB14FF0FF384046BDE8B3
:1053A800F08730B581B0044601F05DFF054621461F
:1053B800DFF8A40202F018F8284601B0BDE8304032
:1053C80001F082BF10B50024022802D0032805D0BE
:1053D80008E004F069FB0446204610BD04F06AFCAE
:1053E800204610BDFEE7F0B581B001F03CFF9A49B8
:1053F800054691F83801012450B1A64EA6483768F1
:10540800D7F80CC0002301223C21E04700B9002452
:10541800284601F059FF204601B0F0BD30B581B0F3
:1054280001F021FF044604F0CCFA8B4D002085F8EA
:10543800380101F018FF95F84611491E85F8461104
:10544800C9B219B9A96821F00801A96001F03CFFA7
:10545800204601F039FF814884680220A0470546AC
:10546800102000F03AF8012D04BF0320A04701B036
:1054780030BD000030B57B4C81B06568206820EAFB
:10548800050105406A0621601DD5042004F04BF98A
:10549800022818BF032804D0012814D104F047F9C2
:1054A80011E004F044F901F0DEFE6B4991F8452162
:1054B800521E81F84521D2B21AB98A6822F0040234
:1054C8008A6001F001FF280648BF00F021F8A560B6
:1054D80001B030BD70470020704730B505465E48C2
:1054E800046881B05CB1A068284205D02269E368ED
:1054F80000212846984728B92468002CF3D10020B9
:1055080001B030BD4FF0FF3001B030BD0020704712
:1055180030B581B001F0A7FE044604F022F900B9C5
:10552800FEE701F0A0FE4C4D95F84611491E85F89E
:105538004611C9B219B9A96821F00801A96001F09A
:10554800C3FE002085F83801204601F0BDFE43481F
:1055580084680220A04705461020FFF7BEFF012DF2
:1055680004BF0320A04701B030BD70B5012841D168
:1055780004F0D9F801286DD0374D95F83801002886
:1055880068D1404E3068C0F3814070B9334804692F
:105598005CB104F0F1F8502004F0EAF90120A047CA
:1055A80005F19400FFF727FC01E004F0FBF9012066
:1055B80085F838013068C0F3814010B92749086977
:1055C80048B9287A810606D4264880228260016874
:1055D80041F08001016001F046FEA96841F0080130
:1055E800A96095F84611491C85F8461101F06CFE32
:1055F800002070BD70BB04F094F82248164D006876
:10560800C0F3814050B9154804693CB105F19400D4
:10561800FFF7F3FB04F0BDF80020A04795F8380128
:10562800C0B11048016821F08001016080218160CB
:1056380001F019FE95F84611491E85F84611C9B2C0
:1056480019B9A96821F00801A96001F03DFE002000
:1056580085F83801002070BD541A0020E0160000BB
:10566800AC4F005090220840A39D0000199B0000F9
:10567800981B0000B8010010282008602820084066
:105688002C200940B44F00500C2008400040034033
:105698000C400940A401001000A00C4000B581B0E6
:1056A80004F084F801B05DF804EB31E70FB581B080
:1056B80004F09CFB0949212205E00FB581B004F0F4
:1056C80095FB06492222425001B00FBD80B504F077
:1056D8008DFB0349084402BD00000000B47100209E
:1056E800B47100202DE9F041102705460E4690467A
:1056F800082B38BF082398B2FEF768FF040010D0C3
:10570800267000F037F800F03BF840B902F0F4FAE0
:10571800FFF721F800F03CF80028F7D0477800F0B0
:1057280042F83846BDE8F0812DE9F8430546089867
:1057380010260F46904699460C2838BF0C2080B298
:10574800FEF744FF040012D0277000F013F8C4F8E5
:10575800089000F015F840B902F0CEFAFEF7FBFF0A
:1057680000F016F80028F7D0467800F01CF830460C
:10577800BDE8F28300206070A570C4F8048070470B
:1057880021460A480078FEF744BF08490870704768
:1057980021782846FFF767B80A4608230421A1E7BD
:1057A800FFF7C2FF02BD2046FEF724BFFF710020AD
:1057B8000A460823142195E70A460823202191E781
:1057C8000A46082322218DE70A4608234D2189E746
:1057D8000A4608232C2185E70A460823B02181E7D9
:1057E8000A460823B6217DE70B460C2100910022CA
:1057F80070470A460823C12174E703230022CD21FC
:1058080070E780B5FFF7F0FFC421C9E738B5044653
:1058180001252078801F46D0423848D018383ED01D
:10582800401E3CD0401E012841D9801E2FD0401E6A
:1058380033D0401E31D0801E2FD0801E032836D989
:10584800001F2AD0401E28D0401E26D0401E24D03B
:10585800401E02282BD9C01E21D0401E23D0401E36
:1058680025D0C01E23D0801E21D015381FD0401E41
:1058780017D0C01E012884BF3038062817D91B3816
:1058880015D0801E012812D9093810D012E060699D
:1058980008B1FFF702F9E06906E0E06804E0606932
:1058A80002E0E06A00E0A06808B1FFF7F6F8FFF749
:1058B8007AFF00E00025284632BD010062F30F227E
:1058C80062F31F42401810F0030308D0C91A1FD30F
:1058D800DB0748BF00F8012D28BF20F8022D130070
:1058E80030B414461546103928BF20E93C00FAD8D0
:1058F800490728BF20E90C0048BF40F8042D89005B
:1059080028BF20F8022D48BF00F8012D30BC704791
:10591800C91818BF00F8012DCB0728BF00F8012DC2
:1059280070476400002204F067BAE8032DE9F84FD5
:105938009CB00121FDF7E3FC0022019200920023B4
:105948004FF47A720FF6E521DFF82C0BDFF82C6B99
:1059580004F06CFADFF8281B0860082324220021D1
:1059680013A803F093FD00208DF8640013AA00210A
:1059780006F12C0003F0A7FD06F12C00B06202F03E
:10598800BBF9B16A06F11402FEF709FE707306F15D
:10599800180200F06CFBDFF8201D087006F11C02ED
:1059A80000F065FBB0730020F073307404F0B2FCB3
:1059B800DFF8D00A90F8260004281ABF082800202B
:1059C8000220DFF8F87CDFF8F84C7978DFF8B85A6D
:1059D80001F0FD01084300F0FB007870B4F836A030
:1059E800387800F0FC005FFA8AF140EA91103870CC
:1059F80004F0D2FC707C00281FBF00217174687EFF
:105A0800FF2804D001220121012004F067FDDFF8FE
:105A18007C8A002088F800008DF8040001AB00F0B3
:105A2800C9FB78B901A800900123002201211020A8
:105A3800FFF700F930B99DF80410B4F829000140C7
:105A480088F800105FEACA70DFF8448ADFF8749CAF
:105A58003ED400218DF805100DF105030122032124
:105A68001020FFF782F898BB0DF105000090012384
:105A7800002203211020FFF7DDF848BB9DF8050040
:105A8800DFF810BA401C8DF805009DF805000428C1
:105A980010DB002000F0EFFA00F0ECFE707B6422CF
:105AA8002021FEF79BFBBBF8000040F00200ABF89A
:105AB8000000D3E200F0DFFA707B41F2707220211F
:105AC800FEF78CFBBBF8000040F00100ABF80000CB
:105AD800DFF8C419087810B1012004F083FC05F040
:105AE8004BF805F091F90020308130804FF6FF7BAC
:105AF80005F0F0FA04228DF819200122DFF89C192C
:105B080004918DF818208DF814208DF81A208DF83E
:105B18000C208DF81C208DF81E208DF80100002126
:105B2800029103228DF81D108DF81B20ADF816B0D8
:105B380002A9707BFFF754FE05F09DF98DF805006A
:105B480005F0B9F9DFF8841C087810B9707B00F00B
