:020000040000FA
:060000000217EC020A7D6C
:03001300020B39A4
:03002B0002156358
:03003300020CC7F5
:03003B00020B8E27
:03004B0002147725
:030053000209B2ED
:03005B000212CFBF
:030063000212F096
:03006B00020C6D17
:03007B00020C9ED6
:10008300020A11010020FD000201FC05000000012D
:10009300A21EB41E0000BA1EC01E00000000C61E31
:1000A300DE1EE41EEA1E0000000000000000060041
:1000B30004140004FF1801FF0D010612FFFFFFFFE8
:1000C300FFFFFF0101010400BA15000000E803006F
:1000D30000FFFF0E16E803000064006400B801A0EF
:1000E300BB0D00A0BB0D00020200F8FF0705021EB6
:1000F3000401051E02051E020A0A01010808031075
:100103002702803E0102FEFFE8030A050001FFFF0C
:10011300020A1401E002000000C503423F1A511213
:100123003FF304B53F0000803EFFFFFF00050301DE
:1001330001FF163F000000004C3E00000000FF00DE
:100143000000FF00C082C083E9FA5407F874452811
:10015300F582E43484F583E0F879006022EAC4543C
:100163000F5403600814600914600D8012E5808049
:1001730002E5905870078007E5A0586002790102F4
:100183000270C082C083120275400478008003129B
:10019300032DE8F4FCEB600814601214601C802B40
:1001A300EA6005E842808023EC5280801EEA600505
:1001B300E842908016EC52908011E8C39420500BD3
:1001C300EA6005E842A08003EC52A0020270C082FC
:1001D300C08312027540047800800312032DE8F4F3
:1001E300FCE87003020270EB600814602C1460508A
:1001F300807BEC52F374016A601274026A601574B6
:10020300046A7003E8428FE842FD806153F7DFEC34
:10021300528F80F343F72080F6EC52F474016A6046
:100223001274026A601574046A7003E842F6E842C5
:10023300FE803A53F7BFEC52F680F343F74080F663
:10024300E8C394205027EC52F574016A60127402DB
:100253006A601574046A7003E842F7E842FF800D90
:1002630053F77FEC52F780F343F78080F6D083D0C7
:100273008222E9C4540F5403FB743F59C3943022C0
:1002830074F8120EC3E9C4540F5403FE743F59C3E8
:10029300943040047800800312032DE8F4FBE860F7
:1002A30077EE600814602B14604E806CEB52F352AF
:1002B300FD74016A600F74026A600F74046A7058F7
:1002C300E8428F805353F7DF800343F720EB528FCD
:1002D3008046EB52F452FE74016A600F74026A6046
:1002E3000F74046A7032E842F6802D53F7BF80031F
:1002F30043F740EB52F68020E8C39420501AEB44B6
:10030300E0FB52F552FF74016A601274026A6015D1
:1003130074046A7003E842F77F0102125053F77FB7
:10032300EB52F780F343F78080F6E95407FC7445FA
:100333002CF582E43484F583E0F822C082C0831272
:10034300027540047800800312032DE8F4FCE86092
:1003530038EB600814601214601C802DEA6005E815
:1003630042FD8025EC52FD8020EA6005E842FE80D4
:1003730018EC52FE8013E8C39420500DEA6005E8A0
:1003830042FF800574E04C52FF020270C082C083BA
:1003930012027540047800800312032DE8F4FCE890
:1003A300603FEB60081460151460228034EA600536
:1003B300E842808003EC5280E842FD8024EA600535
:1003C300E842908003EC5290E842FE8014E8C39424
:1003D30020500EEA6005E842A08003EC52A0E842F8
:1003E300FF020270743F59C394305042E9C4540F62
:1003F30054036007146013146020227801E8F4FBAF
:10040300EA602414601814601922740F59C3940409
:100413005004780280E7780480E3780880DFE842BC
:100423008C22E58C586004EB528C22E8428C221219
:1004330017FC601D12180B7005191919801A121672
:1004430065701F12168DC37003E6673319191940BF
:10045300071818182208080874FFF618F618F61873
:10046300F62212168D60171218B1702192F012182D
:10047300BA7019501720F014080808090909E7F69B
:100483001819E7F61819E7F61819E7F6221218BA39
:1004930060E6E869701F0808E62480F608E436F68B
:1004A30018547FB47F0CE654806007F6E418F618FE
:1004B300F622181822E9C6CC08C6CD08C6CE08C64F
:1004C300CFC0E0E8C0E0EAC0E0EBC0E009E9F8092A
:1004D300E7FA09E7FBE6F918E6F8C3EC98ED99EEBD
:1004E3009AEBC2E7F5F0EFC2E795F0500E600CEB24
:1004F300CFFBEACEFAE9CDF9E8CCF8EAA2E7D2E7F6
:10050300FAEB33FB13F5F0EEA2E7D2E7FEEF33FF8E
:10051300C5F013A2E730E601B313C5F0C3C0E0C0D2
:10052300F07F00C39BFB605E9418600F401D146056
:100533001AD0E023F9D0E0F80206138AF0E9486004
:1005430003D2F0E4AFF0FAF9F8803BEB30E40D8925
:10055300F0EA6003D2F0E4AFF0F9CAF8EB30E30D50
:1005630088F0EF6002D2F0AFF0E4CAC9F8EB5407A9
:100573006014FBC3EA13FAE913F9E813F8EF135015
:1005830002D2E0FFDBEDD0E0C0E030E739C3E49F07
:10059300FFF5F0EC98FC42F0ED99FD42F0EE9AFE87
:1005A30042F0D0E0F9D0E0F8E5F0607AE923F9EE23
:1005B30020E742D8028067C3EF33FFEC33FCED330F
:1005C300FDEE33FE80EAEC28FCED39FDEE3AFED079
:1005D300E023F9D0E0F84002801BC3EE13FEED13D5
:1005E300FDEC13FCEF135002D2E0FF08B800067FC6
:1005F3007F74FF802EEF3350178CF020F0026010D1
:100603000CBC000C0DBD00080EBE000408E860DF42
:10061300E933E813FFEE2313FE4F4D4C8008E954F2
:1006230080FFE4FEFDFCEE33EF33F47004FCFD7E4B
:1006330080D0E0FBD0E0FAD0E0F8D0E0CFC618CE0F
:10064300C618CDC618CCC6F9221217FC70041818A8
:10065300182212180B700D74FFF61819F61819F6F4
:100663001819F622E7548066F61218BA700F12189A
:10067300B170F014F608F608F608F680D11218B136
:10068300700CF608F608768008E6447F80EC1216B4
:1006930090700C12166860BFE65480F6E480BB12BB
:1006A3001668700519191980A5E869700C763F184A
:1006B300768018F618F6E8F922E6CDC0E018ECC00B
:1006C300E0E633CD33CDD313F6E719FCE71919333D
:1006D300CC33C3947F400ECD9D502408E65480F65E
:1006E300E418F6800FF4043D14501408E6447FF632
:1006F300187680E418F618F6D0E0FCD0E0FD22CCA2
:10070300D313CCFD18E4C6CBC0E018E4C6CAC0E0DE
:100713000808ED08C633E613F618E433C675F0038C
:10072300C3CA97CA09CB97CB199C40047D08802E76
:10073300BD00030207F516B6FF050606081618C323
:10074300CA33CACB33CB33CA27CA09CB37CB193CFD
:10075300C37D08803E187D0820E75CC633C6CA33D4
:10076300CACB33CB33DDF1D5F0EB30E77BCA97CA85
:1007730009CB974ACB199C406F4B7025E620E021AB
:100783008066187D08C3CA97CA09CB97CB199CD337
:10079300C633C6CA33CACB33CB3350C9DDE7D5F032
:1007A300E1D3E4C636C608C636C608C636C608C68A
:1007B30036C61818188031C3CA97CA09CB97CB1904
:1007C3009CB34097C633C6CA33CACB33CB33DD346D
:1007D300D5F02EC6A2E0C640C8CA27CA09CB37192E
:1007E3004A70BECB3CB480B90808E63308E63360F0
:1007F3001F181818D0E0FAD0E0FBD0E0FCD0E0FDE1
:1008030022187D08CA27CA09CB37CB193CD380806D
:1008130013F618E4B67F11F618B6FF0EF618C604E1
:1008230070D20808768080CAF618F618F680C500DC
:100833001217FC604F12180B6012E7548066F61211
:10084300166570111218B1703B090909F4F618F610
:1008530018F618F62212168D70151218BA08080821
:1008630060EAE6447FF618768018E4F618F622125A
:1008730018BA60161218B17012E4F608F608F608F2
:10088300E65480F609090918181822EAC0E0EBC0FB
:10089300E0ECC0E0EDC0E0E687F0A4FBACF008E6D6
:1008A30087F0A42CFCE435F0FA1809E687F0A42CB1
:1008B3004B60027401CA35F0FCE433FB09E687F0B0
:1008C300D2F7A42CCB35F0FC1908E687F0A42BCC87
:1008D30035F0FBE433FD0819E687F0D2E7A42C4A90
:1008E300CB35F0CD3400FC09E687F0D2E7A42DCC5C
:1008F30035F0FDE433FA0918E687F0D2F7A42CCDDE
:1009030035F0CA3400FC08E687F0D2E7D2F7A42A10
:10091300CC35F07A7E20E70B0ACB33CBCD33CDCC6D
:1009230033CC33CB3350147004ED30E00ED2F1E40A
:10093300CD3DCDCC3CCC3B5005DA05C2F1EB547F29
:10094300C63308E63392F0FBE73309E733C39A5023
:100953002D2B70190C0D4C4D70151806E608C3337A
:10096300700D20F10AA2F013F6E418800B4024E482
:10097300F630F002768018F618F618F68024D33B8A
:1009830014501074FFA2F013F6187680E418F618CA
:10099300F6800FA2F013F618E63303F618ECF618F8
:1009A300EDF6D0E0FDD0E0FCD0E0FBD0E0FA22C0D1
:1009B300E074F1120F29A2AFE433F509D2AF85A792
:1009C30008AFA1EF5508FE74105E6006121B8A750E
:1009D300A1EF74085E6008121B9075A1F78024EFE5
:1009E300A2E092F0E508A2E082F05017906198E04F
:1009F300F890056CE0C398A2D265D0335002E8F0BA
:100A030075A1FEE509A2E092AF7F02020F88C0E064
:100A130074F2120F29A2AFE433FED2AF9061A4E0C7
:100A2300F8759B00E59158540860087591F7121BFF
:100A3300D88023E59158541060087591EF121BDE9E
:100A43008014E591A2E092F0E8A2E082F05007E082
:100A5300C2E0F0121D289061A3E0F8E5E9585404C0
:100A6300600E121CFE75E9FB906193E0A2E640F272
:100A7300EEA2E092AF7F01020F88C0E074F2120F82
:100A830029A2AFE433FED2AF9061A5E0F8E5BF58E9
:100A93005404600675BFFB121D4080D4C3E498F86C
:100AA300E499F9120AE08026C3E49AFAE49BFBE98D
:100AB30020E7E9120AE0E498F8E499F922C3E498FC
:100AC300F8E499F9120AE0E498F8E499F9C3E49A8E
:100AD300FAE49BFB22EB20E7CFE920E7E0B9001023
:100AE300BB0008E88AF084F8AAF022E4FBC8FA22E3
:100AF300EB70227B10C833C8C933C9335007C39A7C
:100B0300C3DBF280069A50012ADBEAC833F4C8C972
:100B130033F4C9FA2275F008E4C833C8C933C933BA
:100B2300C99AC99B5004C92AC93BD5F0ECFBC83309
:100B3300F4C8E4C9FA22C0E0C0D0E8C0E0E9C0E0EC
:100B4300C082C083A8C1E8C0E09004D9E0F874581B
:100B530028F582E43404F583D0E0F09004D8E0F87B
:100B6300A3E0687006E5959004DBF09004D9E004F7
:100B7300F0C394804002E4F0A374C6F0D083D08223
:100B8300D0E0F9D0E0F8D0D0D0E032C0E0C0D0E877
:100B9300C0E0E9C0E0C082C08390055CE0F8A3E058
:100BA300687008539AFBA374018022C2E990055C24
:100BB300E0F8740128F074DC28F582E43404F5834A
:100BC300E0F5C190055CE0C394804002E4F080ACA2
:100BD300120C1E30F039120C638034120C1E20F0FC
:100BE3001430E72B74FFFCFBFA747F8022E4FCFBD8
:100BF300FA7480801AB48008BC00F2BB00EF800F47
:100C030050EBF9E4C39AFAE49BFBE49CFCE499C639
:100C1300CC18C6CB18C6CA18C6F922E4C9C608CA76
:100C2300C608CBC6D3330308CCC63392F0C3947F34
:100C3300402E94184019C9B90704CACBCC225025B9
:100C4300C309CA33CACB33CBCC33CC33D9F422F464
:100C5300600DC9CCC313CB13CBCA13CAD9F6CC22AC
:100C6300E4FCFBFA2214FCFBFA22C0E074F2120F3C
:100C730029A2AFE433FED2AF900713E05589600F8A
:100C8300E589FA790012200A900713E0F45289C229
:100C9300C5EEA2E092AF7F01020F88C0E074F212AA
:100CA3000F29A2AFE433FED2AF900714E0558A6058
:100CB3000FE58AFA790112200A900714E0F4528AA8
:100CC300C2EB80CDC0E074F2120F29A2AFE433FE71
:100CD300D2AF900715E0558B600FE58BFA790212BE
:100CE300200A900715E0F4528BC2E880A408080894
:100CF300EAC0E0EBC0E086F0E7A4FA180986F0E763
:100D0300A42AFA180986F0E7A42AFA180986F0E754
:100D1300A42AFA1986F0E7A4FBE5F02AFA19088653
:100D2300F0E7A42BFBE5F03AFA190886F0E7A42BC9
:100D3300FBE5F03AFA18180986F0E7A4C5F02BFB97
:100D4300E43AFA1908E7C5F0C6A426F6E5F03BFB3A
:100D5300E43AFA1886F0E7A4F6E5F00826F6E43B51
:100D630008F6E43A08F6D0E0FBD0E0FA22080808D7
:100D7300E630E7111216C9120D88080808C6448028
:100D8300C618181822181818E9799EC608CAC60882
:100D9300CBC608CCC6C370207996CACBCC70197960
:100DA3008ECBCC70137986CC700EF9802ACA33CAE5
:100DB300CB33CBCC33CC331930E7F2CCCBCA335063
:100DC300147004EA30E00DE4CA3ACACB3BCBCC3C06
:100DD300CC500209C3E913C6CC182313C6CB18C6DB
:100DE300CA18C6F922E4CFC0E0E4CEC0E0E4CDC027
:100DF300E0E4CCC0E075F020E626F608E633F6081A
:100E0300E633F608E633F6181818EC33FCED33FD39
:100E1300EE33FEEF33FFC3EC9709ED9709EE970925
:100E2300EF97191919400FFFEC97FC09ED97FD098E
:100E3300EE97FE191906D5F0BFECF709EDF709EEA9
:100E4300F709EFF7191919D0E0FCD0E0FDD0E0FE67
:100E5300D0E0FF222518C582C0E0E51934FFC58321
:100E6300C0E0E518C3958224F810AF08858319857F
:100E730082188008858319858218D2AFCEF0A3E546
:100E830020F0A37808E608F0A3DEFAEFF0A3E581EB
:100E930024FAF8E608F0A3E608F0A3E608F0A308AE
:100EA30008E608F0A3E608F0A315811581D0E0FE5B
:100EB300D0E0F8158115811581E8C0E0EEC0E0228D
:100EC3002518C582C0E0E51934FFC583C0E0E518E5
:100ED300C3958224F910AF08858319858218800889
:100EE300858319858218D2AFCEF0A3E520F0A378CD
:100EF30008E608F0A3DEFAEFF0A3E58124FBF8E6A9
:100F030008F0A3E608F0A30808E608F0A3E608F053
:100F1300A315811581D0E0FED0E0F815811581E895
:100F2300C0E0EEC0E022C0D02518C582C0E0E519BC
:100F330034FFC583C0E0E518C3958224F310AF08DE
:100F43008583198582188008858319858218D2AF15
:100F5300C8F0A3E9F0A3EAF0A3EBF0A37908E7094B
:100F6300F0A3D8FAECF0A3EDF0A3EEF0A3EFF0A317
:100F7300D0E0F0A3D0E0F0A3D0E0F0A3E520F0A30D
:100F8300E5F0F0A322851983851882E0C0E0A3E091
:100F9300F9A3E0FAA3E0FBA37808E0F608A3DFFADD
:100FA300E0FCA3E0FDA3E0FEA3E0FFA3E0C0E0A319
:100FB300E0C0E0A3E0F5D0A3E0F520A3E0A3F5F0C3
:100FC30010AF088583198582188008858319858267
:100FD30018D2AFD082D083D0E0F8D0E0321216CC52
:100FE300181818120DE812179B1919192212179BBA
:100FF300191919080808E618181820E7E0120DE86F
:101003001216CC18181822090909E719191920E72B
:10101300DC080808E618181820E703020DE8121682
:10102300CC181818120DE81216CC18181812179BA2
:101033001919192212189CB90003021076E49004BE
:1010430001787D79158002F0A3D8FCD9FA7A7D7BEB
:101053001890008678C279018015E493A3AD82AE1F
:10106300838A828B83F0A3AA82AB838D828E83D8FB
:10107300E9D9E775826175839E74071214F475824A
:10108300C275833774001214F475F0108E1A8F1B17
:1010930085821F85831E851882851983E0CEA3E090
:1010A300CF851F82851E83EBC9EAC8EDCBECCAC38B
:1010B300E833C8E933C9EA33CAEB33CBC3EA9EF555
:1010C3001DEB9FF51CB35004AB1CAA1DEC33CCEDF8
:1010D30033CDD5F0DAAE1AAF1B221217FC601C1207
:1010E300180B60171218BA70071218B17001D322C7
:1010F300C0D01218B17006D0D0B322C32233D0D0DF
:10110300501430E0F6C3E7960809E7960809E79616
:101113000809E796B32220E0D5E6970809E6970881
:1011230009E6970809E697B322D083D082ECC0E0A2
:10113300EDC0E0E493A3FCE493A3FDED4C600D123A
:101143001290EC24FFFCED34FFFD80EFE493A3FC4D
:10115300E493A3FDED4C600D121397EC24FFFCED1B
:1011630034FFFD80EFD0E0FDD0E0FCE493A3C0E0CA
:10117300E493C0E0221217FC601B12180B601612D6
:1011830018BA70071218B1600CB322C0D01218B18C
:101193007005D0D022C32233D0D0501330E0EBC33C
:1011A300E7960809E7960809E7960809E7962220D3
:1011B300E0E4E6970809E6970809E6970809E69741
:1011C30022D083D082E9C0E0E493A3C386F0C5F0C4
:1011D30095F0F908E493A386F0C5F095F0700BE45D
:1011E30093A3C3994005E9048002A3E475F002A424
:1011F3002582F582E5F03583F583D0E0F9E493A306
:10120300C0E0E493C0E022851983851882E0A3FE41
:10121300E0A3F5207808E0A3F608DFFAE0A3FFE0F7
:10122300A3C0E0E0A3C0E0E0A3C0E0E0A3C0E0E02F
:10123300A3C0E010AF0885821885831980088582D2
:1012430018858319D2AFD083D0820214FA8519830B
:10125300851882E0A3FEE0A3F5207808E0A3F60852
:10126300DFFAE0A3FFE0A3C0E0E0A3C0E0E0A3C097
:10127300E0E0A3C0E010AF088582188583198008D9
:10128300858218858319D2AFD083D08222C0E0C370
:10129300E49396087401939618400FE493667008DC
:1012A30008740193661870007019A3A3C3E493969E
:1012B300087401939618A3A3400DD0E0D0E0D0E0CA
:1012C300021168A3A3A3A3A3A3D0E022C0E074F2F6
:1012D300120F29C2D99018B8E0C39400A2D265D0E6
:1012E300334005E0F91224487F01020F88C0E074FF
:1012F300F2120F29C2DC9018BAE0F9C39400A2D20B
:1013030065D033400312244880DE740480047402E1
:101313008000CCC0E0EDC0E0E518C39CCCAD195013
:10132300011D10AF068C188D1980068C188D19D2EB
:10133300AF121456D0E0FDD0E0FC2274028000CC42
:10134300C0E0EDC0E0E518C39CCCAD1950011D1001
:10135300AF068C188D1980068C188D19D2AF121414
:1013630012D0E0FDD0E0FC221217FC602512180B0E
:1013730060201218BA70030218B1080808E76670F3
:10138300101819E766700A1819E76670041819E748
:101393006622F422C0E0C0F088F0E4936670080887
:1013A30074019366187000A8F0A3A3700BD0F0D05B
:1013B300E0D0E0D0E0021168A3A3D0F0D0E022D0C7
:1013C30083D082CCC0E0E493A360061214D51470DA
:1013D300FAE493A360061215FA1470FAD0E0FCE461
:1013E30093A3C0E0E493C0E022C008C3E096F508ED
:1013F30008A3E096420808A3E096420808A3E096F3
:101403004208A2D265D033E5087001D3D00822CABE
:10141300C0E0E493A3C582CCC582C583CDC583F068
:10142300A3C582CCC582C583CDC583DAE5D0E0CA26
:1014330022A2E792D65002F40430F70663F0FF05C8
:10144300F0B3400384800384F40430D60563F0FFD3
:1014530005F022CAC0E0E0A3C582CCC582C583CD16
:10146300C583F0A3C582CCC582C583CDC583DAE627
:10147300D0E0CA22C0E0C0D0C082C08375AF009064
:101483000752E02401F0A3E03400F0D083D082D0EF
:10149300D0D0E0327009080808226016181818C660
:1014A300C333C608C633C608C633C608C633C6D553
:1014B300E0EA22C008C3E096F50808A3E0964208D4
:1014C30008A3E096420808A3E09645087001D3D02C
:1014D3000822C0E0E493A3D39C5010E493A3C39CDD
:1014E300400AD0E0D0E0D0E00213DFA3A3A3D0E012
:1014F30022C09FF59FE473D09F22D083D082C09FE8
:10150300E493C0E0740193C0E0740293F59F2274E6
:1015130004800A74038006740280027401C0E0F43C
:101523000412152DD0E0121847222518F58210AFAA
:1015330008F518400C15198008F51840021519D242
:10154300AF8519832200C0D0251810AF08F51850B5
:101553000C05198008F51850020519D2AFD0D02216
:10156300C0E0C0D0E8C0E0A8A8D2AFC2C7E8A2E7F5
:1015730092AFD0E0F8D0D0D0E032BB0102E722C076
:1015830082C08389828A83BB0003E08002E493D014
:1015930083D082226017080808C6A2E713C618C6BC
:1015A30013C618C613C618C613C6D5E0E9226016BB
:1015B300080808C6C313C618C613C618C613C61828
:1015C300C613C6D5E0EA222518F8E43519F9222511
:1015D30018FAE43519FB222518FCE43519FD22C35A
:1015E300E0C696F608A3E0C696F608A3E0C696F60C
:1015F30008A3E0C696F622C0E0E493A36C7009D07A
:10160300E0D0E0D0E00213DFA3A3D0E0222518103E
:10161300AF08F518400C15198008F5184002151984
:10162300D2AF22C3E09608A3E09608A3E09608A3EE
:10163300E096A2D265D03322E76670100809E76608
:10164300700A0809E76670040809E76622E0667015
:101653001008A3E066700A08A3E066700408A3E01C
:101663006622181818E60846087009E62608700569
:10167300E633F4220822C3E4939608740193960890
:1016830074029396087403939622191919E709476C
:10169300097009E727097005E733F4220922C3E03B
:1016A30096F008A3E096F008A3E096F008A3E0966E
:1016B300F022C3E697F60809E697F60809E697F6D7
:1016C3000809E697F622181818E4C396F608E49674
:1016D300F608E496F608E496F622E026F608A3E078
:1016E30036F608A3E036F608A3E036F622E627F638
:1016F3000809E637F60809E637F60809E637F62259
:10170300E493F608740193F608740293F6087403DD
:1017130093F622E657F60809E657F60809E657F660
:101723000809E657F622E056F608A3E056F608A3A2
:10173300E056F608A3E056F622E647F60809E64720
:10174300F60809E647F60809E647F6227004226020
:101753000D18C6C333C608C633C6D5E0F41822E64F
:1017630067F60809E667F60809E667F60809E66713
:10177300F622E026F008A3E036F008A3E036F008EE
:10178300A3E036F022E056F008A3E056F008A3E009
:1017930056F008A3E056F022E4C397F709E497F75D
:1017A30009E497F709E497F722600D08C6A2E71347
:1017B300C618C613C6D5E0F322C6F4C608C6F4C6D7
:1017C30008C6F4C608C6F4C622C3E09608A3E0968A
:1017D30008A3E09608A3E09622C3E7960809E796D4
:1017E3000809E7960809E7962275D00075813F75C9
:1017F300180175190400021037E6084608C313469A
:1018030008336002E633F422E7094709C3134709A3
:10181300336002E733F422600C08C6C313C618C64C
:1018230013C6D5E0F422E6F008A3E6F008A3E6F039
:1018330008A3E6F022E0F608A3E0F608A3E0F60822
:10184300A3E0F622CAC0E0E6F0A308DAFAD0E0FA91
:1018530022E0FCA3E0FDA3E0FEA3E0FF22EAF0A365
:10186300EBF0A3ECF0A3EDF022E0FAA3E0FBA3E09E
:10187300FCA3E0FD22E8F0A3E9F0A3EAF0A3EBF078
:1018830022ECF0A3EDF0A3EEF0A3EFF022E0F8A337
:10189300E0F9A3E0FAA3E0FB22E5C754F84401F51D
:1018A300C77901222518F582E43519F58322E72744
:1018B30019471947194722E626184618461846229B
:1018C300C2AF75D69F020000221214FDE3CB0512AE
:1018D30014FD11CE051214FD3ECF051214FDFC8834
:1018E300071214FD6689071214FD8789071214FD78
:1018F300C589071214FD0A8A071214FD308A0712DC
:1019030014FD398A071214FDE78A071214FD4B8B65
:10191300071214FDAAB2071214FD23B8071214FD0F
:101923003EB8071214FD6ACB041214FD49CC04120D
:1019330014FD49CD041214FD1DCE041214FDFFD075
:10194300041214FD63D1041214FDF6D2041214FD23
:10195300AED3041214FDBFD4041214FD4AD60412EC
:1019630014FD13F3051214FD21F3051214FD32F4D3
:10197300051214FDE2F4051214FD6EF6051214FDB2
:1019830018F9051214FD98BC061214FD24BD0612A5
:1019930014FD31BE061214FD4DBE061214FD97BF91
:1019A300061214FDA0AF071214FDB1AF071214FD08
:1019B30076B0071214FD85B0071214FD90B007121C
:1019C30014FDF4FF011214FDC7B9071214FD97B4F7
:1019D300071214FDA7B4071214FDBCB4071214FDBB
:1019E30022B5071214FDA8B0071214FD2BB107127C
:1019F30014FD91B1071214FD669A071214FDA19A02
:101A0300071214FDFD9A071214FD559B071214FDCE
:101A1300DC9B071214FD189C071214FDDAB9071298
:101A230014FDEAB9071214FD7AE9061214FDDDE983
:101A3300061214FD2CEA061214FD59EA061214FDCF
:101A4300AFEA061214FD65B8071214FD31910712AF
:101A530014FD7B91071214FD1192071214FD979246
:101A6300071214FDC892071214FDE092071214FD29
:101A73005493071214FD6A93071214FD7D93071202
:101A830014FD8793071214FD5DBD051214FDB7C243
:101A9300051214FDE9C2051214FD15C3051214FD48
:101AA300A2C3051214FD89C5051214FD84ED0412A9
:101AB30014FDF0ED041214FDA0EE041214FD6BEFFF
:101AC300041214FDC1F0041214FDAFF1041214FD4D
:101AD300B6F2041214FDB4F4041214FDE7F4041274
:101AE30014FD51F5041214FD78F5041214FDF5F6F6
:101AF300041214FD67F7041214FD9CF7041214FD7D
:101B0300B0F7041214FD26F8041214FDF9D90512D6
:101B130014FD70DC051214FDD1DD051214FDD8DFB0
:101B2300051214FD92B2061214FDBEB2061214FD84
:101B33002FB5061214FD6FB5061214FDAFB50612CC
:101B430014FDC3B5061214FDDCB5061214FDCDB6A3
:101B5300061214FD72B7061214FD86B7061214FDA1
:101B63002DA8071214FD51A8071214FD6AA8071225
:101B730014FD9CA8071214FDCCA8071214FDF9A8A4
:101B8300071214FD5BA9071214FD6AA9071214FDBD
:101B930074A9071214FD81A9071214FD9B8E071265
:101BA30014FDBB8E071214FDFA8E071214FD158F58
:101BB300071214FD348F071214FD9A8F071214FDB8
:101BC300A38F071214FD0090071214FD249007122F
:101BD30014FDE590071214FDF290071214FD039112
:101BE300071214FD0EB7071214FD26B7071214FDD2
:101BF30052B7071214FDE6CF061214FD40D10612A8
:101C030014FD4ED1061214FD61D1061214FD76D1D6
:101C1300061214FD8BD1061214FD9ED1061214FD7B
:101C230012D2061214FD77D2061214FD19D306122E
:101C330014FDDDD3061214FDEDD3061214FDFCD3FF
:101C4300061214FD68B3071214FD8CB3071214FDBA
:101C5300B4B3071214FDDCB3071214FD4398071243
:101C630014FD6A98071214FD8898071214FDFB9857
:101C7300071214FDC88B071214FDE18B071214FD24
:101C8300ED8B071214FD018C071214FD1F8C071234
:101C930014FD298C071214FD338C071214FD468C96
:101CA300071214FDCC8C071214FD418D071214FD8D
:101CB300708D071214FDBE8D071214FD0D8E0712D1
:101CC30014FD288E071214FD328E071214FD438E65
:101CD300071214FD868E071214FD73B6071214FD46
:101CE30098D0051214FDC2D0051214FDDFD00512E1
:101CF30014FDF2D0051214FD08D1051214FD66D1AE
:101D0300051214FD9ED1051214FD92D5051214FD82
:101D1300D7D6051214FD0AD7051214FD6DD7051287
:101D230014FDCDD8051214FDF5D8051214FD0AD9FA
:101D3300051214FD1AD9051214FD5ED9051214FDFE
:101D4300B9D9051214FDC9D9051214FDC3FE061233
:101D530014FDDDFE061214FD05FF061214FD1EFF21
:101D6300061214FD42FF061214FD60FF061214FD55
:101D730077FF061214FDA5FF061214FDC0FF06121D
:101D830014FDDFB7071214FDDBF4061214FDEBF4A8
:101D9300061214FDF0F5061214FD22F6061214FDC8
:101DA30048F6061214FD6BF6061214FD82F60612AF
:101DB30014FDBCF6061214FD21F7061214FD63F799
:101DC300061214FDA2F7061214FDD3F7061214FD32
:101DD3000AF8061214FDBE94061214FD9495061219
:101DE30014FDBF95061214FDDC95061214FDD7965B
:101DF300061214FD1997061214FD8797061214FD97
:101E0300D997061214FD4198061214FD2399061260
:101E130014FDFC99061214FD6FED061214FDC4EDBA
:101E2300061214FD16EE061214FD57EE061214FDEB
:101E33006AEE061214FDA2EE061214FD09EF061255
:101E430014FD9FEF061214FD96E2051214FDC1E284
:101E5300051214FD8CE3051214FDD3E3051214FDE2
:101E630064E4051214FDDDE7051214FD50E90512C3
:101E730014FD0080031214FD4080031214FD3F8201
:101E8300031214FD6582031214FD5185031214FD20
:101E93008D86031214FD208A031214FD8A8A03120D
:101EA30014FD248B031214FD778B031214FDDF8BB7
:101EB300031214FD2F8C031214FD618C031214FD05
:101EC300648C031214FD748C031214FD868C0312AC
:101ED30014FDCB8C031214FD888E031214FDF58EB2
:101EE300031214FD408F031214FDDC8F031214FD43
:101EF3006890031214FD5892031214FDFF9303120A
:101F030014FD9E94031214FDB596031214FD9397CA
:101F1300031214FD4799031214FDBCA6071214FD06
:101F2300D6A6071214FD18A7071214FD4BA7071214
:101F330014FD65A7071214FD7EA7071214FDC0A7A1
:101F4300071214FDF5A7071214FDFF9A061214FDDC
:101F5300369B061214FD8A9B061214FD5A9C061228
:101F630014FD909C061214FDBD9C061214FD0F9DDA
:101F7300061214FD2D9D061214FD519D061214FD2B
:101F8300779D061214FDF99D061214FD839E061219
:101F930014FDB49E061214FDFA9E061214FD189F3A
:101FA300061214FD469F061214FD6A9F061214FDC5
:101FB300A09F061214FDFF9F061214FD21A0061216
:101FC30014FD80A0061214FDB9A0061214FDC7A0CB
:101FD300061214FDCBA9051214FD05AA051214FD62
:101FE30044AB051214FD74AC051214FD70B3051255
:101FF30014FDF5A0061214FDDEA1061214FD1FA2A6
:10200300061214FDCEA2061214FD98AE071214FD9B
:1020130009AF071214FD6CAF071214FDB19F05122F
:1020230014FDD0A0051214FD48A2051214FD8FA3C0
:10203300051214FDE7A3051214FD27A4051214FDD0
:1020430035A4051214FD65A4051214FDF5A40512AB
:1020530014FD92A5051214FD9EA6051214FD3AA8BF
:10206300051214FDC0A9051214FD9DFB061214FDF3
:10207300F8FB061214FD31FC061214FD19FE0612BC
:1020830014FDF6CA061214FD3BCB061214FD71CBE8
:10209300061214FD28CC061214FDC9CD061214FD38
:1020A30036CE061214FD86CF061214FDB693041223
:1020B30014FDBA94041214FD2A95041214FD10960B
:1020C300041214FD5C96041214FDC499041214FD49
:1020D3000C9A041214FDCA9A041214FDB99B04123B
:1020E30014FD039C041214FD3A9C041214FDA39CDA
:1020F300041214FDE89C041214FD3A9D041214FD0D
:102103008C9D041214FDE59D041214FD489E0412D7
:1021130014FDB69E041214FD0B9F041214FD09A0B6
:10212300041214FD6EA0041214FD66A1041214FD22
:102133005CFE021214FD67FE021214FDA4FE0212DD
:1021430014FDC9FE021214FDE5FE021214FDFAFE8F
:10215300021214FD35D4061214FD44D5061214FDE3
:10216300ECD5061214FDE6D6061214FD07D70612A7
:1021730014FD21D7061214FDC3D7061214FDF4D79C
:10218300061214FD74D8061214FD3595051214FDBC
:102193009795051214FD2B96051214FDBA97051297
:1021A30014FDFB9A051214FD119B051214FDC69B29
:1021B300051214FDFC9D051214FD8BA9071214FDD5
:1021C3009DA9071214FDB1AA071214FDB4AA0712A0
:1021D30014FD32AC071214FD68AC071214FD82AC77
:1021E300071214FDC4AC071214FDD4AC071214FD7E
:1021F3006EAD071214FD1287061214FD1C8706121A
:1022030014FD5687061214FDBF87061214FDDC87E2
:10221300061214FD7E88061214FD8788061214FD2B
:10222300CC88061214FDF588061214FD02890612E5
:1022330014FD7389061214FDFE89061214FD4C8ADF
:10224300061214FD8A8A061214FDEF8A061214FD83
:10225300128B061214FD898B061214FDE08B0612F5
:1022630014FD1B8C061214FD508C061214FD628C97
:10227300061214FD748C061214FD938C061214FDC1
:102283009C8C061214FD578D061214FDA38D0612A5
:1022930014FDE18D061214FD6CC1061214FDACC2CF
:1022A300061214FDCFC2061214FDE0C2061214FD7D
:1022B300DFC4061214FDFFC4061214FD96B90712FB
:1022C30014FD2483071214FD6883071214FDB083E1
:1022D300071214FD9685071214FD2586071214FDB7
:1022E3002CB5071214FD0080041214FD248104127E
:1022F30014FD5E81041214FD0883041214FD32835D
:10230300041214FDA785041214FDE785041214FDBD
:102313007D87041214FD1A88041214FD6C880412BC
:1023230014FD0F89041214FD4789041214FD8989D1
:10233300041214FDF88A041214FD468C041214FDD1
:10234300778E041214FDA58E041214FDCC8E041294
:1023530014FDD58E041214FD258F041214FDB78FBE
:10236300041214FDE692041214FD6993041214FD81
:10237300B1B9071214FD76E5061214FD8CE50612B9
:1023830014FD30E6061214FD6FE6061214FD8CE60A
:10239300061214FDBDE6061214FD0AE7061214FD2B
:1023A3003DE7061214FD78E7061214FD6DE90612E7
:1023B30014FDCFAC061214FD75AE061214FDB6AFB4
:1023C300061214FDCEAF061214FD9CD8061214FD9E
:1023D300D3D9061214FD32DB061214FDD8F603120C
:1023E30014FD04F7031214FD3EF7031214FD04FA5F
:1023F300031214FD5CFA031214FDA6FA031214FD72
:10240300CAFA031214FD47FC031214FDA4FC0312C1
:1024130014FD01FF031214FD13EB051214FD3CEC34
:10242300051214FD3BED051214FD7FEE051214FD9C
:102433009EEF051214FD70F0051214FD669C071241
:1024430014FD349D071214FDABEC021214FD70ED64
:10245300021214FD7BED021214FD2CEE021214FD88
:102463008BEE021214FD87F0021214FDF7F0021234
:1024730014FDFCF2021214FD35F3021214FDDBF518
:10248300021214FD03F6021214FD85F6021214FD66
:1024930000F7021214FD63F8021214FDC0F80212D1
:1024A30014FD3EF9021214FD3AFE021214FD35C664
:1024B300061214FD5CC6061214FD6AC8061214FD4A
:1024C30091C8061214FDE6C8061214FDB4C906121B
:1024D30014FD2CCA061214FD9A93071214FDB2932D
:1024E300071214FDB194071214FDB894071214FDDA
:1024F300E194071214FDAAB1071214FD09B20712E1
:1025030014FD47B2071214FD88B2071214FD3EFAF8
:10251300051214FD64FA051214FDA4FB051214FD43
:1025230099FC051214FDC0FC051214FD59FD05129A
:1025330014FDADFD051214FDC8FE051214FDE4A63D
:10254300061214FD86A7061214FDA6A8061214FD92
:10255300F8A9061214FDB6AB061214FDB9E2041273
:1025630014FD0DE3041214FD37E4041214FD63E5B6
:10257300041214FD51E6041214FDEDE8041214FDD7
:10258300A4EA041214FDEFEA041214FDFDEC041294
:1025930014FD5BFC011214FDAEFC011214FD31FDB0
:1025A300011214FDBDFF011214FDE1AA071214FD6F
:1025B3005BAB071214FD76AB071214FDF8A10712EB
:1025C30014FDFBA2071214FD63A3071214FD41A01F
:1025D300071214FD8CA0071214FDDCA0071214FDD2
:1025E300F7A0071214FD35A5071214FD90A50712D5
:1025F30014FD8CA6071214FDF295071214FD5B96C9
:10260300071214FDD196071214FDEC96071214FD60
:1026130040F8041214FDB9F8041214FDD1F90412A0
:1026230014FD24FB041214FDC9FC041214FD12FD55
:10263300041214FD85FD041214FDC8FE041214FDDA
:1026430034F1061214FDBCF2061214FD05F3061252
:1026530014FDDEF3061214FD58F4061214FDC8A28D
:10266300041214FD39A3041214FDA0A3041214FDD3
:1026730024A4041214FD1FA5041214FD53A504126F
:1026830014FD74A7041214FD63A8041214FDCBA84F
:10269300041214FD06A9041214FD40AA041214FD29
:1026A300E8AA041214FD31AB041214FD9BAB04120F
:1026B30014FDECAB041214FDA6AD041214FDE0AD41
:1026C300041214FD9EB5071214FDDDB5071214FDA7
:1026D3000080061214FD5A80061214FD168106129C
:1026E30014FD3F82061214FD6F82061214FD9183BE
:1026F300061214FD0884061214FD8684061214FDC6
:102703006B85061214FD17B9071214FD2AB90712B7
:1027130014FD78AD071214FD87AD071214FDE7AD64
:10272300071214FD3BB9071214FD41B9071214FD3A
:1027330047B9071214FD1EBA031214FDC6D70412BB
:1027430014FD9FD8041214FDF6D9041214FD65DAA2
:10275300041214FD13DB041214FDECDB041214FD4C
:10276300DBDC041214FD31DE041214FD84E00412D8
:1027730014FD1E42001214FD2A42001214FD8C4265
:10278300001214FD9642001214FD2943001214FD99
:102793006543001214FD2144001214FD3444001259
:1027A30014FD8444001214FDEE44001214FD53453D
:1027B300001214FD8945001214FD0B46001214FD8E
:1027C300BA47001214FD8E49001214FDB9C8051250
:1027D30014FDC64B001214FD1C4E001214FD854F50
:1027E300001214FD2250001214FDCA54001214FDED
:1027F300B855001214FD5656001214FD82560012ED
:1028030014FD1E57001214FD3357001214FD5757C1
:10281300001214FDBD57001214FDDA57001214FD07
:102823000458001214FD8159001214FDA25900121C
:1028330014FD285A001214FDCE5A001214FD155B24
:10284300001214FD885B001214FD145C001214FDC9
:10285300785C001214FDD85C001214FD6E5D00124A
:1028630014FDE95D001214FD1C5E001214FD7E5E72
:10287300001214FDE05F001214FD5060001214FDFD
:10288300FF60001214FD5562001214FDED62001288
:1028930014FD5963001214FD9C65001214FD286792
:1028A300001214FD5367001214FD3969001214FD60
:1028B300CF6A001214FDD86B001214FD01B104128B
:1028C30014FDB8B1041214FDBFB2041214FD3DB3DC
:1028D300041214FD7FB4041214FDA0B4041214FDF9
:1028E30058B5041214FD03B6041214FDE3B904121F
:1028F30014FDFFBB041214FD66BD041214FD9BB747
:10290300071214FD829A031214FDDA9A031214FDBE
:10291300609B031214FD729C031214FDBF9C0312EF
:1029230014FDA59D031214FDBC9D031214FD0E9E00
:10293300031214FD469E031214FD599E031214FD47
:10294300AF9E031214FD089F031214FD209F031270
:1029530014FD90A1031214FD27A2031214FD51A22A
:10296300031214FD89A2031214FDAFA4031214FD74
:10297300F5A4031214FD3FA5031214FD13A60312BD
:1029830014FD54A6031214FD77A6031214FDBEA66C
:10299300031214FDE0A6031214FD61A7031214FD34
:1029A300EEA7031214FD48A8031214FD90A8031206
:1029B30014FD05AA031214FD81AC031214FD0EAD20
:1029C300031214FD3AAE031214FD75AE031214FD87
:1029D30042AF031214FD82AF031214FD85AF03123D
:1029E30014FD8FAF031214FDA2AF031214FD23B025
:1029F300031214FD59B0031214FD85B0031214FD24
:102A0300ACB0031214FDD0B0031214FD67B103126E
:102A130014FD80B1031214FDB3B1031214FDD3B13D
:102A2300031214FD10B2031214FD47B2031214FD76
:102A330046B3031214FD79B4031214FD6EFF05129D
:102A430014FD7AFF051214FDC0FF051214FDFC7F6F
:102A5300001214FD25CD031214FD48CD031214FDFD
:102A63001FCE031214FD68CE031214FDC0CE031251
:102A730014FD1ACF031214FD66CF031214FDDCCF2D
:102A8300031214FD6AD0031214FDE2D0031214FDE5
:102A930025D1031214FD02D5031214FD49D70312E5
:102AA30014FD7CD7031214FDFAD7031214FD7FD84B
:102AB300031214FD57D9031214FD81DA031214FD16
:102AC3006CDB031214FD49DC031214FD85DD0312D4
:102AD30014FD29DF031214FDBBDF031214FDC2E151
:102AE300031214FD1370001214FDB370001214FDD1
:102AF3001D71001214FDC471001214FD287200121E
:102B030014FD5B73001214FD8174001214FDFA743A
:102B1300001214FDD276001214FD7277001214FD18
:102B23001578001214FD7478001214FD2F79001229
:102B330014FDF57A001214FD987C001214FD447DF7
:102B4300001214FD597E001214FD52E2031214FD0B
:102B5300CAE2031214FD12E3031214FD56E3031237
:102B630014FD9FE3031214FDE9E3031214FD1EE4B5
:102B7300031214FD9CE4031214FDF6E4031214FD86
:102B83004FE6031214FDD8E6031214FD34E70312D3
:102B930014FD4EE7031214FD75E7031214FDCDE790
:102BA300031214FD37E9031214FD56E9031214FD51
:102BB3007EEA031214FDFBEA031214FD68EB031211
:102BC30014FDCAEB031214FD7AEC031214FD4CEE50
:102BD300031214FD37EF031214FD31F0031214FD39
:102BE30037F1031214FD53F2031214FD61F20312C1
:102BF30014FD3AF3031214FDDAF3031214FD1EF469
:102C0300031214FD33F4031214FD44F5031214FDEF
:102C1300E7F5031214FD3FF6031214FD2E86071287
:102C230014FD6787071214FD2488071214FD888892
:102C3300071214FD0080071214FD1B80071214FDF8
:102C43005F80071214FD8580071214FDAB80071205
:102C530014FDC380071214FD2681071214FD3B8166
:102C6300071214FD5D82071214FD6682071214FD1C
:102C73006F82071214FD7882071214FD82820712F5
:102C830014FDF4DC061214FDD4E0061214FDD9E0A1
:102C9300061214FDDBE0061214FDCE9E071214FD8E
:102CA3005AB9071214FD0AB6071214FD55B70712D5
:102CB30014FD9DB8071214FD42E1061214FD01B480
:102CC300071214FD2BB4071214FDA9A3071214FD58
:102CD300C9B8071214FD78B9071214FDA27F0012B8
:102CE30014FDBEB6071214FD62F8061214FD6CD86B
:102CF300011214FDC3D8011214FD2FD9011214FDC2
:102D0300BBD9011214FD71DA011214FDB9DA0112F3
:102D130014FDD2DA011214FDF5DA011214FD17DBEA
:102D2300011214FD55DB011214FDA4DB011214FD85
:102D3300CFDB011214FD2DDC011214FDD4DC0112D2
:102D430014FD7CDD011214FDF8DD011214FDC5DE56
:102D5300011214FD11DF011214FD99DF011214FD9C
:102D6300D2DF011214FD63E0011214FD74E00112BD
:102D730014FDE6E0011214FD7FE1011214FDE9E107
:102D8300011214FDD9E2011214FDFEE2011214FD39
:102D9300FBE3011214FD08E4011214FD11E4011216
:102DA30014FDFAE5011214FD16E7011214FDA7E75D
:102DB300011214FD18E8011214FDF2E9011214FDC9
:102DC300BDED011214FDD1ED011214FDE1ED01126F
:102DD30014FDEBED011214FDF4ED011214FDFDEDF4
:102DE300011214FD07EE011214FD36EE011214FD5B
:102DF30064EE011214FD6FEE011214FD93EE011245
:102E030014FDB7EE011214FD29EF011214FD72EF48
:102E1300011214FD8EEF011214FDFFEF011214FDD8
:102E23004BF0011214FD94F0011214FDD2F00112C3
:102E330014FD53F1011214FD1EF3011214FDBDF331
:102E4300011214FD85F4011214FD11F7011214FD92
:102E530066F7011214FD8EF7011214FDC1F8011279
:102E630014FD06F9011214FD5BF9011214FD09FAB0
:102E7300011214FDAEFA011214FDE3FA011214FD5E
:102E830083FB011214FDFFFB011214FD36870112AF
:102E930014FD6887011214FD9C87011214FD5089EB
:102EA300011214FD248A011214FD838A011214FDF8
:102EB300998B011214FDE58B011214FD828E011210
:102EC30014FDF790011214FD4392011214FDDB92DD
:102ED300011214FDE792011214FD3093011214FD47
:102EE3006393011214FDEF93011214FD0195011276
:102EF30014FD4296011214FD4197011214FD6B97C4
:102F0300011214FDD697011214FD2F98011214FD1E
:102F1300A298011214FDD89A011214FD5E9C0112AD
:102F230014FD499D011214FD979E011214FDCFA0BB
:102F3300011214FDC6A3011214FDD5A3011214FD41
:102F430069A4011214FD14A5011214FD57A5011261
:102F530014FDA0A5011214FDF0A5011214FD5DA638
:102F6300011214FDC9A6011214FDE5A6011214FDF8
:102F730014A7011214FD53A7011214FD3BA801125B
:102F830014FDEAA8011214FD61AB011214FD93AC08
:102F9300011214FD62AD011214FDE4AD011214FD22
:102FA30026B2011214FD3DB2011214FD6CB20112DE
:102FB30014FDC7B2011214FDFAB2011214FD55B388
:102FC300011214FD71B3011214FDD2B3011214FDE9
:102FD30022B4011214FDD1B4011214FD94B50112EF
:102FE30014FD5CB6011214FDA8B8011214FD34BA25
:102FF300011214FD8BBB011214FDA7BC011214FDB9
:10300300AABC011214FDD9BC011214FDC8BE0112E1
:1030130014FD91BF011214FDD2BF011214FD28C18A
:10302300011214FD9EC1011214FDD1C1011214FD40
:1030330035C2011214FD56C4011214FDB5C40112A8
:1030430014FD8BC5011214FD9FC5011214FDB3C5F8
:10305300011214FDE0C5011214FD10C6011214FD86
:10306300B4C7011214FDB1C8011214FDFFC8011247
:1030730014FD26C9011214FD01CA011214FDA7CAC9
:10308300011214FD2DCC011214FD74CC011214FD98
:10309300E1CC011214FD36CE011214FDDFCE011274
:1030A30014FD13CF011214FD2BCF011214FDCECF4B
:1030B300011214FD4AD2011214FDF2D3011214FDC0
:1030C30016D4011214FD34D4011214FD00D50112DB
:1030D30014FD4ED8011214FD0080021214FD32803B
:1030E300021214FDB284021214FD0185021214FDB2
:1030F3004785021214FDEA85021214FD4F8602125F
:1031030014FD9386021214FDFA87021214FD268918
:10311300021214FD238D021214FDA28D021214FD5E
:10312300C88E021214FD2B8F021214FD7790021227
:1031330014FD0F93021214FD9C93021214FDA69327
:10314300021214FDCE93021214FD9694021214FD82
:103153002B95021214FD5495021214FD819502124F
:1031630014FDD697021214FDA398021214FDE298DF
:10317300021214FD6499021214FD0F9A021214FD37
:10318300419A021214FD8C9A021214FDC59A02127E
:1031930014FD149B021214FD709B021214FDF29B8A
:1031A300021214FD579C021214FDCF9C021214FD4F
:1031B300789E021214FD709F021214FDB1A0021238
:1031C30014FD05A4021214FD61A6021214FD1AA730
:1031D300021214FD62A7021214FD43A9021214FD88
:1031E3007EA9021214FD87A9021214FD90A90212EE
:1031F30014FD9BA9021214FDBAA9021214FD6DAAB3
:10320300021214FDCAAA021214FDD4AA021214FD5A
:10321300DEAA021214FD2AAB021214FD72AB0212D3
:1032230014FD76AC021214FD0FAD021214FDD6ADDF
:10323300021214FD00AF021214FD2BB0021214FD92
:1032430021B1021214FD39B1021214FD6DB1021243
:1032530014FD8BB1021214FDD3B1021214FD0CB292
:10326300021214FDC3B2021214FD84B3021214FD40
:10327300F7B3021214FD73B4021214FD0FB5021258
:1032830014FD35B6021214FDF1B6021214FD91B706
:10329300021214FD7EB8021214FDD6B8021214FDF8
:1032A3009CB9021214FDBFB9021214FDD4BA021262
:1032B30014FD1FBB021214FD7BBB021214FDE3BB02
:1032C300021214FD07BC021214FD2FBC021214FDDE
:1032D30074BC021214FD98BC021214FD1CBD021230
:1032E30014FD05BE021214FD4ABE021214FD73BE84
:1032F300021214FD11BF021214FD7CBF021214FD51
:103303008ABF021214FDB6BF021214FD97C0021247
:1033130014FDB58A051214FDED8A051214FD0E8BFA
:10332300051214FD508B051214FDB48B051214FD08
:10333300BE8B051214FDCE8B051214FD058C0512F0
:1033430014FDAE8F051214FD7691051214FD5A93E8
:10335300051214FDFC93051214FD8694051214FD49
:1033630087C2021214FDEBC2021214FD49C30212FA
:1033730014FD94C3021214FDAFC3021214FDD6C38D
:10338300021214FDF3C3021214FDFFC3021214FD53
:1033930090C5021214FDA9C5021214FD25C602121E
:1033A30014FD38C6021214FD48C6021214FDECC601
:1033B300021214FD58C8021214FD6BC9021214FD47
:1033C3000BCA021214FD15CA021214FD94CA02128A
:1033D30014FDA5CA021214FDE4CA021214FD12CB95
:1033E300021214FDDFCB021214FD36CC021214FDBF
:1033F3006FCC021214FDC5CC021214FDE3CC0212F1
:1034030014FD31CD021214FDFCCD021214FD4ACE7F
:10341300021214FD97CE021214FD1ACF021214FDEC
:1034230044CF021214FD7ACF021214FD89CF021287
:1034330014FDE8CF021214FD60D0021214FDA1D0D6
:10344300021214FDF1D0021214FD1CD1021214FD5C
:1034530036D1021214FD50D1021214FD25D20212EC
:1034630014FD2FD2021214FD6AD2021214FD7AD275
:10347300021214FD83D2021214FDD4D2021214FDDF
:10348300E8D2021214FD0AD4021214FD1FD4021250
:1034930014FDB2D4021214FD26D5021214FDCBD5AD
:1034A300021214FDD6D5021214FD36D7021214FDF2
:1034B30052D7021214FD9ED7021214FD0CD8021229
:1034C30014FD3ED8021214FD58D8021214FD9AD8E6
:1034D300021214FDEDDA021214FD85DB021214FD53
:1034E300FCDB021214FD59DE021214FD71DE02121E
:1034F30014FD74DE021214FD80DE021214FD94DE4C
:10350300021214FD9CDE021214FDD3DE021214FD1E
:10351300C7DF021214FD51E0021214FDD3E00212C0
:1035230014FD53E1021214FD2AE2021214FD4CE2CF
:10353300021214FDE5E2021214FD42E3021214FD2D
:1035430045E3021214FDB4E3021214FD00E5021276
:1035530014FD13E6021214FD9EE6021214FDB1E7F8
:10356300021214FD76E8021214FDA7E8021214FDFC
:10357300CDE8021214FDD6E8021214FD05E9021289
:1035830014FDB5E9021214FD65EA021214FDD8EA2E
:10359300021214FD7BEB021214FDEEEB021214FD7A
:1035A3002DEC021214FD76EC021214FD89B90312FC
:1035B30014FD3CB9031214FDBAB8031214FD3FB84D
:1035C300031214FDBFB7031214FD75B7031214FDE4
:1035D30019B7031214FDC8B6031214FD8BB60312F8
:1035E30014FD45B6031214FD0AB6031214FD00B60A
:1035F300031214FD5DC8051214FDCFC7051214FD97
:10360300E3B5031214FD0BB5031214FD73C70512C2
:1036130014FD21C7051214FD8FB4031214FDF2919A
:10362300061214FDCA8F061214FD1B8F061214FD19
:103633000D8E061214FD91CA041214FDB7C90412AB
:1036430014FDEDC8041214FD5CC7041214FD25C754
:10365300041214FDF7C6041214FDABC6041214FDC4
:1036630014C6041214FD84C5041214FD5EC50412AD
:1036730014FD13C5041214FDDDC4041214FD60C44B
:10368300041214FDFBC3041214FDAAC3041214FD97
:10369300D2C2041214FD42C2041214FDF6C1041274
:1036A30014FD71C1041214FD2CC1041214FD10C1C8
:1036B300041214FDF2B8071214FDB8BF041214FD6E
:1036C300BACB031214FD8FC8031214FD17C60312DD
:1036D30014FD05C4031214FDC9C3031214FDC3C2B0
:1036E300031214FD6BC0031214FDF7BF031214FD84
:1036F3008ABF041214FD57BF041214FDDBBE04126B
:1037030014FDECBA061214FDBCBE031214FD47B936
:10371300061214FD55B8061214FD9AB7061214FDCD
:103723006A8A051214FD7BBE031214FD118A051269
:1037330014FD744A001214FDDC89051214FDA789D7
:10374300051214FD7389051214FD0689051214FD73
:10375300EE88051214FDC988051214FD9A85051219
:1037630014FD6D83051214FD6D81051214FDF380A4
:10377300051214FDA480051214FD5E80051214FDCC
:103783000080051214FD4FBB051214FDD4BA0512B7
:1037930014FD6CB9051214FD19BB031214FDF3B724
:1037A300051214FD7CB5051214FD01B4051214FDB8
:1037B300A5B3051214FD96B3051214FD5BD70400DF
:1037C300000080FBE473000000002001308700004C
:1037D3000100200130870000020020013187000032
:1037E300030020012F870000040042016D800000C8
:1037F300050042017E80000006004201A080000017
:1038030007002001AB800000100042018F80000000
:1038130011002001BA0A000000404201A08000000C
:1038230000804201D2810600000010110000070051
:1038330000003033000007001000303300000700A1
:10384300014020330000070002402033000008003D
:103853000000203300000A000000E23300000A00E9
:103863000100183300000C005500393300000C0030
:103873001C00423300001100040042330000110019
:103883004300233300001100510010110000110008
:1038930055001011000011006700181100001100FD
:1038A3006F001811000012005500210100001400E0
:1038B3000E00422200000004000021040000020464
:1038C300000029040000030400002904000005048B
:1038D3000000290400000C040000390400000D045A
:1038E3000000390400002A04000039040000020724
:1038F3000000290400000207000218052D870207B3
:103903000003300500000207010322052186020798
:103913000203220525860207030318012B870207EA
:10392300060318010000040B00001B050986040BA5
:10393300000129050000040B030129050000040B05
:10394300060129040000040B000221051B87040B58
:10395300010221051F87040B020221051B87040BAB
:10396300030221052187040B040221051B87040B95
:10397300050221051187040B000321040000040B39
:10398300000421051B87040B010421051D87040B7B
:10399300050521050000040B080521050000040BA3
:1039A3000B0529040000040B100528040000040B78
:1039B300000621051B87040B010621051F87040B45
:1039C300020621051B87040B030621052187040B2F
:1039D300040621051B87040B050621052387000028
:1039E3000000000001208637000102208637000115
:1039F3000320863701000420863700010500F21FEB
:103A0300000006000000000007005C190000080029
:103A1300422400000000000000000A000000000033
:103A23000B20362410000C021E3600000D0000008F
:103A330000000E20863710010F208637100000008B
:103A43000000000000000000000000000000000073
:103A53001300562500000000000000001500121E90
:103A630041001600121E50001701562500001801D0
:103A73003A2600001900A82400001A00A824000018
:103A83001B00382510001C011E1B00011D011E1BFD
:103A930000011E00D22410031F010237080020007A
:103AA3001E27000021009E19000022006C1E10003A
:103AB30023001E360000000000000000000000008C
:103AC30000002601D623100027116C2710002809B7
:103AD300C42300002900CA2610002A60A61A000386
:103AE3002B22362410002C00002710002D02002763
:103AF30010002E01801900042F00D8180008300090
:103B0300F02410003101000000003200000000002A
:103B13003300000000003400000000003500000006
:103B230000003600000000003700000000003800ED
:103B33000000000039011E1B00013A00BE260000F0
:103B43003B00122413003C00000000003D00000075
:103B530000008F000100AB16870001000A19350031
:103B63000400CF1825000200D31826000200D51840
:103B730027000200D71828000100E11829000100DE
:103B8300E21884000400E31886000100E7182A0005
:103B93000100E8182B000100E9182C000100ED18C2
:103BA3002D0008008E162E000100EE182F000100D4
:103BB300EF1830000100F01831000100F118320055
:103BC3000100961633000100971634000100F21825
:103BD30036000100981638000100F318390001007F
:103BE300EC1883000200081963000100A8166400A2
:103BF3000100EA1865000100EB186D000100A91629
:103C030071000800861666000100071943000100D1
:103C1300F81844000200F91845000100FB1846009B
:103C23000200FC1847000800A01648000100FE1817
:103C33004B000100FF18040001000B19A100010053
:103C43000E19370001000D19880001000C193C0002
:103C5300010099163D000100F41849000200001903
:103C630067000100AA164D00020002194E00010070
:103C730004194F00020005193E0001009F16510070
:103C83000100F51852000100F61853000100F7185F
:103C9300540001009A1600000000000000013636AF
:103CA30001010001020100010301000104010606F4
:103CB30005020000070100340801000F0904010197
:103CC3000D0100FF0E08000017020000190100FF9C
:103CD3001A0100011B0100FE1C0100081D02000067
:103CE3001F01000120010001210200002301000F38
:103CF300240200002601000127010008280200FF1A
:103D03002A0100072B0102402C0100002D010001B4
:103D13002E0100012F0100FF30010B1D31080000AF
:103D23003A0100083B01000F3C0100013D0100FF87
:103D33003E04000042040000460400004A04000060
:103D43004E04000052040000560400005A04000010
:103D53000020202020202020202028282828282058
:103D63002020202020202020202020202020202050
:103D730020881010101010101010101010101010B8
:103D830010040404040404040404041010101010A8
:103D93001010414141414141010101010101010172
:103DA30001010101010101010101010110101010C4
:103DB3001010424242424242020202020202020244
:103DC3000202020202020202020202021010101098
:103DD300206A007800FE2504260A266C00F000AA5B
:103DE30025B025B6256B00F000C225C8250A266636
:103DF30000F000C225C8250A2667001400D425DA7E
:103E030025E02569001400E625F225EC25EE22E8DD
:103E1300036E258C2586256400010000000000A4A4
:103E2300256300010000000000A4256200010000DA
:103E3300000000A4256100010000000000A425701B
:103E430000010000000000A4250103710301030128
:103E5300030103010301032203020301031003000F
:103E630003000300030003000300030003420300F5
:103E7300032403060300030003040312032503239F
:103E83000325032303040304030003000300034483
:103E930003000300032303000365032100350381AB
:103EA30003000305030003000300030003250323AA
:103EB3000303027102300160021102700201020267
:103EC3000202028002100261023A0041006302739F
:103ED300027202620243020002130238000002006F
:103EE30002040212020002000200020002040204A1
:103EF30002370037003C024402000239000002008E
:103F03000265020002350281020002050282028379
:103F130002000203007100300160001100700031E3
:103F230002200350048000100061000000140063AD
:103F330000730072006200430000001300060000DB
:103F43000000000400120000000000000000000454
:103F5300000400370037003C02440000000000006A
:103F6300000000650000003500810000000500002E
:103F73000083000000010171010101010111010130
:103F8300013101010101018001100161013B0014B4
:103F93000063017301720162014301000113010611
:103FA300013D01350004011201000100010001007F
:103FB3000104010401330133013C014401320136A0
:103FC30000000100016501000135008101000105C8
:103FD3000182018301000136000100060000000F89
:103FE3000000000000000000000000000003FFFFCD
:103FF30000000403FFFF0000FFFF0FF4010005C4EE
:10400300040320000100000B00000000000000007A
:1040130003010F000000000000000000000000008A
:10402300000000000000000000000000000000008D
:1040330000000000006828A4286E2890277428AA8E
:10404300287428B6287A2890277428AA28802890CC
:1040530027862890278C28902792289027982890A5
:10406300279E2890270000000000000000000000A9
:10407300000000000000000000000000000000003D
:10408300000000000000000000000000000000002D
:10409300000000FC2A1300CC2A0100FC2A02007253
:1040A3002A0300782A04007E2A0500842A06009049
:1040B3002A3000A82A3300B42A3400BA2A1100C0D7
:1040C3002A1400C62A1500A22AFFFF00000A0000D6
:1040D30000020000000400000008000000100000BF
:1040E30000200000004000000080000000000100EC
:1040F300000002000000040000000800000010009F
:1041030000002000000040000007ECFDFDFDECDC9A
:10411300DCCCBCACAC9C9C8C7C7C6C6C5C5C5C4CEC
:104123004C3C3C2C2C1C1C51001000005500100072
:104133000067001800006F00180000040042000030
:10414300430023000003EAF5E5D5D5C5B5A595954C
:10415300858575756565555545453535252515158C
:10416300050A4A31021A31052C310720310C02317C
:104173000D0E31FF000000160F00000B150B02009F
:1041830002220F3300000E5A6967426565416C6C69
:1041930069616E6365303901030507090B0D0F0073
:1041A300020406080A0C0D015000D0074C265226C3
:1041B3005826303017181921301B1D1F3000034AB1
:1041C30049434E181A2505020C0E020B040B0A076D
:1041D30008000F00011916181616182303003030B3
:1041E30016181920231A1C1E3000393D3F373C3C5A
:1041F300362C442D02040201010101090200BE0410
:104203000AE80300000E00E8031EFF1E040903046E
:104213000A040C0408280C05081003C082C083E9B3
:10422300901572F002442D74F4120E578A088B090C
:10423300EB5480604D800EEEFAEFFB1227E4EEFAAA
:10424300EFFB122220901572E0F91222328A0A8BB8
:104253000BAE0AAF0BEE4F60208E828F83E0641AA1
:1042630060D5EEFAEFFB12278AE9F974FF6960CE95
:10427300EEFAEFFB12222680CCAA08E5096480FB44
:1042830080047A007B000245FF74F7120E577AFF11
:1042930002564E74F6120E57E9FEEAFF7A047B00CB
:1042A300124955A808A909EA496034EF8A828B8329
:1042B300A3A3A3F0EE8A828B83A312431AE4F0A391
:1042C300F090157F12497A700990157FE8F0A3E901
:1042D300803FE0FB8A828B83A3A3A3E06F70047902
:1042E300008031EAFCEBFD8A828B8312497A70E409
:1042F30074FF6F700C8C828D83124321E4F0A380D2
:104303001090157F125DDF90157F124321EAF0A311
:10431300EBF07901025746A3F08A828B832212695C
:10432300338882898322C082C083EA126BC63BF53D
:1043330083E0FA90157F800488828983125C0E6083
:104343001C88828983A3A3A3E0FBEA6B600574FF47
:104353006B70E588828983A3A3E0F9800279FF0269
:10436300442D74F4120E57EAFEEBFF8A82F5831292
:104373005DDF12278AE9F50874FF69700302441CA4
:104383007A197B0012221AEA4B700302441C8A82B8
:104393008B837434125977A3A3EA2402FCE43BFD14
:1043A30074061214568E828F8312500B12690E8A72
:1043B300828B83A3A3A3A3A3A3A3A3ECF0A3ED12D4
:1043C300501BA3A3A3A3A3EA240AFCE43BFD740CA0
:1043D3001214568E828F83125E79C8126BC638F51B
:1043E30083E0C0E0EA2416F582E43BF583D0E0F0F5
:1043F300EE240CF8E43FF98882F583126912EA246B
:1044030017F582E43BF583ECF0A3EDF08882898312
:10441300E4F0A3F0A90812222679010245FFC08225
:10442300C08390157D125DDF8000D083D08202149B
:10443300FA74F4120E578A088B09ECFEEDFF7A0822
:104443001244D2700479108035124544A312452ECC
:10445300740C1218A7126F19A3A3A3A312700B90C5
:10446300157712497A901577601112495D8003EA36
:10447300FCEB12497570F88C828D831244E202457D
:10448300FF74F4120E5789088A09ECFEEDFF7A0ACD
:104493001244D2700479108033124539E4F0A31228
:1044A30044E8E5091244E8A3EEF0A3EFF090157990
:1044B30012497A901579601112495D8003EAFCEB89
:1044C30012497570F88C828D831244E20245FF7B9A
:1044D300001222CE8A0A8B0BA80AA90BEA492212E0
:1044E300693379002212563FA3A32274F4120E57A4
:1044F30089088A09ECFEEDFF7A061244D27004792A
:1045030010802512453912452E90157B12497A9059
:10451300157B601112495D8003EAFCEB124975704B
:10452300F88C828D831244E20245FFE5091256445A
:10453300EEF0A3EFF0221245448A828B83A3A3A358
:10454300228A828B83E4F012431AA3A3E508F022A4
:1045530074F2120E57EAFEEBFF8C088D091227F650
:104563008B0DA90DEA4960198A828B83A3A3A3EE5D
:10457300F0A3EF12563BE508F0A3E509F0790080BC
:10458300027901025DD574F4120E5774F7121610F6
:10459300E9FE8518828519837401F0EC7006EDC37A
:1045A3009406404D74036A4B604774011215CA8820
:1045B3000A890B780A12151A7C127D007A007B0097
:1045C300EE124604121548E9601CE4F50AF50B786F
:1045D3000A12151A74031215DA74021215D212286C
:1045E3003E7402121548851882851983E0640170B0
:1045F3000479018002790074091215487F040212BC
:104603000AF91227FC74022274E8120E5774FA1284
:10461300161089128A168B178C088D091237508A47
:10462300148B15EA4B7005790202479AAA08AB0965
:10463300A912122814E9F50FA2E6401C90157D1269
:104643005C0E6014E82419F582E439F583E0640113
:104653007006E50FD2E6F50F7C067D007900AA18F7
:10466300AB19122208741F1218A71250136009E025
:1046730054FCF0E044018003E054FC126FF1125C3F
:104683000E602B741E1218A7E0FE88828983A31282
:104693001311EEFD74021218A7E05403FCAA08AB31
:1046A30009A9121227B47402121548E97005790199
:1046B30002479A74221218A7125C0E6012851882A0
:1046C300851983E04404F074021218A712692F7449
:1046D300201218A71250136005E044088003E05429
:1046E300F7F074211218A71250136005E0441080EC
:1046F30003E054EFF074241218A7E0C0E07404122E
:1047030018A7D0E0F074051218A7EEF07803851807
:1047130082851983E054046002780574251218A772
:10472300124DA7E82510FEE43511FF124A4B6063D2
:10473300AC0AAD0BAA18AB191227F074271218A7ED
:10474300125D65121516AC10AD11125FCD1215482E
:10475300750C1E780C12151E750C75750D15780CDD
:1047630012151A780A12151A8E0C8F0D780C121561
:104773001A780812151AA90FAC14AD15AA16AB179F
:1047830012375C7409121548E9FEAA0AAB0B122210
:10479300D480027E10EEF974068004EEF9740212DE
:1047A30015487F1002120AEEFCEFFDAA10AB11A907
:1047B3000A1227BA740B2274EA120E5774FE1216E9
:1047C30010890B8A148B158C0E8D0F7E007F00755C
:1047D3000A0074181218A7124DA7801112496B1200
:1047E300284A8B09EE2AFEEF3509FF050A126916DE
:1047F300502EE50A75F006124D5E2403FEE43FFFDA
:10480300A3A3E070E60EEE70010F88828983A3A351
:10481300A3A312497A8882898360C1125B7F80C215
:10482300EEFAEFFB1249558A0C8B0DEA4B7003022B
:10483300494A750A008030A818A919881289137883
:104843001212151A780812151A8A828B8312496B71
:104853001228507404121548126F09E50828F50848
:10486300E50939F509050A1269165077E50A75F065
:1048730006A4F8A9F0E51028F582E5111268F212F2
:1048830049628A828B83A31255AAF01256131255DA
:10489300A5F0E5082403F5085002050988828983F9
:1048A300E070C2EA240308125617124962A38582F4
:1048B300088583098A828B83A3A3A3A312495D8CF2
:1048C30082F583E5824583700302483AAC08AD095B
:1048D300AA82AB8388828983E0F91228208A088B15
:1048E300098082780C12151A8E088F097808121520
:1048F3001A74201218A7124D9D12151EE4F508F51F
:1049030009780812151A74221218A7124D9D121550
:104913001E74221218A7124D9D12151E75080078D9
:104923000812151E750801780812151EAC0EAD0F7E
:10493300AA14AB15A90B1247B4121548E9FEAA0C29
:10494300AB0D1222D480027E10EEF97402121548C8
:10495300802F1222CE8A088B0922E0FCA3E022E0FA
:10496300850882850983F022126FDFAA0EAB0FA997
:104973000B22FD8C828D83125DE3EA4B22AA12ABDC
:10498300137F0E02120AEEF902498474EC120E57D9
:10499300890A8A108B11ECFEEDFF74141218A7120A
:1049A3004BA17003024A31A808A9097C00800D12AB
:1049B3004B8450010B124BB45001090C850C8285BA
:1049C3000D83E0FAECC39A40E674016A700AA3E02F
:1049D3007006750E01750F00780812151A780E12FD
:1049E300151A741C1218A7124B7E12151EE4F50C2F
:1049F300F50D780C12151A741E1218A7124B7E129D
:104A0300151E741E1218A7124B7E12151E750B006D
:104A1300780B12151E750B04780B12151E1247AA7C
:104A2300121548E9FEAA08AB091222D480027E10AF
:104A3300024B6BAA0EAB0F7F0C02120A850A82850A
:104A43000B83E0F912283222EEFAEFFB1222CE8A10
:104A53000A8B0BEA4B22F8E4350DF98882F58312B1
:104A63004D8DA322851082851183E0F8E508C39854
:104A73002274EC120E57890A8A108B11ECFEEDFF9B
:104A830074141218A7124B70F50875090074027894
:104A93000812174F85080E85090FAA0EAB0F12696E
:104AA3000A7003024B697900804AE9F51275130015
:104AB3007402781212174FE50C2512FCE50D35131D
:104AC300FD8C82F583A31259728C828D83A31260AD
:104AD300BCF0EC2403FC50010DF5828D831260BD04
:104AE300A3F08C828D831260BCA3A3F0EA2404FAA2
:104AF30050010B09850C82850D83E0F8E9C39840CA
:104B0300A9740168700AA3E07006750E01750F00A1
:104B1300780812151A780E12151A741C1218A71297
:104B23004B7E12151EE4F50CF50D780C12151A7454
:104B33001E1218A7124B7E12151E741E1218A712EE
:104B43004B7E12151E750B00780B12151E750B0785
:104B5300780B12151E1247AA121548E9FEAA08ABD4
:104B6300091222D480027E10EEF9024A3A124B74E3
:104B730022125479850C82F583E022E0F50B780B41
:104B830022EC75F003A4FAABF0E50C2AFAE50D3B31
:104B9300FB8A82F583124DBAF0EA2402FA22124B01
:104BA3007475F003A4F50EE5F0F50FAA0E126F76F7
:104BB30022F5828B83124F6F124DB3A3A3F0E82427
:104BC30003F82274E8120E5774FE121610124E01E7
:104BD3001218A7124DA78009EE2402FEE43FFF0539
:104BE30008124A67502FE50875F00D124D5E240434
:104BF300FEE43FFFE070E8A3E070DDEE2405FEE491
:104C03003FFFE82404F50AE439124D7960D1124AD2
:104C13003FEE2980C6124A4B7003024D598A0E8B10
:104C23000F7508008018E50C2409FAE4350DFB8A9A
:104C330082124D87124DAFF08C0E8D0F0508124A6C
:104C4300674003024CF6E50875F00D124DC1AA82C8
:104C5300AB83124A62F0E50C2402124A59124DD674
:104C6300A3F0E50E2404F50E5002050F850C828592
:104C73000D83E070C7E50E2402FCE4350FFD850EBD
:104C830082850F83A3A882A9838A828B83E070968F
:104C9300E50C2404F512E4350DF513851282124D4B
:104CA30087F0E50C2405F516E4350DF51785168216
:104CB3001262E7124DEB2407F8E4350DF9888212EE
:104CC3004D87124DF9F0E50E2405F50E5002050F40
:104CD300851282851383124D807003024C3FAC0E04
:104CE300AD0FE50C240BF582E4350DF583124D95DC
:104CF300024C3F780A12151A8E0C8F0D780C121580
:104D03001A74221218A7124D9D12151EE4F50CF504
:104D13000D780C12151A74241218A7124D9D121532
:104D23001E74241218A7124D9D12151E75080078C3
:104D33000812151E750809780812151EAC14AD1556
:104D4300740B1218A7124D6E121548E9FEAA0AAB8E
:104D53000B1222D480027E1002479EA4F8A9F0E52C
:104D63001028F582E511124F0BEE22125DE3A9091B
:104D73001227BA740B22F50B850A82F583E0F91228
:104D83002826E922F583124D8D22E0850E82850FB8
:104D93008322124F748A0E8B0F22E0F508780822C3
:104DA3008E828F83E0F510A3E0F51122124DB3221A
:104DB30012431B124DBA22A3E08882898322126A0E
:104DC300A485820C85830D124D8DF0850C82850D93
:104DD30083A322124DDA22A3F088828983A3E0857C
:104DE3000E82850F83A3A322F08516828517831273
:104DF3005628F0E50C22A3A3124DDAA3A3228518AB
:104E030082851983EAF0A3EBF089098C148D157E52
:104E1300007F00750800741A2274EA120E57890B7A
:104E23008A108B118C0E8D0F7E007F00750A007423
:104E3300161218A71254758003124ED8850C82855A
:104E43000D8312691C40F2126906607EA808A90945
:104E5300750A008003124F14850C82850D83E0FAD6
:104E6300E50AC39A40EF780812151A8E0C8F0D7855
:104E73000C12151A741E1218A7124ED212151EE424
:104E8300F50CF50D780C12151A74201218A7124E92
:104E9300D212151E74201218A7124ED212151E75A7
:104EA3000A00780A12151E750A0A780A12151EAC32
:104EB3000EAD0FAA10AB11A90B1247B4121548E996
:104EC300FEAA08AB091222D480027E10024989E0AF
:104ED300F50A780A22E50A75F005A4F8A9F0E50CAD
:104EE30028F582E50D124F0BA3A3A3126F1DA3A3F5
:104EF300E0F91228388B09EA2403F8E43509F9EEBE
:104F030028FEEF39FF050A2239F583A3A882A98376
:104F130022E50A75F005A4FAABF0124F63858214FB
:104F2300858315124DBB126FF7124F6FF0E51424F2
:104F330002FAE435158A12F5138A82F583124F6F4C
:104F4300A3F0E82403FCE439FD851482851583A3CB
:104F5300A3A3124F748A128B13A812A913050A2252
:104F6300E50C2AF582E50D3BF583A322124DBBA385
:104F730022E0FAA3E0FB851282851383E0F912286D
:104F8300202274F6120E5774FE121610E9FE740CEA
:104F93001218A712500B12501312501BE0C0E074EA
:104FA300011218A7D0E0F0A818A919880889097870
:104FB3000812151A750802750900780812151A7473
:104FC300161218A7124D9D12151E74151218A7124A
:104FD300131174161218A7124D9D12151E74161272
:104FE30018A7124D9D12151E750800780812151E7C
:104FF30075080B780812151EEEF91247B4121548FE
:105003007402121548025746126F148882F58322E0
:10501300E085188285198322F088828983A322740C
:10502300F1120E5774EB121610EAFEEBFFC200EA00
:105033002420F8E43F8808F5098882F583C3E094C7
:1050430003A3E094005005790102545690157D1294
:10505300700D74021218A712700D740E1218A7E4C3
:10506300F0A3F0740A1218A7E4F0A3F0740C12185A
:10507300A7E4F0A3F0EA2422F8E43F880AF50B88BA
:1050830082F58312691274041218A7AA82AB8312E1
:1050930027EA8A0C8B0DA80CA90D740A1218A71203
:1050A300700D850882850983125DDFEAC398F8EBEA
:1050B30099F9850A82850B83E028F8A3E039F9740E
:1050C3000C1218A712692F74081218A7E09015760E
:1050D300F0EE2414F508E43FF509850882F583E032
:1050E300F91237508A828B83E5824583700C9015C1
:1050F3007DE4F0A3F079020254561254A9602BEE1A
:105103002404F50AE43FF50BA3121311740B1218D0
:10511300A7E0FD74061218A7E05403FC1254B8125A
:1051230027B47402121548E9700C90157DE4F0A3BE
:10513300F079030254561254B8122814E9F50E8577
:105143000A82850B83125DDFEAFCEBFD9015778005
:105153000488828983125C0E700302524988828913
:1051630083A3A3125475C3EA950CEB950D40E28813
:10517300828983A3A3A3A3C3E09CA3E09D40D2E8B9
:10518300FCE9FD74041218A7E05407700D740912AA
:1051930018A7E0640B700302524DE50EA2E640032C
:1051A30002524DEE2419F582E43FF583E0600302D9
:1051B300524D74021218A7125481707E7402121891
:1051C300A7125C0970747C00850882850983E0F965
:1051D30012281A74011218A77401F074091218A77F
:1051E30012545E1218A7E0F50C780C12151E740702
:1051F3001218A7121311750C01780C12151E7408DE
:105203001218A7126AC4F50C780C12151E74051235
:1052130015CA880C890D780C12151A74091218A76F
:105223001254A01218A71254691218A712548F12FD
:1052330015487C011254B812281A90157DE4F0A386
:10524300F079050254567C007D0074041218A7E01F
:10525300F854036003025371E8540460057E84022A
:1052630053B074091218A7E0F8C39417400302530C
:105273006DE8F50A750B007402780A12174F74383B
:10528300250AF5827440350BF583E493F874019392
:10529300F9E849700302536D850882850983E0C0EC
:1052A300E074101218A7D0E0F0740C1218A7125D66
:1052B300DF74111218A712700D740A1218A7125D69
:1052C300DF74131218A712700D74101215D288828E
:1052D30089831237C78B09A909740E1218A7127094
:1052E3000DEA49604B74091218A7E0F50875090027
:1052F3007402780812174F743A2508F58274403502
:1053030009F583E493F87401938882F583E5824574
:1053130083601274021215D21237C7740E1218A7C3
:10532300125C0E600B740E1218A7125DDF1222D4EA
:1053330074091218A7E0F86054740268604F74038C
:1053430068604A74066860457408686040740C6855
:10535300603B74116860367413686031741568605B
:105363002C740B6860277E0080437E82803FEC4D67
:10537300602B8C828D83A3A3A31254A9601F740294
:105383001215D21237C7E9FE74FF6E700B90157DAC
:10539300E4F0A3F0F902545674016E701074041211
:1053A30018A7E0540460047E8380027E8174021295
:1053B30018A7125481707574021218A7125C097031
:1053C3006B74041218A7E0FA541070607401121879
:1053D300A7EEF074091218A712545E1218A7124D03
:1053E3009D12151E74071218A71213117508017860
:1053F3000812151EEA131313541F64015401F50810
:10540300780812151E74051215CA880889097808C8
:1054130012151A74091218A71254A01218A71254BD
:10542300691218A712548F121548D20090157DE403
:10543300F0A3F0EE70047900801974846EA20070FA
:105443000A50047907800C79068008500479098092
:105453000279087415121548025B79E08518828574
:105463001983F0740822E02406FAA3E03400FB74E5
:10547300092212547922E0F50CA3E0F50D22125E05
:1054830079C82415F582E438F583E022A3E0C81235
:105493006BCA38F583E0F91227DE740722126EBB5C
:1054A300126FDB740922A3A3A3125E798882F583AA
:1054B300E582458322850A82850B83125DE3850895
:1054C30082850983E0F92274F4120E578A088B0946
:1054D300ECFEEDFF7C067D00790012220885088230
:1054E300850983E054FCF8A3E0F98E828F83E054AE
:1054F30003FAE84A850882850983F0A3E91255B3C4
:10550300A2E25004D2F08002C2F0850882850983AA
:10551300E054FBF0A2F0E433F50A750B0074027853
:105523000A12174FE0450A1255B3A2E38508828594
:105533000983E050044408800254F71255B3A2E4EF
:105543005004D2F08002C2F0850882850983E054BA
:10555300EFF0A2F0E433F50A7404780A12174FE06F
:10556300450A125FD3850882850983E054046010DD
:105573008E828F83E0FAA3E0F9EA12656150010F8E
:105583008E828F831255A5A3A31265418508828558
:105593000983A3A3A3A3A3F0EE2402FAE43FFB022F
:1055A30045FF1255AAA322E0850882850983A32219
:1055B30012597BE02274F7120E578A828B83E054D0
:1055C300038C828D83125636540412562F540812BC
:1055D300562F5410F88C828D83E048F0A3AC82AD33
:1055E300838A828B83E05404601012561312562967
:1055F30012501B12561FFC50010D8A828B83A3A3EA
:10560300A312562812563B12561FFAE43DFB803E66
:10561300EA2402F8E43BF98882F58322125629A38F
:10562300F0EC240222A3E08C828D8322F88C828DFD
:1056330083E04812431BE02212563F22125644A332
:1056430022F08A828B83A3A3A3A3221227847F0140
:1056530002120AC082C08390157980048A828B83E8
:1056630012497A60138A828B83A3A3E0F8E9686006
:105673000B74FF6870E680047A007B0002442D748B
:10568300F0120E578A088B09ECFEEDFF1227F68AFB
:105693000C8B0DEA4B60787C0080010C850C8285B5
:1056A3000D83A3A3A3A3A3A3A3E0F8ECC398505F24
:1056B300ECF50E750F007403780E12174F850C82EC
:1056C300850D83A3A3A3A3A3A3A3A3E0250EF8A3FC
:1056D300E0350FF98882F583E493FA740193FBE5CF
:1056E300086A7003E5096B70B2A3A3E493FA74012B
:1056F30093FBEE6A7002EF6B70A174101218A7127D
:1057030069128983888274081214127901800279DC
:105713000080031215487F0802120A74F6120E570E
:1057230012574B6005125DDC80047A007B00801306
:1057330074F6120E5712574B6005125DDA80047A25
:10574300007B007F0202120A1227F68A828B83E50E
:105753008245832274F7120E57E9FFEAFCEBFD90B2
:10576300157B800488828983125C0E604688828957
:1057730083A3A3E06F70ED7E0080010E888289838E
:10578300A3A3A3E0FAEEC39A50DAEE75F003A4FAEA
:1057930085F008AB0888828983A3A3A3A3E02AFA30
:1057A300A3E03BFB8A82F583E06C7003A3E06D709A
:1057B300CA80047A007B0002565174F6120E571207
:1057C300280E8A828B83E58245836006A3A3E0F9D2
:1057D3008002790002574674F6120E57ECFF122826
:1057E3000E8B09A909EA496015EA2402F582E43916
:1057F300F583EF6005E0D2E68003E0C2E6F00257EE
:105803004674F1120E57EAFEEBFFECFAEDFBEE4F96
:10581300700302596FEC2402F50CE43BF50D8C8206
:105823008D83A3AC82AD838E088F09750A00E912BC
:1058330013C20441423C5943444E59E0E20759E83C
:10584300E9BA582108AC5809BA580AC9580B07597C
:1058530010AC5818AC5819BA581AC9581B07592014
:10586300AC5821BA5822C95823075924185925215D
:1058730059262A5927335928AC5829BA582AC958BE
:105883002B07592C18592D21592E2A592F335930AA
:10589300AC5831BA5838BA583907593A3359EA0724
:1058A30059F03359F160596F598E828F83125972AF
:1058B300ECFAEDFB02596F12653A8C828D83F00A84
:1058C3000AAB0D02596F8E828F8378081218388ABB
:1058D300828B83E5081259777808121838E5098C0A
:1058E300828D831259777808121838741078081249
:1058F30015B1850C82850D83E508F0EA2403FA507F
:105903006B0B80688E828F8312130D1222867404B0
:10591300121548805778081215167C0580467808BA
:105923001215167C06803D78081215167C07803404
:1059330078081215167C08802B78081215168E82AB
:105943008F83E02401FCE43400800F7808121516DD
:105953008E828F83125B0DFCE439FD800978081277
:1059630015167C107D00125FCD121548025B79126B
:1059730060C2F02212597B22F08E828F8322C08272
:10598300C083E91213C203202F9959383A9959E079
:10599300E29959009D5979018002790002442D74DE
:1059A300F2120E5774FE121610EAFEEBFF8C088DEE
:1059B300091228388518828519837401F0A3E4F04D
:1059C300851882851983E0600C750C01750D0078CC
:1059D3000079008038750CFF750DFFEA24FFF8EBA2
:1059E30034FF8028850882850983E0C0E0EE28F52E
:1059F30082EF39F583D0E0F0850882850983A3859A
:105A03008208858309E8250CF8E9350DF9EAFCEBF2
:105A1300FDEC24FF1AED34FFFBEC4D70C77402124A
:105A23001548025DD5E924F8607814607914607A2A
:105A330014607B24FB606B24F86067146068146057
:105A43006914606A24FB605A14605B14605C146020
:105A53005D14605E14605F146060146061146042E2
:105A63001460431460441460451460461460471482
:105A7300604814604914602A14602B24F9602714C9
:105A8300602C146039245A602514602214601F248A
:105A9300FA601314601014601524FA602114602254
:105AA3008024790180227902801E7903801A790487
:105AB3008016790580127906800E7907800A7908A5
:105AC30080067910800279000214FA74F7120E57D7
:105AD300E9FE74446E600574436E700C8A828B8396
:105AE300125B0DFAE439801574426E600574416EE1
:105AF300700E8A828B83E02401FAE43400FB800772
:105B0300122832E9FA7B0002565112495DF9EC245E
