:020000040000FA
:060000000217CC020A51B8
:03001300020BA736
:03002B000214DCE0
:03003300020C9E1E
:03003B00020BFCB9
:03004B000214415B
:030053000209801F
:03005B000212BBD3
:030063000212DCAA
:03006B00020C4143
:03007B00020C75FF
:100083000209E201010020FD000201070600000051
:10009300016C1C7E1C0000841C8A1C000000009064
:1000A3001CA81CAE1CB41C000000000000000006CD
:1000B3000004140004FFFFFF180612FFFFFFFFFFF9
:1000C300FFFF0101010400EA19000000E80300003A
:1000D300FFFF3E1AE803000064006400B801A0BB00
:1000E3000D00A0BB0D00020200F8FF0705021E046D
:1000F30001051E02051E020A0A0101080803102752
:1001030002803E0102FEFFE8030A050001FFFF0231
:100113000A1401E005030101FF0539000000009DF9
:100123003800000000FF000000FF00C082C08312FF
:10013300021E4004780080031202D6E8F4FCEB6050
:100143000814601214601C802BEA6005E84280806A
:1001530023EC5280801EEA6005E842908016EC5240
:10016300908011E8C39420500BEA6005E842A08018
:1001730003EC52A0020219C082C08312021E400483
:10018300780080031202D6E8F4FCE8700302021937
:10019300EB600814602C146050807BEC52F3740104
:1001A3006A601274026A601574046A7003E8428F0D
:1001B300E842FD806153F7DFEC528F80F343F72071
:1001C30080F6EC52F474016A601274026A6015746A
:1001D300046A7003E842F6E842FE803A53F7BFEC44
:1001E30052F680F343F74080F6E8C394205027EC9F
:1001F30052F574016A601274026A601574046A70BD
:1002030003E842F7E842FF800D53F77FEC52F78093
:10021300F343F78080F6D083D08222E9C4540F548D
:1002230003FB743F59C394302274F8120F02E9C4DC
:10023300540F5403FE743F59C39430400478008034
:10024300031202D6E8F4FBE86077EE600814602B33
:1002530014604E806CEB52F352FD74016A600F74AC
:10026300026A600F74046A7058E8428F805353F730
:10027300DF800343F720EB528F8046EB52F452FEAC
:1002830074016A600F74026A600F74046A7032E862
:1002930042F6802D53F7BF800343F740EB52F680BD
:1002A30020E8C39420501AEB44E0FB52F552FF744C
:1002B300016A601274026A601574046A7003E8428A
:1002C300F77F0102123C53F77FEB52F780F343F7BA
:1002D3008080F6E95407FC74A62CF582E43483F598
:1002E30083E0F822C082C08312021E40047800809B
:1002F300031202D6E8F4FCE86038EB6008146012DD
:1003030014601C802DEA6005E842FD8025EC52FD57
:100313008020EA6005E842FE8018EC52FE8013E874
:10032300C39420500DEA6005E842FF800574E04C59
:1003330052FF020219C082C08312021E40047800D9
:1003430080031202D6E8F4FCE8603FEB6008146017
:10035300151460228034EA6005E842808003EC5281
:1003630080E842FD8024EA6005E842908003EC5275
:1003730090E842FE8014E8C39420500EEA6005E83A
:1003830042A08003EC52A0E842FF020219743F59D5
:10039300C394305042E9C4540F54036007146013EC
:1003A300146020227801E8F4FBEA60241460181436
:1003B300601922740F59C394045004780280E778BB
:1003C3000480E3780880DFE8428C22E58C586004DF
:1003D300EB528C22E8428C221217EB60461217DC98
:1003E300603DE9687008F618F618F618F62274806E
:1003F30067F712040F090909748067F7221217DCE3
:10040300601D1217EB7005191919801A12165A700C
:100413001F12166EC37003E66733191919400718C4
:1004230018182208080874FFF618F618F618F622AA
:1004330012166E6017121879702192F012188270DA
:1004430019501720F014080808090909E7F61819C4
:10045300E7F61819E7F61819E7F62212188260E68C
:10046300E869701F0808E62480F608E436F6185495
:100473007FB47F0CE654806007F6E418F618F62282
:10048300181822E9C6CC08C6CD08C6CE08C6CFC008
:10049300E0E8C0E0EAC0E0EBC0E009E9F809E7FA08
:1004A30009E7FBE6F918E6F8C3EC98ED99EE9AEB49
:1004B300C2E7F5F0EFC2E795F0500E600CEBCFFB0F
:1004C300EACEFAE9CDF9E8CCF8EAA2E7D2E7FAEB0B
:1004D30033FB13F5F0EEA2E7D2E7FEEF33FFC5F0EF
:1004E30013A2E730E601B313C5F0C3C0E0C0F07F49
:1004F30000C39BFB605E9418600F401D14601AD00C
:10050300E023F9D0E0F80205E18AF0E9486003D27C
:10051300F0E4AFF0FAF9F8803BEB30E40D89F0EA50
:100523006003D2F0E4AFF0F9CAF8EB30E30D88F0E2
:10053300EF6002D2F0AFF0E4CAC9F8EB54076014DD
:10054300FBC3EA13FAE913F9E813F8EF135002D2E5
:10055300E0FFDBEDD0E0C0E030E739C3E49FFFF517
:10056300F0EC98FC42F0ED99FD42F0EE9AFE42F079
:10057300D0E0F9D0E0F8E5F0607AE923F9EE20E77E
:1005830042D8028067C3EF33FFEC33FCED33FDEE5B
:1005930033FE80EAEC28FCED39FDEE3AFED0E02391
:1005A300F9D0E0F84002801BC3EE13FEED13FDEC1F
:1005B30013FCEF135002D2E0FF08B800067F7F74EC
:1005C300FF802EEF3350178CF020F00260100CBC2C
:1005D300000C0DBD00080EBE000408E860DFE9331F
:1005E300E813FFEE2313FE4F4D4C8008E95480FFC0
:1005F300E4FEFDFCEE33EF33F47004FCFD7E80D0AB
:10060300E0FBD0E0FAD0E0F8D0E0CFC618CEC618B1
:10061300CDC618CCC6F9221217DC7004181818229C
:100623001217EB700D74FFF61819F61819F618194E
:10063300F622E7548066F6121882700F121879704A
:10064300F014F608F608F608F680D1121879700C43
:10065300F608F608768008E6447F80EC121671707F
:100663000C12165D60BFE65480F6E480BB12165D83
:10067300700519191980A5E869700C763F18768002
:1006830018F618F6E8F922E6CDC0E018ECC0E0E66B
:1006930033CD33CDD313F6E719FCE7191933CC3334
:1006A300C3947F400ECD9D502408E65480F6E41891
:1006B300F6800FF4043D14501408E6447FF61876D0
:1006C30080E418F618F6D0E0FCD0E0FD22CCD3137A
:1006D300CCFD18E4C6CBC0E018E4C6CAC0E00808E5
:1006E300ED08C633E613F618E433C675F003C3CA40
:1006F30097CA09CB97CB199C40047D08802EBD0077
:10070300030207C316B6FF050606081618C3CA3345
:10071300CACB33CB33CA27CA09CB37CB193CC37DEA
:1007230008803E187D0820E75CC633C6CA33CACBAF
:1007330033CB33DDF1D5F0EB30E77BCA97CA09CB76
:10074300974ACB199C406F4B7025E620E0218066C9
:10075300187D08C3CA97CA09CB97CB199CD3C63354
:10076300C6CA33CACB33CB3350C9DDE7D5F0E1D3A7
:10077300E4C636C608C636C608C636C608C636C672
:100783001818188031C3CA97CA09CB97CB199CB3E1
:100793004097C633C6CA33CACB33CB33DD34D5F027
:1007A3002EC6A2E0C640C8CA27CA09CB37194A7069
:1007B300BECB3CB480B90808E63308E633601F18A3
:1007C3001818D0E0FAD0E0FBD0E0FCD0E0FD22180E
:1007D3007D08CA27CA09CB37CB193CD3808013F6CF
:1007E30018E4B67F11F618B6FF0EF618C60470D2D9
:1007F3000808768080CAF618F618F680C500121726
:10080300DC604F1217EB6012E7548066F612165A3B
:100813007011121879703B090909F4F618F618F6E5
:1008230018F62212166E701512188208080860EA6C
:10083300E6447FF618768018E4F618F6221218823A
:1008430060161218797012E4F608F608F608E654F2
:1008530080F609090918181822EAC0E0EBC0E0EC99
:10086300C0E0EDC0E0E687F0A4FBACF008E687F05B
:10087300A42CFCE435F0FA1809E687F0A42C4B60AD
:10088300027401CA35F0FCE433FB09E687F0D2F7C2
:10089300A42CCB35F0FC1908E687F0A42BCC35F05B
:1008A300FBE433FD0819E687F0D2E7A42C4ACB35E5
:1008B300F0CD3400FC09E687F0D2E7A42DCC35F067
:1008C300FDE433FA0918E687F0D2F7A42CCD35F00E
:1008D300CA3400FC08E687F0D2E7D2F7A42ACC3565
:1008E300F07A7E20E70B0ACB33CBCD33CDCC33CCA0
:1008F30033CB3350147004ED30E00ED2F1E4CD3D30
:10090300CDCC3CCC3B5005DA05C2F1EB547FC6336A
:1009130008E63392F0FBE73309E733C39A502D2BF4
:1009230070190C0D4C4D70151806E608C333700D85
:1009330020F10AA2F013F6E418800B4024E4F63009
:10094300F002768018F618F618F68024D33B14507C
:100953001074FFA2F013F6187680E418F618F680E8
:100963000FA2F013F618E63303F618ECF618EDF6BB
:10097300D0E0FDD0E0FCD0E0FBD0E0FA22C0E07490
:10098300F1120F68A2AFE433F509D2AF85A708AF20
:10099300A1EF5508FE74105E60061219DE75A1EF13
:1009A30074085E60081219E475A1F78024EFA2E0D1
:1009B30092F0E508A2E082F05017906198E0F89079
:1009C3000577E0C398A2D265D0335002E8F075A151
:1009D300FE751A00E509A2E092AF7F02020FC7C0BD
:1009E300E074F2120F68A2AFE433FED2AF9061A4B9
:1009F300E0F8759B00E59158540860087591F7126B
:100A03001A2C8023E59158541060087591EF121A3F
:100A1300328014E591A2E092F0E8A2E082F0500760
:100A2300E0C2E0F0121B889061A3E0F8E5E95854B6
:100A330004600E121B5E75E9FB906193E0A2E64031
:100A4300F2751A00EEA2E092AF7F01020FC7C0E079
:100A530074F2120F68A2AFE433FED2AF9061A5E047
:100A6300F8E5BF585404600675BFFB121BA080D184
:100A7300C3E498F8E499F9120AB48026C3E49AFA15
:100A8300E49BFBE920E7E9120AB4E498F8E499F956
:100A930022C3E498F8E499F9120AB4E498F8E499C3
:100AA300F9C3E49AFAE49BFB22EB20E7CFE920E7C2
:100AB300E0B90010BB0008E88AF084F8AAF022E449
:100AC300FBC8FA22EB70227B10C833C8C933C93381
:100AD3005007C39AC3DBF280069A50012ADBEAC8A7
:100AE30033F4C8C933F4C9FA2275F008E4C833C82B
:100AF300C933C933C99AC99B5004C92AC93BD5F024
:100B0300ECFBC833F4C8E4C9FA22120B5830F039AD
:100B1300120B9D8034120B5820F01430E72B74FF16
:100B2300FCFBFA747F8022E4FCFBFA7480801AB425
:100B33008008BC00F2BB00EF800F50EBF9E4C39ACE
:100B4300FAE49BFBE49CFCE499C6CC18C6CB18C61C
:100B5300CA18C6F922E4C9C608CAC608CBC6D33325
:100B63000308CCC63392F0C3947F402E94184019E7
:100B7300C9B90704CACBCC225025C309CA33CACB8F
:100B830033CBCC33CC33D9F422F4600DC9CCC313AB
:100B9300CB13CBCA13CAD9F6CC22E4FCFBFA22143A
:100BA300FCFBFA22C0E0C0D0E8C0E0E9C0E0C082AC
:100BB300C083A8C1E8C0E09004E3E0F8746228F5BC
:100BC30082E43404F583D0E0F09004E2E0F8A3E09B
:100BD300687006E5959004E5F09004E3E004F0C343
:100BE30094804002E4F0A374C6F0D083D082D0E0B6
:100BF300F9D0E0F8D0D0D0E032C0E0C0D0E8C0E017
:100C0300E9C0E0C082C083900566E0F8A3E06870A5
:100C130008539AFBA374018022C2E9900566E0F8A9
:100C2300740128F074E628F582E43404F583E0F5D2
:100C3300C1900566E0C394804002E4F080ACC0E05C
:100C430074F2120F68A2AFE433FED2AF9008C4E08F
:100C53005589600FE589FA7900121DCE9008C4E02A
:100C6300F45289C2C5751A00EEA2E092AF7F010269
:100C73000FC7C0E074F2120F68A2AFE433FED2AF25
:100C83009008C5E0558A600FE58AFA7901121DCEF6
:100C93009008C5E0F4528AC2EB80CAC0E074F21235
:100CA3000F68A2AFE433FED2AF9008C6E0558B6065
:100CB3000FE58BFA7902121DCE9008C6E0F4528B31
:100CC300C2E880A1080808EAC0E0EBC0E086F0E7CC
:100CD300A4FA180986F0E7A42AFA180986F0E7A40B
:100CE3002AFA180986F0E7A42AFA1986F0E7A4FB82
:100CF300E5F02AFA190886F0E7A42BFBE5F03AFAA7
:100D0300190886F0E7A42BFBE5F03AFA18180986D0
:100D1300F0E7A4C5F02BFBE43AFA1908E7C5F0C6DF
:100D2300A426F6E5F03BFBE43AFA1886F0E7A4F6CE
:100D3300E5F00826F6E43B08F6E43A08F6D0E0FBD3
:100D4300D0E0FA22080808E630E711121646120D21
:100D53005F080808C64480C618181822181818E92E
:100D6300799EC608CAC608CBC608CCC6C37020790C
:100D730096CACBCC7019798ECBCC70137986CC7094
:100D83000EF9802ACA33CACB33CBCC33CC331930D8
:100D9300E7F2CCCBCA3350147004EA30E00DE4CA56
:100DA3003ACACB3BCBCC3CCC500209C3E913C6CCEB
:100DB300182313C6CB18C6CA18C6F922E4CFC0E05D
:100DC300E4CEC0E0E4CDC0E0E4CCC0E075F020E6C2
:100DD30026F608E633F608E633F608E633F618187F
:100DE30018EC33FCED33FDEE33FEEF33FFC3EC972A
:100DF30009ED9709EE9709EF97191919400FFFECC1
:100E030097FC09ED97FD09EE97FE191906D5F0BF7A
:100E1300ECF709EDF709EEF709EFF7191919D0E027
:100E2300FCD0E0FDD0E0FED0E0FF222518C582C053
:100E3300E0E51934FFC583C0E0E518C3958224F8C3
:100E430010AF0885831985821880088583198582E8
:100E530018D2AFCEF0A3E520F0A37808E608F0A3FC
:100E6300DEFAEFF0A3E58124FAF8E608F0A3E6083A
:100E7300F0A3E608F0A30808E608F0A3E608F0A349
:100E830015811581D0E0FED0E0F81581158115811B
:100E9300E8C0E0EEC0E022121864B90003020EECD1
:100EA300E490040178AB79198002F0A3D8FCD9FA55
:100EB300781A9000867A01BA00028007E493A3F6B9
:100EC30008DAF97AAB7B1C90008778A87901801542
:100ED300E493A3AD82AE838A828B83F0A3AA82AB11
:100EE300838D828E83D8E9D9E775828E7583E67404
:100EF300051214BE7582CE75833274001214BE259A
:100F030018C582C0E0E51934FFC583C0E0E518C306
:100F1300958224F910AF0885831985821880088586
:100F23008319858218D2AFCEF0A3E520F0A3780809
:100F3300E608F0A3DEFAEFF0A3E58124FBF8E60868
:100F4300F0A3E608F0A30808E608F0A3E608F0A378
:100F530015811581D0E0FED0E0F815811581E8C038
:100F6300E0EEC0E022C0D02518C582C0E0E5193408
:100F7300FFC583C0E0E518C3958224F310AF08854D
:100F830083198582188008858319858218D2AFC892
:100F9300F0A3E9F0A3EAF0A3EBF0A37908E709F0E3
:100FA300A3D8FAECF0A3EDF0A3EEF0A3EFF0A3D0F7
:100FB300E0F0A3D0E0F0A3D0E0F0A3E520F0A3E5B8
:100FC300F0F0A322851983851882E0C0E0A3E0F93D
:100FD300A3E0FAA3E0FBA37808E0F608A3DFFAE0B6
:100FE300FCA3E0FDA3E0FEA3E0FFA3E0C0E0A3E0D9
:100FF300C0E0A3E0F5D0A3E0F520A3E0A3F5F01053
:10100300AF0885831985821880088583198582181E
:10101300D2AFD082D083D0E0F8D0E0321216491894
:101023001818120DBF12177B1919192212177B19E1
:101033001919080808E618181820E7E0120DBF125E
:10104300164918181822090909E719191920E7DCA4
:10105300080808E618181820E703020DBF121649FE
:10106300181818120DBF12164918181812177B19E1
:10107300191922E47375F0108E218F22858226853B
:101083008325851882851983E0CEA3E0CF85268248
:10109300852583EBC9EAC8EDCBECCAC3E833C8E9BD
:1010A30033C9EA33CAEB33CBC3EA9EF524EB9FF58E
:1010B30023B35004AB23AA24EC33CCED33CDD5F0CA
:1010C300DAAE21AF22221217DC601C1217EB601775
:1010D30012188270071218797001D322C0D0121827
:1010E300797006D0D0B322C32233D0D0501430E06D
:1010F300F6C3E7960809E7960809E7960809E7960D
:10110300B32220E0D5E6970809E6970809E6970891
:1011130009E697B322D083D082ECC0E0EDC0E0E4CF
:1011230093A3FCE493A3FDED4C600D12127CEC241D
:10113300FFFCED34FFFD80EFE493A3FCE493A3FDF8
:10114300ED4C600D121383EC24FFFCED34FFFD80A6
:10115300EFD0E0FDD0E0FCE493A3C0E0E493C0E073
:10116300221217DC601B1217EB601612188270072D
:10117300121879600CB322C0D01218797005D0D040
:1011830022C32233D0D0501330E0EBC3E7960809D3
:10119300E7960809E7960809E7962220E0E4E69730
:1011A3000809E6970809E6970809E697228519834F
:1011B300851882E0A3FEE0A3F5207808E0A3F608F3
:1011C300DFFAE0A3FFE0A3C0E0E0A3C0E0E0A3C038
:1011D300E0E0A3C0E0E0A3C0E010AF08858218857B
:1011E30083198008858218858319D2AFD083D08272
:1011F3000214C4D083D082E9C0E0E493A3C386F091
:10120300C5F095F0F908E493A386F0C5F095F07066
:101213000BE493A3C3994005E9048002A3E475F0AA
:1012230002A42582F582E5F03583F583D0E0F9E465
:1012330093A3C0E0E493C0E022851983851882E07C
:10124300A3FEE0A3F5207808E0A3F608DFFAE0A305
:10125300FFE0A3C0E0E0A3C0E0E0A3C0E0E0A3C0E0
:10126300E010AF0885821885831980088582188568
:101273008319D2AFD083D08222C0E0C3E49396080F
:101283007401939618400FE49366700808740193F1
:10129300661870007019A3A3C3E4939608740193AE
:1012A3009618A3A3400DD0E0D0E0D0E0021154A3E0
:1012B300A3A3A3A3A3D0E022C0E074F2120F68C2D9
:1012C300D9901CE4E0C39400A2D265D0334005E07A
:1012D300F91221227F01020FC7C0E074F2120F68D6
:1012E300C2DC901CE6E0F9C39400A2D265D033407F
:1012F3000312212280DE7404800474028000CCC0B7
:10130300E0EDC0E0E518C39CCCAD1950011D10AF52
:10131300068C188D1980068C188D19D2AF121420E3
:10132300D0E0FDD0E0FC2274028000CCC0E0EDC030
:10133300E0E518C39CCCAD1950011D10AF068C1805
:101343008D1980068C188D19D2AF1213FED0E0FDD3
:10135300D0E0FC221217DC60251217EB6020121874
:10136300827003021879080808E76670101819E7F5
:1013730066700A1819E76670041819E76622F422E2
:10138300C0E0C0F088F0E4936670080874019366C7
:10139300187000A8F0A3A3700BD0F0D0E0D0E0D079
:1013A300E0021154A3A3D0F0D0E022D083D082CCAA
:1013B300C0E0E493A360061214611470FAE493A3EB
:1013C30060061215C71470FAD0E0FCE493A3C0E0E2
:1013D300E493C0E022C008C3E096F50808A3E096B2
:1013E300420808A3E096420808A3E0964208A2D266
:1013F30065D033E5087001D3D00822CAC0E0E49376
:10140300A3C582CCC582C583CDC583F0A3C582CCD9
:10141300C582C583CDC583DAE5D0E0CA22CAC0E060
:10142300E0A3C582CCC582C583CDC583F0A3C582A5
:10143300CCC582C583CDC583DAE6D0E0CA22C0E03D
:10144300C0D0C082C08375AF00900914E02401F0BE
:10145300A3E03400F0D083D082D0D0D0E032C0E01B
:10146300E493A3D39C5010E493A3C39C400AD0E01D
:10147300D0E0D0E00213CBA3A3A3D0E022700908ED
:101483000808226016181818C6C333C608C633C620
:1014930008C633C608C633C6D5E0EA22C008C3E08F
:1014A30096F50808A3E096420808A3E096420808C8
:1014B300A3E09645087001D3D00822C09FF59FE4AE
:1014C30073D09F22D083D082C09FE493C0E0740185
:1014D30093C0E0740293F59F22C0E0C0D0E8C0E05F
:1014E300A8A8D2AFC2C7751A00E8A2E792AFD0E0AE
:1014F300F8D0D0D0E03200C0D0251810AF08F518CE
:10150300500C05198008F51850020519D2AFD0D038
:10151300227404800A74038006740280027401C07A
:10152300E0F40412152FD0E0121827222518F582B3
:1015330010AF08F518400C15198008F5184002156E
:1015430019D2AF85198322BB0102E722C082C0836F
:1015530089828A83BB0003E08002E493D083D08234
:10156300226017080808C6A2E713C618C613C618D0
:10157300C613C618C613C6D5E0E9226016080808C4
:10158300C6C313C618C613C618C613C618C613C6D1
:10159300D5E0EA222518F8E43519F9222518FAE4EA
:1015A3003519FB222518FCE43519FD22C3E0C69644
:1015B300F608A3E0C696F608A3E0C696F608A3E0ED
:1015C300C696F622C0E0E493A36C7009D0E0D0E0A5
:1015D300D0E00213CBA3A3D0E022251810AF08F567
:1015E30018400C15198008F51840021519D2AF22BE
:1015F300E76670100809E766700A0809E766700471
:101603000809E76622E066701008A3E066700A081E
:10161300A3E066700408A3E06622C3E09608A3E093
:101623009608A3E09608A3E096A2D265D03322C31E
:10163300E096F008A3E096F008A3E096F008A3E094
:1016430096F022181818E4C396F608E496F608E410
:1016530096F608E496F622181818E6084608700964
:10166300E626087005E633F4220822191919E7095A
:1016730047097009E727097005E733F4220922C3F4
:10168300E49396087401939608740293960874037E
:10169300939622C3E697F60809E697F60809E697B4
:1016A300F60809E697F622E026F008A3E036F008EC
:1016B300A3E036F008A3E036F022E026F608A3E024
:1016C30036F608A3E036F608A3E036F622E657F628
:1016D3000809E657F60809E657F60809E657F62219
:1016E300E627F60809E637F60809E637F60809E6B5
:1016F30037F622700422600D18C6C333C608C633FA
:10170300C6D5E0F41822E647F60809E647F60809C5
:10171300E647F60809E647F622E056F008A3E05646
:10172300F008A3E056F008A3E056F022E046F008E4
:10173300A3E046F008A3E046F008A3E046F022E069
:1017430056F608A3E056F608A3E056F608A3E056BB
:10175300F622E667F60809E667F60809E667F6087B
:1017630009E667F622E493F608740193F608740217
:1017730093F608740393F622E4C397F709E497F703
:1017830009E497F709E497F722600D08C6A2E71367
:10179300C618C613C6D5E0F322C6F4C608C6F4C6F7
:1017A30008C6F4C608C6F4C622C3E09608A3E096AA
:1017B30008A3E09608A3E09622C3E7960809E796F4
:1017C3000809E7960809E7962275D00075813F75E9
:1017D300180175190400020E9AE6084608C3134659
:1017E30008336002E633F422E7094709C3134709C4
:1017F300336002E733F422600C08C6C313C618C66D
:1018030013C6D5E0F422E6F008A3E6F008A3E6F059
:1018130008A3E6F022E0F608A3E0F608A3E0F60842
:10182300A3E0F622CAC0E0E6F0A308DAFAD0E0FAB1
:1018330022E0FAA3E0FBA3E0FCA3E0FD22E0FCA38B
:10184300E0FDA3E0FEA3E0FF22E0F8A3E0F9A3E0BC
:10185300FAA3E0FB22E8F0A3E9F0A3EAF0A3EBF09C
:1018630022E5C754F84401F5C77901222518F5820A
:10187300E43519F58322E72719471947194722E663
:101883002618461846184622C2AF75D69F02000096
:10189300221214C7EEFF011214C7F1FF011214C77D
:1018A300F4FF011214C7E9FB011214C74CFC011227
:1018B30014C79BFC011214C7C8FC011214C71EFDF8
:1018C300011214C7F87F001214C774E4051214C779
:1018D300ACE4051214C707E6051214C78BE605121C
:1018E30014C718E1041214C784E1041214C734E2C4
:1018F300041214C7FFE2041214C755E4041214C7F8
:1019030043E5041214C74AE6041214C748E8041254
:1019130014C77BE8041214C7E5E8041214C70CE9E2
:10192300041214C789EA041214C70DEB041214C776
:1019330021EB041214C797EB041214C7DA8D0412B7
:1019430014C7A391041214C75493041214C73194F7
:10195300041214C7F694041214C7F495041214C79E
:101963008296041214C76797041214C703980412CB
:1019730014C7E599051214C7119A051214C7829C5E
:10198300051214C7C29C051214C7029D051214C781
:10199300169D051214C72F9D051214C7209E05120C
:1019A30014C7C59E051214C7D99E051214C7B5F0F6
:1019B300051214C7D9F0051214C7F2F0051214C7A3
:1019C30024F1051214C754F1051214C781F105124D
:1019D30014C78BF1051214C7EDF1051214C7FCF1FE
:1019E300051214C706F2051214C713F2051214C721
:1019F30012DB051214C732DB051214C771DB0512A3
:101A030014C78CDB051214C7ABDB051214C711DC3A
:101A1300051214C71ADC051214C777DC051214C7A4
:101A23009BDC051214C75CDD051214C769DD0512C2
:101A330014C77ADD051214C7F481061214C70C8289
:101A4300061214C73882061214C72EAE051214C725
:101A530088AF051214C796AF051214C7A9AF0512B4
:101A630014C7BEAF051214C7D3AF051214C7E6AF30
:101A7300051214C75AB0051214C7BFB0051214C714
:101A830047B1051214C7C3B1051214C787B20512B3
:101A930014C797B2051214C7A6B2051214C763FF81
:101AA300021214C787FF021214C7AFFF021214C732
:101AB300D7FF021214C751E2051214C778E20512C8
:101AC30014C796E2051214C709E3051214C73FD8D9
:101AD300051214C758D8051214C764D8051214C7C1
:101AE30078D8051214C796D8051214C7A0D80512C2
:101AF30014C7AAD8051214C7BDD8051214C743D9F1
:101B0300051214C7B8D9051214C7E7D9051214C7AB
:101B130035DA051214C784DA051214C79FDA0512E1
:101B230014C7A9DA051214C7BADA051214C7FDDA05
:101B3300051214C798FF051214C7E3FF051214C753
:101B430031F6041214C75BF6041214C778F60412B4
:101B530014C78BF6041214C7A1F6041214C7FFF6B8
:101B6300041214C737F7041214C72BFB041214C74B
:101B730070FC041214C7A3FC041214C706FD04125C
:101B830014C766FE041214C78EFE041214C7A3FE04
:101B9300041214C7B3FE041214C7F7FE041214C7C9
:101BA30052FF041214C762FF041214C7B1F80512DE
:101BB30014C7CBF8051214C7F3F8051214C70CF9B0
:101BC300051214C730F9051214C74EF9051214C7CC
:101BD30065F9051214C793F9051214C7AEF9051276
:101BE30014C735FF031214C779FF031214C773C850
:101BF300051214C783C8051214C788C9051214C770
:101C0300BAC9051214C7E0C9051214C703CA0512DD
:101C130014C71ACA051214C754CA051214C7B9CA7D
:101C2300051214C7FBCA051214C73ACB051214C711
:101C33006BCB051214C7A2CB051214C70CDA021220
:101C430014C744DA021214C745DC021214C74CDF6E
:101C5300021214C7CCDF021214C73EE1021214C7EA
:101C6300A0E5021214C714E6021214C7AEE602126C
:101C730014C7FEE6021214C766E7021214C7B6E7DA
:101C8300021214C7EDE7021214C7F0E7021214C7D9
:101C930000E8021214C712E8021214C757E802122E
:101CA30014C70CEA021214C779EA021214C7C4EA71
:101CB300021214C760EB021214C7ECEB021214C732
:101CC300D1ED021214C777EF021214C716F00212F5
:101CD30014C745F2021214C7CFF2021214C77AF4E2
:101CE300021214C76EE8051214C71DF2051214C7B9
:101CF30037F2051214C779F2051214C789F20512D7
:101D030014C7BCF2051214C7D6F2051214C7EFF2BA
:101D1300051214C722F3051214C744F3051214C79E
:101D23005988051214C79088051214C7E488051250
:101D330014C7B489051214C7EA89051214C7178A90
:101D4300051214C7698A051214C7878A051214C7B6
:101D5300098B051214C7938B051214C7C48B051284
:101D630014C70A8C051214C7298C051214C70A8DCF
:101D7300051214C7388D051214C76E8D051214C7CA
:101D8300CD8D051214C7EF8D051214C74E8E0512A3
:101D930014C7878E051214C7958E051214C7BBF599
:101DA300021214C7F5F5021214C734F7021214C74E
:101DB300CBF8021214C736FF021214C7F0A805129B
:101DC30014C731A9051214C7E0A9051214C7E1F914
:101DD300051214C769FA051214C7CCFA051214C701
:101DE300BBBF041214C7E9C0041214C76FC20412A4
:101DF30014C7F1C3041214C75CC4041214C79FC4EC
:101E0300041214C72EC5041214C73CC5041214C708
:101E13006CC5041214C70FC6041214C7ACC604124F
:101E230014C7D1C7041214C783C9041214C78DCBB6
:101E3300041214C7FACB051214C75CCC051214C7DD
:101E430095CC051214C788CE051214C7ED9E051252
:101E530014C7329F051214C7689F051214C71FA029
:101E6300051214C7E8A1051214C752A2051214C71C
:101E7300D4A3051214C7CBA7041214C7CFA8041206
:101E830014C73FA9041214C725AA041214C771AAC0
:101E9300041214C7E4AD041214C72CAE041214C701
:101EA300F2AE041214C7E3AF041214C72DB0041228
:101EB30014C764B0041214C706B1041214C76BB17B
:101EC300041214C76AB2041214C78EC0051214C7D1
:101ED3000BC1051214C71FC1051214C7BCC10512DB
:101EE30014C7A2ED051214C7DFED051214C704EEE3
:101EF300051214C720EE051214C735EE051214C7D8
:101F03000080051214C76280051214C706810512EA
:101F130014C78582051214C74285051214C75D854F
:101F2300051214C71F86051214C77CF3051214C7C4
:101F33008EF3051214C7A2F4051214C7A5F40512F3
:101F430014C7E4FE051214C71AFF051214C734FFA1
:101F5300051214C776FF051214C786FF051214C7AE
:101F63003FF8031214C779F8031214C7E2F80312F7
:101F730014C7FFF8031214C7A1F9031214C7AAF96F
:101F8300031214C7EFF9031214C718FA031214C784
:101F930025FA031214C796FA031214C721FB03127E
:101FA30014C76FFB031214C7ADFB031214C712FC53
:101FB300031214C735FC031214C7ACFC031214C775
:101FC30003FD031214C73EFD031214C773FD03126E
:101FD30014C785FD031214C797FD031214C7B6FD7A
:101FE300031214C7BFFD031214C77FFE031214C7E5
:101FF300CBFE031214C709FF031214C723F60512FD
:1020030014C763F7051214C79881061214C7B38166
:10201300061214C7D581061214C767D2051214C756
:10202300ABD2051214C7F3D2051214C7D9D40512C3
:1020330014C768D5051214C72681061214C714AF36
:10204300031214C738B0031214C772B0031214C7B3
:102053001CB2031214C746B2031214C7BBB4031253
:1020630014C7FBB4031214C791B6031214C72EB7D7
:10207300031214C780B7031214C723B8031214C77B
:102083005BB8031214C79DB8031214C70CBA03122A
:1020930014C75ABB031214C78BBD031214C7B9BDAF
:1020A300031214C7E0BD031214C7E9BD031214C71A
:1020B30039BE031214C7CBBE031214C7FAC10312ED
:1020C30014C77DC2031214C70080061214C71680FA
:1020D300061214C72080061214C77480061214C790
:1020E300D1B7051214C7E7B7051214C788B805128C
:1020F30014C7C7B8051214C7E4B8051214C715B935
:10210300051214C762B9051214C795B9051214C78D
:10211300D0B9051214C7CBBB051214C733BC0512C3
:1021230014C70ED6031214C7D3D6031214C7DED6B0
:10213300031214C78FD7031214C7EED7031214C7A1
:1021430001DA031214C771DA031214C776DC03121F
:1021530014C7AFDC031214C75DDF031214C785DF96
:10216300031214C707E0031214C782E0031214C753
:10217300E5E1031214C742E2031214C7C0E20312DB
:1021830014C7E7E7031214C7A8DD051214C7C0DD9F
:10219300051214C7BFDE051214C7C6DE051214C725
:1021A300EFDE051214C70AFD051214C769FD0512F7
:1021B30014C7A7FD051214C7E8FD051214C7C38E83
:1021C300051214C7658F051214C78590051214C72D
:1021D300D791051214C79593051214C798CB04120F
:1021E30014C7ECCB041214C716CD041214C742CE85
:1021F300041214C730CF041214C7CCD1041214C76D
:1022030083D3041214C7CED3041214C7DCD504122B
:1022130014C7DAC4051214C72DC5051214C7B0C5F7
:10222300051214C73CC8051214C7D2F4051214C70B
:102233004CF5051214C767F5051214C7F1EB051227
:1022430014C7F4EC051214C75CED051214C73AEA7F
:10225300051214C785EA051214C7D5EA051214C777
:10226300F0EA051214C72EEF051214C789EF051201
:1022730014C785F0051214C700E0051214C769E0FE
:10228300051214C7DFE0051214C7FAE0051214C7DC
:1022930092FF041214C7D1FF041214C774F7051276
:1022A30014C783F7051214C700F8051214C7E7FF14
:1022B300031214C70080021214C70C80021214C741
:1022C3006E80021214C77880021214C70B810212A7
:1022D30014C74781021214C70382021214C716825D
:1022E300021214C76682021214C7D082021214C7E4
:1022F3003583021214C76B83021214C7ED830212D3
:1023030014C79C85021214C77087021214C756881B
:10231300021214C7A889021214C7FE8B021214C733
:10232300678D021214C7048E021214C7AC920212F4
:1023330014C79A93021214C73894021214C76494F0
:10234300021214C70095021214C71595021214C77E
:102353003995021214C79F95021214C7BC95021235
:1023630014C7E695021214C76397021214C7849721
:10237300021214C70A98021214C7B098021214C7A3
:10238300F798021214C76A99021214C7F699021237
:1023930014C75A9A021214C7BA9A021214C7509B4E
:1023A300021214C7CB9B021214C7FE9B021214C75E
:1023B300609C021214C7C29D021214C7329E0212FD
:1023C30014C7E19E021214C737A0021214C7CFA08C
:1023D300021214C73BA1021214C77EA3021214C730
:1023E3000AA5021214C735A5021214C71BA70212AD
:1023F30014C7B1A8021214C7BAA9021214C70080E5
:10240300041214C7B780041214C7BE81041214C780
:102413003C82041214C77E83041214C79F830412E0
:1024230014C75784041214C70285041214C7E28820
:10243300041214C7FE8A041214C7658C041214C74D
:102443003B82061214C70080031214C7588003127C
:1024530014C7DE80031214C7F081031214C73D8230
:10246300031214C72383031214C73A83031214C736
:102473008C83031214C7C983031214C7DC830312AA
:1024830014C73284031214C78B84031214C7A384A2
:10249300031214C71387031214C7AA87031214C79E
:1024A300D487031214C70AFE051214C73C8A031209
:1024B30014C7828A031214C7CC8A031214C7A08BD1
:1024C300031214C7E18B031214C7048C031214C73D
:1024D3004B8C031214C76D8C031214C7EE8C0312BA
:1024E30014C77B8D031214C7D58D031214C71D8E19
:1024F300031214C7928F031214C70E92031214C748
:102503009B92031214C7C793031214C702940312B6
:1025130014C7CF94031214C70F95031214C712954F
:10252300031214C71C95031214C72F95031214C763
:10253300B095031214C7E695031214C7DEFF011208
:1025430014C73996031214C75D96031214C7F49681
:10255300031214C76697031214C77F97031214C795
:10256300B297031214C7D297031214C70F9803121A
:1025730014C74698031214C74599031214C7789ACF
:10258300031214C79F80061214C7AB80061214C728
:10259300F180061214C7F7FF011214C7CAC203124F
:1025A30014C7EDC2031214C7C4C3031214C70DC466
:1025B300031214C765C4031214C7BFC4031214C79C
:1025C3000BC5031214C781C5031214C70FC6031228
:1025D30014C787C6031214C7CAC6031214C7A7CAEF
:1025E300031214C7EECC031214C721CD031214C770
:1025F3009FCD031214C71ECE031214C7F6CE0312C7
:1026030014C720D0031214C70BD1031214C7E8D187
:10261300031214C74DD3031214C7DFD3031214C715
:1026230009E8031214C7A9E8031214C713E9031234
:1026330014C7BAE9031214C719EA031214C7C5EA87
:10264300031214C7F8EB031214C71EED031214C7C9
:1026530097ED031214C76FEF031214C70FF00312A1
:1026630014C7B2F0031214C711F1031214C7CCF14B
:10267300031214C792F3031214C735F5031214C7D8
:10268300E1F5031214C7F6F6031214C78E9A031268
:1026930014C7069B031214C74E9B031214C7929BC5
:1026A300031214C7DB9B031214C7259C031214C720
:1026B3005A9C031214C7D89C031214C7329D0312E9
:1026C30014C78B9E031214C7149F031214C7709F61
:1026D300031214C78A9F031214C7B19F031214C7AE
:1026E30009A0031214C773A1031214C792A1031202
:1026F30014C7BAA2031214C737A3031214C7A4A39F
:10270300031214C706A4031214C7B6A4031214C7F2
:1027130088A6031214C773A7031214C76DA8031264
:1027230014C773A9031214C78FAA031214C79DAA4F
:10273300031214C776AB031214C716AC031214C7E3
:102743005AAC031214C76FAC031214C780AD031243
:1027530014C723AE031214C77BAE031214C771D57B
:10276300051214C7AAD6051214C767D7051214C7D2
:10277300CBD7051214C743CF051214C75ECF05127A
:1027830014C7A2CF051214C7C8CF051214C7EECFC2
:10279300051214C706D0051214C769D0051214C751
:1027A3007ED0051214C7A0D1051214C7A9D10512F2
:1027B30014C7B2D1051214C7BBD1051214C7C5D1B2
:1027C300051214C740BC051214C720C0051214C754
:1027D30025C0051214C727C0051214C7FBE605124E
:1027E30014C7C182061214C79AD6011214C7F1D6B0
:1027F300011214C75DD7011214C7E9D7011214C718
:102803009FD8011214C7E7D8011214C700D90112C7
:1028130014C723D9011214C745D9011214C783D988
:10282300011214C7D2D9011214C7FDD9011214C75A
:102833005BDA011214C702DB011214C7AADB01120F
:1028430014C726DC011214C7F3DC011214C73FDDE1
:10285300011214C7C7DD011214C700DE011214C729
:1028630056DE011214C709DF011214C7EDDF01128E
:1028730014C7FEDF011214C770E0011214C709E187
:10288300011214C773E1011214C763E2011214C7E2
:1028930088E2011214C785E3011214C792E30112FF
:1028A30014C79BE3011214C784E5011214C7A0E601
:1028B300011214C731E7011214C7A2E7011214C7AA
:1028C3007CE9011214C747ED011214C75BED011235
:1028D30014C76BED011214C775ED011214C77EED19
:1028E300011214C787ED011214C791ED011214C729
:1028F300C0ED011214C7EEED011214C7F9ED011278
:1029030014C71DEE011214C741EE011214C7B3EE32
:10291300011214C7FCEE011214C718EF011214C7F9
:1029230089EF011214C7D5EF011214C71EF001126B
:1029330014C75CF0011214C7DDF0011214C7ACF226
:10294300011214C74BF3011214C713F4011214C775
:102953009FF6011214C7F4F6011214C71CF70112F3
:1029630014C74FF8011214C794F8011214C7E9F8F9
:10297300011214C797F9011214C73CFA011214C7C4
:1029830071FA011214C711FB011214C78DFB011256
:1029930014C76485011214C79685011214C7CA852A
:1029A300011214C77E87011214C75288011214C77B
:1029B300B188011214C7C789011214C7138A0112FF
:1029C30014C7B08C011214C7258F011214C771905C
:1029D300011214C70991011214C71591011214C7EA
:1029E3005E91011214C79191011214C71D92011235
:1029F30014C72F93011214C77094011214C76F9553
:102A0300011214C79995011214C70496011214C731
:102A13005D96011214C7D096011214C706990112CC
:102A230014C78C9A011214C7779B011214C7C59C53
:102A3300011214C7FD9E011214C7F4A1011214C799
:102A430003A2011214C797A2011214C742A30112D1
:102A530014C785A3011214C7CEA3011214C71EA461
:102A6300011214C78BA4011214C7F7A4011214C7CF
:102A730013A5011214C742A5011214C781A501129F
:102A830014C769A6011214C718A7011214C78FA986
:102A9300011214C7C1AA011214C790AB011214C7C3
:102AA30012AC011214C754B0011214C76BB0011257
:102AB30014C79AB0011214C7F5B0011214C728B194
:102AC300011214C783B1011214C79FB1011214C7B5
:102AD30000B2011214C750B2011214C7FFB201129F
:102AE30014C7C2B3011214C78AB4011214C7D6B6ED
:102AF300011214C762B8011214C7B9B9011214C77D
:102B0300D5BA011214C7D8BA011214C707BB0112F0
:102B130014C7F6BC011214C7BFBD011214C700BE0F
:102B2300011214C756BF011214C7CCBF011214C738
:102B3300FFBF011214C763C0011214C784C201127C
:102B430014C7E3C2011214C7B9C3011214C7CDC31A
:102B5300011214C7E1C3011214C70EC4011214C732
:102B63003EC4011214C7E2C5011214C7DFC6011225
:102B730014C72DC7011214C754C7011214C72FC895
:102B8300011214C7D5C8011214C75BCA011214C7B6
:102B9300A2CA011214C70FCB011214C764CC0112CD
:102BA30014C70DCD011214C741CD011214C759CD5D
:102BB300011214C7FCCD011214C778D0011214C737
:102BC30020D2011214C744D2011214C762D20112D7
:102BD30014C72ED3011214C77CD6011214C73F3C6D
:102BE300001214C7713C001214C7F140001214C73D
:102BF3004041001214C78641001214C72942001233
:102C030014C78E42001214C7D242001214C73944AB
:102C1300001214C76545001214C76249001214C795
:102C2300E149001214C7074B001214C76A4B001284
:102C330014C7B64C001214C74E4F001214C7DB4F13
:102C4300001214C7E54F001214C70D50001214C729
:102C5300D550001214C76A51001214C793510012C1
:102C630014C7C051001214C71554001214C7E254FC
:102C7300001214C72155001214C7A355001214C71C
:102C83004E56001214C78056001214C7CB560012BA
:102C930014C70457001214C75357001214C7AF5771
:102CA300001214C73158001214C79658001214C7E3
:102CB3000E59001214C7B75A001214C7AF5B0012A3
:102CC30014C7F05C001214C74460001214C7A0625A
:102CD300001214C75963001214C7A163001214C76A
:102CE3008265001214C7BD65001214C7C6650012C1
:102CF30014C7CF65001214C7DA65001214C7F9654B
:102D0300001214C7AC66001214C70967001214C777
:102D13001367001214C71D67001214C769670012F6
:102D230014C7B167001214C7B568001214C74E69FF
:102D3300001214C7156A001214C73F6B001214C7A0
:102D43006A6C001214C7606D001214C7786D00120C
:102D530014C7AC6D001214C7CA6D001214C7126EEB
:102D6300001214C74B6E001214C7026F001214C76F
:102D7300C36F001214C73670001214C7B27000126A
:102D830014C74E71001214C77472001214C7307343
:102D9300001214C7D073001214C7BD74001214C7F5
:102DA3001575001214C7DB75001214C7FE750012E7
:102DB30014C71377001214C75E77001214C7BA77CB
:102DC300001214C72278001214C74678001214C7E1
:102DD3006E78001214C7B378001214C7D7780012A4
:102DE30014C75B79001214C7447A001214C7897A96
:102DF300001214C7B27A001214C7507B001214C712
:102E0300BB7B001214C7E77B001214C7C87C0012F7
:102E130014C7B1EB041214C7E9EB041214C70AEC8C
:102E2300041214C74CEC041214C7B0EC041214C7F8
:102E3300BAEC041214C7CAEC041214C701ED04124D
:102E430014C7AAF0041214C772F2041214C756F47A
:102E5300041214C7F8F4041214C782F5041214C739
:102E630024AF021214C788AF021214C7E6AF0212CE
:102E730014C731B0021214C74CB0021214C773B096
:102E8300021214C790B0021214C79CB0021214C7E6
:102E93002DB2021214C746B2021214C7C2B20212F2
:102EA30014C7D5B2021214C7E5B2021214C789B30C
:102EB300021214C7F5B4021214C708B6021214C7DB
:102EC300A8B6021214C7B2B6021214C731B702125F
:102ED30014C742B7021214C781B7021214C7AFB79F
:102EE300021214C77CB8021214C7D3B8021214C753
:102EF3000CB9021214C762B9021214C780B90212C4
:102F030014C7CEB9021214C799BA021214C7E7BA8A
:102F1300021214C734BB021214C7B7BB021214C780
:102F2300E1BB021214C717BC021214C726BC02125B
:102F330014C785BC021214C7FDBC021214C73EBDE0
:102F4300021214C78EBD021214C7B9BD021214C7F0
:102F5300D3BD021214C7EDBD021214C7C2BE0212C2
:102F630014C7CCBE021214C707BF021214C717BF7F
:102F7300021214C720BF021214C771BF021214C772
:102F830085BF021214C7A7C0021214C7BEC0021223
:102F930014C7D3C0021214C766C1021214C7DAC120
:102FA300021214C77FC2021214C78AC2021214C7C4
:102FB300EAC3021214C706C4021214C752C402128F
:102FC30014C7C0C4021214C7F2C4021214C70CC53A
:102FD300021214C74EC5021214C7A1C7021214C7A6
:102FE30039C8021214C7B0C8021214C70DCB02129B
:102FF30014C725CB021214C728CB021214C734CB33
:10300300021214C748CB021214C750CB021214C7C2
:1030130087CB021214C77BCC021214C705CD021250
:1030230014C787CD021214C707CE021214C7DECE0F
:10303300021214C700CF021214C799CF021214C789
:10304300F6CF021214C7F9CF021214C726D0021208
:1030530014C73BD0021214C7AAD0021214C7F6D168
:10306300021214C709D3021214C794D3021214C74D
:10307300A7D4021214C76CD5021214C79DD502122D
:1030830014C7C3D5021214C7CCD5021214C7FBD57B
:10309300021214C7ABD6021214C75BD7021214C7AD
:1030A300CED7021214C771D8021214C7E4D8021281
:1030B30014C723D9021214C76CD9021214C7A1D999
:1030C300021214C7E57F001214C7FAFF011214C7D6
:1030D300F0FB051214C7E5FB051214C7D6FB051256
:1030E30014C711FB051214C700FB051214C7F6B56C
:1030F300051214C7D4B3051214C7DFB2051214C7DF
:10310300AABE041214C7CF7F001214C7B87F0012DF
:1031130014C71FBD041214C70EBC041214C7657F65
:10312300001214C7127F001214C756BB041214C72F
:10313300C3B9041214C75FB9041214C77DB60412CD
:1031430014C7A9B5041214C7A9B4041214C7CAB387
:10315300041214C79A82061214C77F82061214C778
:10316300F2A6041214C718A6041214C74EA504121B
:1031730014C7BDA3041214C786A3041214C758A30B
:10318300041214C70CA3041214C775A2041214C7A3
:10319300E5A1041214C7BFA1041214C774A1041239
:1031A30014C73EA1041214C7C1A0041214C75CA023
:1031B300041214C70BA0041214C7339F041214C7BC
:1031C300A39E041214C7579E041214C7847E0012D0
:1031D30014C7D29D041214C72C7E001214C7C47DD9
:1031E300001214C7897D001214C7F1FC051214C71D
:1031F3008BFC051214C708FC051214C78D9D04121D
:1032030014C7719D041214C7199C041214C7EB9BB5
:10321300041214C7DEFE051214C7B89B041214C7A8
:103223003C9B041214C744A7051214C79FA505129B
:1032330014C72CFE051214C7ADA4051214C71296A9
:10324300031214C7F2A3051214C7CDE0041214C766
:1032530074E0041214C73FE0041214C70AE0041216
:1032630014C7D6DF041214C769DF041214C751DF71
:10327300041214C72CDF041214C7FDDB041214C795
:10328300D0D9041214C7D0D7041214C756D70412C6
:1032930014C707D7041214C7C1D6041214C763D6C0
:1032A300041214C71AFE051214C7E497051214C7B3
:1032B3006697051214C73B96051214C7BD940512F1
:1032C30014C7AE94051214C70C880300000080FBDA
:1032D3000000000020115B850000010020115B85C8
:1032E3000000020020115A850000030020115C85B4
:1032F3000000040042116D800000050042117E8031
:10330300000006004211A080000007002011AB80DE
:103313000000100042118F80000011002011F70BF4
:10332300000000404211A080000000804211D281C1
:10333300010020002011DC1C010021002011DD1CF4
:1033430006000000101100000700000030330000E9
:103353000700100030330000070001402033000055
:103363000700024020330000080000002033000063
:103373000C005500393300000C001C0042330000E0
:103383001200550021010000000400002104000088
:1033930002040000290400000304000029040000C3
:1033A30005040000290400000C0400003904000097
:1033B3000D040000390400002A0400003904000051
:1033C30002070000290400000207000218056085B7
:1033D3000207000330050000020701032205E98408
:1033E300020702032205ED84020703031801618526
:1033F3000207060318010000040B00001B05D1841B
:10340300040B000129050000040B0301290500003A
:10341300040B060129040000040B00022105588552
:10342300040B010221055685040B02022105588570
:10343300040B030221055485040B0402210558855E
:10344300040B050221055085040B00032104000031
:10345300040B000421055885040B010421054C8548
:10346300040B050521050000040B080521050000D8
:10347300040B0B0529040000040B100528040000AD
:10348300040B000621055885040B0106210556850A
:10349300040B020621055885040B030621055485F8
:1034A300040B040621055885040B050621055285E6
:1034B3000000000000000120AA3200010220AA320D
:1034C30000010320AA3201000420AA3200010500F2
:1034D30000000000060000000000070000310000AB
:1034E3000800000000000000000000000A000000C7
:1034F30000000B00000000000C02000000000D00A3
:10350300000000000E20AA3210010F20AA32100082
:1035130000000000000000000000000000000000A8
:1035230000001300D6210000000000000000150079
:10353300000000001600000000001701D621000063
:103543001801000000001900822100001A008221E6
:1035530000001B00000000001C01000000011D0111
:10356300000000011E00000000001F0126320800B9
:103573002000A8220000210000000000220000001B
:103583000000230000000000000000000000000015
:1035930000000000260000000000270000000000DB
:1035A3002800000000002900962210002A000000D5
:1035B30000002B00000000002C00000000002D0084
:1035C300000000002E00000000002F00000000009B
:1035D3003000A02110003101000000003200000083
:1035E3000000330000000000341AEE300200350002
:1035F300000000003600000000003700000000005B
:103603003800000000003901000000013A0000000A
:1036130000003B00000000003C206C1900003D004E
:10362300000000008F000100DB1A87000100361D37
:1036330035000400FB1C25000200FF1C26000200CD
:10364300011D27000200031D280001000D1D290094
:1036530001000E1D840004000F1D86000100131DD0
:103663002A000100141D2B000100151D2C00010070
:10367300191D2D000800BE1A2E0001001A1D2F006F
:1036830001001B1D300001001C1D310001001D1D28
:1036930032000100C61A33000100C71A34000100CA
:1036A3001E1D36000100C81A380001001F1D390015
:1036B3000100181D83000200341D63000100D81AA5
:1036C30064000100161D65000100171D6D00010057
:1036D300D91A71000800B61A66000100331D4300B1
:1036E3000100241D44000200251D45000100271D83
:1036F30046000200281D47000800D01A48000100B8
:103703002A1D4B0001002B1D04000100371DA100E1
:1037130001003A1D37000100391D88000100381DE2
:103723003C000100C91A3D000100201D49000200B0
:103733002C1D67000100DA1A4D0002002E1D4E00F9
:103743000100301D4F000200311D3E000100CF1A61
:1037530051000100211D52000100221D53000100F0
:10376300231D54000100CA1A0000000000000001DC
:1037730036360101000102010001030100010401C9
:10378300060605020000070100340801000F0904C2
:1037930001010D0100FF0E080000170200001901CE
:1037A30000FF1A0100011B0100FE1C0100081D029D
:1037B30000001F010001200100012102000023017C
:1037C300000F24020000260100012701000828023F
:1037D30000FF2A0100072B0102402C0100002D01EC
:1037E30000012E0100012F0100FF30010B1D3108E4
:1037F30000003A0100083B01000F3C0100013D01BC
:1038030000FF3E04000042040000460400004A0496
:1038130000004E04000052040000560400005A0445
:1038230000006A0078007E2284228A226C00F00065
:103833002A22302236226B00F000422248228A22BA
:103843006600F000422248228A22670014005422B4
:103853005A22602269001400662272226C22EE2230
:10386300E803EE210C2206226400010000000000A0
:1038730024226300010000000000242262000100F2
:103883000000000024226100010000000000242247
:1038930070000100000000002422010371030103F2
:1038A30001030103010301032203020301031003C4
:1038B30000030003000300030003000300034203AB
:1038C3000003240306030003000304031203250378
:1038D300230325032303040304030003000300035A
:1038E300440300030003230300036503210035039E
:1038F3008103000305030003000300030003250302
:1039030023030300710030016000110070003102D5
:1039130020035004800010006100000014006300C5
:1039230073007200620043000000130006000000F1
:10393300000004001200000000000000000004006A
:103943000400370037003C02440000000000000080
:103953000000650000003500810000000500000044
:103963008300000003027102300160021102700241
:103973000102020202028002100261023A004100C7
:1039830063027302720262024302000213023800EE
:1039930000020002040212020002000200020002FE
:1039A30004020402370037003C02440200023900DB
:1039B30000020002650200023502810200020502D4
:1039C300820283020002010171010101010111015F
:1039D30001013101010101018001100161013B007D
:1039E30014006301730172016201430100011301B9
:1039F30006013D013500040112010001000100012F
:103A0300000104010401330133013C01440132018B
:103A1300360000010001650100013500810100014C
:103A23000501820183010001360001000600000048
:103A33000F0000000000000000000000000003FF72
:103A4300FF00000403FFFF0000FFFF0FF401000568
:103A5300C4040320000100000B000000000000006C
:103A63000003010F00000000000000000000000040
:103A73000000000000000000000000000000000043
:103A8300000000000000AA23E623B023D222B623BD
:103A9300EC23B623F823BC23D222B623EC23C22380
:103AA300D222C823D222CE23D222D423D222DA2373
:103AB300D222E023D2220000000000000000000018
:103AC30000000000000000000000000000000000F3
:103AD30000000000000000000000000000000000E3
:103AE30000000A00000002000000040000000800BB
:103AF30000001000000020000000400000008000D3
:103B030000000001000000020000000400000008A3
:103B13000000001000000020000000400000010031
:103B23003E260200BA250300C0250400C625050071
:103B3300CC250600D8253000F0253300FC253400C1
:103B430002261100082614000E261500EA25FFFFA1
:103B5300000007ECFDFDFDECDCDCCCBCACAC9C9CBC
:103B63008C7C7C6C6C5C5C5C4C4C3C3C2C2C1C1C42
:103B730003EAF5E5D5D5C5B5A5959585857575652F
:103B83006555554545353525251515050A502C022E
:103B9300202C05322C07262C0C082C0D142CFF008E
:103BA3000000160F00000B150B020002220F33005A
:103BB300000E01030507090B0D0F00020406080A96
:103BC3000C0D5A6967426565416C6C69616E63658A
:103BD3003039303017181921301B1D1F3000034AAC
:103BE30049434E181A25050200011916181616180E
:103BF300230300303016181920231A1C1E300039F5
:103C03003D3F373C3C362C442D0C0E020B040B0A73
:103C13000708000F02040201010101090200BE04AA
:103C23000AE80300000E00E803281E0C051E08FF27
:103C330010040409031510030A0C040874F7120E88
:103C43002EE9901BA4F0901B59E4F0121F2A901B3D
:103C5300ADE4F0A3F0901BA5F0A3F0122DB2121F58
:103C630030901AE9E4F0A3F01227A60257AA74ECE5
:103C7300120E2E74D71215DDEAFEEBFF5480606836
:103C8300901BA4E0F9121F968A088B09EA45096084
:103C93004F7C0080010CEC75F003A4F8A9F0748F3D
:103CA30028F582743B39F583E493F4602CE493F8AC
:103CB3008508828B83E06870DCAA08EC75F003A4A6
:103CC300F8749028F582743B39F583E493C0E0746B
:103CD3000193F583D082121076AA08AB09121F84D0
:103CE300EEFAEF64800240D3EF5420601E122CAA38
:103CF3008A088B09EA4509600A122C14AA08AB0941
:103D0300121F84EEFAEF64200240D3EEA2E0501FAC
:103D1300901B5EE0640F70117900122BEAE96009D1
:103D2300901CFB121834122C02EE64010240A8EF1F
:103D33005440604F901CEBE064067028740BF090C5
:103D43001D13E0F9750801750900750A00750B006C
:103D5300901B4CE07808121480AA08AB09AC0AAD9A
:103D63000B122890901ACB1212F97A007B40901B09
:103D7300A4E0F91220FE74041214F9EEFAEF644081
:103D83000240D3EE542070030240AC7A207B0090B3
:103D93001BA4E0F912210AEA4B4C4D701A901BA99F
:103DA30012184CE8494A4B700E750C01750D0075DD
:103DB3000E00750F008061750C00750D00750E0007
:103DC300750F0012211C8A088B098C0A8D0B901B1E
:103DD300A912184CE8494A4B602A901BA97808128B
:103DE300149F400E750CFF750DFF750EFF750FFFC9
:103DF300801285080C85090D8C0E8D0F901BA978F8
:103E03000C1215AF7401780C12157EE50C450D45A7
:103E13000E450F7003023FD97C0079047A007B00C2
:103E2300122C868A088B09023F0085188285198324
:103E330074FFF0740112186F74FFF0740212186F9C
:103E430074FF124C99FAA3E0FB74031215A7126DC9
:103E5300451265B6122CC8E964016003023EE2E52F
:103E630008125BA21253E94480F8A3E0F974241208
:103E7300186FE8F0A3E9126521A3A3A3E0C0E074DF
:103E83002612186FD0E0126B37A3E0540860167443
:103E93002412186FA3E044011240EBC0E07428120F
:103EA300186FD0E0F01279303509126E43601812A2
:103EB30079301264D7A3E0C8127C47E0F874121279
:103EC300186FE8F0A3E4F090849D1212F9740412C1
:103ED30015A7740712159F1228C074041214F985CC
:103EE3000882850983A3A3A3A3A3A3A3A3A37406FF
:103EF3001240EBF9122C68850A08850B09E5084581
:103F0300097003023FD97C007904AA08AB09122C7B
:103F1300868A0A8B0B850882850983A3A3A3A3E062
:103F2300F510A3E0F511E4F512F513780C791012EE
:103F330017BC4029E5082404F8E43509F9850C1079
:103F4300850D1188828983C3E09510F0A3E0951154
:103F5300124434F8A3E0F9E849709C800E85088286
:103F6300850983A3A3A3A3E4F0A3F08508828509AD
:103F730083A3A3A3A3A3A3A3A3A3A3E0640185088B
:103F830082850983A3A3A3A3A3A3702BE054046096
:103F930003023E2D850882850983A3A3A3A3A3A3BC
:103FA300A3A3A37406F07AB7850882850983124216
:103FB30020122BFC023EFAA3A3A3A3E06003023E5C
:103FC3002D850882850983A3A3A3A3A3A3A3A3A3E6
:103FD3007401F0023EFA122C567C0079017A007BC0
:103FE30000122C868B09EA4509600C7A207B00902D
:103FF3001BA4E0F9121FC0850C0A850D0B7C007908
:10400300047A007B00122C86EA4B701580538A8257
:104013008B83A3A3A3A31276DBE50898E509994054
:10402300078A828B831258157C007904122C868BA5
:104033000DA90DEA4970D7C3E50A9508E50B950963
:104043005013C3E508950AF508E509950BF509E54D
:1040530008450970167A207B00901BA4E0F9121F13
:10406300C0901BA91240E4A3F08037E50825E0F5D2
:1040730008E50933F509E4F50AF50B780812151478
:104083007A207B00901BA4E0F91220F87404121428
:10409300F912211CEAF8EBF9ECFAEDFB901BA912DB
:1040A3001858EE6420FAEF8027EF5402600A122DAD
:1040B300ACEEFAEF64028018EF540460161269F84C
:1040C3007901901B571265B81228D2EEFAEF6404F7
:1040D300FB80047A007B0074291214F97F0C02110F
:1040E300B0E4F0A3F0A3F022126525A3E022C0827E
:1040F300C08374EA1215DD7C167D007900AA18AB23
:1041030019121F6C740812186F7402F0901B4D1271
:104113006D56124134740912186F126C64741312C1
:10412300186FE412694812279A74161214F902657B
:1041330098E8F0A3E9F0901B571260352274F71248
:104143000E2E74DA1215DDEAFEEBFFEE4F602DAC96
:1041530018AD19122CC8740612186FE0601E74177C
:1041630012186FE0FD740112186FE0FCEEFAEFFB1A
:104173007900122BC0E9600479A4800279007426C7
:104183000257A774F7120E2EEAFEEBFF8E828F837F
:10419300A3A3A3A3A3A3E05440601712769F1265C1
:1041A300B8122D58E960067AFF7BFF801512769FBF
:1041B3008003901B4D1265B874FE6A700374FF6B25
:1041C300604712769F12726E122D58E98E828F838A
:1041D300600E125CDE125BA238F583E4F0A3800369
:1041E300127C72F07CF07D2B8E828F831265B81265
:1041F30027A0E9F5087015EE4F60097901EEFAEF93
:10420300FB122C62A9080257AA7508CDAA0812420C
:104213001C122BFCE960E080EB8E828F83125CE240
:10422300127C2AE0F92274F6120E2EE9FEEAFF7AD6
:104233000F7B00121F7EEA4B601F8A828B83740CF4
:10424300F0EEA3A3F0EF8A828B83125587901BA411
:10425300E0F9121F8A7900802FEEF9122C8C8A085C
:104263008B09A808A909E849601C88828983A3A34C
:10427300A3A3A3A3A3A3A37406127938E0F9122975
:1042830062EEF9122C68791002690674F4120E2E8C
:104293008A088B098C0A8D0B901B5EE0640F702CCF
:1042A300EA4509450A450B6023901B59E064086001
:1042B30005E06404701678081215147A017B0090E7
:1042C3001BA4E0F91220F874041214F90245607477
:1042D300F4120E2E74FC1215DDEAFEEBFF8E828FB4
:1042E30083A3A3E0F9122C8C8A088B09EA45097091
:1042F3000302440F8E828F83A3A882A983E0C0E0C8
:10430300EA240B1264D4D0E012443464F160288EA2
:10431300828F83A3E064CD601E8E828F83A3E064CB
:104323001A60148E828F83A3E064E9600A8E828F01
:1043330083A3E064E170367900122C62E9602EE514
:10434300082404F50AE43509F50B850882850983F9
:10435300124420A3E0F9850A82850B831265B81203
:104363001F3C850A82850B8312726E806E8E828F4C
:1043730083A3E0C0E0740212186FD0E0124F421220
:104383007CB4124F34C0E0740312186FD0E0F0E530
:1043930008240C1253E6AA18AB1970051228BA8028
:1043A30003122D40740212186FE064E9702D850822
:1043B30082850983124CAE750A01780A121520759D
:1043C3000AE9780A1215201253DC124F241257E916
:1043D3001265B8122CFE74021214F985088285093D
:1043E30083A3A3A3A3A3A3A3A3A3E064027012853F
:1043F3000882850983A3A3A3A3A3A3A3A3A37406EA
:10440300F08E828F83A3A3E0F9122C68122C5690AE
:104413001D01124950122C02740402455DA3A3A38B
:10442300A3A3A312442A22E0FCA3E0FD8E828F8380
:1044330022127948E02274F4120E2EEAFEEBFF7585
:1044430008008E828F83A3A3A3A3A3E0604875080B
:10445300088E828F83A3A3A3A3A3A3A3A3A31265FD
:10446300B879FF122A4C8B0BEA450B601075082CA8
:104473008E828F83A3A3A3A3A3E0D2E0F08E828FC7
:1044830083A3A3A3A3A3E0540364016003024559D8
:10449300430811024559EE2418125A9E6038EE243F
:1044A3001A125A9E6003F470131275C57003A3E0C9
:1044B300696003024559750822024559EE241B120F
:1044C30074ADEE241A125A9EFAEE2419125A9EF96A
:1044D3001229500245598E828F83A3A3A3A3A3A3BA
:1044E300A3A3A31265B8122D58E9640270037508DB
:1044F300011275C57003A3E0697006E508D2E1F502
:1045030008E50860158E828F83A3A3E07006E50893
:10451300D2E58004E508D2E6F5088E828F83A3A353
:10452300A3A3A3A3A3A3A31265B8122D58E96401FF
:104533007006E508D2E0F5088E828F83A3A3E060BE
:1045430015EE241D1258FCF9122D46E9640160068C
:10455300E508C2E0F508A90880031214F97F0402F4
:1045630011B074F0120E2E74D71215DDEAFEEBFFB4
:104573008E828F83A3A3A3A3E06011901CFF126E0E
:10458300456009901CFF124950122C027403121546
:10459300A78E828F83A3A3A3A3124F151265B8120C
:1045A3002CC8E970030246FE7801740512186FE007
:1045B300C3940240027800740712186FE0C3940298
:1045C30040027800740C12186FE064F87003A3E0E3
:1045D300F470030246FE740C12186FE064F9700362
:1045E300A3E0F470030246FE740C12186FE064FA41
:1045F3007003A3E0F470030246FE740C12186FE01C
:1046030064FB7003A3E0F470030246FE7406121801
:104613006FE0F9901B47E06960030246FEE8A2E001
:1046230040030246FE742712186FE060030246FE41
:10463300EE241312602B742212186F126B1F241CAA
:1046430012602B741012186F126C64740912186FB5
:10465300E0601F741A12186FE0FD740412186FE003
:10466300FC8E828F83A3A31265B87901122BC0E954
:10467300703D740312159F122C0EE9F5087409128C
:10468300186FE0702E901B41E06028742255086477
:104693002260207442550864427014742012186F0B
:1046A30012495C600E742012186F12493960047A43
:1046B300CF804AE9A2E6504D742012186F125902B6
:1046C30024FD600F14600C24FD600824FD600424A5
:1046D300FE7028742012186F124932700E74201263
:1046E300186F1268B0A3E0640D601A740312159F6B
:1046F300122D70E96401700D0249257AD37B0012F3
:104703002596024925EE242DF582E43FF583124CCC
:104713008C7003A3E06970227509007809121520D3
:104723007809121520EE242F125A9EF912494012CD
:1047330065B2122CFE74021214F9740912186FE098
:1047430070030247E11249401265B2122DD68A0A5C
:104753008B0BEA450B700302487E740412186FE05A
:10476300F88E828F83A3A3E028F8A3E03400F9E84E
:10477300240D12492AF88A828B83A3A3A3E06860DD
:104783000EE88A828B83A3A3A31255801240E57996
:1047930004E912186F124F0CE02AF8A3E0340088E2
:1047A30082F583A3AA82AB83121F728A0C8B0D8CB2
:1047B3000E8D0F850A82850B83A3A3A3A3780C1206
:1047C300149F40030249259083F1780C1216BD858E
:1047D3000A82850B83A3A3A3A3780C121809901B49
:1047E30059E064046008E064096003024925E508B0
:1047F300A2E540030248B8EE242F125A9E85188280
:10480300851983F0EE2430125A9EC0E07401121809
:104813006FD0E0F0EE2431125A9EC0E074021218F9
:104823006FD0E0F0741412186FE06401702C740EF2
:1048330012186F1253F62413125A9E687003A3E0E2
:10484300697017740C12186F1265B8122D58E96449
:10485300027007741412186FE4F0EE2425F582E455
:104863003FF5831212F974041215A7740712159FEA
:104873001228C074041214F9024925901B9EE064A7
:104883000160030247E1742012186F12495C70093A
:10489300E508A2E650030247E1741012186FE0F432
:1048A3007003A3E0F4607BEEFCEFFD740312159F2D
:1048B300122C1A806DA2E65069742012186F126DC3
:1048C3002C7016741A12186FE06402705574031278
:1048D300159F7900122D3A8049742012186F1249DE
:1048E300397014741A12186FE0640470357403126B
:1048F300159F122D2E802B742012186F12493270BF
:104903000C7900740312159F122D7C8015742012EC
:10491300186F1268B0E0640C7008740312159F12CC
:104923002D94742902540DF582E439F583E02212A3
:1049330076A9E06403221276A9E0640722EE242B11
:10494300F582E43FF5831274B7EE241322E0F508F1
:10495300A3E0AA08FBE4FCFD2212580564062274B6
:10496300F4120E2EEAFEEBFF8C088D09901AC6E0B6
:10497300600F1275C57003A3E069700512293E80AC
:104983005A79008E828F83A3A3A3A3A3A3A3A3A374
:104993001265B812296E8A828B83E5824583603360
:1049A300A3A3A3A3A3A3E054186028E508241C121F
:1049B30064D41212FDE50824131264D41212FDEE1E
:1049C3002418125A9EF912659F1229807404121436
:1049D300F98008790012659F12294402456074F733
:1049E300120E2E74F71215DDEAFEEBFF901B59E051
:1049F3006403600DE064016008E064096003024A37
:104A0300F98E828F83A3E06003024ABF7C007D009E
:104A13007A027B00121F361276E58A828B8312603C
:104A230031901B4A126C647953122788901B59E00A
:104A330064096009901B571265B8122DD08518823E
:104A430085198374011269487942122788901B598A
:104A53007404F0740112159F794A122782740112AB
:104A630015A77A4F7B1B1221B8901CEBE0640B70E7
:104A7300057406F0800B7900901B571265B8122855
:104A8300D2901B4A1274B37A037B00121F36901B19
:104A93004D1274B37A047B00121F36901B44E0A2BC
:104AA300E35004D2F08002C2F012693E7952122719
:104AB30088901CFB121834122C028037FC7D007A7C
:104AC300037B10121F36901CEBE0640B7003740A17
:104AD300F0901D21E4F0FA7B40901BA4E0F9122131
:104AE300048E828F83124B001265B81228D2901B5A
:104AF30059E4F0122C4474090257A7E0F8A3E0F933
:104B0300901B5722C082C083901AE9126E45701F12
:104B1300901B59E014600924FC600A14600C800F98
:104B2300901AF38034901AEF802F901AF1802AE8BC
:104B3300496008901AEA124F1E700C8A828B83A375
:104B4300E0F91228C6801D901AE9126D32640270D2
:104B530005122DA0800E901BC8126E4560061268C8
:104B6300B112107602659874F4120E2E74FE1215AB
:104B7300DD8A088B097A007B04901BA4E0F91221DB
:104B830004AA18AB1979501227827A0F7B00121FDF
:104B93007E8A0A8B0BAE0AAF0BEE4F60208508822C
:104BA300850983A3E07016901B57E0F47003A3E01C
:104BB300F4603B124C867003A3E069603185088280
:104BC300850983A374EA124F3A1227887A4D7B1B17
:104BD300794B1227887A577B1B79501227887A4C96
:104BE3007B1B79E1122788EE4F7003024C7A8E8289
:104BF3008F837402F0901B57E0F47003A3E0F4601A
:104C03000A124C867003A3E069704F8518828519D8
:104C130083124AFEE8F0A3E9124F3A122782901B4F
:104C23004A1253FB126C647A4D7B1B794B12278219
:104C33007A4C7B1B79E1122782750A00780A1215D8
:104C430020780A121520901CE0124B0112515B12BE
:104C530065B8122CFE74021214F985088285098343
:104C6300124C7FA3F0901B597403F0EEFAEFFB9004
:104C73001BA4E0F9121F8A740202455DA3E08E8231
:104C83008F8322851882851983126035901B57E024
:104C93006822E8F0A3E9124C9D22F0850882850979
:104CA30083E022F582E43BF583E022126035E8FAE3
:104CB300E9FB2274F5120E2E74D11215DD8A088BCE
:104CC300098A828B831258F4741C1215A78A828B6B
:104CD30083A3A3A3A3A3A3A3A3124F241265B81270
:104CE3002C4A741C12186FE0702C85088285098386
:104CF300A3A3A3A3A3A3A3A3E0C3940B40188E82EF
:104D03008F83A3A3A3A3A3A3A3A3E06402700712A7
:104D13006C50E0F46003024F07901B59E06402708B
:104D230003024DEEE064067003024DEE901AE912A1
:104D33006E456008124F1E7003024E1E901B59E011
:104D430064086008E064046003024F07741E1218CD
:104D53006F124F0CA3A3A3A31258F4901AE9E0F81F
:104D6300496007126D3864026077901B57E06E70DC
:104D730003A3E06F6003024F0774016A6016742394
:104D830012186FAC82AD837A6B7B1B1221B2E96080
:104D930003024F077A007B02901BA4E0F912210A59
:104DA300EA4B4C4D6003024F07901B5A12184C8577
:104DB3001882851983121858901B60E0C0E07404B0
:104DC30012186FD0E0F0740512186F7401F07406B6
:104DD30012186F7402126948122884E96003024FA3
:104DE30004EEFAEFFB122D9A024F07901AE9126EA6
:104DF30045702875080078081215207808121520C8
:104E0300EE2410F582E43FF583124F15A3124420DC
:104E13001265B8122CFE74021214F98E828F83125B
:104E23006031740712186FE8F0A3E912540112609D
:104E330031740912186F126B1F125FCAC0E0740B32
:104E430012186FD0E0124F34F508A3E0F509740F80
:104E530078081217FA740C12186FE508F074201210
:104E6300186FE0C0E0740D12186FD0E0F0742212D6
:104E7300186FE0C0E0740E12186FD0E0F0741D12CA
:104E8300186FE0C0E0741012186FD0E0F0741E12B7
:104E9300186FE0C0E0740F12186FD0E0F0EE24102A
:104EA300125A9EC0E0741112186FD0E0F0742112F0
:104EB300186FE0C0E0741212186FD0E0F0742E1275
:104EC300186FE0C0E0741312186FD0E0F07423126F
:104ED300186FA982AA8389088A09750A00780812BB
:104EE30015187C087D00741712186FAA82AB831201
:104EF3001F6074031214F9740712159F1228CC80D3
:104F03000312288A742F025906E0FA8E828F83A334
:104F1300A322E0F98E828F83A3A322126D39640149
:104F230022E0F98A828B83A3A3A3A3A3A3A3A3A3AE
:104F330022F0126C54E022F07A4A7B1B795322123E
:104F43004F4622F08518828519832274F2120E2EA1
:104F530074F81215DDEAFEEBFF8C0A8D0B890D90B8
:104F630083B6AC18AD197408121420750C00EEFC4E
:104F7300EFFDAA18AB191221B2E97003750C019069
:104F83001BA5801AEEFCEFFDE508240BFAE43509B6
:104F9300FB1221B2E97023E50824141264D4124FE2
:104FA300D36024E50CA2E040DB850882850983E019
:104FB300650A7004A3E0650B70DD850882850983AB
:104FC300A3A3E0650D70D0AA08AB09740802559B32
:104FD30012581DE508450922C082C083901BA50213
:104FE300659574F7120E2E901BA5127956800C123C
:104FF30070A31258F712202CEEFAEFFBEA4B70EF76
:10500300901BA5E4F0A3F00257AA74F1120E2EEA46
:10501300FEEBFF890A8C088D098E828F83E08C82D8
:105023008D83125FF9AE82AF83E012633E12654552
:10503300C412633E1250CCE0126345126543A2E2F0
:10504300E4338C828D83126542131313541F12634E
:105053003E126541A2E7E4338C828D83A3A3A3A30D
:105063001250CC8E0C8F0D750E00780C1215187C17
:10507300087D00E5082407FAE43509FB121F607474
:10508300031214F9EE2408FE50010F8E0C8F0D78D5
:105093000C1215187C037D00E508240FFAE435098A
:1050A300FB121F6074031214F9E50AC3940F401135
:1050B3008E828F83A3A3A3E0C0E01264D0D0E080EC
:1050C300041264D0E4F00276E0A3A3125FFD0EAFF6
:1050D300832274F5120E2E8A088B098A828B83A38E
:1050E300AE82AF83E0F91228EA8E828F83E064EB0D
:1050F3006024850882850983A3E064E1601885083C
:1051030082850983A3E064F1600C850882850983A5
:10511300A3E0641A7009850882850983A3E4F090EB
:105123001CFB121834122C02750A01780A1215207E
:10513300850882850983A3E0F5087808121520798C
:1051430000901B5712515B1265B8122CFE740212A9
:1051530014F9122C560259091274B7901B4D22EA06
:10516300F0A3EBF002659874F6120E2E901BA8E0E4
:10517300701B7C0079017A007B00122C86EA4B605D
:105183000C8A828B83126E456003122BF60269062A
:10519300C082C0837904122C80E9F8903C2FE493F9
:1051A300C398401079FF122C80E9F8903C2EE493C9
:1051B300C398500479018002790002659874F01253
:1051C3000E2E8A088B09890B750C008A828B83A3A8
:1051D300A3A3A3A3A3A3A3E0F9122C8C8A0E8B0F82
:1051E300AE0EAF0F750A01EE4F60030252BA850887
:1051F30082850983A3A3A3A3A3A31274B3850882FF
:10520300850983A3A3A3A3A3A3A3A3E0F98508828A
:105213008509831265B8122C748A0C8B0DAE0CAF02
:105223000DEE4F70030253D58E828F83A3A3A3A3E6
:10523300E4F0A3F0E508240CFAE43509FB8A828B39
:1052430083E0C0E01253DCD0E0F0E508240D1253F4
:10525300EF240D126C5E122D5EEE240F127268E5C0
:105263000824111253EF2411126C5EE50824131263
:1052730053E6C0E0126B08D0E0F0750C01EE240693
:10528300125FBE547FF0A3E054FC12443454046014
:105293000302532F901D0DE0F5087509007407787C
:1052A300081216F68E828F83A3A3A3A3A3A3E045BC
:1052B30008F0A3E04509F08E828F83A3A31258154B
:1052C300740778081217FAE5085407FCE50B606CBD
:1052D3008E828F83A3A3A3A3A3A3A3A3A374021266
:1052E30065461256C0600B901B451253FBA3A312D5
:1052F3006C64EC70030253A3EE2406127C33547FD8
:10530300F508A3E054FCF509EC24FFF50EE434FFA3
:10531300F50F7407780E1216F6E508450EF8E50941
:10532300450FF98A828B83126C6480748E828F831B
:10533300A3A3A3A3A3A3E044800252B9EC70057511
:105343000A00805C8E828F83A3A3A3A3A3A3E0544C
:1053530020600C121F78EA547F7900245F80198E35
:10536300828F83A3A3A3A3A3A3E05410601A121FE5
:1053730078EA540F7900240A5001098E828F83A39F
:10538300A3A3A3F0A3E9800D8E828F83A3A3A3A37A
:105393007401F0A3E41254017404125643121FC0A3
:1053A300E50CA2E0502F8E828F83A3A3A3A31270D8
:1053B30029E0F9EEFAEFFB122C7AE96018126E3C41
:1053C3006009EE240F1265B212202CEEFAEFFB12E5
:1053D300202C750A00A90A8034EE240CF582E43FE0
:1053E300F58322F582E43509F583E022F582E4357D
:1053F30009F583126035EE22127709A3A322125412
:105403000522126281A3A3A3A3221214F97F080227
:1054130011B074F4120E2E74F71215DD7E00122CE7
:105423008CEA4B70030254DB8A828B83A3A3A3A36E
:10543300A3A3A3A3A3E0640660030254DB8A828BC5
:1054430083A3A3A3A3A3A3A3E0FF8A828B83127CDA
:1054530057E0C0E0740812186FD0E01257FCF8A3AD
:10546300E0F9851882851983126C64122C9EEF541F
:105473000860638518828519831274B37A007B00F0
:10548300122C6E8B0BEA450B704C127CA61227B2C2
:105493007C007D007A007B0080288E828F831259E6
:1054A30002F47003A3E0F4602D901B5712442612FC
:1054B30065B81227ACE9641A601C7C007D00EEFA23
:1054C300EFFB122C6E8A0A8B0BAE0AAF0BEE4F70FA
:1054D300C979001227B87E01EEF9740902455DC04F
:1054E30082C083EA4B7005901BAD80068A828B8352
:1054F300A3A31256F860208A828B83A3A3A3A3A33A
:10550300A3A3E0540860E5EC4D60101256FF70034E
:10551300A3E06D70D780047A007B0002659874F273
:10552300120E2EEAFEEBFF890A8C088D097A147B92
:1055330000122026EA4B603A8A828B83A3A3A3A39B
:10554300A3A3A3A3A3E41257F1A3E50A1276B0A37E
:10555300127CB212558012580F1255878A828B83A0
:105563001276CDEA1279323BF583E4F0125577F0E7
:10557300A3F08027A3F08A828B83A3A3221276C48D
:10558300E4F0A322A3F01255923BF583E4F022EA60
:1055930012692D22A90A74031214F97F060211B0AD
:1055A30074F4120E2EEAFEEBFF89088C0A8D0BEEC3
:1055B3004F700302563E7401650870127901122C74
:1055C30080E9F8903C31E493C39850228016740428
:1055D300650870147904122C80E9F8903C2FE49349
:1055E300C398500A7911805574026508704D8E82F4
:1055F3008F83A3A3A3A3A3A3A3A3A3E508125FF984
:10560300A3127307E4F0A3F0901BAD126E45601A6A
:105613008003E0F8A3E0F988828983A3A31256F8F4
:1056230088828983A3A370EA8003901BADEEF0A365
:10563300EF125643121FC07900800279C102456000
:10564300F07A207B00901BA4E0F922C082C083E99A
:10565300F87900901BAD801D8A828B83A3A3A3A33B
:10566300A3A3A3A3A3E068600574FF687001098A7C
:10567300828B83A3A31256F870DE02659874F71227
:105683000E2EEA4B7005901BAD80068A828B83A396
:10569300A31256F860208A828B83A3A3A3A3A3A398
:1056A300A3A3A3E06970E4EC60108A828B83E01209
:1056B30056C070D780047A007B000257AAF8A3E093
:1056C300C8127C7EE0540422C082C083901BAD804C
:1056D300068A828B83A3A31256F860128A828B8375
:1056E300A3A3A3A3A3A3A3A3E06970E580047A0003
:1056F3007B00026598127956FBEA4B221258016C23
:105703002274F2120E2E8A0A8B0B8C0C8D0D7508E7
:1057130000750900EA450B6030901BAD80068E8250
:105723008F83A3A31258F7EE4F601EAC0CAD0DEEA2
:10573300FAEFFB850A82850B83121076E964017008
:10574300DDEEF8EFF988088909AA08AB0902559E2E
:1057530074F7120E2E901BAD1260317C007D008019
:105763000DE8FCE9FD88828983A3A3126031E8492F
:105773006030EA687002EB6970E7901BAD1265B8A0
:10578300E86A7002E96B88828983A3A370081260B8
:1057930031901BAD80091260318C828D83A3A312DB
:1057A3006C6480031214F97F010211B074F7120EB6
:1057B3002EEAFEEBFFEE4F602B122C9812582512A7
:1057C30065B612202C8E828F831265B812202C129C
:1057D3006E3C6009EE240F1265B212202CEEFAEF34
:1057E300FB12202C80C11274B78A828B832212573A
:1057F300F5221276C8A3A3A322F0125801228A82AB
:105803008B83E0F8A3E0F5838882E0221257F5A3A7
:10581300A322A3A3A3A312581D22E0F508A3E0F536
:1058230009228E828F83125CE2125CD83822C082F6
:10583300C083EAFCEBFDEC4D6017EC24FBF582ED35
:1058430034FF126E43700712588BE0F46007121F87
:105853008479058030901BA4E0C0E012588BD0E01F
:10586300F0903C3BE493F97AAF7B1B121FBAE964D7
:105873000170107A007B20901BA4E0F9121FC079FD
:105883000080027904026598EC24FFF582ED34FF71
:10589300F5832274F4120E2EA2AFE433F508C2AFDF
:1058A300901BAF1258F7EE4F603AEE24FBF582EFF0
:1058B30034FF126E437A007B20901BA46007E0F94B
:1058C300121FC08005E0F9121FC6E4F50AF50B7834
:1058D3000A12151CEEFCEFFD7AAF7B1B121FB4748A
:1058E300021214F9E508A2E092AFEEFAEFFB0245CB
:1058F30060A3A3A312731FFF22F582E43FF5831273
:105903005805221214F97F030211B074F2120E2EFD
:1059130074FA1215DDEAFEEBFF750AFE750BFF1232
:105923002C5CE960057911025A96EE2415125A9EF1
:105933006035901D2BE0C43354E0F8E0333354FC5E
:1059430048C0E0126247D0E0127C87FAA3E0FB79FB
:10595300FF122A4C8B09EA4509600C750AFF126B8A
:105963000C1269F2D2E0F08E828F83A3A31265B882
:10597300122D58E96006EE2412126915EE24131253
:105983005A9E700D903C2DE493C0E0126B08D0E05A
:10599300F08E828F83E0A2E7500454038019EE2433
:1059A30014125A9E7012901B36E0C0E0125FB4D0FE
:1059B300E0F0901B36E004F0125A9B6401701690DD
:1059C3001D16E0600D901B41E0700A8E828F83E00C
:1059D30070031269128E828F83E064017011EE24CA
:1059E3000B1258FC64027007125AB2E04440F0AC48
:1059F30018AD19EEFAEFFB122CC28A088B0974FE5C
:105A0300650A700374FFF4700D8E828F83A3A3E085
:105A1300F50AA3E0F50BEA450960748E828F83E0F3
:105A2300C0E0740112186FD0E0F0740412186F1202
:105A330076CDEE241E12602B740212186F126C6462
:105A43007401121597880C890D780C12151CEE241D
:105A530020125AA6121520125AB21212FDEE240E6B
:105A6300125AA6121520901B4A1212FD740812181E
:105A73006FE0F9AC0AAD0B122CBC74081214F9E9EF
:105A8300FE74106E700BAA08AB0912202C80027EE4
:105A930010EEF9740602559BEE2411F582E43FF5EE
:105AA30083E022F582E43FF583E0F50C780C22EEE7
:105AB300126B1422C082C08374D71215DD9082AE9C
:105AC30074031215A774261214208A828B83A3A34E
:105AD300A3A3126031740E12186FE8F0A3E91255F4
:105AE30078126031740C12186F125BA8125BA21249
:105AF3004CA9C0E0741A12186FD0E0F01270AD1206
:105B0300602F742012186F125BA82415124CA6C0C4
