:100000004343313378325231FFFFFFFF0301F7FFE3
:10001000FFFF0701FFFFFFFFFFFFFFFFA80000003A
:10002000303030319F6203002C00FFFF01F7FFFFEB
:080030000000000000000000C8
:1000A800004002203D5C030039FB021039FB0210BE
:1000B80039FB021039FB021039FB021039FB021020
:1000C80039FB021039FB021039FB021039FB021010
:0C00D80039FB021039FB021011FB021072
:1010000001000000000000000000000000000000DF
:10101000FFFFFFFFE82D002004000000000000009B
:10102000000000001400000064160000180000001A
:10103000D0140000C0100000542D00200400000057
:101040000000000000000000240000005015000017
:1010500018000000F9F9020008000000B0110000BB
:1010600074100000C1C8021001BB021091EB021005
:10107000DDE5021081E00210B9E5021071E5021011
:101080003100000001000000010000007C1600009B
:1010900000000000FFFFFFFFC02D00200400000043
:1010A0000000000000000000280000003C160000C6
:1010B000240000001E0000001800000000000000D6
:1010C00028130000D41000009BEC021025E202104F
:1010D00005EB021025DE0210FDE10210E1E4021032
:1010E0002F00000034000000240028000000000051
:1010F000342D0020FFFFFFFF082E00200400000019
:10110000000000000000000038000000F0160000A1
:101110002800000001000000100000000000000096
:1011200000000000F7F1021000001A00100000009B
:101130000400000054170000E667010008000000EA
:1011400036000000C82D0020102E002009001D00D0
:101150006F1701005C2D002001000000000012004C
:10116000FFFFFFFFF82D002004000000000000003A
:101170000000000010000000B4160000180000007D
:101180000000000000001300FFFFFFFF702E002092
:1011900004000000000000000000000054000000F7
:1011A000181700003C000000000001002D000000A6
:1011B00004100000FF50010030000000000000009B
:1011C000B0110000D811000091350300D9DB0210E6
:1011D00059EC0210CDD6021085DE02104DE502104A
:1011E00029E5021030000000000016000000000099
:1011F00000000000FF7F0000782E0020FFFFFFFFAF
:10120000F02D00200400000000000000000000009D
:1012100058000000801600003400000039FB021066
:1012200001002F0006000000000000002000000068
:10123000010000001BF80210280000002813000025
:101240005012000093EC02106DEB02104DEC0210F6
:1012500029E00210BDE4021099E402102D00000004
:10126000000000009C2D0020040000000000000091
:101270000000000010000000681500002C000000B5
:10128000000000000000030000000F003C00000010
:1012900000000000000000002FF902101000000004
:1012A0000800000064170000FFFFFFFF002E002071
:1012B0000400000000000000000000001C0000000E
:1012C000CC160000240000003C1200004C2D002031
:1012D0000400000000000000000000000C000000FE
:1012E000D814000018000000B358010000000000EE
:1012F00000000000080000000100000004000000E1
:10130000000000000000140000000000383200005F
:10131000000019000000180024000000755D0300A3
:101320000040000000020000041000000000100057
:1013300055F002100C0000002FFA0200000000001F
:101340002C2D002004000000000000000000000020
:1013500020000000A0140000300000005032000007
:1013600001000000EFFA0200771A010000000000FF
:101370000000170000020000310000000000230000
:101380000000150001000000C0110000B82D002071
:101390000400000000000000000000002000000029
:1013A0001816000024000000D4FC0200AC2D002020
:0813B000200000007817000086
:1013C00071F9020083FB020087FB02008BFB020025
:1013D0008FFB020093FB020097FB020061340300C5
:1013E000153503001D340300115D0300F35C030099
:1013F000ED340300F9340300435D03004935030075
:10140000C9360300DD36030001280000000000009B
:10141000000000000001003000000000000000009B
:101420000003FF186400000000000000000000003E
:101430007856341200000000BAAB00000000000132
:10144000000000000000000000008001100080FF8C
:10145000FDFF58003AC1B9F3FFFFFFFFFFFFFFFF99
:10146000FFFFFFFFFFFFFFFFFFFFFFFFFFFFFFFF8C
:10147000FFFFFFFFFFFFFFFFFFFFFFC5FFFFFFFFB6
:1014800000FFFFFF00C5C5FF000000FF00000000D7
:10149000FFFFFFFFFFFFFFFFFFFFFFFFFFFFFFFF5C
:1014A000300000000000000000000000C814000030
:1014B000040000000000000001000000FFFFFFFF2B
:1014C000FF00000001000000080000000000000014
:1014D00000000000000000001800000000000000F4
:1014E00000000000E81400000800000000000000F8
:1014F0001000000028130000081500006D5D0300B7
:101500007DFD020005FD0200B9FB02000DFC02009A
:101510009DFB02002E000000F4140000942D00201A
:101520000400000000000000000000002000000097
:10153000381500001800000018000000000000002E
:101540000000000048150000080000000000000036
:1015500018000000000000000000000060150000FE
:1015600008000000000000002C0000000000000047
:10157000000000008C1500000400000000000000C6
:1015800001000000FFFFFFFFFFFFFFFF080000005A
:1015900000000000B0110000AC15000091360300FF
:1015A000A1360300BD360300B13603004FFC020034
:1015B00079FC02002DFC02003200000094150000AE
:1015C000A42D002004000000000000000000000026
:1015D00014000000DC1500001C0000001C000000CE
:1015E0000000000000000000F015000000000000F6
:1015F0000800000000000000010000003356000059
:10160000715D0300A7B60000375600003B5600008E
:10161000275600004556000024000000000000008E
:101620000000000034160000000000000000000070
:10163000000000000800000000000000240000007E
:10164000000000000000000058160000000000002C
:101650000000000000000000080000000000000082
:101660000A00000018000000000000000000000058
:101670007416000008000000000000001582000041
:10168000340000000000000000000000AC16000064
:101690000000000000000000010000000000000049
:1016A0000100000000000000000000000800000031
:1016B0000000000018000000000000000000000012
:1016C000C416000008000000000000002400000014
:1016D0000000000000000000E8160000000000000C
:1016E00001000000000000000800000000000000F1
:1016F000280000000000000000000000101700009B
:101700000000000000000000FFFFFFFF00000000DD
:1017100008000000000000003C0000000000000085
:10172000000000004C170000000000000000000056
:1017300001000000000000000000000000000000A8
:101740000000000001000000000000000800000090
:101750000000000069FB020025DD0210F5330300E4
:1017600075DF021001000000000000000000000012
:10177000000001000000010015F9021001E602104E
:101780002DDA021045E7021041D10210C9D3021030
:10179000A5DF02102DE4021061EA02104D360300AD
:1017A00005000600080009001600020102020302FB
:1017B000000301030105020500060106040B1406DF
:1017C00015061706000701070207030700090409A9
:1017D00007000A000C000D000E000F0010001100A1
:1017E0001200130014001B0000010101000201029D
:1017F00002040004010403040404050406040005B3
:10180000020603060406050606060706080609067C
:101810000A060B060C060D060E060F06100611062C
:101820001206130604070009000B010B020B030B41
:101830000097B92EE5725CCB5DCAE473B82F0196B0
:10184000BA2D03945FC8E671E7705EC90295BB2CA0
:10185000E3745ACD0691BF28BE2907905BCCE27590
:1018600059CEE077BC2B05920493BD2AE17658CF80
:1018700051C6E87FB4230D9A0C9BB522E97E50C770
:10188000EB7C52C50E99B720B6210F9853C4EA7D60
:10189000B2250B9C57C0EE79EF7856C10A9DB32450
:1018A000089FB126ED7A54C355C2EC7BB027099E40
:1018B000A2351B8C47D0FE69FF6846D11A8DA33430
:1018C000188FA136FD6A44D345D2FC6BA037198E20
:1018D00041D6F86FA4331D8A1C8BA532F96E40D710
:1018E000FB6C42D51E89A730A6311F8843D4FA6D00
:1018F000F3644ADD1681AF38AE3917804BDCF265F0
:1019000049DEF067AC3B15821483AD3AF16648DFDF
:101910001087A93EF5624CDB4DDAF463A83F1186CF
:10192000AA3D13844FD8F661F7604ED91285AB3CBF
:10193000CC8D0020F0850020BC8C002098860020F3
:1019400000000000108A0020D48D00208C8A002026
:10195000CC8C0020C4870020003300003833000006
:10196000483300005433000064330000DC8C002056
:10197000C48E0020C88E0020CC8E0020783000203D
:10198000D08E0020D48E0020D88E0020DC8E002047
:10199000E08E0020EC8C00202C860020908B002014
:1019A000F087002074330000E83300005C3400004E
:1019B000D034000044350000B8350000D0350000B8
:1019C000DC35000005900020688D00207C30002070
:1019D000A88A00202C890020069000200790002073
:1019E00064870020A48B00202C8200200890002017
:1019F000D01F000058200000000000000000000080
:101A0000E8350000D07F0020E48E0020E88E002022
:101A10009030002094300020EC8E0020F83500003B
:101A2000288B0020608300200000000000000000E0
:101A3000DC1B00200000000000000000000000008F
:101A400000000000CC860020A0790020188E002025
:101A5000014A031049480310D549031015470310E4
:101A6000052103005D49031081470310A1460310BF
:101A70009548031045450310254A031021440310DF
:101A8000ED47031099490310E14803102149031061
:101A90005553031089520310CD52031065500310A3
:101AA0008D4E03109D16030087170300051A0300CF
:101AB0000000000059510310ED500310A51B030056
:101AC000CD4B03102952031011530310A9550310D5
:101AD0007555031069530310DD5503103555031078
:101AE0005329030021540310855C03100D56031085
:101AF0004D5D0310A9640310B55B03106D5703100F
:101B0000E5610310095E0310C558031085600310DA
:101B100071610310B16203109963031055630310E0
:101B2000FD600310B15E03101F200300D55A03109F
:101B3000D559031009630310D96303101964031006
:101B4000555F0310C56403104D62031071640310E8
:101B50008D64031055640310E164031029750310AC
:101B600079720310A16B0310F57203109D740310BA
:101B7000797403102D74031061730310FD73031047
:101B80005574031015750310D96C0310FD74031000
:101B900019270300E17403103D7503108128030029
:101BA000F9640310CD6803102D710310C174031084
:101BB000F56E0310B973031029670310056E031047
:101BC000C56F03102D2A0300A1770310797D031040
:101BD0003D7E031049750310157E0310357D0310FB
:101BE00099760310997C0310257B031071780310FC
:101BF000B57D0310ED7C0310857E03102D79031055
:101C0000B97A0310917B0310B1790310ED7B0310B7
:101C1000E97D0310617E0310357A0310D57E031031
:101C2000457C0310A57E0310BD7E03105B150300E9
:101C3000D9800310E97E03104983031089840310BF
:101C40008D8103107D820310E58403102B84031023
:101C5000C583031091870310618803104588031022
:101C6000F1850310B18803107D880310C988031023
:101C70001D870310A186031001850310E18803105E
:101C800099880310F9870310EF250300359C031092
:101C9000819D0310E99A0310359B0310C19B03102B
:101CA000419A0310F18803101D8C0310618F0310FB
:101CB000F1940310919E0310C19E03103D9E0310EA
:101CC000699E0310259E0310619D03100D9E031055
:101CD000819B0310ED93031055990310C9970310CE
:101CE000D9980310BD950310959C0310C19D031056
:101CF000A59E03107D9E0310C9910310612503006A
:101D0000699C0310DD9D031095900310FD9B03104B
:101D1000CD990310158E0310019D0310E19C031053
:101D2000219D0310419D0310BD9C0310F59D0310E0
:101D3000A19D031055980310E1920310999A031086
:101D4000B99E0310559E0310191303006713030077
:101D500039A203108B13030069A1031075A20310AD
:101D6000C59E0310B9A10310F9A1031015A103101A
:101D70009DA20310E12A0300E92A0300EB2A0300D5
:101D8000292B03003D2B0300432B030031A9031033
:101D9000ADA203103D1E0300B9A8031099A50310BE
:101DA0003719030039A803106DA903104518030063
:101DB0006DAC031099B1031009AF031059B10310B2
:101DC00001B103109DA90310CB21030039180300B2
:101DD00041180300CF210300D32103003D18030065
:101DE000D7210300DB210300DF210300E3210300EF
:101DF000E7210300F1B9031075BA031081BB03108A
:101E0000192D0300512D0300312E0300D12E0300A4
:101E1000BB2F0300F92F03007F300300AD30030018
:101E20000D310300413103006331030081310300B0
:101E3000E33103002F320300373203007132030015
:101E4000F33203000B33030095330300191803002A
:101E5000C3210300C7210300EB2103000124030079
:101E6000E9C60310BF21030045100300B9120300A7
:101E7000B1B600004BB70000E5B6000085E50200F2
:101E800059C70200B5120300AF130300B3130300D8
:101E900021140300B7140300455B00005B5B0000E6
:101EA000415B0000435B0000115B0000795D0300B3
:101EB000855D0300775600009F560000E95800003A
:101EC0007D580000AB5800007D59000069590000A2
:101ED00061570000BD560000A9590000B35700002B
:101EE000DBFD021041200100798C0000255A000022
:101EF000035B0000191A01003F1A0100711A01006A
:101F0000531A0100E33000200C9000200D900020B7
:101F10000B9000200E9000200F900020E430002055
:101F2000CB9300007F870100D1CE01004B760100EA
:101F3000BB7601002DD0010099D00100257701006A
:101F40007376010027760100E77601005DCE01007F
:101F500055CE0100CD4C0200A14C0200B3B80200E6
:101F60002DCE010093CE0100A1CE0100AFCE010025
:101F700043CC010003CA0100A94B0200674C0200D8
:101F8000A12C03009FCF01005DB8020069B80200D8
:101F90000000000025D3010053CE010065D20100EE
:101FA000F7D20100000000003F9400000D84010002
:101FB000DB8A010031CC01000000000000000000BD
:101FC000958F0100C9CC0100714B020075B8020069
:101FD000360001000600000000000000000F0000B5
:101FE00000000000000000000000000000000300EE
:101FF000FFFF00000403FFFF0000FFFF0F00E803E6
:102000000005401F0310000100000000FF3F0F000B
:102010000800050B00000000000000000300010F95
:1020200000000000000000000000000000000000B0
:1020300000000000000000000000000000000000A0
:102040000000000000000000000000000000000090
:10205000AD00000200000000000136360101000161
:10206000020100010301000104010606080400004A
:102070000C0100340D01000F10040101140100FFD8
:102080001608000020020000220100FF23010001C9
:10209000240100FE2501000826020000280100019D
:1020A000290100012A0200002C01000F2E0200006D
:1020B0003001000131010008320200FF3401000745
:1020C000350102FF3601000037010001380100012F
:1020D000390100FF3A01000F3C0200FF3E01010FF1
:1020E0003F0100014001041F41010001420100FFC6
:1020F00043010080440800004E0100084F01000F1A
:1021000050010001510100FF520100005301000085
:1021100054010001580400005C0400006004000049
:1021200064040000680400006C04000070040000F7
:1021300074040000780400007C040000800100FFAB
:10214000810100018201000183010202840100017A
:10215000C3B8010075BB01000000000000000000D2
:102160000000000045C1010063C10100A9C00100D9
:102170007DC10100ADC10100B3C1010085C30100F3
:10218000000000007BC3010095C40100C7BC010032
:10219000B9C10100D9C1010069C2010011C5010026
:1021A0004FBD010015C70100F1C60100000000008D
:1021B00091C7010035BD010039C60100F57A020062
:1021C000077D02004F7B0200F57C0200157D0200B6
:1021D000B77C0200BB7C0200CB7D0200598002006C
:1021E000457E0200398002004B8002009B7E020087
:1021F0009F7E0200E9750100F57501000C2C00209E
:10220000BC2B0020DC2E0000FC2E0000142F000050
:10221000081400002C2F00004C2F000000000000CC
:102220005054564F5349474E310000000000000003
:10223000000000000000000000000000000000009E
:10224000000000000000000000000000000000008E
:10225000000000000000000000000000000000007E
:10226000000000000000000000000000000000006E
:1022700000000000000000003C00100103050709F9
:102280000B0D0F00020406080A0C0DBFFB09707449
:10229000766F2E696E666F202020202020200B7024
:1022A00074766F2E73776974636820202020200075
:1022B000202020202020202020202020202020201E
:1022C0000A323032352D30322D3238010000000014
:1022D00000000000000000000000000000000000FE
:1022E00000000000000000000000000000000000EE
:1022F00000000000000000000000000000000000DE
:1023000000000000000000000000000000000000CD
:1023100000000000000000000000000000000000BD
:1023200000000000000000000000000000000000AD
:10233000000000000000000000000000000000009D
:10234000000000000000000000000000000000008D
:10235000000000000000000000000000000000007D
:10236000000000000000000000000000000000006D
:10237000000000000000000000000000000000005D
:10238000000000000000000000000000000000004D
:10239000000000000000000000000000000000003D
:1023A000000000000000000000000000000000002D
:1023B000000000000000000000000000000000001D
:1023C000000000000000000000000000000000000D
:1023D00000000000000000000000000000000000FD
:1023E0005054564F5349474E320000000000000041
:1023F000000000000000000001200000733A00000F
:102400000001000002200000733A000000010000FB
:1024100003200000733A00000100000004200000C7
:10242000733A0000000100000500000000000000F9
:102430000000000006000000000000000000000096
:1024400007000000235C02000000000008000000FC
:10245000000000000000000000000000000000007C
:10246000000000000A000000000000000000000062
:102470000B00000000000000000000000C02000043
:1024800000000000000000000D000000000000003F
:10249000000000000E200000733A00001001000050
:1024A0000F200000733A0000100000000000000040
:1024B000000000000000000000000000000000001C
:1024C000000000000000000000000000000000000C
:1024D000130000008B540200000000000000000008
:1024E00000000000000000001500000000000000D7
:1024F00000000000160000000000000000000000C6
:10250000170100008B5402000000000018010000B9
:102510000000000000000000190000002D61010013
:10252000000000001A0000002D6101000000000002
:102530001B00000000000000000000001C01000063
:1025400000000000000100001D010000000000006C
:10255000000100001E00000000000000000000005C
:102560001F0100008BDD02000800000020000000B9
:10257000976502000000000021000000000000003C
:102580000000000022000000000000000000000029
:102590002300000000000000000000000000000018
:1025A000000000000000000000000000000000002B
:1025B00000000000260000000000000000000000F5
:1025C00027000000000000000000000028000000BC
:1025D0000000000000000000290000001D100300A2
:1025E000100000002A0000000000000000000000B1
:1025F0002B00000000000000000000002C00000084
:1026000000000000000000002D000000000000009D
:10261000000000002E00000000000000000000008C
:102620002F0000000000000000000000300000004B
:10263000C50103001000000031010000000000008F
:102640000000000032000000000000000000000058
:1026500033000000000000000000000034220000F1
:1026600069E00200020000003500000000000000E8
:102670000000000036000000000000000000000024
:1026800037000000000000000000000038000000DB
:102690000000000000000000390100000000000000
:1026A000000100003A0000000000000000000000EF
:1026B0003B00000000000000000000003C20000083
:1026C0006F4E0100000000003D000000000000000F
:1026D0000000000002040504030400040C000C04C4
:1026E0000D042A04040B02070A0011005054564F2F
:1026F0005349474E33BFFB09002802252000000044
:1027000000FFFFFFFFFF00000000000000000000CE
:1027100000005054564F5349474E34004F41442017
:102720004E564D3100000000000000000000000087
:102730000000000000000000000000000000000099
:102740000000000000000000000000000000000089
:10275000000000005054564F5349474E37000000C8
:102760000000000000000000000000000000000069
:102770000000000000000000000000000000000059
:102780000000000000000000000000000000000049
:102790000000000000000000000000000000000039
:1027A0000000000000000000000000000000000029
:1027B0000000000000000000000000000000000019
:1027C0000000000000000000000000000000000009
:1027D00000000000000000000000000000000000F9
:1027E00000000000000000000000000000000000E9
:1027F00000000000000000000000000000000000D9
:1028000000000000000000000000000000000000C8
:1028100000000000000000000000000000000000B8
:1028200000000000000000000000000000000000A8
:102830005054564F5349474E3800000000000000E6
:10284000000020114E87010000000000010020114F
:102850004E87010000000000020020114F87010098
:1028600000000000030020116F680100000000005C
:10287000040042118D2200000000000005004211FA
:102880009E2200000000000006004211C02200004D
:102890000000000007002011CB2200000000000013
:1028A00010004211AF2200000000000011002011B2
:1028B000DB8F00200000000000404211C022000019
:1028C00000000000008042115D27000001000000B0
:1028D00020002011B2300020010000002100201152
:1028E000B33000200300000000002103B48F00205B
:1028F00006000000000010110000000007000000AA
:1029000000003033000000000700000010003033EA
:10291000000000000700000001402033000000001C
:102920000700000002402033000000000800000003
:1029300000002033000000000C0000005500393377
:10294000000000000C0000001C00423300000000EA
:1029500012000000550021010000000019000000D5
:102960000000F081FC2800201900000001002381F4
:102970000429002019000000020023010C8E002011
:102980001900000003002181A03000201900000080
:10299000040023810829002019000000050021817E
:1029A000A23000201900000006003081D98F0020DD
:1029B0001900000007002101B08F0020190000005D
:1029C00008002101AE8F00201900000009002181BC
:1029D000AC8F002019000000FDFF2181DE3C0000CB
:1029E00000040000000021040000000002040000B8
:1029F0000000290400000000030400000000290476
:102A00000000000005040000000029040000000090
:102A10000C04000000003904000000000D04000058
:102A200000003904000000002A04000000003904FE
:102A30000000000002070000000029040000000060
:102A40000207000000021805027A020002070000D7
:102A5000000330050000000002070000010322050A
:102A6000C02B00000207000002032205C42B000057
:102A70000207000003031801FB4F020002070000D9
:102A80000603180100000000040B000000001B05F5
:102A9000BC2B0000040B0000000129050000000011
:102AA000040B00000301290500000000040B0000D6
:102AB0000601290400000000040B000000022105AB
:102AC0008A3E0000040B000001022105D2400000F4
:102AD000040B0000020221058A3E0000040B0000E6
:102AE000030221059A4F0000040B00000402210597
:102AF0008A3E0000040B000005022105665C000010
:102B0000040B00000003210400000000040B00007F
:102B1000000421058A3E0000040B00000104210589
:102B20006E5C0000040B000005052105000000009C
:102B3000040B00000805210500000000040B000044
:102B40000B05290400000000040B000010052804F8
:102B500000000000040B0000000621058A3E000072
:102B6000040B000001062105D2400000040B000008
:102B7000020621058A3E0000040B00000306210521
:102B80009A4F0000040B0000040621058A3E000055
:102B9000040B00000506210542540000050B00004F
:102BA000010021020000000001000401FEFF0000FE
:102BB00000000000000000000000000021000000F4
:102BC00001000000E80300000000C8420A00000005
:102BD00002000000040000000800000010000000D7
:102BE0002000000040000000800000000001000004
:102BF00000020000000400000008000000100000B7
:102C00000020000000400000E8030000D0D1D2D333
:102C1000D4D5D6D7D8D9DADBDCDDDEDF5A69674216
:102C20006565416C6C69616E636530396A00780076
:102C30005F0B03009F0B0300AF0B03006C00F00061
:102C40004D5C03008B5C03009B5C03006B00F00099
:102C5000C50A0300030B0300AF0B03006600F0007E
:102C6000C50A0300030B0300AF0B03006700140049
:102C7000570D0300850D0300970D03006900140034
:102C8000150E0300C50E0300450E0300EE28E803F1
:102C900081020300B3050300A50303002F006400B5
:102CA000ED0E0300530F0300850F030068000A00B8
:102CB000590C0300110D0300910C03006D0004007A
:102CC00059080300A508030065090300640001001A
:102CD00000000000000000001B060300630001006C
:102CE00000000000000000001B060300620001005D
:102CF00000000000000000001B060300610001004E
:102D000000000000000000001B060300700001002E
:102D100000000000000000001B0603007C360000DD
:102D20007C8B00208C2A00207C3600007E8B0020CB
:102D3000982A00207C360000808B0020A42A0020E6
:102D40007C360000828B0020B02A00207C360000F8
:102D5000848B0020BC2A00207C360000868B00205B
:102D6000C82A00207C360000888B0020D42A00204E
:102D70007C3600008A8B0020E02A00207C36000090
:102D80008C8B0020EC2A0020108B0020BFF8020062
:102D9000448800206CFF0200000002400929FF0067
:102DA000D0890020982D000000A00A0000400000FB
:102DB00098360000DE8F0020A82D0000C0360000ED
:102DC000448D0020082B0020E8360000307F0020D2
:102DD000302B0020E8360000507F0020322B0020EE
:102DE000E8360000707F0020342B0020E836000019
:102DF000907F0020362B0020E8360000B07F0020B6
:102E0000382B002000000000656D0100E587000000
:102E10000101010000000000FF0001005FE6020068
:102E2000070000000C370000006F00203C2B002042
:102E30000C370000007000207C2B0020FF000000F9
:102E40000000000080A90300588000203C2E0000F4
:102E500000000840E8030000243700006C880020D0
:102E6000502E0000000001401FFF0000170000006E
:102E70000010014021FF0100190000000020014066
:102E800023FF02001B0000000030014025FF03006B
:102E90001D0000000000014020FF0000180000009D
:102EA00000730020642E0000000000004C7300201E
:102EB000702E000000000000987300207C2E00009F
:102EC00000000000E4730020882E000000000000D5
:102ED00030740020942E0000010000000208000061
:102EE00000000000000000000001010008005D2C4F
:102EF0001C2C00200000000000000000030800005F
:102F00000000000000000000000165090000000052
:102F100000000000012C0000000000000000000084
:102F20000001001E0000000000000000022C000054
:102F30000000000000000000000000000000000091
:102F4000000000000000000000000000032C000052
:102F50000000000000000000000000000000000071
:102F6000DFEC000075F1000023ED00002D420000B1
:102F7000D1ED000053F20000D1ED0000ABF30000F2
:102F8000D3ED00002D420000D1ED000053F200000F
:102F900037EE00002D42000000000000000000009D
:102FA00071EF00002D420000000000000000000052
:102FB000BDEF00002D42000069F000002D4200002E
:102FC0006DF00000ADF5000089F000002D4200001A
:102FD00000000000000000000000000000000000F1
:102FE0000000000000000000CBF0000001F700002E
:102FF000E1F000002D420000CBF0000001F70000DE
:10300000E1F000002D4200006DF00000ADF5000081
:1030100011F100002D420000130000005D0F0200BE
:10302000000000008BD20000010000008BD20000E5
:1030300002000000A705020002800000A5050200B2
:1030400003000000C5050200040000000B0602009A
:10305000048000006306020005000000650602000F
:1030600006000000DD06020030000000670C0200D0
:1030700031000000690A020033000000210D020047
:1030800034000000C70D020011000000690E0200AC
:1030900014000000C50E020015000000390A0200ED
:1030A000FFFF0000000000008F000100DA30002068
:1030B00087000100D830002035002800BC8800209F
:1030C00028000100BD30002029000100BE30002092
:1030D00084000400488E0020860001007D1B002033
:1030E0002A000100BF3000202B000100C03000206A
:1030F0002C000100C43000202D000800FC2C002012
:103100002E000100C53000202F000100C630002035
:1031100030000100C730002032000100E88F00209D
:1031200033000100E98F002034000100C830002086
:1031300036000100EA8F002038000100C93000206D
:1031400039000100C330002083000200B0300020AD
:1031500063000100EE8F002065000100C1300020F7
:103160006D000100EF8F002071000800A48D002089
:1031700066000100D730002043000100D23000205B
:1031800044000200A630002045000100D33000209A
:1031900046000200A830002047000800AC8D002047
:1031A00048000100D43000204B000100D530002041
:1031B00004000100D9300020A1000100DF30002010
:1031C00037000100DE30002088000100DB300020E5
:1031D0003C000100CA3000203D000100CB3000203F
:1031E00049000200AA30002067000100F08F002093
:1031F0004D000200AC3000204E000100D63000200F
:103200004F000200AE3000203E000100D030002010
:1032100051000100EB8F002052000100CD30002052
:1032200053000100CF30002054000100EC8F00203B
:1032300000000000000000007B7374617469632D5E
:10324000696E7374616E63652D6E616D657D0000DE
:103250007B656D7074792D696E7374616E63652D15
:103260006E616D657D000000AC2D0020FFFFFFFF4B
:10327000FFFFFFFF0A000000B3FC01000200000096
:10328000AFF70100050000004DF901000700000044
:10329000BFF801000C00000087F201000D000000E3
:1032A000A5F40100FF000000000000008E000000F7
:1032B0008E0001008E0002008E0003008F000001CE
:1032C0008F0000028F0000038E0001048E000005B5
:1032D0008E0008048E0000048900000650000000E3
:1032E0007F0001003F0004003F0002003F0001009A
:1032F0007F0002008E0002048E0001028E00010198
:103300000000000002000000020000000A000000AF
:1033100002000000020001000000000000000000A8
:10332000000000000000000000000000000000009D
:10333000000000000E00000000A6AAACA4A9A9A3EA
:1033400099B19ABCB6A8000002040201010101096A
:1033500002000000313117191A21241B1D1F3131C1
:1033600033310000313118191A22311C1E2031313D
:103370003431000003007100300160001100700062
:10338000310220035004800007001000610000009B
:103390001400630073007200620043000000130019
:1033A0000600000000000400120000000000000001
:1033B000000004000400370037003C024400000015
:1033C00000000000000065000000350081000000E2
:1033D00005000000830000006600000000000800F7
:1033E00009000A000B000000010171010101010147
:1033F00011010101310101010101800100011001F0
:1034000061013B0014006301730172016201430119
:103410000001130106013D01350004011201000104
:1034200000010001000104010401330133013C01EA
:103430004401320136000001000165010001350040
:103440008101000105018201830100016601000183
:103450000001080109010A010B01000003027102C9
:1034600030016002110270020102020202028002B7
:103470000002100261023A0041006302730272020C
:10348000620243020002130238000002000204023A
:1034900012020002000200020002040204023700CD
:1034A00037003C02440200023900000200026502BB
:1034B000000235028102000205028202830200023C
:1034C000660200020002080209020A020B02000062
:1034D000010371030103010301030103010322033B
:1034E00002030103000310030003000300030003B1
:1034F0000003000300034203000324030603000348
:1035000000030403120325032303250323030403F9
:103510000403000300030003440300030003230328
:103520000003650321003503810300030503000345
:1035300000030003000325032303080309030A0310
:103540000B030000030471040204600411047004FE
:1035500002040204010402040004100461040004D3
:103560001404630473047204620443040004130427
:10357000060400040004040412040004000400040F
:103580000004510464000004000400044404000426
:103590000004000400046504000435048104640090
:1035A0000504000483040004660400040004080405
:1035B00009040A040B04000000000500BD00B70068
:1035C000B100BC001C0030003800080038010200C7
:1035D000000120181A18182C34041E000C0E020BBF
:1035E000040B0A070800110F88B22400881300009A
:1035F0001000000000000001C00300008007000070
:10360000000F0000001E0000003C000000780000D9
:1036100000F0000000E0010000C00300008007008F
:1036200000000F0000001E0000003C0000007800B9
:103630000000F0000000F0000000000000000000AA
:10364000000000000000000000000000000000007A
:10365000000000000000000000000000000000006A
:1036600000BE040A00BE020830313233343536372A
:103670003839616263646566000000002937030021
:103680006137030067370300433803002F39030015
:1036900089390300913903002D3A0300353A0300BC
:1036A0003B3A03006B3A0300853A0300D33A030028
:1036B000EB3A03005F3B03009D3B0300A53B030087
:1036C000353E0300C93E03003F3F03006F3F030048
:1036D000813F0300B73F0300CF3F0300F5400300E5
:1036E00039410300454103007D4903009749030028
:1036F000CD460300CF460300CD47030075470300C6
:10370000114803005D49030041490300C54C030013
:103710003B4D03002F5003003950030011520300AA
:1037200031550300195A0300215A0300235A03009C
:10373000295A0300315A0300C15A0300E95A030011
:103740005D40002189400021954000213B4100213E
:10375000074C657900F009F861796940490703D59C
:103760000121044A8903116070BD70B50249084700
:1037700080030021081104402D59000000F00AF8D0
:1037800000480047577F000000F00AF80048004753
:103790001B880000806B0C490007000F48717047C0
:1037A000094A0A4918235079CB56497EC0188142EC
:1037B00001DD084602E00F2800DD0F20D18909094C
:1037C00009010143D1817047E002002188000021F6
:1037D0000122274B02212548184710B5254880476C
:1037E0002548406A00280DD124490A20085600289F
:1037F00009DA401C07D008462038406A2049884230
:1038000000D1804710BDFFF7E3FF10BD00211E4B24
:103810001C4A0846184701201C49400208601C4801
:10382000FB220178114001701248EC38004710B5B6
:103830001849884711492039012807D0020404D5C6
:103840000020088514484862012010BD4A6A094BCF
:10385000EC3B9A4201D1114A05E007494A6A104BF4
:103860009A42F2D10F4A4A6210BD000006080000D9
:103870009F060000A19202000801002154010021CE
:1038800063920200E7400021B5B4020080E100E04D
:1038900080030021F7960200DD4000212341002132
:1038A0006995020019410021010200030200010391
:1038B00070B50446257805F07F050E2D02D19FEDE9
:1038C000AA0A70BDE678032D1CBF042D012D01D17D
:1038D000002000E0802000F08BF90F2D14BF0122A2
:1038E00000220321304600F084F90F2D04D100EEB0
:1038F000100AB8EE400A70BD00F0C4F9032D41EC87
:10390000100B04D100F0D0F900F0BCF917E0F9D0A9
:10391000042D0CD153EC102B9448954900F0E0F99C
:1039200000F0C2F900F0AEF90022924B05E000F081
:10393000BBF900F0A7F900228F4B00F0A7FA00F0C6
:10394000C9FB00EE100A207AC10708D56069D0EDE6
:10395000000AB0EE401A90ED010A01EE200A70BD97
:103960007FB504462C204443844D281900F10801FA
:103970004E88964204BF8988994245D108990B0028
:1039800006D10C2A0CBF042102210A98018017E0FD
:10399000012939D1FFF78CFF8DED000A295D0998C7
:1039A00001F07F01012918BF02290CD003291DD085
:1039B000042908D00F2927D10422694600F055FCBC
:1039C000012004B070BD6E49DDED000A0A8800EEEA
:1039D000102AB8EE400A60EE200AFDEEE00A10EE72
:1039E000903A1BB20193022201A9E7E76549D1EDA4
:1039F000000A60EE200AFDEEE00A10EE902AADF813
:103A0000042001A90222D9E70020DAE770B50446B4
:103A10002C214C43594D2E192DED028B3046FFF7CA
:103A200047FF295D01F07F010329B0EE408A0DD1E7
:103A3000544890ED000A707828EE000ABDEEC00AE6
:103A400010EE101A09B200F0DAFE0EE0285D00F068
:103A50007F000F2806D1012001F0D3F830B180EDAE
:103A6000018A03E0707800F0E3FE0020BDEC028BD9
:103A700070BD2DE9FC478046434F4D79434911F80D
:103A80000890484600F08CF8064600F092F80020B6
:103A900000F0AEF83A7839492C2042438C183C4962
:103AA000D4F814A06162012005F07F0584F8280095
:103AB00040F6043161814FF48070032DA08105D15F
:103AC00040F202400926608100214BE0042D08BF2E
:103AD00008262CD00421484601F06AF90C2010FB7E
:103AE00006F02C4901F80090012D33D108442A4AF0
:103AF00042600021009101916A460121404601F097
:103B000059F801AA0221404601F054F89DED000A3F
:103B1000B5EE400AF1EE10FA09D0207A40F001002B
:103B200020720098CAF800000199CAF8041084F8BD
:103B3000018084F80290E6700021207800F0800077
:103B400005432570A1711548E0613978491C397029
:103B5000BDE8F387681E0128CBD90E38E7D10C20C9
:103B600060815521A181E2E7000000009A999999AE
:103B70009999B93F0000594000408F4080140020BF
:103B8000D2400000C82B0000D88F00202C8C0020D1
:103B9000613900008C2A0020308C11000D3A0000A1
:103BA000A0F11701082902D21738C0B27047FF20D0
:103BB00070470C480178CA0700D5704710B541F02E
:103BC000010101700020084905E0C3B20C246343E1
:103BD000FF22CA54401C054B1C78C2B2A242F4D347
:103BE00010BD0000DD8F00208C2A0020BEF80200EE
:103BF0007047134601222DE9FE43092804469146E9
:103C00001D4605D101F091FA01F0BEFA80B234E010
:103C10005FEA09000BD001F0E0FA01A801F018FBFF
:103C200001A9204601F0F4FA5FEA000801D1002062
:103C300023E000270024002609E06946404601F001
:103C4000C6FA18B9BDF80000641C3F18761CF0B223
:103C50004845F2D3E0B20228A4BFE4B2B7FBF4F7C0
:103C60003DB1B9B2404601F0B5FA4FF47A71B0FBFC
:103C7000F1F7404601F0A8FAB8B2BDE8FE83002390
:103C80000122B8E710F0004160B148BF4042B0FAED
:103C900080F29040D21CC2F5846241EA025202EBEB
:103CA000D021400570470143C1F30A5340F21E4240
:103CB000D31A0CDDCA0283F3070342EA505242F0E2
:103CC0000042DA4002EBE17282EAE17070476FEA8B
:103CD000E17203F2E13008B182F000407047010068
:103CE00030B540F2FF7C1CEA11541DBF1CEA13558D
:103CF000644565453FE0641981EA030C6FF35F5347
:103D00000CF0004C43F48013C90241F0004141EA39
:103D1000505EC5021100A5FB020200284FF0000012
:103D2000EEFB01204FF00001E3FB052118BF42F03C
:103D30000102401800214941E3FB0E01A4F5806413
:103D40000D0302D292184041494154F1010470DD43
:103D5000450872F1004250F1000051EB0451A1F509
:103D6000801102D441EA0C0130BD40F2FF7E4CEAE2
:103D70000E51002030BD0CEA1355644518BF65454F
:103D800081EA030C0CF0004C41D050EA410E1CBFFC
:103D900052EA430E02E06146002030BD24422C442A
:103DA0001BD15FEA050EF6D0090302BF01460020D1
:103DB000AEF1140EB1FA81F5AEEB050401FA05FE81
:103DC0000C35C5F1200100FA05F5C8404EEA000E99
:103DD0006FF35F5343F480139CE733F00043B3FA6F
:103DE00083F504BFB2FA82FE75440B3D641BB5F146
:103DF000200E2FBF02FA0EF3AB40C5F1200E22FABF
:103E00000EFE38BF43EA0E03AA40641C7CE750EA6A
:103E1000410E14BF52EA430E6FF000014FF400153B
:103E200015EB430F8EBF194615EB410F9DE7B4D834
:103E300030BDD4F10104B4F120050FDAC4F120053E
:103E4000520828BF42F0010210FA05FE01FA05F5FA
:103E50007244E2BFE0402843E1400FE0352C9ADC99
:103E6000C5F1200452EA400220FA05F218BF42F0E0
:103E7000010231FA05F0A1400A43002172F100422B
:103E800050F1000051EB0C0130BD0100F0B540F2E3
:103E9000FF7581EA030C0CF0004C15EA11541DBFAC
:103EA00015EA1357AC42AF42E5E0BC41C1F3130140
:103EB000C3F31303801A994143F4801304D2641EA0
:103EC0000018494180185941C90241EA5051B1FBDB
:103ED000F3F603FB1611A2FB0675D7EBC020A94130
:103EE00002D2761E80185941C90241EA5051B1FBF5
:103EF000F3FE03FB1E11A2FB0E75D7EBC020A941F8
:103F000003D2AEF1010E80185941890241EA905165
:103F1000760546EA8E2EB1FBF3F603FB1611A2FBE3
:103F20000675D7EB8020A94102D2761E8018594130
:103F3000C90241EA50514EEA060EB1FBF3F603FB0B
:103F40001611A2FB0675D7EBC020A94102D2761E3E
:103F500080185941C90241EA5051B1FBF3F703FB04
:103F60001711A2FB0735D3EBC020A94167F1000769
:103F70000CBF004247F0010766F3D5274FEA1E3118
:103F8000B80814F5806412DDBD0775F1004250EBEE
:103F90000E5051EB045111F5801F5CBF41EA0C013A
:103FA000F0BD4CF07F6141F0E0410020F0BDBD0765
:103FB0006D0840EA0E5041F48011D4F10104B4F1CF
:103FC00020060ADAC4F120060200E04001FA06F3F6
:103FD000E1401843B24015430EE0342C13DCC6F127
:103FE000200445EA40056D0820FA06F2154321FA3F
:103FF00006F0A1400D43002175F1004250F1000090
:1040000051EB0C01F0BD00205FEA0C01F0BDCFB90F
:1040100092185B41B3FA83F704BFB2FA82F6BF1974
:104020000B3FB7F120062FBF02FA06F3BB40C7F1E2
:10403000200622FA06F638BF3343BA401CB1E41911
:10404000641E33E77F4231F00041B1FA81F404BFCE
:10405000B0FA80F6A4190B3CB4F120062FBF00FA89
:1040600006F1A140C4F1200620FA06F638BF31431C
:10407000A0403C1B1AE7AC421ABF05EA1357AF42F7
:1040800012E050EA41061CBF52EA4306BFE750EA7D
:104090004107304661461CBF41EA0551F0BD52EA76
:1040A000430C08BFC143F0BD00204FF4001616EBCF
:1040B000410F98BF16EB430F08BF16EB410F24BF0B
:1040C000C14305E016EB430F0CBF61464CEA0551B6
:1040D000F0BD640001F000428B1AA3F16051B1F50C
:1040E000801F0ADBB1F17F6F1FD242EAC102C1001B
:1040F00071F1004142EB507070470B15C3F1090399
:10410000212B10D2890241EA9051800201284941B5
:1041100041F0004121FA03F0C3F12003994071F10D
:10412000004150417047100070476FF0000013EBE2
:10413000103F5CBF000E42EAC0507047F8B50D4614
:1041400088B00446287800F0BAF800283ED1DFF89D
:104150003C220021131D53F8310018B1491C2029BD
:10416000F9DB33E005A800230026002780E8C8001B
:1041700002F83140121D42F8315028788DF80000C5
:10418000A8684188ADF802108188ADF804108079E4
:1041900000F00F008DF80600A868C1798DF80710AF
:1041A000A86881680291007B8DF80C00A8680169FD
:1041B000049105A928788DF814008DF81C30CDF8ED
:1041C00018D0204601F0BCF8012000E0002009B022
:1041D000F0BDDFF8BC11086070472DE9F041DFF851
:1041E000B4512C6880460F4600F069F8002630B9BB
:1041F0000020BDE8F081206800B9264604462CB1B5
:1042000020794045F7D1A7600120F2E70C2001F0AA
:1042100097FC0028ECD00022026080F804808760C0
:104220002968002914BF30602860EDE710B55949AE
:104230000A6800E0126852B1036811791C7DA1423E
:10424000F8D191680029F5D0BDE810400847012059
:1042500010BD01F075BC10B5044610460A46014673
:10426000204601F0CDFC204610BD03E011F8013BD3
:1042700000F8013B13465A1E002BF7D17047002867
:1042800018BF01F05EBC704701700A0A0B0C090EE2
:1042900042708370C170001D704700223B4B03EBDE
:1042A000C201496811B10978884203D0521C202A02
:1042B000F5DB02E013F8320070470020704710B5BC
:1042C00001460022314800EBC203586810B104785F
:1042D000A14203D0521C202AF4DB00E010BD0020D4
:1042E00010BDF0B58BB007460C4615461E462C2176
:1042F000684601F0B9FC397A8DF80010032906D11F
:10430000082239460DF1020001F010FC03E011B162
:104310003988ADF80210797A12988DF80A107989E7
:10432000ADF80C10810744BF01228DF81C20C10696
:1043300044BF01228DF81D20010744BF01228DF8E2
:104340001E20810644BF01228DF81F20410644BF74
:1043500001228DF82020000644BF01218DF8211094
:104360001398119B109A27788DF822008DF81470FD
:10437000ADF816500693ADF824600A922078FFF746
:104380008CFF694600F0E0FF0BB0F0BD2477002001
:104390002C8E0020308E0020F8B50D2805462DD239
:1043A00001F0D0FBDFF828361A7800240146BAB1B4
:1043B00000265FFA86FC2820DFF8187610FB0CFC3C
:1043C0006744787C000904D0761CF0B23028F0DB1A
:1043D00006E0521E3C461A70607C40F0F0006074AB
:1043E000084601F0BAFB4CB1280014BF04F11C00D0
:1043F0000020A061E57504F10C00F2BD01F068FC3D
:1044000040F20131884206DB05F11006B0B201F03E
:1044100032F9040001D10020F2BDB1B201F00CFD6F
:10442000280014BF04F110000020E060E57220466F
:10443000F2BD38B504462079C0F30210022806D137
:10444000E06820B1A17A022908BF01F07AFB607907
:10445000000910D001F076FB05461C21204601F032
:1044600003FCDFF86C050178491C01702846BDE8A3
:10447000324001F072BB2046BDE8324001F00FB976
:104480002DE9F04704468A462668257901F05AFB53
:10449000DFF8442580465068C5F302190027002143
:1044A00002E0014650F80C0C18B30368B34202BF97
:1044B0000379C3F3021CCC4504BFDB09B3EBD51F62
:1044C000EFD17F1CBAF1000F13D0FBB29A45E8D1AF
:1044D00050F80C3C44F80C3C5668B04208BF54609D
:1044E00009B141F80C4C002140F80C1CFFF7A1FF6A
:1044F00000E00446404601F030FB2046BDE8F0876E
:1045000070B501F01FFB0646DFF8CC0444680025B7
:10451000456005E0204654F80C4CFFF78AFF6D1CFF
:10452000002CF7D1304601F018FBE8B270BD2DE940
:10453000F0430C468FB0200448BF84F4004000F1E3
:10454000CD80E007DFF8906440F1BC8070780028EF
:1045500084F001091BD101F0BBFB002740F20111DF
:1045600088424FF0000813DAB078401CB070C0B237
:104570001F28A4BFB770FFF7C3FFB078052190FBD9
:10458000F1F101EB8101401A03D000F0AAF897E0A5
:10459000B770301D01F0A8F90400F8D0162106F11B
:1045A000080001F061FB21791625080910F00700C9
:1045B00003D0022851D014D358E0C809E57A0590F9
:1045C00004970397029701F00F01E068019006F14C
:1045D0000800A27A009216352389E28803F008F8D1
:1045E00043E0E179FF290AD02C20DFF8F023414392
:1045F00057181E2207A9384600F034FA8046E068B2
:104600000168069107AB21790279CDF81080001D71
:104610000290039306A8552302EB0805CA090592E8
:1046200001903922009201F00F010C2206F10800DE
:1046300002F0DEFF1A35010017D12437387901075F
:1046400014D5FF210020009102900190A179E0791A
:104650003F6855230C22B84708E0E288E068E57A15
:1046600001F00F0102F084FF163598B9DFF87013DE
:104670000020652D087005DB30783222012103F01F
:10468000B3F804E0307800F04CF949F0010903F088
:10469000D9F912E0607900F00F01022908DC411C11
:1046A00061F3030060712146301D01F05DF90024C3
:1046B00000F017F803F0C6F914B12046FFF7B9FE71
:1046C00048460BE0A00708D5002171700121307821
:1046D00001F06FF884F0020000E000200FB0BDE8A8
:1046E000F083012070704FF47A723078022103F069
:1046F0007BB84FF6F07300F00F0003EA0213184383
:1047000040EA014070472DE9FE4F0C9DDDF83490E2
:10471000DFF8D0420026471C884692469B461DE0A3
:10472000F9B22C22DFF8B40251430844437898458B
:1047300013D290F828100A060FD5D0F824C0BCF187
:10474000000F0AD0002002900195FE2000905B46E9
:1047500052464946F8B2E047761C7F1C2178F8B2F1
:104760008842DDD3DFF880020278FF2A08BF067096
:10477000BDE8F78F2DE9FE4F8846DFF86C128346BF
:10478000087891461E4648B10C9900910024019486
:104790004B4642465946FF20FFF7B5FFDDF834A0EF
:1047A0008D4F5046FFF7F8FD040021D00E9D4A467C
:1047B00041465846FFF79DFF206052460BF00F0020
:1047C00040EAC5102071A4F80680A4F80890A672EB
:1047D0000C99E06801F0AAF9102E0CBF0321012109
:1047E0002046FFF74DFE18B92146381D01F046F866
:1047F000387800F096F8BDE8F74F03F023B903B519
:1048000083B000F00CF8292340F2024119E003B50F
:1048100083B000F004F8212340F2054111E00021AB
:10482000022204AB02910192009300227047000023
:10483000F8B56E4900F009F84FF48072FFE740F6D2
:104840000431FFF797FF05B000BD0A8800EE902AFB
:10485000F8EE600A20EE800ABDEEC00A10EE102AC3
:10486000ADF80C200023022103AA029301910092CB
:10487000292370471FB50B0018BF012301218DF8B4
:104880000C300292019103AC009410230022062107
:10489000FFF770FF1FBD2DE9FC470F4652490A9DE7
:1048A000064608789046994640B10195CDF80080BB
:1048B00055230C2231463846FFF725FF0C20FFF721
:1048C0006BFD0400DFF810A123D07A1C4946304666
:1048D000FFF70FFF206006F00F062079A57100F0AA
:1048E000800006433920A07246F01006E068267169
:1048F000E77184F808900C22414601F017F9012174
:104900002046FFF7BDFD20B921460AF1040000F062
:10491000B5FF9AF8000000F004F8BDE8F34703F093
:1049200091B8012100F045BF2DE9F0478046894646
:1049300014009A4618BFBAF1000F11D0089E37092B
:1049400008BF012706F00F06022E0CBF00205046BC
:10495000FFF722FD050005D116B1204601F0F1F860
:10496000002032E0002249464046FFF7C2FE2860A0
:1049700008F00F01287900F08000084340F0200083
:10498000287185F80BA00020A5F806902881AE724A
:10499000022E08BFEC6008D0E8685246214601F0BC
:1049A000C5F816B1204601F0CCF839462846FFF785
:1049B00067FD094C18B92946201D00F05FFF2078DB
:1049C000FFF7AFFF03F03EF80120BDE8F0870000DD
:1049D000B5300020F0640020B08900208014002051
:1049E000958D0020D88F0020B4300020D2400000E8
:1049F00070B504462C214C43B34D2E19304601F0BE
:104A00001BFA2A5DB14942F080022A55FF20087046
:104A1000304670BDF0B5AE4BAE4C1B5C245C02461C
:104A200000E0491CAC4D2E78C8B2B04217D25FFAF4
:104A300081FC2C25A44F15FB0CFC07EB0C052878FA
:104A4000C0090CD06878904202BF2F7807F07F072A
:104A50009F4204BFA878A042E3D148B2F0BD4FF016
:104A6000FF30F0BDF0B50346002400200EE0E4B2B4
:104A700066440E5507F00F076C1C0A2FACBF372693
:104A80003026EDB2F6194E55401CC0B29E79B042A8
:104A9000E5B212DAEF1CBA420FDB10B12D264E55EB
:104AA000641C1D182F7AC7F30316651C0A2EB4BFA9
:104AB0004FF0300C4FF0370CD9E7E0B290423CBFDA
:104AC00000204855E0B2F0BD10B500F001F811E04B
:104AD000012303FA00F000F0FF0000EB01207F4CFF
:104AE000704710B5012303FA00F000F0FF0000EB5F
:104AF00001207B4C81B22078BDE8104002F074BEEA
:104B000070B500F006F8764E00F00AF800B90FE034
:104B100070BD0446012000FA04F404F0FF0470475D
:104B2000307804EB0124A4B21546214602F08CBE75
:104B300030782A462146BDE8704002F055BE012279
:104B400002FA00F000F0FF0000EB0120634BFFE7EA
:104B500081B2187802F04CBE1CB500F045F80CBFCD
:104B600002F1FC0102F1AC01052203F0F7F89DF817
:104B70000000012816D002280FD0032807D00428EF
:104B800010D0052809D0062818BF0B2810D10DF128
:104B9000010108682060012016BD0DF101010868BF
:104BA00080B2F7E70DF10101086800F0FF00F1E7BE
:104BB000002016BD1CB500F017F80CBF02F1FC0177
:104BC00002F1AC01052203F0C9F89DF800000728A6
:104BD00008D10DF10100016800EE101A84ED000A01
:104BE000012016BD002016BD14463E4A00EB800091
:104BF00002440229684670470A78521C001D00F0E2
:104C000095BF70B510260228054603DB0C2110FB6A
:104C100001F6361D304600F093FF040003D0314604
:104C200001F00AF92570204670BD420602D5491EE2
:104C30008941C90F00F044B92C22234B504318443A
:104C40000079002818BFFFF7F0BF704738B500247F
:104C5000214D03E00021FFF7EFFF641C2978E0B24B
:104C60008842F7D32048027802F0FD02027031BD7D
:104C700070B52C2606E0D5B2134C75432C44521C5B
:104C800020716171D4B29C42F5D370BD70B52C22F5
:104C90000D4B0446191D54430C5D00E0401C0E4DA5
:104CA0002E78C1B2B1420CD251435D182979002946
:104CB0001CBFA9780029F1D02979A142EED10120A9
:104CC00070BD002070BD000080140020B4300020B2
:104CD0001C8C00202C8C0020D88F00207F280020E6
:104CE0008028002020220000B28F0020C000103059
:104CF00070477CB5C0001030461814461D4631463A
:104D0000102003F088F848B9009523460022314668
:104D1000102003F0E5F808B9012076BD002076BD2B
:104D2000C00080B510304118102003F0B7F8012002
:104D300002BD0B4604220021DBE702B56B460422CC
:104D40000021FFF7EDFF02BD00F03F02282A0ADA3A
:104D5000012200F01F0012FA00F004D07F4A09B1CE
:104D60001060704710617047F8B500F04CF81EDA1B
:104D700000F043F81BD07A490A681043086024F019
:104D8000605403F060F900F04CF830001CBF032EB3
:104D9000042E02D144F4C04408E0012E08BF44F4BC
:104DA000804403D0022E08BF44F4005449E0F1BD12
:104DB000F8B500F028F81FDA00F01FF81CD0684999
:104DC0000A6822EA0000086044F0005403F03BF94E
:104DD00000F027F830001CBF032E042E02D144F44B
:104DE000C04408E0012E08BF44F4804403D0022EE2
:104DF00008BF44F4005424E0F1BD012100F01F007D
:104E000011FA00F07047850005F0FC0505F18045BA
:104E100005F501250E462F4600F03F013C68282984
:104E20007047002139706F1C220AA91C3A70230CAC
:104E30000B704FEA146C05F803CF24F4C04403F060
:104E400029B903F000F9240A3C70BDE8F24003F0F0
:104E500021B970B500F02CF8254600F03F022E680D
:104E6000282A24DA012200F01F0002FA00F0C243CF
:104E7000E8B13B4B29B11968084326F06056186029
:104E800004E01868024046F000561A6003F0DBF8B0
:104E90000021631C2970320AA11C1A70350C0D7098
:104EA000360E04F8036FBDE8704003F0F3B870BD30
:104EB000840004F0FC0404F1804404F501247047EC
:104EC00000F03F02282A0DDA012200F01F0012FA3A
:104ED00000F007D0214A136C0343136409B110603A
:104EE0007047106170470000F8B50D4600F03F01B3
:104EF000282931DAFFF7DCFF1A4A2668137800F018
:104F00003F00834228D31849184F03F0C5F83740B3
:104F1000032D15D8DFE805F002050B0814490F43EF
:104F20000EE0144807430BE047F4E02708E006F4DE
:104F3000E026B6F5C02F0CBF47F4A02747F4C027E2
:104F400003F081F8621C390AA51C11703B0C2B7010
:104F50003F0E04F8037F78E7F1BD00009020024087
:104F6000D020024056080300C9170100FFFFF8E7F0
:104F70000000061800000510F8B504460D4601268D
:104F80000027344203D02946F8B2FFF7ADFF7F1C5B
:104F90007600F8B22028F4DBF1BDE80370B503F029
:104FA00052F806467D484068FA246FF0F90560B172
:104FB000B0F90C108C42C8BF0C46B0F90E10006856
:104FC0008D42B8BF0D460028F2D12946204600F098
:104FD00005F83046BDE8704003F05CB8F0B46F4BA4
:104FE000B3F90040A0421ADA6D4D6E4C2E78256858
:104FF000A5F5407576B2821C7543D7052D1105EBDA
:10500000E735803D12F1F90F2ADA4FF4803505F4C7
:105010007F4525631880206A40F004002062B3F9C0
:10502000020088421ADA5E4C5E4A25781468A4F5BC
:1050300040746DB2881E6C43C605241104EBE6343F
:10504000803C10F1F90F15DA4FF4803404F47F44FA
:1050500054635980106A40F008001062F0BC704739
:10506000FA2AA8BF4FF47F45D1DA002DCFD54E4A9A
:105070001540CEE7FA28A8BF4FF47F44E6DA002CAB
:10508000E4D549480440E3E72DE9F0474448454D5D
:1050900001782A68414E454F4FF47F432B63FA2134
:1050A00031802A6A22F004022A62002200782968EC
:1050B0006A636FF0F9007080296A21F008012962A3
:1050C000F86B7468D0F8001088470FFA80FAE4B1E2
:1050D000B4F90E90D4F80080D145BCBFB4F90C10DF
:1050E0008A450FDBD145B8BFB4F90C902146301D7D
:1050F00003F060F80020226920752346A468494621
:105100005046A0475FEA0804E2D1FFF747FF686A0C
:1051100000F00C006862686A10F00C0FF7D1396873
:105120000A6ABDE8F0473520104770B584B002F038
:105130008AFF1F4D0446287808BB684602F0A2FF8C
:105140001C490A78019201218DF808106B461A4A11
:105150003521281D02F054FF1848194B816C21F0AD
:10516000040181640322816C21F0080181640260E2
:1051700009211A6816680220B047012028702046CD
:1051800002F088FF04B070BD00B50E4881B0016820
:105190000A68904700B201B000BD00006C300020EA
:1051A0000C1300502850094000FF0100B00100100E
:1051B000F0890020CB4603008950000000500940D0
:1051C00084010010EC01001001680A6810470268B1
:1051D0009368184702681369184770B502F033FFE7
:1051E00018490546087860B9012217480A70047802
:1051F0003CB1164E304656F80C1B4A699047641E67
:10520000F8D12846BDE8704002F044BF000000001D
:1052100030B50C4C237881B000227BB10A4C257844
:10522000A8420BD209B900BF0CA100EB40029200CA
:10523000064B98189B589A6990470246104601B051
:1052400030BD000002900020BEF802001C2D0000BE
:1052500002A1D1E90023C0E900237047000000004B
:1052600001000000DFF800F0F5EA02102DE9F0413E
:10527000102705460E469046082B38BF082398B2E3
:1052800000F0F9F9040010D0267000F037F800F0B3
:105290003BF840B9FFF7E6FF00F0B2FA00F03CF847
:1052A0000028F7D0477800F042F83846BDE8F08192
:1052B0002DE9F8430546089810260F469046994672
:1052C0000C2838BF0C2080B200F0D5F9040012D0B1
:1052D000277000F013F8C4F8089000F015F840B9F2
:1052E000FFF7C0FF00F08CFA00F016F80028F7D0A6
:1052F000467800F01CF83046BDE8F283002060706C
:10530000A570C4F80480704721460A48007800F070
:10531000D5B90849087070472178284600F0F8BAD6
:105320000A4608230421A1E7FFF7C2FF02BD204679
:1053300000F0B5B9F28F00200A460823142195E742
:105340000A460823202191E70A46082322218DE7F7
:105350000A4608234D2189E70A4608232C2185E7C0
:105360000A460823B02181E70A460823B6217DE7D3
:105370000B460C210091002270470A460823C121E8
:1053800074E703230022CD2170E780B5FFF7F0FF1B
:10539000C421C9E738B5044601252078801F46D0CE
:1053A000423848D018383ED0401E3CD0401E01281C
:1053B00041D9801E2FD0401E33D0401E31D0801ED8
:1053C0002FD0801E032836D9001F2AD0401E28D097
:1053D000401E26D0401E24D0401E02282BD9C01EBD
:1053E00021D0401E23D0401E25D0C01E23D0801EB9
:1053F00021D015381FD0401E17D0C01E012884BFF1
:105400003038062817D91B3815D0801E012812D92C
:10541000093810D012E0606908B100F092FBE06931
:1054200006E0E06804E0606902E0E06A00E0A0688D
:1054300008B100F086FBFFF77AFF00E00025284660
:1054400032BD0100DFF800F021CD0210DFF800F0DE
:10545000B1BF0210DFF800F09DEB0210DFF800F0A2
:1054600025DB0210DFF800F0C5E20210DFF800F0E3
:10547000C3EC0210DFF800F0E7E90210DFF800F0FB
:10548000BBEC0210DFF800F04DEA0210DFF800F08C
:1054900045DF0210F8B542F20C74DFF810562E19F1
:1054A000307901281DD02846002101E040F8041B76
:1054B00042F210722A449042F8D3E8212960002079
:1054C00042F22462DFF8E8753060C5F8E82005F1A3
:1054D000E801796000F006F8B8607D60FC600120AA
:1054E0003071F1BDF8B500260027051D15F0030049
:1054F0001CBF291D0D1A00F025FB0146DFF8B02561
:10550000112D34BF546894682068002803D580F0BA
:10551000004000271AE03B0014D03368D4F800C0E4
:105520006344AB42336011D334461846ECB1401BA0
:10553000042811D3605145F000402060D3685D1B02
:10554000D56011E0A842F1D2012726460444206824
:105550000028DAD1002408E0D36820681B1AD36041
:10556000256845F000452560241D11600846F3E0DC
:1055700038B5040019D0DFF8385500F0E3FA286098
:1055800054F8041C002903D42969491C29610BE043
:1055900021F0004144F8041CEA688918E960211FE1
:1055A0006A68914238BF69607CE131BD2DE9F04104
:1055B00000F0C8FADFF8F8249368002400250026DC
:1055C000002709E00E4601251C4604E011D581F0B4
:1055D0000041002547460B441968B046BE4238BF1B
:1055E000B8460029F2D1106000F0B7FA4046BDE895
:1055F000F081002DE6D0D4F800C08C44C4F800C07F
:105600008E19E8E710B5044642F21070DFF8A014D6
:105610002060CA686260FFF7C9FF09282CBF0838FC
:105620000020A06010BD80B5FFF734FF4BF6BE2010
:1056300002BD084656E708469AE702B56846FFF7F6
:10564000E1FF01BD01207047F0B5DFF8684425781F
:105650002E460F2E0BDA1823DFF85C745E43BB195D
:10566000586000201D70D960986018745A616D1CD4
:105670002570681EF0BD38B504460025200001D114
:10568000002032BD04F10C0000F05AFA28B1056088
:10569000FF220481827200F10C05284632BD80B5DC
:1056A00008B9052002BD10F8021CFF2901D0042012
:1056B00002BD0C3800F045FA002002BD2DE9F04192
:1056C0000C00064602D10520BDE8F0810020DFF87D
:1056D000E85300E0401CDFF8DC231378C1B29942A4
:1056E00017D2C7B218214F43EA5DB242F2D100F09F
:1056F00029FA8046E8192146083000F0BFF84FF437
:105700000041304600F055F8404600F026FA0020EF
:10571000DAE70320D8E7F8B505460E4600F012FA9E
:1057200000240021DFF8902300E0491CDFF8847397
:105730003F78CBB2BB420FD2182717FB03F3D75CDD
:10574000AF42F2D1D1188C6801E054F80C4C002C17
:105750001CBF2178B142F8D100F0FFF92046F2BD1C
:105760002DE9F84380464FF000090026DFF8484352
:10577000DFF8405316E000F01CF812E01822504306
:10578000215C41450DD1271807F1080000F0ACF865
:105790008146B86800284FF40041F0B2EBD100F028
:1057A00046F8761C2978F0B28842E7D34846BDE82F
:1057B000F2832DE9F04781468A4603260025BD4C39
:1057C00018E01821BC48694347183A784A450FD178
:1057D00000F0B8F98046786901684AEA0101016081
:1057E000F86808B1FFF72EFE404600F0B6F9002633
:1057F0006D1CEDB220788542E3DB3046BDE8F087D2
:1058000070B504460025AB4E0DE01821AA48694347
:1058100008444268A24204D1C0684FF0FF31FFF74C
:1058200015FE6D1CEDB230788542EEDB70BD2DE9C2
:10583000F04180460C4600279E4E04E02878404503
:1058400010D07F1CFFB23078874215DA18229A49AF
:105850007A438D18B8F1FF0FF0D1FFF703FD6968A7
:105860008142EED100F06EF969690A6822EA040407
:105870000C60BDE8F04170E1BDE8F08138B5054647
:105880000C4600F05FF96CB1002144F80C1C2A684A
:1058900012B92C6006E00A4652F80C1C0029FAD115
:1058A00042F80C4CBDE8324057E12DE9F84304467C
:1058B0000D46904600F046F98146206800270026F4
:1058C00028B100E07F1C50F80C0C0028FAD14745A5
:1058D00004D229462046FFF7D1FF0126484600F0B2
:1058E0003CF93046BDE8F28338B5044600F02AF9A9
:1058F0002168002541B10D46A5F10C0100230A687D
:105900002260FF240B608C7200F027F9284632BD1C
:10591000F8B507460E4600F015F9002400250021D1
:10592000654A00E0491C634B1B7899421BDA182337
:105930004B4312F803E0BE45F4D1D1188C6801E066
:10594000254614467CB1237854F80C2CB342F7D189
:10595000002D0CBF8A6045F80C2C0021FF2244F872
:105960000C1C04F8022CF7E638B504460D4600F08E
:10597000E9F8216845F80C1C256093E770B50446EA
:105980000D46164600F0DEF8A5F10C0123680A6802
:105990009D420CBF226046F80C2C0022FF230A60B7
:1059A0008B72BDE87040D8E0F8B5424C424A657849
:1059B0000026002311E018275F4302EB070CD75D98
:1059C000874204D10F0018BF01278CF810709CF893
:1059D00010703E4318BF01265B1C2778BB42EADBF0
:1059E00002F031FB0746300009D1012D28460FD1C6
:1059F00002F0CDFC022002F0CAFC002508E02800DD
:105A000006D1012002F02EFD022002F02BFD01251F
:105A1000384602F03FFB65703046F2BD01468868AB
:105A2000496808472DE9F84189B080460F46164677
:105A30001D0008BF022035D02C68F4B90C20FFF7F8
:105A400051FD040015D00823242200216846FFF7E9
:105A500001FD00200590ADF81000069400236A4671
:105A600041461648FFF7FAFC20606760A660206890
:105A700008B9082016E02C600CE000F063F8054639
:105A8000206803F023F810B12068FFF7EBFC2846EC
:105A900000F063F820684146FFF7E8FC2068FFF754
:105AA000E9FC00200AB0BDE8F0810000EC300020E5
:105AB000688B00201C0100207C7400201D5A00000F
:105AC00070B505001CBF2C68002C01D0206808B9F7
:105AD000022070BD00F036F80646206802F0F6FF9E
:105AE00010B12068FFF7BEFC2046FFF7C7FC204638
:105AF00000F027F800202860304600F02EF8002043
:105B000070BD20B10068002818BFFFF7ABBC70471C
:105B100010B513465A1E3BB110F8013B11F8014B6A
:105B2000A342F6D0002010BD012010BD03E011F803
:105B3000013B00F8013B13465A1E002BF7D170477A
:105B4000D0E415E580B5FFF79DFCADF8000002F04C
:105B50007AFAADF80200009802BD01B5BDF8020066
:105B600002F098FABDF80000BDE80240FFF78EBCD5
:105B700080B5022100F002F880B202BD012901D1F6
:105B800000787047022904D10178407801EB0020A9
:105B90007047032907D102784378807802EB03210C
:105BA00001EB0040704704290AD10278437802EBE8
:105BB00003218278C07801EB024101EB006070475D
:105BC0004FF0FE30704701700A0A0B0C090E42704C
:105BD0008370C170001D704710B540B1002300E014
:105BE0005B1CDCB2944204D2045D8C42F8D00020ED
:105BF00010BD012010BD80B502F094FF80B202BD3F
:105C000062F30F2262F31F42401810F0030308D022
:105C1000C91A1FD3DB0748BF00F8012D28BF20F8A1
:105C2000022D130030B414461546103928BF20E960
:105C30003C00FAD8490728BF20E90C0048BF40F8CB
:105C4000042D890028BF20F8022D48BF00F8012D3F
:105C500030BC7047C91818BF00F8012DCB0728BF0A
:105C600000F8012D70470A00002202F087BF0A00E9
:105C7000DFF800F0699C031010B502F0FDFF4FF44F
:105C80007A71B0FBF1F402F0F4FF604310BD38B557
:105C90000446FFF757FF05465E480178220008D109
:105CA0000A0710D441F008010170022002F0DAFB6B
:105CB00009E0012C07D10A0705D501F0F7010170B1
:105CC000022002F064FB2846BDE83240FFF745BFE2
:105CD000E0B56846FFF796FC0198B0F5803F28BF15
:105CE0004FF6FF7080B20EBD03F03FBA80B50128B9
:105CF00020D1484801780A0701D4C80602D44FF0E1
:105D0000FF3002BD444A106808B1880622D5012040
:105D100003F02FFA02F066FAC00744BF012002F038
:105D200036FB3E490120C1F834010021002002F079
:105D300000FC0FE008280DD1394800782021FFF73A
:105D400038FD3848018841F0040101803648006878
:105D5000FFF778FB002002BD80B503F076FE08B1A6
:105D600004F011FD012000F069FE012002BD80B5A4
:105D700005F081F9BDE80240002000F05FBE2B492C
:105D8000087820B100220A70081D05F073BC704726
:105D900010B502F027FA10F0060F08D0FFF768FFE1
:105DA0002348C168D1F884008047002010BD1F4CF3
:105DB000201D05F061FC2070201D05F064FC012011
:105DC00010BD38B5184D134C2A68217878B941F0C8
:105DD000300121701046002105F05BFC28684FF06F
:105DE000FF31FFF733FB207800F0CF000FE041F0E8
:105DF000100121704FF47A710E4B1D684843B0FBBF
:105E0000F5F11046FFF722FB207800F0EF0020703C
:105E100031BD0000DD8F0020108E0020FC2E002000
:105E20007D280020AA8F0020982800201C880020B0
:105E30000C010020601600000022FFF7E5BEE80319
:105E4000DFF800F0E5EB0210DFF800F0C1DD021032
:105E5000DFF800F001CE02102DE9F84F9CB00121CF
:105E6000FEF7B7F900220192009200234FF47A72F4
:105E70000FF68931DFF8E40BDFF8285B05F0D2FB81
:105E8000DFF8DC1B086008232422002113A8FFF799
:105E9000D7FF00208DF8640013AA002105F12C0023
:105EA000FFF7D2FF05F12C00A862FFF7DBF9A96A22
:105EB00005F11402FFF7C8FB687305F1180200F042
:105EC000ADFBDFF8A01B087005F11C0200F0A6FB7B
:105ED000A8730020E873287405F085FEDFF8300B06
:105EE00090F8260004281ABF082800200220DFF8B6
:105EF000246BDFF8248B7178DFF8204B01F0FD0173
:105F0000084300F0FB007070B8F83670307800F08D
:105F1000FC00F9B240EA9110307005F0B7FE687CE1
:105F200000281FBF00216974607EFF2804D0012271
:105F30000121012005F048FFDFF82C9B0020A9F883
:105F40000000ADF806000DF1060300F00EFC80B96C
:105F50000DF106000090022300220121102001F023
:105F6000BFFF30B9BDF80610B8F829000140A9F804
:105F70000010F807DFF8F49A38D400218DF80410E7
:105F800001AB01220321102001F045FF70BB01A8E5
:105F90000090012300220321102001F0A1FF28BB63
:105FA0009DF80400DFF8C87A401C8DF804009DF8C5
:105FB000040004280EDB002000F034FB00F0CCFFCE
:105FC000687B6422202101F00FFC388840F0020039
:105FD000388058E100F026FB687B41F27072202186
:105FE00001F002FC388840F001003880DFF8841AA4
:105FF000087810B1012005F06CFE06F039FA06F0C1
:1060000071FB0020288128804FF6FF7A06F0EAFC19
:1060100004228DF819200122DFF85C1A04918DF812
:1060200018208DF814208DF81A208DF80C208DF88A
:106030001C208DF81E2000210746029103228DF8B6
:106040001D108DF81B20ADF816A002A9687BFFF784
:106050008BF906F07EFBADF8040006F09AFBDFF842
:10606000501D087810B9687B00F0B0FE687B0021F5
:1060700007F024FD0FF6A8120121012007F0E0FD32
:10608000442102A8FFF7F0FD01218DF846108DF89C
:1060900047108DF820108DF821108DF81E108DF806
:1060A0001F108DF81A108DF81B108DF81D108DF82B
:1060B0001C108DF822108DF823108DF818108DF813
:1060C000191002A9687BFFF737F9DFF8E81C0020F8
:1060D0000870FF220821DFF8A409FFF791FDDFF81F
:1060E000A019DFF8A029DFF8A039002008804FF0C0
:1060F000FF3010601860DFF89409A0F800A00020BD
:1061000009F068FB607EFF2834D0DFF88409DFF8EF
:106110008419DFF884B9016001200AF03FFBDFF841
:106120007C0990F800A0514658460AF051FC5146AF
:10613000584609F00CFE697BA86A002209F03AFE75
:10614000B4F8090008B9B8F86B00DFF85419DFF8A3
:1061500054290880D4F80D001060B4F80B0018B969
:1061600098F89C0100F07F00DFF83C1908800120BE
:1061700009F030FB0FB106F097FEB8F858104FF455
:106180007A704143C9F800104B46042205211020C3
:1061900001F041FE68B902A9029000910423002297
:1061A0000521102001F09CFE18B10298C9F80000EA
:1061B00002E04B4601F058F905F0AAFD122005F067
:1061C00012FD0021DFF8E428C8B2105C002867D176
:1061D000491CCBB2102BF7DBDFF8D4480AF038FCAF
:1061E000204602F062FD02F044FD4FF47A71B1FBEB
:1061F000F0F142F210704143204602F052FD204679
:1062000002F051FDA87B401C8DF8000068460AF0A2
:10621000B2FCBDF8040001210BF002F80BF0F3FA18
:106220000BF08DFBDFF88C18DFF88C28002008704D
:1062300000230121DFF8840802F093F808F5CE70FE
:10624000C2783AB14FF47A704243687B4FF4806170
:1062500001F0CAFA6F7B0420FFF70DFA04000AD0A0
:106260000421FFF7E9FD942020700121E1703846F8
:106270002146FFF723FA012000F0E0FB0020FFF7A2
:1062800006FD00F004FEDFF8301BDFF8300B0A6873
:10629000DFF82CABB0FBF2F2019243F698275DE0F9
:1062A000A96A05F120020020FFF7CEF9E87305F195
:1062B000240200F0B3F928748EE70BF0A4FB6869A0
:1062C00090B1FFF73FFC6C6900216961FFF745FC65
:1062D000687B214600F0F4FB0446FFF733FC696954
:1062E0000C436C61FFF739FCA96949B10020A86132
:1062F000DFF870271078FEF71AF9A9690843A8613A
:10630000E96939B10020E861A87B00F064FDE96922
:106310000843E861296A39B100202862E87B00F06F
:1063200082FD296A08432862696A39B100206862DF
:10633000287C00F078FD696A08436862307881063D
:106340000CD56869E969AA690843296A10430843BA
:1063500007BF686A0028A86AFFF774F80199A86A5D
:10636000FFF774F850B9F9E7012000F067FB204609
:10637000FFF710F810B92046FFF791F9687BFFF797
:10638000EFF9040000F02C812078D62808D1E078BD
:10639000227900EB0223002198B20AF041FFEAE7DC
:1063A000D32819D1E0890028E5D1A07C0828E2DBB8
:1063B000287B062818BF0728DDD1A169DFF8240B48
:1063C0000BF047FB0028D6D0686940F400306861C4
:1063D000A86AFFF737F8CEE7DFF8D81C087808B1CD
:1063E0000BF011FB2278687B7178623A032A0ED990
:1063F000121F12D02C3A00F08880921E2AD0313A17
:1064000000F0CE80521F79D0521E74D0AFE7C8067C
:10641000ADD538460BF0F9FCA9E7A07A801DFFF74F
:106420002AF95FEA000BA2D0A0798BF8000021893D
:10643000ABF80210A07A8BF80400A27AE1680BF1A5
:106440000500FFF773FB58460AF00AF95846FFF7B4
:1064500026F98CE7E0782873012810D101F0F901C2
:1064600071703078C1060AD440F01000307000F02E
:106470009CFA20B1DFF8B41A012006F04EF995F924
:106480000C10BAF80020012000FA01F10A4206D1EE
:106490001143AAF800100020012101F0ADFA297B78
:1064A000687B09291CBF0729062907D0402101F074
:1064B0009FF9687B4021FFF7BAF958E771788A079E
:1064C00011D441F0020171703A4600F07CFCDFF813
:1064D0004C1B002008703846727842F0100272702F
:1064E0000BF093FC04E0D9F800200AB100F06BFC3B
:1064F00005F00EFC3BE7FEF744FF38E700218DF87E
:1065000000106946FEF739FF31E7608AADF80A00EE
:10651000A08AADF80C00A07B8DF81700208AADF89A
:10652000180020798DF8160002281CBF01280F28BA
:1065300008D0032809D10822A11D0DF10E00FFF794
:10654000F5FA02E0E088ADF80E00E08AADF81A0036
:10655000207E8DF81C00607E8DF81D00E07E8DF899
:106560001E00207F8DF81F00607F8DF82000A07E28
:106570008DF82100206A099004F1240001788DF83B
:1065800028104188ADF8341001798DF83610C18893
:10659000ADF82C1080680C9002A807F082FFE6E6A8
:1065A000207990B1012816D00528F8D1E1780D297D
:1065B000F5D0DFF8AC0400684FF47A7105F065F8A7
:1065C000DFF8980405F056F8D1E6012000F036FA1D
:1065D00000F05DFCCBE6E07800287FF4C5AEF7E77D
:1065E00009F058FFDFF8CC1A087800280ED0DFF841
:1065F000302BDFF8C0371078197841B1002805D169
:10660000012010700BF0FFF90BF0F4F957E60028A9
:1066100003D0002010700BF0D9F94EE6A96A0020D3
:10662000FFF712B880B58DF800006B4601220321F8
:10663000102001F033FC01BD70B58AB000240FF2C8
:10664000E4320094D2E9005604A90DF10203C1E935
:10665000005600F08AF8002800F085800DF1020352
:1066600002220121102001F019FC6A460221832038
:1066700001F0F8FB88B96B4602220021832001F06B
:106680006DFCDFF8F82ABDF800101088884204D0AD
:106690000221832001F01FFC012402AA08212D20E1
:1066A00001F0E0FB88B902AB082200212D2001F0A7
:1066B00055FC082202A904A80BF0C2FC28B104AAC8
:1066C00008212D2001F007FC641CDFF8B45ADFF824
:1066D000A81329600020019001AA0421842001F060
:1066E000C1FB80B901AB04220021842001F036FCFB
:1066F00028680199884206D0019001AA04218420CB
:1067000001F0E9FB641C200029D006A80FF21C311F
:10671000C14E102201F032FB96F85A0006AD102847
:1067200008BF06F15B05622001F0B5FB01462A4671
:10673000622001F0D0FB0020ADF80000632001F0E2
:10674000AAFB01466A46632001F0C5FB96F89D014D
:1067500000F03F00062804BFFA200BF00FFD91491E
:106760000120487420460AB070BD02220121102089
:1067700001F051BB70472DE9FC47DFF8081ADFF83C
:10678000082A0D78DFF8041ADFF8049A002046F290
:10679000020349F8203041F82020401CC0B2854255
:1067A000F7DA00218DF80010684606F092F800280C
:1067B000DFF864A200F0D6804FF4804000270190FB
:1067C0004FF40058DFF8CC09B849C45DCE5D0AEB40
:1067D00007020AEB0703507A03F13801002814BFBF
:1067E0000A78002202F00303920500F03F0C654591
:1067F00010DB002818BFA0420CD0120E0AD1022BC9
:1068000008BF404604D0012B0CBF01984FF4C04094
:1068100049F82C000AEB0700407E002814BF0A7CD0
:10682000002202F00301920500F03F039D4212DBBB
:10683000002818BFA0420ED0120E0CD1022908BFAA
:106840004FF0202005D001290CBFDFF84C09DFF8FC
:106850004C0949F82300002C46D004F03F04A5421F
:1068600042DB012E18BF022E04D00E2E1CBF342E88
:106870000F2E02D1DFF8240934E03146F8B20BF0D4
:1068800017FD98B93146F8B20BF000FD70B90A2E29
:1068900003D0062E0CD00D2E16D14FF48060DFF8F9
:1068A000841BC95D022906D1414609E0062EF4D1B8
:1068B0004FF40060F3E701290CBF01994FF4C04188
:1068C000084340F400000DE0DFF8580BC05D0228DB
:1068D00008BFDFF8540B05D001280CBFDFF84C0BC4
:1068E000DFF84C0B49F824007F1C0F2F7FF76AAFAD
:1068F0004A4B597EFF2935D0987DDFF8382BDFF8D9
:10690000384BDFF8385B00F03F00107001F03F01BA
:10691000DA7D02F03F0222701B7EDFF8244B03F089
:106920003F0323702970DFF81C4BDFF81C5B2184C8
:10693000E561247EDFF81C5C05EB8414FF2504F878
:10694000380F6270A370E570DFF80C4C49F82240F4
:10695000DFF8082C49F8202049F82320DFF8000C44
:1069600049F821000AF29D110878002812BF00F0B2
:106970003F00DFF8F00B0078DFF8EC2B49F820201F
:106980004878002812BF00F03F00DFF8E00B0078E5
:1069900049F82020DFF83C0C017849F82120BDE8B7
:1069A000F38700007028002070477CB50020072185
:1069B00000220023DFF8205CEE5C0DF803605B1C16
:1069C000082BF9DBDFF8145C0023EE5C9219401C05
:1069D0000FE000206EBDC6B2032EF6D1E85CD2B245
:1069E0004240C8B21DF80060B242F2D1002200203D
:1069F000491E5B1C202BEED301206EBDDFF8E00B9F
:106A0000416941F400314161806AFEF71BBD00001D
:106A1000DC800020028E002020220000EC260000F6
:106A200000000004FFFFFFFFFFFFFFFF010305075A
:106A3000090B0D0F00020406080A0C0D80B5002892
:106A400019BF02218DF8001000228DF80020DFF818
:106A5000900B407B6946FEF783FC01BD2088002037
:106A6000148E0020B0890020A88F0020108E0020F6
