:100000004343323678325231FFFFFFFF0301F7FFDF
:10001000FFFF0701FFFFFFFFFFFFFFFFA80000003A
:100020003030303190DB03002C00FFFF01F7FFFF81
:080030000000000000000000C8
:1000A8000080002051D0030051D1030051D103003A
:1000B80051D1030051D1030051D1030051D10300A4
:1000C80051D1030051D1030051D1030051D1030094
:0C00D80051D1030051D103001DD10300E1
:1000E80001280000000000000000000000010030AE
:1000F80000000000000000000003FF18640000007A
:1001080000000000000000007856341200000000D3
:10011800BAAB000000000001000000000000000071
:10012800000000000000F0BF000000000000008098
:100138000000000000000080000000000000000037
:10014800000000C05294EEBF00000048204E51BE8F
:10015800000000F86467BCBC00000000000000005C
:10016800000000208133EDBF00000080B3DB14BE27
:10017800000000506706A3BC00000000000000005B
:10018800000000D0E9DCEBBF00000008C39259BEB4
:1001980000000080B0D3B8BC0000000000000000E0
:1001A80000000070F98FEABF000000C0A51028BE4B
:1001B800000000E8BFC0B0BC000000000000000064
:1001C80000000070284CE9BF00000060134B42BEDD
:1001D800000000C03D20B8BC000000000000000086
:1001E80000000050FA10E8BF000000C05FF62BBE08
:1001F800000000905C71A7BC000000000000000037
:1002080000000020FCDDE6BF000000C0F8F154BE8D
:1002180000000018E9F6B9BC00000000000000006A
:10022800000000D0C3B2E5BF00000070E43254BE45
:1002380000000050DB06B4BC000000000000000015
:1002480000000010EF8EE4BF00000020F36252BEF1
:10025800000000C02A879ABC0000000000000000CF
:10026800000000B02272E3BF000000F0E8E056BED4
:1002780000000028352DBDBC000000000000000073
:10028800000000000A5CE2BF000000B0FA8E41BE28
:1002980000000040AE6FBDBC000000000000000080
:1002A80000000000564CE1BF000000F015CD5FBE15
:1002B80000000000141C90BC0000000000000000BA
:1002C80000000040BD42E0BF00000030F93457BED6
:1002D800000000E06C1E93BC00000000000000005D
:1002E800000000E0F57DDEBF000000B08A535EBE6E
:1002F80000000080DA77AABC0000000000000000BF
:10030800000000C09D81DCBF00000000FFA226BEE7
:100318000000006057E2B0BC0000000000000000D0
:1003280000000060F98FDABF000000580A8151BE52
:10033800000000F05F60B8BC000000000000000092
:100348000000000098A8D8BF000000607A7F45BE72
:10035800000000D05433A3BC0000000000000000DF
:10036800000000600FCBD6BF000000D091CB40BE8C
:10037800000000406D1BA0BC000000000000000051
:10038800000000A0FBF6D4BF00000098C5CE52BE06
:10039800000000003A397EBC0000000000000000A8
:1003A800000000E0FE2BD3BF0000004073872BBE87
:1003B80000000000926879BC000000000000000006
:1003C80000000040C069D1BF00000058F16353BE6F
:1003D80000000080438D7CBC00000000000000008D
:1003E80000000080D85FCFBF000000181F8354BEF4
:1003F800000000B03F42A2BC000000000000000066
:100408000000008067FCCBBF00000060FAFF53BE0D
:1004180000000050E00DB8BC000000000000000023
:100428000000000098A8C8BF000000607A7F35BEB1
:10043800000000C0543393BC00000000000000001E
:1004480000000000DC63C5BF00000058D6FF54BEA2
:1004580000000000396490BC0000000000000000AB
:10046800000000C0AD2DC2BF00000080A45915BE19
:10047800000000E0484BABBC00000000000000009A
:10048800000000801A0BBEBF00000050BF3C5ABEDF
:10049800000000A0B364B6BC00000000000000002B
:1004A8000000008004D6B7BF00000040BBCF36BEB6
:1004B8000000008076CEA8BC00000000000000000C
:1004C8000000008032BBB1BF000000402A0043BEDC
:1004D80000000028C60CBDBC0000000000000000A1
:1004E800000000009473A7BF000000182B3B59BE02
:1004F800000000C0E55DA5BC000000000000000091
:1005080000000000EE4397BF000000A0E6C340BE15
:1005180000000020958DB5BC000000000000000020
:1005280000000000000000800000000000000080C3
:100538000000000000000080000000000000000033
:1005480000008001100080FFFDFF58003AFFBBF358
:10055800FFFFFFFFFFFFFFFFFFFFFFFFFFFFFFFFA3
:10056800FFFFFFFFFFFFFFFFFFFFFFFFFFFFFFFF93
:10057800FFFFFFC5FFFFFFFF00FFFFFF00C5C5FF2F
:10058800000000FF00000000FFFFFFFFFFFFFFFF6C
:10059800FFFFFFFFFFFFFFFF00000000000000005B
:1005A8000100000000000F0000000E0036000000EF
:1005B80000000000281C00200400000000000000CB
:1005C8000000000020000000D805000030000000F6
:1005D80030000000000000000000000000060000DD
:1005E800040000000000000001000000FFFFFFFF02
:1005F800FF000000010000000800000000000000EB
:1006080001000000000200000000000051D10300BA
:1006180000000000080000006C090000340600001B
:10062800575100004F510000535100007538000029
:10063800A13800005B3800002700000020060000F9
:10064800481C00200400000000000000000000001A
:100658000C000000640600001800000018000000EC
:100668000000000000000000740600000800000000
:1006780000000000100000006C0900009406000053
:1006880069520000815100000152000051390000F8
:10069800A939000035390000280000008006000054
:1006A800781C00200400000000000000000000008A
:1006B80020000000C4060000180000001800000018
:1006C8000000000000000000D40600000800000040
:1006D80000000000080000006C090000F40600009B
:1006E800FB520000BD520000E9520000D53800005E
:1006F80011390000C338000029000000E00600009E
:10070800541C00200400000000000000000000004D
:100718002400000024070000180000001800000052
:10072800000000000000000034070000080000007E
:100738000000000070090000540700005753000033
:10074800655300007D53000073530000093A000010
:10075800393A0000E53900002A0000003C07000093
:10076800801C0020040000000000000000000000C1
:1007780014000000840700001C0000001C0000009A
:1007880000000000000000009807000000000000C2
:1007980008000000000000000100000011800000B7
:1007A800895300008D530000158000001980000057
:1007B800058000002380000024000000FFFFFFFFE9
:1007C800941C00200400000000000000000000004D
:1007D80028000000E40700002400000024000000B6
:1007E80000000000000000000008000000000000F9
:1007F80000000000000000000800000000000000E9
:100808000A0000009C1C002099A3000001000000C1
:1008180010080000FFFFFFFFBC1C002004000000C0
:100828000000000000000000100000003C0800006C
:100838001800000018000000000000000000000080
:100848004C08000008000000000000000C00000038
:10085800FFFFFFFFC41C0020040000000000000090
:10086800000000001C0000007808000024000000C0
:1008780024000000000000000000000094080000B0
:100888000000000001000000000000000800000057
:1008980000000000FFFFFFFFCC1C00200400000048
:1008A800000000000000000038000000BC08000044
:1008B80028000000280000000000000000000000E0
:1008C800DC0800000000000000000000FFFFFFFF40
:1008D8000000000008000000000000000100000007
:1008E800000000000600000034000000FFFFFFFFCA
:1008F800341D00200400000000000000000000007B
:1009080054000000140900003C0000003C000000F6
:10091800000000000000000048090000000000007E
:1009280000000000010000000000000000000000BE
:1009380000000000000000000100000000000000AE
:100948000800000000000000010000000000000096
:10095800000000000002000000000000000003008A
:100968002D55000074090000740900000000000003
:10097800881C00207536000021370000F54B000068
:10098800255100000300000080090000000000005D
:10099800000000002000000001000100000000002D
:1009A800000000000000000001000000A009000095
:1009B80015570000E1570000613D0000EB420000C0
:1009C8000F450000474A0000AB4F000013510000DC
:1009D800FF520000B809000000040000893600003A
:1009E800501C0020855700008757000000000000B9
:1009F80005000600080009001600020102020302B1
:100A0800000301030105020500060106040B140694
:100A1800150617060007010702070307000904095E
:100A280007000A000C000D000E000F001000110056
:100A38001200130014001B00000101010002010252
:100A48000204000401040304040405040604000568
:100A58000206030604060506060607060806090632
:100A68000A060B060C060D060E060F0610061106E2
:100A78001206130604070009000B010B020B030BF7
:100A8800AB0055007C0084004B00B5001B00E5005E
:100A98000017E8000047B8000077AB0000ABAB00D8
:100AA8000055AB000022DD000E00F2003E00C2003F
:100AB80071008F00A1005F00D0002F00F90700002F
:100AC8000097B92EE5725CCB5DCAE473B82F019626
:100AD800BA2D03945FC8E671E7705EC90295BB2C16
:100AE800E3745ACD0691BF28BE2907905BCCE27506
:100AF80059CEE077BC2B05920493BD2AE17658CFF6
:100B080051C6E87FB4230D9A0C9BB522E97E50C7E5
:100B1800EB7C52C50E99B720B6210F9853C4EA7DD5
:100B2800B2250B9C57C0EE79EF7856C10A9DB324C5
:100B3800089FB126ED7A54C355C2EC7BB027099EB5
:100B4800A2351B8C47D0FE69FF6846D11A8DA334A5
:100B5800188FA136FD6A44D345D2FC6BA037198E95
:100B680041D6F86FA4331D8A1C8BA532F96E40D785
:100B7800FB6C42D51E89A730A6311F8843D4FA6D75
:100B8800F3644ADD1681AF38AE3917804BDCF26565
:100B980049DEF067AC3B15821483AD3AF16648DF55
:100BA8001087A93EF5624CDB4DDAF463A83F118645
:100BB800AA3D13844FD8F661F7604ED91285AB3C35
:100BC80000000000000000000000000051D20300F7
:100BD800696403000000000099D1030089D2030072
:100BE800B5D2030000000000000000000000000073
:100BF80051D20300696403000000000099D103008A
:100C080089D20300B5D203000000000000000000F4
:100C18000000000051D203006964030000000000D6
:100C280099D1030089D20300B5D203000000000067
:100C3800000000000000000051D2030079640300A6
:100C48000000000099D103008DD20300EFD2030009
:100C580000000000000000000000000051D2030066
:100C6800796403000000000099D103008DD20300CD
:100C7800EFD20300000000000000000000000000A8
:100C880051D20300796403000000000099D10300E9
:100C98008DD20300EFD20300000000000000000026
:100CA8000000000051D20300896403000000000026
:100CB80099D1030091D2030029D30300000000005A
:100CC800000000000000000051D203008964030006
:100CD8000000000099D1030091D2030029D303003A
:100CE80000000000000000000000000051D20300D6
:100CF800896403000000000099D1030091D2030029
:100D080029D30300000000000000000000000000DC
:100D180051D20300996403000000000099D1030038
:100D280095D2030063D30300000000000000000018
:100D38000000000051D20300996403000000000085
:100D480099D1030095D2030063D30300000000008B
:100D5800000000000000000051D203009964030065
:100D68000000000099D1030095D2030063D303006B
:100D780000000000000000000000000051D2030045
:100D8800A96403000000000099D1030099D2030070
:100D98009DD30300000000000000000000000000D8
:100DA80051D20300A96403000000000099D1030098
:100DB80099D203009DD3030000000000000000004A
:100DC8000000000051D20300A964030000000000E5
:100DD80099D1030099D203009DD3030000000000BD
:100DE800000000000000000051D20300B9640300B5
:100DF8000000000099D103009DD20300D7D303005F
:100E080000000000000000000000000051D20300B4
:100E1800B96403000000000099D103009DD20300CB
:100E2800D7D303000000000000000000000000000D
:100E380051D20300B96403000000000099D10300F7
:100E48009DD20300D7D3030000000000000000007B
:100E58000000000051D20300C96403000000000034
:100E680099D10300A1D2030011D4030000000000AF
:100E7800000000000000000051D20300C964030014
:100E88000000000099D10300A1D2030011D403008F
:100E980000000000000000000000000051D2030024
:100EA800C96403000000000099D10300A1D2030027
:100EB80011D4030000000000000000000000000042
:100EC80051D20300D96403000000000099D1030047
:100ED800A5D203004BD4030000000000000000006E
:100EE8000000000051D20300D96403000000000094
:100EF80099D10300A5D203004BD4030000000000E1
:100F0800000000000000000051D20300D964030073
:100F18000000000099D10300A5D203004BD40300C0
:100F280000000000000000000000000051D2030093
:100F3800E96403000000000099D10300A9D203006E
:100F480085D403000000000000000000000000003D
:100F580051D20300E96403000000000099D10300A6
:100F6800A9D2030085D4030000000000000000009F
:100F78000000000051D20300E964030000000000F3
:100F880099D10300A9D2030085D403000000000012
:100F9800000000000000000051D20300F9640300C3
:100FA8000000000099D10300ADD20300BFD40300B4
:100FB80000000000000000000000000051D2030003
:100FC800F96403000000000099D10300ADD20300CA
:100FD800BFD4030000000000000000000000000073
:100FE80051D20300F96403000000000099D1030006
:100FF800ADD20300BFD403000000000000000000D1
:101008000000000051D20300096503000000000041
:1010180099D10300B1D20300F9D403000000000005
:10102800000000000000000051D203000965030021
:101038000000000099D10300B1D20300F9D40300E5
:1010480000000000000000000000000051D2030072
:10105800096503000000000099D10300B1D2030024
:10106800F9D40300000000000000000000000000A8
:101078000000000000000000000000000000000068
:1010880000000000BD7F030000000000B17F0300E6
:1010980000000000BF77000000000000436E000061
:1010A80000000000677E000000000000AB7900002F
:1010B80000000000B58103007B800300EB80030083
:1010C8008D800300538103007D820300A11A273F0E
:1010D8005A5DB03E7C85233FF086B63EE202203F53
:1010E8000A23BC3ED3931C3FAD24C13E9E38193F12
:1010F8001D86C53E8BF1153F4647C93E1ABF123FB4
:101108006D6CCC3E0AA20F3F0EFDCE3E419B0C3FBC
:10111800E702D13EB2AB093F2589D23E42D4063F11
:10112800B39BD33EB215043FB646D43E9370013FFD
:101138001C96D43E7DCAFD3E5295D43EA7E7F83EA4
:10114800124FD43E7738F43E3FCDD33E5FBCEF3EDE
:10115800DC18D33E7B72EB3E033AD23E9F59E73E02
:10116800EB37D13E6770E33EF718D03E44B5DF3E1B
:10117800BDE2CE3E8826DC3E1E9ACD3E6EC2D83EEB
:101188005443CC3E2987D53E03E2CA3EE372D23EA1
:101198004979C93ECB83CF3ECF0BC83E16B8CC3E6B
:1011A800D89BC63E020ECA3E4C2BC53EDC83C73ECA
:1011B800C4BBC33EFE17C53E964EC23ED3C8C23E10
:1011C800DCE4C03ED994C03E807FBF3E9E7ABE3EDE
:1011D8003D1FBE3EC278BC3EACC4BC3EF78DBA3E95
:1011E8004470BB3E01B9B83E6122BA3EB5F8B63E7E
:1011F8004ADBB83EF84BB53E2F9BB73EBFB1B33E76
:101208003262B63E0E29B23E6730B53EF8B0B03E07
:10121800D505B43E9C48AF3E7AE2B23E29EFAD3EDA
:101228004BC6B13ED6A3AC3E38B1B03EEB65AB3E43
:1012380029A3AF3EB534AA3E039CAE3E910FA93E0A
:10124800A99BAD3EE1F5A73EF7A1AC3E12E7A63E4D
:10125800CAAEAB3E9BE2A53EFEC1AA3EF8E7A43E5D
:101268006ADBA93EAEF6A33EE8FAA83E4A0EA33EC4
:101278005020A83E5E2EA23E794BA73E8356A13E43
:101288003B7CA63E5886A03E6FB2A53E80BD9F3EE1
:10129800ECEDA43EA5FB9E3E8C2EA43E75409E3EE2
:1012A8002874A33EA28B9D3E9BBEA23EE3DC9C3EDF
:1012B800BF0DA23EF2339C3E7161A13E8E909B3ED3
:1012C8008CB9A03E7AF29A3EF015A03E79599A3E22
:1012D8007A769F3E54C5993E09DB9E3ED735993EA6
:1012E8007F439E3ECEAA983EBCAF9D3E0B24983EBF
:1012F800A31F9D3E61A1973E16939C3EA322973E55
:10130800FA099C3EABA7963E34849B3E5030963EED
:10131800AA019B3E6FBC953E41829A3EE34B953EA7
:10132800E3059A3E8DDE943E768C993E4B74943E4E
:10133800E515993E000D943E18A2983E8FA8933E5D
:10134800FB30983EDC46933E78C2973ECEE7923E0D
:101358007D56973E4A8B923EF4EC963E3B31923E48
:10136800CD85963E88D9913EF520963E1C84913EC7
:101378005ABE953EE230913EEB5D953EC6DF903E0B
:1013880099FF943EB690903E53A3943E9F43903E5F
:101398000C49943E70F88F3EB2F0933E18AF8F3EE2
:1013A8003A9A933E87678F3E9545933EAE218F3E8E
:1013B800B5F2923E7EDD8E3E8FA1923EEA9A8E3E37
:1013C8001552923EE4598E3E3C04923E5F1A8E3E80
:1013D800F8B7913E4EDC8D3E3F6D913EA79F8D3E06
:1013E8000424913E5C648D3E3FDC903E652A8D3E30
:1013F800E595903EB5F18C3EEB50903E43BA8C3E5D
:10140800490D903E05848C3EF6CA8F3EF24E8C3EC6
:10141800E8898F3E011B8C3E184A8F3E29E88B3E97
:101428007D0B8F3E62B68B3E0ECE8E3EA4858B3EE4
:10143800C4918E3EE7558B3E98568E3E24278B3EB0
:10144800821C8E3E53F98A3E7CE38D3E6ECC8A3EEA
:101458007EAB8D3E6EA08A3E82748D3E4D758A3E6F
:10146800813E8D3E044B8A3E75098D3E8D218A3E14
:1014780059D58C3EE3F8893E26A28C3E00D1893EA0
:10148800D66F8C3EDFA9893E653E8C3E7B83893EC4
:10149800CD0D8C3ECE5D893E08DE8B3ED438893E2C
:1014A80012AF8B3E8814893EE5808B3EE5F0883E7E
:1014B8007E538B3EE8CD883ED7268B3E8BAB883E4D
:1014C800ECFA8A3ECB89883EB9CF8A3EA468883E2A
:1014D8003AA58A3E1248883E697B8A3E1128883E92
:1014E80045528A3E9E08883EC7298A3EB6E9873E0D
:1014F800EE018A3E54CB873EB5DA893E76AD873E0B
:1015080018B4893E1890873E158E893E3773873EFA
:10151800A868893ED156873ECD43893EE33A873E47
:10152800821F893E691F873EC3FB883E6104873E50
:101538008ED8883EC8E9863EDFB5883E9CCF863E79
:10154800B393883EDBB5863E0972883E819C863E11
:10155800DD50883E8D83863E2C30883EFC6A863E70
:10156800F40F883ECD52863E33F0873EFC3A863EE5
:10157800E7D0873E8823863E0BB2873E6F0C863EB7
:10158800A093873EAFF5853EA275873E46DF853E30
:101598000E58873E32C9853EE43A873E71B3853E90
:1015A800211E873E029E853EC201873EE388853E16
:1015B800C7E5863E1174853E2CCA863E8D5F853E02
:1015C800F0AE863E534B853E1294863E6237853E8A
:1015D8009079863EBA23853E675F863E5810853EE1
:1015E8009645863E3BFD843E1B2C863E62EA843E41
:1015F800F612863ECBD7843E24FA853E75C5843ED6
:10160800A3E1853E5FB3843E72C9853E87A1843ECF
:1016180091B1853EEC8F843EFC99853E8E7E843E5A
:10162800B482853E6B6D843EB66B853E815C843E9C
:101638000155853ED04B843E943E853E573B843EC3
:101648006E28853E142B843E8D12853E071B843EF2
:10165800F0FC843E2E0B843E96E7843E89FB833E55
:101668007ED2843E17EC833EA7BD843ED6DC833E03
:101678000FA9843EC6CD833EB694843EE6BE833E23
:101688009A80843E36B0833EBA6C843EB3A1833ED2
:101698001659843E5E93833EAC45843E3685833E30
:1016A8007B32843E3977833E831F843E6769833E5D
:1016B800C20C843EC05B833E38FA833E424E833E72
:1016C800E4E7833E36000100060000000000000049
:1016D800000F0000000000000000000000000000F3
:1016E80000000300FFFF00000403FFFF0000FFFFEE
:1016F8000F00E8030005401F031000010000000070
:10170800FF3F0F000800050B00000000000000006C
:101718000300010F000000000000000000000000AE
:1017280000000000000000000000000000000000B1
:1017380000000000000000000000000000000000A1
:1017480000000000AD000002000000000001363675
:101758000101000102010001030100010401060664
:10176800080400000C0100340D01000F10040101F1
:10177800140100FF1608000020020000220100FFEB
:1017880023010001240100FE2501000826020000B3
:1017980028010001290100012A0200002C01000F84
:1017A8002E0200003001000131010008320200FF62
:1017B80034010007350102FF36010000370100013E
:1017C80038010001390100FF3A01000F3C0200FF17
:1017D8003E01010F3F0100014001041F41010001CA
:1017E800420100FF43010080440800004E01000848
:1017F8004F01000F50010001510100FF520100008C
:101808005301000054010001580400005C0400006A
:101818006004000064040000680400006C04000018
:101828007004000074040000780400007C040000C8
:10183800800100FF81010001820100018301020291
:10184800840100014BFF0200930103000000000027
:101858000000000000000000710703008F0703006C
:10186800D5060300A9070300D9070300DF07030013
:10187800AD09030000000000A3090300B90A030032
:10188800E9020300E50703000508030091080300C7
:10189800350B03006F030300390D0300150D03001A
:1018A80000000000B50D0300550303005D0C0300A4
:1018B80049A4030067A30300A3A4030055A30300DE
:1018C80075A303000BA603000FA6030037A90300A6
:1018D80079A80300B1A9030059A803006BA8030065
:1018E80007AA03000BAA0300D9630100E5630100FE
:1018F800F4170020A41700203C26000054260000FE
:101908006C260000E800000084260000A4260000E1
:1019180000000000808386898C8F9295989B9EA2F8
:10192800A5A7AAADB0B3B6B9BCBEC1C4C6C9CBCE13
:10193800D0D3D5D7DADCDEE0E2E4E6E8EAEBEDEE98
:10194800F0F1F3F4F5F6F8F9FAFAFBFCFDFDFEFE0A
:10195800FEFFFFFFFFFFFFFFFEFEFEFDFDFCFBFAA3
:10196800FAF9F8F6F5F4F3F1F0EEEDEBEAE8E6E46F
:10197800E2E0DEDCDAD7D5D3D0CECBC9C6C4C1BE4F
:10198800BCB9B6B3B0ADAAA7A5A29E9B9895928FF5
:101998008C898683807C797673706D6A6764615DF3
:1019A8005A5855524F4C494643413E3B39363431DB
:1019B8002F2C2A282523211F1D1B19171514121136
:1019C8000F0E0C0B0A0907060505040302020101A4
:1019D80001000000000000000101010202030405EB
:1019E800050607090A0B0C0E0F1112141517191BFF
:1019F8001D1F212325282A2C2F313436393B3E41FF
:101A08004346494C4F5255585A5D6164676A6D7038
:101A18007376797C5054564F5349474E3100000035
:101A280000000000000000000000000000000000AE
:101A3800000000000000000000000000000000009E
:101A4800000000000000000000000000000000008E
:101A5800000000000000000000000000000000007E
:101A68000000000000000000000000003C00100121
:101A7800030507090B0D0F00020406080A0C0DBF29
:101A8800FB097074766F2E696E666F202020202007
:101A980020200B7074766F2E73776974636820202A
:101AA800202020002020202020202020202020204E
:101AB800202020200A323032352D30322D323801A4
:101AC800000000000000000000000000000000000E
:101AD80000000000000000000000000000000000FE
:101AE80000000000000000000000000000000000EE
:101AF80000000000000000000000000000000000DE
:101B080000000000000000000000000000000000CD
:101B180000000000000000000000000000000000BD
:101B280000000000000000000000000000000000AD
:101B3800000000000000000000000000000000009D
:101B4800000000000000000000000000000000008D
:101B5800000000000000000000000000000000007D
:101B6800000000000000000000000000000000006D
:101B7800000000000000000000000000000000005D
:101B8800000000000000000000000000000000004D
:101B9800000000000000000000000000000000003D
:101BA800000000000000000000000000000000002D
:101BB800000000000000000000000000000000001D
:101BC800000000000000000000000000000000000D
:101BD800000000005054564F5349474E3200000051
:101BE80000000000000000000000000001200000CC
:101BF8009D62000000010000022000009D620000BC
:101C080000010000032000009D62000001000000A8
:101C1800042000009D620000000100000500000093
:101C280000000000000000000600000000000000A6
:101C38000000000007000000000000000000000095
:101C48000800000000000000000000000000000084
:101C580000000000000000000A0000000000000072
:101C6800000000000B000000000000000000000061
:101C78000C02000000000000000000000D00000041
:101C880000000000000000000E2000009D6200001F
:101C9800100100000F2000009D62000010000000ED
:101CA80010800000919D020000000000110000005B
:101CB800C78503001000000012000000B18903006E
:101CC80010000000130000000000000000000000E9
:101CD80014000000498803000000000015000000FF
:101CE80000000000000000001600000000000000D6
:101CF80000000000170100000000000000000000C4
:101D08001801000000000000000000001900000099
:101D180031500100000000001A000000315001009D
:101D2800000000001B000000000000000000000090
:101D38001C01000000000000000100001D0100005F
:101D480000000000000100001E000000000000006C
:101D5800000000001F010000555B030008000000A0
:101D68002000000033C7010000000000210000002F
:101D7800D19E010000000000220000006B8B0300D0
:101D88000000000023000000000000000000000028
:101D9800000000000000000000000000000000003B
:101DA8000000000000000000260000000000000005
:101DB80000000000270000000000000000000000F4
:101DC80028090000CF9F0300000000002900000040
:101DD8002FA30300100000002A00000000000000EC
:101DE800000000002B0000000000000000000000C0
:101DF8002C00000000000000000000002D00000082
:101E080000000000000000002E000000000000009C
:101E1800000000002F00000000000000000000008B
:101E28003000000089A2030010000000310100000A
:101E38000000000000000000320000000000000068
:101E48000000000033000000000000000000000057
:101E58003400000000000000000000003500000011
:101E68000000000000000000360000000000000034
:101E78000000000037000000000000000000000023
:101E880038000000000000000000000039010000D8
:101E980000000000000100003A00000000000000FF
:101EA800000000003B0000000000000000000000EF
:101EB8003C00000000000000000000003D000000A1
:101EC80000000000000000000204050403040004F0
:101ED8000C000C040D042A04040B02070A0011006C
:101EE8005054564F5349474E33BFFB09002802252B
:101EF8002000000000FFFFFFFFFF000000000000BF
:101F08000000000000005054564F5349474E34001B
:101F18004F4144204E564D310000000000000000A3
:101F280000000000000000000000000000000000A9
:101F38000000000000000000000000000000000099
:101F480000000000000000005054564F5349474E0F
:101F58003700000000000000000000000000000042
:101F68000000000000000000000000000000000069
:101F78000000000000000000000000000000000059
:101F88000000000000000000000000000000000049
:101F98000000000000000000000000000000000039
:101FA8000000000000000000000000000000000029
:101FB8000000000000000000000000000000000019
:101FC8000000000000000000000000000000000009
:101FD80000000000000000000000000000000000F9
:101FE80000000000000000000000000000000000E9
:101FF80000000000000000000000000000000000D9
:1020080000000000000000000000000000000000C8
:1020180000000000000000000000000000000000B8
:10202800000000005054564F5349474E38000000F6
:1020380000000000000020012BE700000000000065
:10204800010020012BE70000000000000200200131
:10205800E9EE000000000000030020012AE700006C
:102068000000000004004201891A0000000000007E
:10207800050042019A1A0000000000000600420113
:10208800BC1A00000000000007002001C71A000069
:102098000000000010004201AB1A00000000000020
:1020A80011002001297A00200000000000404201B0
:1020B800BC1A00000000000000804201591F000007
:1020C8000300000000002103F8790020060000004A
:1020D800000010110000000007000000000030336D
:1020E800000000000700000010003033000000006E
:1020F8000700000001402033000000000700000036
:1021080002402033000000000800000000002033D7
:10211800000000000C0000005500393300000000EA
:102128000C0000001C0042330000000012000000F8
:102138005500210100000000190000000000F08196
:102148002415002019000000010023812C1500200F
:102158001900000002002301507800201900000037
:10216800030021817A200020190000000400238147
:102178003015002019000000050021817C20002076
:102188001900000006003081277A0020190000009D
:1021980007002101F479002019000000080021013E
:1021A800F27900201900000009002181F07900204F
:1021B80019000000FDFF2181525A000000040000B0
:1021C80000002104000000000204000000002904AF
:1021D80000000000030400000000290400000000C3
:1021E8000504000000002904000000000C040000A1
:1021F80000003904000000000D040000000039044C
:10220800000000002A04000000003904000000005B
:102218000207000000002904000000000207000077
:102228000002180576F000000207000000033005E0
:102238000000000002070000010322051C24000022
:102248000207000002032205202400000207000004
:1022580003031801EBEE0000020700000603180153
:1022680000000000040B000000001B0518240000FB
:10227800040B00000001290500000000040B000009
:102288000301290500000000040B000006012904D1
:1022980000000000040B000000022105325F00006E
:1022A800040B0000010221053A5F0000040B000046
:1022B80002022105325F0000040B00000302210521
:1022C800C65F0000040B000004022105325F000015
:1022D800040B000005022105A2640000040B0000A5
:1022E8000003210400000000040B00000004210585
:1022F800325F0000040B000001042105BE640000E9
:10230800040B00000505210500000000040B000077
:102318000805210500000000040B00000B05290436
:1023280000000000040B0000100528040000000055
:10233800040B000000062105325F0000040B0000BA
:10234800010621053A5F0000040B00000206210582
:10235800325F0000040B000003062105C65F000081
:10236800040B000004062105325F0000040B000086
:102378000506210502600000050B0000010021028E
:1023880000000000000300000000203300000000EF
:1023980000030000010020330000000000030000DB
:1023A8000300213300000000000300000400213373
:1023B80000000000000300000700213300000000B7
:1023C80000030000080030110000000000030000B6
:1023D8000F00181100000000000300000A40191146
:1023E80000000000000300000B4021110000000065
:1023F800000300000C40210100000000010004015E
:10240800FEFF0000000000000000000000000000C7
:102418002100000001000000E80300000000C8429D
:102428000A0000000200000004000000080000008C
:1024380010000000200000004000000080000000A4
:102448000001000000020000000400000008000075
:10245800001000000020000000400000E803000019
:10246800D0D1D2D3D4D5D6D7D8D9DADBDCDDDEDFEC
:102478005A6967426565416C6C69616E636530399C
:10248800D0310000E4750020B4160020D0310000DF
:10249800E6750020C0160020D0310000E875002045
:1024A800CC160020D0310000EA750020D816002094
:1024B800D0310000EC750020E4160020D031000077
:1024C800EE750020F0160020D0310000F0750020D5
:1024D800FC160020D0310000F275002008170020FB
:1024E800D0310000F4750020141700208C750020EE
:1024F800A39902002871002002B3020000000240E4
:102508000929FF006474002004250000002005004C
:1025180000400000EC3100002C7A00201425000057
:102528001432000080770020301700203C32000071
:1025380070670020581700203C3200009067002088
:102548005A1700203C320000B06700205C170020BA
:102558003C320000D06700205E1700203C320000AB
:10256800F06700206017002000000000255A0100D5
:1025780015A900000101010000000000FF00010092
:10258800000000000000000060320000C060002071
:1025980064170020FF0000000000000080A903006D
:1025A800986800209C25000000000840E80300000F
:1025B8007832000050710020B02500000000014072
:1025C8001FFF0000170000000010014021FF01005C
:1025D800190000000020014023FF02001B0000003A
:1025E8000030014025FF03001D00000000000140ED
:1025F80020FF000018000000505B0020C4250000E8
:10260800000000009C5B0020D025000000000000B6
:10261800E85B0020DC25000000000000345C00209E
:10262800E825000000000000805C0020F425000080
:102638000100000002080000000000000000000087
:10264800000101000000A220041800200308000077
:102658000000000000000000000165090000000003
:1026680000000000012C0000000000000000000035
:102678000001001E0000000000000000022C000005
:102688000000000000000000000000000000000042
:10269800000000000000000000000000032C000003
:1026A8000000000000000000000000000000000022
:1026B8000000000000000000000000000000000012
:1026C80000000000000000000101010101010101FA
:1026D80001010101020202020202020203030303D2
:1026E8000303040404040505050505060606060794
:1026F80007070808080909090A0A0A0B0B0B0C0C3A
:102708000D0D0D0E0E0F0F101011111212131314C0
:10271800141515161617181819191A1B1B1C1D1D28
:102728001E1F1F2021222223242526262728292A66
:102738002A2B2C2D2E2F3031323334353637383979
:102748003A3B3C3D3E3F4041424445464748494B61
:102758004C4D4E50515254555658595A5C5D5E6016
:102768006163646667696A6C6D6F70727375777898
:102778007A7C7D7F8182848688898B8D8F919294E3
:1027880096989A9C9EA0A2A4A6A8AAACAEB0B2B4F1
:10279800B6B8BABCBFC1C3C5C7CACCCED1D3D5D7CA
:1027A800DADCDFE1E3E6E8EBEDF0F2F5F7FAFCFF5F
:1027B8005374617469630000426C696E6B000000B9
:1027C8004272656174680000436F6C6F72205769CC
:1027D80070650000436F6C6F7220576970652049FF
:1027E8006E76657273650000436F6C6F722057696F
:1027F800706520526576657273650000436F6C6F73
:102808007220576970652052657665727365204934
:102818006E76657273650000436F6C6F722057693E
:1028280070652052616E646F6D00000052616E64C5
:102838006F6D20436F6C6F720000000053696E6704
:102848006C652044796E616D696300004D756C7428
:10285800692044796E616D69630000005261696E98
:10286800626F77005261696E626F77204379636C9B
:10287800650000005363616E000000004475616CE0
:10288800205363616E00000046616465000000002B
:10289800546865617465722043686173650000005F
:1028A800546865617465722043686173652052617C
:1028B800696E626F7700000052756E6E696E6720F0
:1028C8004C696768747300005477696E6B6C6500B7
:1028D8005477696E6B6C652052616E646F6D000091
:1028E8005477696E6B6C6520466164650000000072
:1028F8005477696E6B6C6520466164652052616E21
:10290800646F6D00537061726B6C6500466C617327
:102918006820537061726B6C6500000048797065BF
:102928007220537061726B6C650000005374726F93
:10293800626500005374726F6265205261696E624D
:102948006F7700004D756C7469205374726F6265FF
:1029580000000000426C696E6B205261696E626F04
:1029680077000000436861736520576869746500E3
:10297800436861736520436F6C6F720043686173CD
:10298800652052616E646F6D0000000043686173DA
:1029980065205261696E626F770000004368617359
:1029A8006520466C61736800436861736520466CF6
:1029B8006173682052616E646F6D000043686173D3
:1029C80065205261696E626F772057686974650087
:1029D800436861736520426C61636B6F75740000B6
:1029E800436861736520426C61636B6F7574205234
:1029F80061696E626F770000436F6C6F7220537766
:102A08006565702052616E646F6D000052756E6E60
:102A1800696E6720436F6C6F7200000052756E6EAE
:102A2800696E672052656420426C7565000000007D
:102A380052756E6E696E672052616E646F6D00002C
:102A48004C6172736F6E205363616E6E6572000025
:102A5800436F6D657400000046697265776F726B2D
:102A68007300000046697265776F726B732052615C
:102A78006E646F6D000000004D65727279204368C6
:102A8800726973746D6173004669726520466C697A
:102A9800636B6572000000004669726520466C69C8
:102AA800636B65722028736F6674290046697265C6
:102AB80020466C69636B65722028696E74656E7355
:102AC8006529000043697263757320436F6D6275F1
:102AD800737475730000000048616C6C6F776565EE
:102AE8006E0000004269636F6C6F72204368617307
:102AF80065000000547269636F6C6F7220436861EF
:102B0800736500005477696E6B6C65464F5800001A
:102B18005261696E00000000437573746F6D203058
:102B280000000000437573746F6D203100000000D1
:102B3800437573746F6D2032000000004375737421
:102B48006F6D203300000000437573746F6D20347F
:102B580000000000437573746F6D2035000000009D
:102B6800437573746F6D20360000000043757374ED
:102B78006F6D20370000000053220100F32501008B
:102B880097220100B16C000045230100B92601001D
:102B9800452301001328010047230100B16C000000
:102BA80045230100B9260100AB230100B16C0000E8
:102BB8000000000000000000E5240100B16C0000E6
:102BC800000000000000000031250100B16C000089
:102BD800DD250100B16C00000000000000000000CD
:102BE80000000000000000000000000000000000DD
:102BF80000000000000000000000000000000000CD
:102C080000000000000000000000000000000000BC
:102C180000000000000000000000000000000000AC
:102C2800000000000000000000000000000000009C
:102C380013000000F1450200000000000BC700006F
:102C4800010000000BC70000020000003B3C02002E
:102C580002800000393C020003000000593C0200D9
:102C6800040000009F3C020004800000F73C0200C2
:102C780005000000F93C020006000000713D02005A
:102C880030000000FB42020031000000FD4002005D
:102C980033000000B5430200340000005B4402002A
:102CA80011000000FD440200140000005945020014
:102CB80015000000CD400200FFFF000000000000EA
:102CC8008F000100B220002087000100B020002002
:102CD80035002800A0710020280001009520002060
:102CE8002900010096200020840004008478002038
:102CF80086000100AD0600202A0001009720002070
:102D08002B000100982000202C0001009C200020AE
:102D18002D000800F81B00202E0001009D20002037
:102D28002F0001009E200020300001009F2000207D
:102D380032000100377A002033000100387A002081
:102D480034000100A020002036000100397A00205C
:102D580038000100A1200020390001009B2000203C
:102D6800830002008A200020630001003D7A0020D1
:102D780065000100992000206D0001003E7A0020C6
:102D880071000800F077002066000100AF200020E5
:102D980043000100AA2000204400020080200020F7
:102DA80045000100AB2000204600020082200020E0
:102DB80047000800F877002048000100AC200020F8
:102DC8004B000100AD20002004000100B1200020CC
:102DD800A1000100B720002037000100B620002024
:102DE80088000100B32000203C000100A220002040
:102DF8003D000100A320002049000200842000209B
:102E0800670001003F7A00204D0002008620002064
:102E18004E000100AE2000204F0002008820002054
:102E28003E000100A8200020510001003A7A00204D
:102E380052000100A520002053000100A720002017
:102E4800540001003B7A0020000000000000000050
:102E5800881C0020FFFFFFFFFFFFFFFF0A000000A4
:102E680045020200020000003FFD010005000000CD
:102E7800DDFE0100070000004FFE01000C0000000D
:102E88001BF801000D00000039FA0100FF000000E6
:102E9800000000008E0000008E0001008E0002007D
:102EA8008E0003008F0000018F0000028F000003D6
:102EB8008E0001048E0000058E0008048E000004B8
:102EC80089000006500000007F0001003F00040058
:102ED8003F0002003F0001007F00020000000000E8
:102EE800009A9EA0989D9D978DA58EB0AA9C0000E3
:102EF8000204020101010109020000003131171921
:102F08001A21241B1D1F31313331000031311819AA
:102F18001A22311C1E2031313431000003007100A7
:102F2800300160001100700031022003500480005D
:102F380007001000610000001400630073007200B5
:102F480062004300000013000600000000000400B7
:102F58001200000000000000000004000400370018
:102F680037003C024400000000000000000065003B
:102F7800000035008100000005000000830000000B
:102F8800660000000000080009000A000B000000AD
:102F98000101710101010101110101013101010169
:102FA800010180010001100161013B00140063016F
:102FB80073017201620143010001130106013D0121
:102FC80035000401120100010001000100010401A3
:102FD8000401330133013C01440132013600000190
:102FE8000001650100013500810100010501820130
:102FF80083010001660100010001080109010A01BD
:103008000B0100000302710230016002110270021C
:1030180001020202020280020002100261023A006A
:103028004100630273027202620243020002130249
:10303800380000020002040212020002000200022C
:10304800000204020402370037003C024402000276
:103058003900000200026502000235028102000206
:1030680005028202830200026602000200020802D0
:1030780009020A020B0200000103710301030103A4
:1030880001030103010322030203010300031003E8
:1030980000030003000300030003000300034203CE
:1030A800000324030603000300030403120325039B
:1030B800230325032303040304030003000300037D
:1030C80044030003000323030003650321003503C1
:1030D8008103000305030003000300030003250325
:1030E8002303080309030A030B030000000005007B
:1030F800B100AB00A500B0001C003000380008008B
:103108002C010200000120181A18182C34041E0083
:103118000C0E020B040B0A070800110F88B22400DA
:10312800881300001000000000000001C003000028
:1031380080070000000F0000001E0000003C000097
:103148000078000000F0000000E0010000C003006B
:103158000080070000000F0000001E0000003C0077
:10316800000078000000F0000000F00000000000FF
:103178000000000000000000000000000000000047
:103188000000000000000000000000000000000037
:103198000000000000BE040A00BE02087864632E26
:1031A80072756E74696D652E537461727475703AB8
:1031B80020276D6178506173736573272065786384
:1031C8006565646564000000A5AB0300DDAB030022
:1031D800E3AB0300BFAC0300ABAD030005AE0300D7
:1031E8000DAE0300A9AE0300B1AE0300B7AE0300F5
:1031F800E7AE030001AF03004FAF030067AF030062
:10320800DBAF030019B0030021B00300B1B2030023
:1032180045B30300BBB30300EBB30300FDB30300E6
:1032280033B403004BB4030071B50300B5B5030014
:10323800C1B50300F9BD030013BE030049BB030079
:103248004BBB030049BC0300F1BB03008DBC03006A
:10325800D9BD0300BDBD030041C10300B7C10300D0
:10326800ABC40300B5C403008DC60300ADC9030099
:1032780095CE03009DCE03009FCE0300A5CE03008C
:10328800ADCE03003DCF030065CF0300010200036C
:103298000200010339480068017800F0C9B8F8B5A0
:1032A80000F03DF817460A691E46904780B28542ED
:1032B80014D206988DF802008DF800708DF8016020
:1032C80005EB4505206841689DF800204819027003
:1032D8009DF8011041709DF802108170F1BD7CB518
:1032E80000F01DF816460A69904780B2854215D24B
:1032F800310A300C8DF801108DF800008DF802604D
:1033080005EB4505216848689DF8001028440170C0
:103318009DF8012042709DF80210817073BD04462B
:103328000D462068016870472DE9F041044688463B
:103338002068016816460A691F4690470546A9B2E3
:103348008E4214D2A8B2390008BF05460CD0BF1966
:10335800BFB2ADB2BD4207DD3D4605E04246B1B25F
:103368002046FFF7BCFF761CB0B2A842F6DBBDE8EA
:10337800F08102480268117070470000087500204B
:1033880038B5FFF7CCFF0A69904780B2854201D370
:10339800002032BD2068416805EB450529440878BE
:1033A8008DF8000048789DF800208DF80100000293
:1033B80089788DF8021040EA0240084332BD2000A7
:1033C80010B54D4C616851B9207828B90121217098
:1033D80004F1080000F005F804F108016160606874
:1033E80010BDFF21017000224FF0FF318160428043
:1033F8004221C26042600174704770B5012B0446D7
:103408000D46164603DB06EB460635441E46216884
:103418008A68904765606661204621684A699047D6
:10342800014635484068012200F052F8204670BD38
:103438002DE9FC4106460D46304C706830B100F06D
:1034480063F861687268401A9042F6D300F05CF83D
:103458006060F2681AB1B16828469047054624684A
:1034680015E07088A77C6428BCBF0021A1742A4697
:103478002146684600F058F8D4F800C062696168CF
:10348800DCF804806B462046C047A774A468002C6B
:10349800E7D11921304600F002F8BDE8F38170B594
:1034A800174C05462068461C88420FDB00F031F8AF
:1034B8006168401A08BF01204FF47A714E43B6FB89
:1034C800F0F06880002600F024F86060266070BD87
:1034D8004AB10A000ED00B4A436892FBF1F19942B7
:1034E80007D2194605E00A001ABF064A92FBF1F115
:1034F800002141607047000004750020C877002053
:10350800D077002040420F0010B500F06DF8044657
:1035180006E010B500F068F84FF47A71B0FBF1F4EA
:1035280000F05FF8604310BD10B5144601F10F03B9
:1035380001F10C022146BDE8104000F07BB80900FB
:10354800F0B51C0089B005460E46174605D1002384
:1035580000F0A0FA284609B0F0BD08232422002173
:10356800684600F076FAA16806916B462278ADF8B5
:1035780010203A46606805903146284600F08AFADD
:10358800284609B0F0BDF0B5140089B005460E46CE
:10359800264F05D13B46002200F062FA09B0F0BD83
:1035A800082324220021684600F053FAA1680691F6
:1035B8003B462278ADF810206A466068059031468F
:1035C800284600F04DFA09B0F0BD00B581B0009072
:1035D800684600F084FA01B000BD00F071BA00F04E
:1035E800AABB13480068704700F0C3BB00F0EABCF0
:1035F80000B581B000F0FFFC401E8041C043C00F01
:1036080001B000BD0021816001704160704700F089
:10361800D7BC00F0BCBC00F0C6BC0549096800EB8B
:103628005100B0FBF1F001F031B80000081C002097
:103638000808000070B504460020207060700D4630
:1036480000262800A6700FD0915D985D002918BF4C
:10365800002806D0401C10FB05F0491C4143090C0A
:10366800A155761C022EEFDD70BD010000B589B0B2
:103678000921684601F0FAFF09B000BD01F01DBC40
:1036880030B581B005460C4601E0241A054444B122
:1036980022462946012002F033F9012801DB844241
:1036A800F3D201B030BD00B581B000F0A3FCDFF863
:1036B8005402C06801B05DF804EB00F0A5BE00B587
:1036C80081B001F0CEFF012818BF00F02DFB0FF2EA
:1036D8001D0002F02CF801F076FC01F031FD00F03D
:1036E80018FE01B05DF804EB00F033BF00B581B0FF
:1036F80000F010FE00F057FF01B05DF804EB032066
:1037080000F013BB10B50446032000F00EFB204662
:10371800BDE8104002F026B8DFF8DC11DFF8DC3134
:10372800DFF8DC01DFF800224A611B1A8B61704761
:1037380010B500F1080488B0844238BF00200CD3CB
:10374800684601F0CAFE6B4600222146002001F0BF
:1037580001FF10B100604460083008B010BDDFF808
:103768000801006810B14069C00F70470120704718
:1037780001F0DEBA01F06ABA01F0D1BADFF8E80068
:10378800006810B18069C00F70470120704701F0D0
:10379800BFBB01F0EDBB01F075BC0120704701F023
:1037A80070BB02F0DBB801F084BB30B581B00468AF
:1037B800A568A84701B030BD10B50368DC68A0470C
:1037C80010BD01F0C0BC01F0C0BC02F012B802F09C
:1037D80026B809B9DFF8001201F05FBE01EB41021B
:1037E80008B9DFF8EC0300EBC20070472DE9F0419F
:1037F8008EB00446149F0197002000900E46904614
:10380800DFF8C85102AA2146284601F023FE009796
:1038180002AB42463146204601F058F940B1012139
:1038280000910346DFF8AC212146284601F0E4FD6B
:103838000EB0BDE8F08100B581B0014601200090CE
:103848000023DFF89021DFF8840101F0D5FD01B0F5
:1038580000BD08600022272088808A81DFF8700177
:1038680088600846704700005C20002010B588B0CA
:1038780002AA0193002300930B460021DFF8AC0154
:1038880001F083FD040008BF002003D002A901F065
:1038980059FC204608B010BD10B582B0044600207F
:1038A80000904FF0FF332168DFF88001002201F01B
:1038B800A3FD0021216002B010BD0860002229206C
:1038C80088808A81424888600846704710B588B069
:1038D80002AA0193002300930B4600213A4801F005
:1038E80054FD040008BF002003D002A901F0CEFC5B
:1038F800204608B010BD0000981F0020008000205E
:10390800007C0020CC1F002010B582B004460020A7
:1039180000904FF0FF3321682A4A2B4801F06CFDD4
:103928000021216002B010BD007C00200860002248
:10393800282088808A81264888600846704709B907
:10394800DFF87C1301F0A9BD10B588B002AA019375
:10395800002300930B460021DFF8680301F015FDF2
:10396800040008BF002003D002A901F0F2FB2046A2
:1039780008B010BD10B588B003460191002400942A
:1039880002AA0021DFF83C0301F0FFFC040008BF95
:10399800002003D002A901F0DCFB204608B010BDCE
:1039A80010B582B00446002000904FF0FF33216824
:1039B800DFF81423DFF80C0301F01EFD002121605D
:1039C80002B010BDAF52000004070000B8050000A7
:1039D800183D0000C34B0000D80500000860002215
:1039E8002A2088808A810FF228308860084670472C
:1039F80001EB410208B9DFF8D40200EB82007047FE
:103A080010B58AB002AA0193002300930B46002147
:103A1800124801F0BAFC040008BF002003D002A934
:103A280001F08BFC20460AB010BD000044060000DF
:103A380010B582B00446002000904FF0FF33216893
:103A4800DFF88C22054801F0D7FC0021216002B084
:103A580010BD09B9DFF87C1201F01FBD6407000032
:103A680070B58CB0054601930E46002300930021E3
:103A7800134602AADFF8600201F087FC040008BFC1
:103A8800002005D002AB3246294600F01CFA204639
:103A98000CB070BDF0B58BB0002704460D46164635
:103AA8000197009702AA2146DFF82C0201F0D2FC08
:103AB80002AB32462946204600F005FA0BB0F0BDAD
:103AC80000B581B00146012000904FF0FF33DFF8C8
:103AD8000C22DFF8040201F08FFC01B000BD10B524
:103AE80082B00446002000904FF0FF332168DFF8D1
:103AF800EC21DFF8E40101F07FFC0021216002B035
:103B080010BD08B100EBC100704730B589B004465C
:103B18000B4600250195009502AA2146DFF8C00151
:103B280001F098FC02A9204600F086FA09B030BDE1
:103B380000B581B00146012000904FF0FF3300220C
:103B4800DFF89C0101F058FC01B000BD09B9DFF8AD
:103B5800941101F0A2BC30B58BB0054601920B461A
:103B68000024009402AA0021DFF87C0101F00DFC7A
:103B7800040008BF002004D002AA294600F081FAF8
:103B880020460BB030BD70B58CB004460D461346C8
:103B980000260196009602AA2146DFF84C0101F0A2
:103BA80059FC02AA2946204600F06BFA0CB070BDF9
:103BB80000B581B00146012000904FF0FF33DFF8D7
:103BC8002C21DFF8240101F017FC01B000BD000032
:103BD800301C002010B582B00446002000904FF041
:103BE800FF332168DFF80421DFF8FC0001F004FC52
:103BF8000021216002B010BD09B9DFF8F41001F00E
:103C08004CBC01EB410208B9DFF8E80000EB0210F8
:103C18007047F0B58DB004460D461E46002300934C
:103C28001346354F019602AA2146384601F012FC88
:103C3800334602AA2946204600F0C3FB38B10121C9
:103C4800009103462D4A2146384601F0D5FB0DB0B8
:103C5800F0BD00B581B00146012000900023274A3D
:103C6800254801F0C9FB01B000BD000001B9244995
:103C780001F013BC4C22514300B922480844704754
:103C8800F0B591B004460D461E4600230093134636
:103C98001D4F019602AA2146384601F0DBFB334648
:103CA80002AA2946204600F02AFD38B101210091D8
:103CB8000346164A2146384601F09EFB11B0F0BD76
:103CC800C4060000A406000075510000881C0020EE
:103CD80039530000E4070000C4070000053F000056
:103CE8001C0800007808000058080000AD400000DB
:103CF800BC080000D41C00209C0800000F440000F1
:103D0800140900003C1D0020F40800001F480000B2
:103D18007B756E6B6E6F776E2D696E7374616E63F3
:103D2800652D6E616D657D00FEE7DFF88828014628
:103D3800107D11757047DFF87C18D1E90023C0E9C0
:103D480000237047DFF86C08C1690847DFF864187A
:103D58000A6A104765E16CE110B5FFF70FFD38B14D
:103D6800DFF8AC48A068FFF712FDA0614FF0FF3004
:103D780010BD38B5FFF7EEFF0446DFF894088068F9
:103D88000021FFF708FD05462046FFF7E4FF284617
:103D980032BD70B5FFF7DEFFDFF8AC680446B068E7
:103DA8000021FFF7F8FC05467069B169451BA94277
:103DB80038BF00252046FFF7CEFF284670BD70B5F6
:103DC800DFF8846804460D46B0682146FFF7E1FC39
:103DD8003461756170BD2DE9F8430D46DFF834187C
:103DE8000A680446DFF860088758D7F804804FF05F
:103DF800FF391AE03E463F68B08A012815D1012CE8
:103E080004BFF168A94208D1306900281ABF4118D7
:103E1800F160B082F069B1698847B08A012804D19D
:103E2800F068401B484598BF81464745E2D148465F
:103E3800BDE8F2832DE9F041FFF78CFFDFF8084871
:103E48000746A0680121FFF7A6FC0121A1830022F3
:103E5800E283656922682168461B401AAA1A9042C3
:103E680003D20020A08338462AE03846FFF773FFC4
:103E7800002706E07D1929460120FFF7ACFFF61B55
:103E88000746BE42F6D2FFF765FF8046E08B012861
:103E980004D129460020FFF79EFF0746A06917F1C5
:103EA800010F04D0A069BE1BB04288BF304641193B
:103EB800FFF785FF012000212084A183256040466B
:103EC800BDE8F04147E770B504461D46A2600022F0
:103ED8006869DFF84067DFF870372061A161214623
:103EE800A869E061A2823068184400F0B2F8288A14
:103EF80018B12046BDE8704049E070BD38B50446A9
:103F0800FFF728FF0546204600F0B2F847E010B555
:103F18008260816100220261C36182820146DFF80A
:103F2800F446DFF824372068BDE81040184490E0D4
:103F38009EE038B5DFF810570446288C012804BFE6
:103F4800A88B002817D1A8680121FFF724FC29684D
:103F58006B69024628681B1A511A8B420BD3A0685A
:103F68008118E1600123A3826C69A21A90420DD2E4
:103F7800BDE8344023E7FFF7FCFEA1680818E060BD
:103F88000120A082A98B012908BFE88331BD38B57B
:103F98000446FFF7DFFE05462046FFF7CAFF28461E
:103FA800BDE83240D7E600218182DFF86416C06898
:103FB8004A69904203D1DFF8F4180868E7E77047C8
:103FC8008160704770B50446FFF7C4FE0646A08AB4
:103FD800002501280AD1FFF7CCFE0546E068A16854
:103FE800451BA9423EBF2069A842002586F31188D7
:103FF800284670BD7047808A7047704780B500F0CA
:1040080001F8FCE738B50024DFF8A45804E0686834
:1040180050F824108847641C28688442F7DB31BDB7
:1040280000BFEFF31180202181F311887047000051
:1040380000BF80F31188704700E004E04060006032
:104048007047000000BF426808604A601160416024
:10405800704738B504460D46FFF7E2FF2C606168EB
:104068006960626815606560FFE7BDE83240DFE7B8
:104078000168426811604168006841607047D0E794
:10408800D7E710B50446107EDFF814292072618145
:10409800002110682044FFF738FD0021216001202D
:1040A800606010BDDFF8F8180A681044FFF740BDDB
:1040B80038B50446FFF7E3FF0546207C022808D1FF
:1040C8002046FFF7D5FF002020742946A06800F09D
:1040D80078FC28468FE070B50C468EB0054614F182
:1040E800010F18BF002C0AD06B462246DFF8B4181F
:1040F80005A8FFF70CFF05A90391022202E00021A1
:10410800039103228DF81020FFF7B9FF064668894E
:1041180088BB1CB900F06DF8002038E000F063F8A7
:1041280000690290C0F818D000F01EFCDFF8700893
:1041380002686946A818FFF780FF9DF8100002285A
:1041480004BF0398FFF7F5FE00F053F8204600F08F
:1041580033FAFFF794FF0446039818B1FFF7E8FE17
:10416800002003900020029988612046FFF788FF0D
:104178009DF810000BE06889411E6981039818B109
:10418800FFF7D6FE0020039000F033F801200EB0B0
:1041980070BDF8B5054600F026F8FFF770FF064633
:1041A800DFF8FC0700682A5829188A4207D1287ABC
:1041B800C1074EBF01206889401C68810DE02F5857
:1041C8003A682A50516001203874F86808B1FFF73E
:1041D800EAFEB868314600F0F4FB00F00AF8204621
:1041E800BDE8F240E8E1DFF84408048801210180D5
:1041F8007047304644E7BDE8324041E7FFF781BCED
:104208000FE7EFF3118000210EE712E7B0FA80F014
:10421800C0F11F0070472DE9F8430446DFF86058E5
:10422800A06AD5F81080EF68AE682861EC600022BB
:10423800606AA860A2830120216A61620021298046
:10424800FFF773FD8146FFF7DCFF2169E068A2688C
:104258009047FFF7D5FF4846FFF767FD0120288004
:10426800C5F81080EF60AE60BDE8F18338B5DFF8BF
:104278004C4825696068FFF7C9FF616901EBC00117
:1042880000F084F8606830B1FFF7C0FF616901EBA6
:10429800C0018D42F4D331BD70B5DFF8E44726691B
:1042A800FFF7AEFF05466068FFF7B0FF616901EBF5
:1042B800C000864211D2DFF8740706880121018008
:1042C800DFF8FC0701F05AFB002020802846FFF7A2
:1042D8009CFF3046BDE870406EE1002020802846F3
:1042E800D7E010B5002404E021460020FFF789FC40
:1042F800641CDFF8D00701688C42F5DBDFF8C817CB
:104308000A68002000E0401C9042FCD34FF0FF30C8
:1043180010BD03E0DFF8A41747E1000000200028E3
:1043280000D0704780B5FFF76BFFDFF8542751685E
:1043380021B1FFF76AFFFFF7AFFF02E01180FFF737
:1043480064FFDFF8E816088801220A80BDE8024009
:1043580032E1002800D0704738B5DFF86047606860
:1043680088B1FFF74EFFFFF74BFF25696068FFF73D
:104378004DFF616901EBC0018D4204D200F006F8DF
:1043880060680028F3D10020208031BD08680268E9
:104398000A6051600A688A4203D161688269914360
:1043A800616038E7DFF814078068704710B5044685
:1043B800DFF8E038FFF72DFCA06800B9002420469C
:1043C80010BD10B5044664602460A1601069E06007
:1043D80051692161906910F1010F08BF05206061E2
:1043E800012101FA00F0A0610020A083D169616277
:1043F800D069DFF8C826616920625069FFF7FEFEC0
:10440800A062002010BD7047F8B50546FFF7F8FE1A
:104418000446A88B18B12046BDE8F240F5E6012015
:10442800DFF89866A883294637883080A86AFFF79E
:1044380004FE7168A869014371602046FFF7E5FE34
:1044480017B9BDE8F14027E7F1BD38B504460D4678
:10445800FFF7D6FE616A0D436562FFF7D6FE204678
:10446800BDE83240D0E770B50D46044615F1010F9E
:1044780008BF0525FFF7C4FE06460120A840A06135
:1044880065612946DFF8F8255069FFF7B7FEA06295
:104498003046BDE87040B8E6C3E5EFF3118000216F
:1044A800C2E5C6E500000000B0FA80F0C0F11F00C8
:1044B800704710B5DFF874450020208101E000F056
:1044C80098FA60680028FAD06068FFF7EDFFA169E4
:1044D800626901EBC000824209D22269606100680A
:1044E800206100F1100102F11000FFF75AF920894C
:1044F8000028E1D110BD10B5DFF8C048208908B107
:10450800FFF7D7FF69E038B5FFF747F900B3002494
:1045180007E021460020FFF7ADFB002100F041F93C
:10452800641CDFF8600801688C42F2DB0024DFF8C5
:104538008C5806E0286B50F82400002100F031F96F
:10454800641CDFF87C0801688C42F3D34FF0FF301D
:1045580032BD002010B594B0FFF79EFFDFF85C482D
:1045680001E000F046FA60680028FAD06068FFF7BA
:104578009BFFA16901EBC000606161690868206167
:10458800002020810220FFF7D0FBFFF786FFFFF70E
:1045980083FFFFF7F1F8206900F1100104A8FFF785
:1045A80000F914B010BDDFF88414088801220A80CD
:1045B800704700006C1F0020002800D0704710B51D
:1045C800FFF76AFFDFF864442089012801BFDFF89C
:1045D800B01408880028FFF76CFF00202080BDE891
:1045E80010405AE7002800D0704710B5DFF83C4467
:1045F8002089012801BFDFF8C41408880028FFF7C4
:1046080058FF0020208010BDDFF8B0070069704710
:10461800CC1F0020C0070000808F012800D0704701
:1046280010B5FFF739FFDFF894170446C868401E35
:10463800C86005D12046FFF734FF0020FFF786FB4E
:104648002046BDE810402CE7CC1F002070B5DFF8ED
:104658006C070469058801210180FFF71DFF0646E4
:10466800204600F081F9032020752046FFF7D4FF8B
:104678003046FFF716FF646024603CE038B5044616
:10468800FFF70AFF0546A068294694E1020000D119
:10469800704730B58DB06B46DFF82C1704A8FFF7CC
:1046A80036FC04A90391FFF7F7FE044600F0D6FB99
:1046B8000069029000F058F90398FFF73AFC694640
:1046C80001916A460092029881612046FFF7E9FE4F
:1046D8002846FFF771FFFFF7DFFE04460398FFF750
:1046E80027FC002003902046FFF7DBFE02990020FC
:1046F80088610DB030BD2846BDE870405CE72DE903
:10470800F04117460546B869A8600E46786A98468B
:10471800002803BFDFF8AC060168696268623C6A7A
:1047280014B9DFF8A8060468FFF73DF8421EF969D6
:10473800D24321B338B14018401E1040241A0C1936
:104748002862144000E029624FF0FF30EC61686293
:10475800AE623869E86279692963B86A6863B88DB6
:10476800A887012804D1DFF85406C168491CC16034
:104778004146284600F015F880B1801C0EE010B1C3
:104788000419641E1440EC610246E969686A4346EC
:1047980000F0E0FE00282862DAD10120BDE8F081AF
:1047A800000070B50B460446DFF82426DFF824160F
:1047B800FEF7F5FF206108B9012070BD01202075C2
:1047C8000021A161A068DFF8F455002809D5DFF8B9
:1047D8000806E16021460268A8182064FFF739FC42
:1047E80017E0A06801218140E160A168A869FFF78E
:1047F80088F9206401202E882880FFF74DFE0546A1
:10480800204600F0D1F82846FFF74BFE3046FFF768
:10481800D3FE002070BDF8B50029044642D1DFF868
:104828009C753D8801203880FFF736FE0646207DBE
:10483800012810D12046FFF71BFC206C016881423B
:1048480003D17A68E06882437A60A06978B1C06869
:1048580008B1FFF76DFB207D022808D1A06968B177
:10486800FFF706FCA069C06808B1FFF761FB207D6F
:10487800032803D12046FFF7FBFB02E02046FFF7A1
:10488800CBFE3046FFF70DFE2846FFF795FE606A1F
:1048980010F1010F05D0E269216ABDE8F84000F087
:1048A80099BEF1BD0129F2D1F1BD00000C0800004C
:1048B800140800002DE9F84F5C4EB6F800A0044635
:1048C800012030800D46FFF7E7FDD4F80890A94590
:1048D800804638D0002D06D5DFF8FC040168002793
:1048E80006EB010B04E0B0690127AF4000EBC50BF4
:1048F800207D01281CD12046FFF7BAFB206C0168F7
:10490800814203D17268E068824372603069A042D4
:1049180007D1C6F814B02146DBF80000FFF792FB78
:1049280003E021465846FFF788FB706838437060FB
:10493800A560E760C4F840B0002D44BF0020706156
:10494800012131814046FFF7ACFD5046FFF734FEA8
:104958004846BDE8F28F38B50446FFF79DFD054689
:10496800204600F001F828E02DE9F0410446DFF880
:104978004C54D4F840806E68E768FFF779FBD8F8A4
:104988000010414504BFBE436E602869A04204BFC1
:10499800002169610220207501212981BDE8F0818B
:1049A80054080000B940000038B50446FFF774FD0C
:1049B80005462946204600F004F82846BDE832405E
:1049C8006FE52DE9F041DFF8F4637768044688461F
:1049D800E568206C2146FFF730FB2F437760012004
:1049E8002075012131814046FFF75BFDBDE8F041AC
:1049F80052E580B5DFF8E403DFF8E423006890426D
:104A080004D1FFF74AFDFFF7FDFA0CE050B9FFF7B4
:104A180044FD002001E00098401C00900098002808
:104A2800F9D000E08047BDE8014035E514200020BA
:104A3800FFF7F7BAEFF311800021FFF7F5BA10B5C9
:104A4800FFF7F6FFDFF89C134A698869D20800EB84
:104A5800C202083A0A6100244FF0FF320A6007E0F8
:104A680021460020FEF7BAFE002100F07CF8641C05
:104A7800DFF8740301688C42F2DBFFF747BC0000E3
:104A8800F81F0020F8B50446DFF86003DFF8547318
:104A98000668F8690D4650F82510B1420AD17D48DC
:104AA800009029462046FEF7A1FEF86950F8251027
:104AB800B14201D10020F2BD2046F2BDF81F00200E
:104AC80075420000E4080000E8080000FEB517463B
:104AD800DFF81C2305461E46DFF818031368089CF8
:104AE8000088994209DBDFF81063376801910025D7
:104AF80002950097A623002213E0DFF8E822DFF8EA
:104B0800ECC26982D36953F82120DCF800309A425C
:104B18000DD001910022DFF8E4120B680093029295
:104B2800AF230146204600F0EEFC0120FEBD0846FA
:104B380000F098F8AF6070696860306A10F1010F92
:104B480008BFFF2028740021308B00B10121B08CF0
:104B580008B141F00201E9602846214600F003F857
:104B680000B1801CFEBD38B50446217BB4F91200A3
:104B78008A07054602D5217C202907D2A16800F0C2
:104B8800C4F8B4F912004042608209E0DFF8541218
:104B9800486ADFF8D41240F82540284600F0B5F8F6
:104BA800217C284600F0DFF8207BC10744BF284657
:104BB80000F072F80020E06032BD012900D1704792
:104BC80010B5B0F91240200048BF6442204600F0FA
:104BD80049F8DFF818020168204600F096F8DFF877
:104BE80004124A6A002042F8240010BD30B5DFF8EC
:104BF800F401DFF80C12C069DFF8082208600B68BE
:104C0800934210D0002309E00F2B26BFDFF8DC41C8
:104C1800246852F8234040F823405B1CDFF8D04159
:104C28002568AB42F0D3DFF844324A681C68DFF8E5
:104C3800400222F47F4202EB042282184A602022BA
:104C4800DFF8A8028A760368CB6030BDF2E6000080
:104C58002021EFF3118081F31188704780F31188C8
:104C68007047000010B51028DFF8A01204D300F038
:104C78002AF8C1F880310AE00F2807D108690A69C3
:104C880032F0020200F002000A6100E0002000BFDA
:104C980010BD0000081C002010B51028DFF86C12A9
:104CA80004D300F010F8C1F800310AE00F2807D14A
:104CB80008690A6952F0020200F002000A6100E085
:104CC800002000BF10BDA0F11002520901EB8201C3
:104CD800B0F11003012403F01F03D1F8000104FA16
:104CE80003F318407047000010280DD3A0F11002FC
:104CF800DFF81812520901EB82031038012100F085
:104D08001F008140C3F880127047DFF8D820D369AC
:104D180003EB800002688A4218BF0160704710B533
:104D2800DFF8C040206900F039FE0021216010BD85
:104D380070B50246DFF8AC0083695360446994603B
:104D480025462878BE2803D001200023136070BDB3
:104D580000200029F9D015F8016FBE2EFBD0691E7E
:104D68005B1AE318F2E7DFF8A4211028024402D303
:104D780082F8F0137047042828BF82F8141D704782
:104D88000000000050090000816042607047102850
:104D980004D3DFF878111038C1F8000F704710B548
:104DA800DFF840305C6801222280DFF8D4221268E4
:104DB80012B1BDE81040104710BD000014200020BB
:104DC8006009000058090000854600005C090000E1
:104DD80055460000FF440000F00800005409000098
:104DE8000D400000981F002008060000140600006F
:104DF800B4050000C6330000B0050000AC05000093
:104E080008ED00E0A80000002DE9F0410446FFF796
:104E18000FFE00F023F80122DFF8D0020688028096
:104E28000020FEF782FF8046DFF8F406DFF8C4238F
:104E3800416AD2F8040D00F0FF0051F82070FC60C0
:104E4800FFF7F8FD7868B9688847FFF7F1FD404635
:104E5800FEF76BFF06EB0520BDE8F081DFF888025E
:104E6800058801210180704761D003001806000001
:104E78000000FA0500F0FF00FFF76BBA000AFFF721
:104E8800B1BB7CB504460D46E169164619B1206AE6
:104E9800BE2200F0A7FD216B01912B46E06A00902D
:104EA8003246A16A206AE4692018001F00F030FD2C
:104EB80076BDDFF88C060068704700F0C7BDFFF7C5
:104EC800B0B8FFF7B6B8DFF87C16C20744BF0123B5
:104ED8000B60820744BF4FF480730B60400744BFE8
:104EE8004FF480320A607047000000000C06000092
:104EF80010B5DFF85426C30748BF1160840748BFC0
:104F08005160400748BF916010BD000000E000E01C
:104F180020B502460020D2E90A2347F6906100F046
:104F28008DFE0125A94228BF4FF0FF3020BD38B5BE
:104F38000C4600F09BFF050018BF0125DFF87C0632
:104F48000068811D201AB0F1004F05D8081BB0F188
:104F5800004F38BF8C4200D20C4621460120FFF793
:104F6800C7FFADB21DB9BDE8314000F083BF31BD08
:104F78002DE9F84C05460C46D5E90AABD5E90C678E
:104F8800AAFB04010BFB041136184F41340C002214
:104F980044EA07412846FFF7CAFFC5E90E67BDE89E
:104FA800F18C80B5DFF8A815086800281EBFDFF867
:104FB8009C154868002804D0818811B1002100F0B0
:104FC80097F800F013BCDFF88815086800281EBFA2
:104FD800DFF878154868002806D0818821B1017B60
:104FE800002908BF00F001B870472DE9F0410746D5
:104FF800FFF765FF8046DFF8C855DFF8C845012090
:10500800E8610126FFF75FFFE16A0A6A142090470A
:105018003969B1F5802F34BF0421090C0120FFF74D
:1050280067FF22681368232100209847DFF8B0251E
:10503800DFF8B03501211160186800B10326DFF8E8
:10504800A815086808B146F00406DFF8C00501682D
:1050580021F4E02141EA0641016001202860404630
:10506800BDE8F0412DE710B5DFF89C154C6801202C
:10507800FFF729FF6069A169BDE8104008470000F3
:1050880010060000F8B50446DFF884050D460168EF
:105098000E6BB047D4E90A6732463B4600F0CEFDB6
:1050A8003DB1A6FB002306FB013307FB0033C4E92F
:1050B8000C23F2BD000010B5DFF80405DFF85445F5
:1050C800002101600122C2610121216001202268C2
:1050D800FFF7F9FEDFF890150A68136A142098475D
:1050E800206810BD0000000014200020F81F0020D8
:1050F80038B50446FFF7E3FE05462046FFF7DBFF19
:105108002846FFF7DEFE002032BD80B5FEF727FBFC
:1051180008B14FF0FF3002BDFEF72ABBF8B50021F9
:1051280001A8FFF7F9FF0398009004E0BE21017081
:105138000099491C009100986845F7D305B000BD57
:10514800FEF718BB7047FEF76CBFFEF76DBF002077
:105158007047DFF858160A68012343600021C160D0
:105168000023024483601046FEF7CFBCDFF83C16EC
:105178000A681044FEF7DCBCF8B50646DFF8E0051F
:10518800046984B0ACB1A568078801210180706802
:10519800012808D100217160F460B5603846FFF736
:1051A8000BFA002024E0F068A04204D13846FFF74B
:1051B80003FA01201CE02046FFF7CDFB00210294F2
:1051C8000391C4F818D02A46DFF8E0351868694614
:1051D800304400F047F8F0688068A84203DAF068C5
:1051E8002946FFF767FB3846FFF7E6F90020A0617C
:1051F80005B0F0BD00E000E038B5DFF864250546ED
:10520800106958B314880123138011BBA9688268F8
:105218009142BCBFA968FFF74DFBDFF890251068E5
:105228002B5829188B4202D10120686011E02A58B6
:1052380013682B5059609068E8608168A960EFF3A3
:105248001185202181F311882946FFF7BAFB85F3E0
:1052580011882046BDE83240FFF7AEB931BD0000E5
:105268000120704710B50346186800E000689842AE
:1052780007D08468A4689442F8DABDE81040FEF7C5
:10528800E1BEBDE810401846FEF7D7BE10B5DFF8FE
:10529800203504461868002201212044FEF773FCDB
:1052A8000021616010BDDFF808150A681044FEF798
:1052B8007FBC000038B50446DFF8A45460682A694A
:1052C80090420BD0DFF8E83418684FF0FF312044E3
:1052D800FEF701FF28696060002032BD012032BD61
:1052E80031B9DFF8CC24416013681844FEF751BF88
:1052F800704701207047DFF8BC14C888002800D127
:10530800704738B500240BE021460020FEF770FBFB
:105318000546DFF8A414A8680A6890476860641C0A
:10532800DFF8980401688C42EEDB4FF0FF3032BDA5
:10533800DFF88C1440680A68104710B504460869FD
:10534800DFF88014A0600A689047606010BD10B54F
:10535800DFF8743440681C68A04710BD10B5DFF84A
:105368006C3440681C68A04710BDDFF864244068AE
:1053780013681847DFF85C1440680A681047000093
:1053880000207047704700F0C2B9F8B505461646C8
:10539800EA69A9691C46304600F074FD76602CB1B4
:1053A800EA6908232146304600F077F8079BF6683B
:1053B800AA686969E86800F007F9040001D10020CB
:1053C800F2BD00F0B0F86968216004F108076A6866
:1053D800516861606A6851680C606A68546000F0DE
:1053E800A7F8286810F1010F18BF3860286908B1BC
:1053F800716839503846F2BD2DE9F8430C0006466D
:105408009146984624D0089D28000ED1A4F108079B
:1054180000F089F87A683968116000223B68796879
:1054280059607A603A6000F083F85FEA090008D0B2
:1054380018F1010F02D12046C84702E04146204634
:10544800C8472DB97269F0683946BDE8F843C1E02C
:10545800BDE8F183F8B505460E461746EA69A9691D
:105468001C46384600F00EFD7F602CB1EA6908231F
:105478002146384600F011F86969FC680839304659
:1054880000F054FD286810F1010F18BF306028693A
:1054980008B1616831503046F2BD2DE9F843CE6855
:1054A800356891460A689846A9EB0807521B0446D6
:1054B800BA4288BF3A4600F0E5FCC4F80090E0190B
:1054C8006460E060454588BF45462A46314600F09D
:1054D800D9FC44F80780BDE8F18330B1DFF8C41384
:1054E80088421CBF202100F025BD7047DFF8B813A3
:1054F8000A78012A04D118B1C06810B1012000E06F
:105508000020C0B270477FB50A9C099DDFF89C63F4
:1055180002940195089C35680094A8477FBD000057
:10552800981F0020FEE7DFF888030068FEF749B9F6
:105538000146DFF87C030068FEF745B9000000006B
:105548001C0600000420094018200940901F002074
:10555800A80500002DE9FF41044698460E46154669
:105568004046FFF7C3FF074615B9DFF8480305684B
:10557800002C12BF2046DFF84003006843462A4645
:105588003146FEF712F9050013D1012F03D040462A
:10559800FFF7ACFF68B9DFF824030168DFF82003E0
:1055A8000091029601943423018800224046FFF7B7
:1055B800AAFF284604B0BDE8F08100003020094069
:1055C800000024438401001080B50093002300F0FC
:1055D8000DF802BD10B9DFF8E0020068FEF7ECB87C
:1055E80080022443A0050000A405000070B51E46F3
:1055F800049B0D46FFF7AEFF040003D03246294650
:1056080000F0F0F9204670BD901F002000200940EE
:105618008C0100102C20094066498888002800D099
:10562800704738B501228A800024DFF8985204E0D8
:10563800686850F824108847641C28688442F7DB9F
:10564800DFF88412DFF884520A689047002404E0E7
:10565800686850F824108847641C28688442F7DB7F
:1056680031BD5448C0887047B00100102DE9F0479B
:105678000C4600278046002CC4BFA10000F05AFC4D
:105688004C4EDFF84C02C6F800800025D0F8009098
:105698000CE0DFF840120A6832F8150028B159F812
:1056A80025100020884748F825006D1CA542F0DB2E
:1056B8000120F080002500E06D1CDFF81C02016865
:1056C8008D421ADA01274FF0000A12E000200DE09F
:1056D80058F82A0010F1010F07D059F82A10884706
:1056E80048F82A0010F1010FF0D1012007400AF113
:1056F800010AA245ECDB002FDED01FB9DFF8DC0180
:1057080000F008F800203060BDE8F08700BF4FF0D7
:10571800FF30704710B50446FFF705FF2046FEF737
:1057280054F8DFF8BC010168BDE810400847F8B537
:105738000546FFF7F8FEDFF8AC11DFF8AC314A6830
:105748001E680124B24206DA0F6847F822504A68F8
:10575800521C4A6000E00024FFF7EAFE2046F2BD32
:105768001420002010B5044600F00AF82046DFF89F
:105778007C110A68BDE8104010470000FEE7FEE70C
:1057880070B50446FFF7CFFEDFF858516E6806E0A3
:10579800296801EB8602761E52F8043C9847012ED0
:1057A8002046F5DABDE87040FEF711B87C06000027
:1057B800DC0600005C200020B8070000A0070000FD
:1057C800AC070000A8070000A4070000B00700000D
:1057D800B4070000BC07000080B5DFF814010168B9
:1057E80021B1DFF81001006800F0A0FB4FF0FF3096
:1057F80002BD10B5DFF8F8100446086870B134B17E
:1058080001E000F019F814F8010B0100F9D1DFF8F4
:10581800E810088810B1BDE8104027E010BDDFF897
:10582800D8000188012906D1DFF8C42010680028B3
:1058380018BF00F01BB8704738B50546DFF8B00050
:10584800046894B1FFF76FFE2A490A684B68D5547B
:105858004A68521CA2424A6003D1002201234A60CE
:105868000B81BDE83240FFF763BE31BD70B5FFF76D
:105878005AFE044621481F4D06682889012806D18A
:105888001B49686809682A68091A1044B04769689A
:105898002868B0470020686028812046BDE870402D
:1058A800FFF746BE081C002066A300006809000038
:1058B800E809000058200020780900006409000069
:1058C800463500008C0900007C090000940900009E
:1058D800DC090000B40900009C090000A4310000A4
:1058E800EC09000070200020F4090000F009000015
:1058F800E00900006420002072360000E40900007E
:1059080080B5002802D400F018FB02BD002002BDBB
:1059180040F8043D40F8042D40F8041D019940F872
:10592800041D009940F8041D0B4940F8041D81EA44
:105938000101A1F1010140F8041D40F8041D40F8DF
:10594800041D40F8041D40F8041D40F8041D40F8EB
:10595800041D40F8041D7047755900002DE9F04FEB
:10596800C0F800D0D1F800D0BDE8F08F0498804787
:1059780000980199029ADDF80CE0104710B5EFF392
:105988001484002C1CBF002181F314888047002C4C
:105998001CBF022181F3148810BD000000B5EFF38D
:1059A800038212F0FF0F0DD06A46A2F1200282F3A3
:1059B80009886FF0020E10604FF08071D1610849BC
:1059C800916170475DF804EB694681F3098880F3BB
:1059D80008884FF00200EFF3148180F314887047B1
:1059E800CD59000062F30F2262F31F42401810F0F5
:1059F800030308D0C91A1FD3DB0748BF00F8012DDD
:105A080028BF20F8022D130030B41446154610396B
:105A180028BF20E93C00FAD8490728BF20E90C0034
:105A280048BF40F8042D890028BF20F8022D48BF40
:105A380000F8012D30BC7047C91818BF00F8012DB7
:105A4800CB0728BF00F8012D7047010038B54F4833
:105A58004F4C056815F1010F08BF002500F0A8FAA2
:105A68004C4900200860206C816C88474A4A1068BD
:105A780020B14A490868284600F02AF84849002019
:105A88000860484948480A686FF31B4202430A60A5
:105A980046490868C0F30130012806D10A6844481D
:105AA800024042F400330B600A600120414DE86176
:105AB800142021680A6A90473F48404A016841F427
:105AC800E02101600121296010680028FCD131BD66
:105AD8002DE9F04180463A4841688A0705D40168B3
:105AE800384A090C41F0F00111703749374D0968FF
:105AF80000290FD42B68364A83F0C0031370C90EEF
:105B080001F00C01334B41F0C00119704FF4003122
:105B1800C2F853104FF001222F49304B304F314C0F
:105B28000A601E88866839680A683046904706F019
:105B38004070B0F1807F03D1217841F002012170DB
:105B480031463A685368404698476869264A010BC7
