:100000004343323678325231FFFFFFFF0301F7FFDF
:10001000FFFF0701FFFFFFFFFFFFFFFFA80000003A
:100020003030303106DD03002C00FFFF01F7FFFF09
:080030000000000000000000C8
:1000A8000040012055D0030039FB021039FB021033
:1000B80039FB021039FB021039FB021039FB021020
:1000C80039FB021039FB021039FB021039FB021010
:0C00D80039FB021039FB021011FB021072
:1010000001000000000000000000000000000000DF
:10101000FFFFFFFFC83100200400000000000000B7
:101020000000000014000000841A000018000000F6
:10103000F0180000C010000034310020040000004F
:1010400000000000000000002400000070190000F3
:1010500018000000E5D6020008000000B0110000F2
:1010600074100000C1C8021001BB021091EB021005
:10107000DDE5021081E00210B9E5021071E5021011
:101080003100000001000000010000009C1A000077
:1010900000000000FFFFFFFFA0310020040000005F
:1010A0000000000000000000280000005C1A0000A2
:1010B000240000001E0000001800000000000000D6
:1010C00028130000D41000009BEC021025E202104F
:1010D00005EB021025DE0210FDE10210E1E4021032
:1010E0002F00000034000000240028000000000051
:1010F00014310020FFFFFFFFE83100200400000052
:10110000000000000000000038000000101B00007C
:101110002800000001000000100000000000000096
:1011200000000000F7F1021000001A00100000009B
:1011300004000000741B000052230100080000009E
:1011400036000000A8310020F031002009001D0009
:1011500047DB00003C3100200100000000001200CD
:10116000FFFFFFFFD8310020040000000000000056
:101170000000000010000000D41A00001800000059
:101180000000000000001300FFFFFFFF50320020AE
:1011900004000000000000000000000054000000F7
:1011A000381B00003C000000000001002D00000082
:1011B0000410000073E40000300000000000000094
:1011C000B0110000D8110000BDA90300D9DB021046
:1011D00059EC0210CDD6021085DE02104DE502104A
:1011E00029E5021030000000000016000000000099
:1011F00000000000FF7F000058320020FFFFFFFFCB
:10120000D0310020040000000000000000000000B9
:1012100058000000A01A00003400000039FB021042
:1012200001002F0006000000000000002000000068
:10123000010000001BF80210280000002813000025
:101240005012000093EC02106DEB02104DEC0210F6
:1012500029E00210BDE4021099E402102D00000004
:10126000000000007C3100200400000000000000AD
:101270000000000010000000881900002C00000091
:10128000000000000000030000000F003C00000010
:1012900000000000000000002FF902101000000004
:1012A00008000000841B0000FFFFFFFFE03100206A
:1012B0000400000000000000000000001C0000000E
:1012C000EC1A0000240000003C1200002C31002029
:1012D0000400000000000000000000000C000000FE
:1012E000F818000018000000931F01000000000023
:1012F00000000000080000000100000004000000E1
:10130000000000000000140000000000544900002C
:1013100000001900000018002400000015D603008A
:101320000040000000020000041000000000100057
:1013300055F002100C0000001BD702000000000056
:101340000C3100200400000000000000000000003C
:1013500020000000C0180000300000006C490000B0
:1013600001000000DBD70200E7E2000000000000FF
:101370000000170000020000310000000000230000
:101380000000150001000000C0110000983100208D
:101390000400000000000000000000002000000029
:1013A000381A000024000000ECD902008C31002023
:0813B00020000000981B000062
:1013C0005DD602009DD80200A1D80200A5D8020077
:1013D000A9D80200ADD80200B1D802008DA8030040
:1013E00041A9030049A80300B1D5030093D5030028
:1013F00019A9030025A90300E3D5030075A903007B
:1014000011DA0200F5AA0300012800000000000024
:10141000000000000001003000000000000000009B
:101420000003FF186400000000000000000000003E
:101430007856341200000000BAAB00000000000132
:101440000000000000000000000000000000F0BFED
:10145000000000000000008000000000000000808C
:101460000000000000000000000000C05294EEBF29
:1014700000000048204E51BE000000F86467BCBC6C
:101480000000000000000000000000208133EDBFDC
:1014900000000080B3DB14BE000000506706A3BC50
:1014A0000000000000000000000000D0E9DCEBBFFD
:1014B00000000008C39259BE00000080B0D3B8BC41
:1014C000000000000000000000000070F98FEABF7B
:1014D000000000C0A51028BE000000E8BFC0B0BCDE
:1014E000000000000000000000000070284CE9BF70
:1014F00000000060134B42BE000000C03D20B8BC9D
:10150000000000000000000000000050FA10E8BFDA
:10151000000000C05FF62BBE000000905C71A7BC0D
:10152000000000000000000000000020FCDDE6BF1D
:10153000000000C0F8F154BE00000018E9F6B9BC84
:101540000000000000000000000000D0C3B2E5BFB2
:1015500000000070E43254BE00000050DB06B4BC52
:10156000000000000000000000000010EF8EE4BF4B
:1015700000000020F36252BE000000C02A879ABC1F
:101580000000000000000000000000B02272E3BF75
:10159000000000F0E8E056BE00000028352DBDBC7C
:1015A0000000000000000000000000000A5CE2BF34
:1015B000000000B0FA8E41BE00000040AE6FBDBC1E
:1015C000000000000000000000000000564CE1BFD9
:1015D000000000F015CD5FBE00000000141C90BCA0
:1015E000000000000000000000000040BD42E0BF1D
:1015F00000000030F93457BE000000E06C1E93BCC0
:101600000000000000000000000000E0F57DDEBFEB
:10161000000000B08A535EBE00000080DA77AABCEA
:101620000000000000000000000000C09D81DCBF41
:1016300000000000FFA226BE0000006057E2B0BC20
:10164000000000000000000000000060F98FDABF19
:10165000000000580A8151BE000000F05F60B8BC75
:1016600000000000000000000000000098A8D8BFA3
:10167000000000607A7F45BE000000D05433A3BC58
:101680000000000000000000000000600FCBD6BF8B
:10169000000000D091CB40BE000000406D1BA0BCFC
:1016A0000000000000000000000000A0FBF6D4BF16
:1016B00000000098C5CE52BE000000003A397EBC42
:1016C0000000000000000000000000E0FE2BD3BF7F
:1016D0000000004073872BBE00000000926879BCB8
:1016E000000000000000000000000040C069D1BF01
:1016F00000000058F16353BE00000080438D7CBCA5
:10170000000000000000000000000080D85FCFBF94
:10171000000000181F8354BE000000B03F42A2BC6E
:1017200000000000000000000000008067FCCBBF4C
:1017300000000060FAFF53BE00000050E00DB8BC8E
:1017400000000000000000000000000098A8C8BFD2
:10175000000000607A7F35BE000000C0543393BCA7
:10176000000000000000000000000000DC63C5BFB6
:1017700000000058D6FF54BE00000000396490BC41
:101780000000000000000000000000C0AD2DC2BF3E
:1017900000000080A45915BE000000E0484BABBC1F
:1017A0000000000000000000000000801A0BBEBF17
:1017B00000000050BF3C5ABE000000A0B364B6BC9D
:1017C00000000000000000000000008004D6B7BF49
:1017D00000000040BBCF36BE0000008076CEA8BC23
:1017E00000000000000000000000008032BBB1BF1C
:1017F000000000402A0043BE00000028C60CBDBC0B
:101800000000000000000000000000009473A7BF6B
:10181000000000182B3B59BE000000C0E55DA5BCD0
:10182000000000000000000000000000EE4397BF31
:10183000000000A0E6C340BE00000020958DB5BCAE
:101840000000000000000000000000000000008018
:101850000000000000000080000000000000008088
:10186000000000000000000000008001100080FF68
:10187000FDFF58003AFFBBF3FFFFFFFFFFFFFFFF35
:10188000FFFFFFFFFFFFFFFFFFFFFFFFFFFFFFFF68
:10189000FFFFFFFFFFFFFFFFFFFFFFC5FFFFFFFF92
:1018A00000FFFFFF00C5C5FF000000FF00000000B3
:1018B000FFFFFFFFFFFFFFFFFFFFFFFFFFFFFFFF38
:1018C000300000000000000000000000E8180000E8
:1018D000040000000000000001000000FFFFFFFF07
:1018E000FF000000010000000800000000000000F0
:1018F00000000000000000001800000000000000D0
:1019000000000000081900000800000000000000AE
:101910001000000028130000281900000DD6030055
:10192000656D0300ED6C0300D1D8020025D90200DB
:10193000B5D802002E0000001419000074310020F8
:101940000400000000000000000000002000000073
:1019500058190000180000001800000000000000E6
:1019600000000000681900000800000000000000EE
:1019700018000000000000000000000080190000B6
:1019800008000000000000002C0000000000000023
:1019900000000000AC19000004000000000000007E
:1019A00001000000FFFFFFFFFFFFFFFF0800000036
:1019B00000000000B0110000CC190000BDAA030017
:1019C000CDAA0300E9AA0300DDAA030067D902003B
:1019D00091D9020045D9020032000000B41900007C
:1019E000843100200400000000000000000000001E
:1019F00014000000FC1900001C0000001C00000086
:101A00000000000000000000101A000000000000AC
:101A100008000000000000000100000063710000E9
:101A200011D603002FA00000677100006B71000049
:101A300057710000757100002400000000000000D4
:101A400000000000541A0000000000000000000028
:101A5000000000000800000000000000240000005A
:101A60000000000000000000781A000000000000E4
:101A7000000000000000000008000000000000005E
:101A80000A00000018000000000000000000000034
:101A9000941A000008000000000000007196000089
:101AA000340000000000000000000000CC1A00001C
:101AB0000000000000000000010000000000000025
:101AC000010000000000000000000000080000000D
:101AD00000000000180000000000000000000000EE
:101AE000E41A0000080000000000000024000000CC
:101AF0000000000000000000081B000000000000C3
:101B000001000000000000000800000000000000CC
:101B1000280000000000000000000000301B000052
:101B20000000000000000000FFFFFFFF00000000B9
:101B300008000000000000003C0000000000000061
:101B4000000000006C1B000000000000000000000E
:101B50000100000000000000000000000000000084
:101B6000000000000100000000000000080000006C
:101B70000000000055D8020025DD021021A8030056
:101B800075DF0210010000000000000000000000EE
:101B9000000001000000010015F9021001E602102A
:101BA0002DDA021045E7021041D10210C9D302100C
:101BB000A5DF02102DE4021061EA021079AA0300E9
:101BC00005000600080009001600020102020302D7
:101BD000000301030105020500060106040B1406BB
:101BE0001506170600070107020703070009040985
:101BF00007000A000C000D000E000F00100011007D
:101C00001200130014001B00000101010002010278
:101C1000020400040104030404040504060400058E
:101C20000206030604060506060607060806090658
:101C30000A060B060C060D060E060F061006110608
:101C40001206130604070009000B010B020B030B1D
:101C5000AB0055007C0084004B00B5001B00E50084
:101C60000017E8000047B8000077AB0000ABAB00FE
:101C70000055AB000022DD000E00F2003E00C20065
:101C800071008F00A1005F00D0002F00F907000055
:101C90000097B92EE5725CCB5DCAE473B82F01964C
:101CA000BA2D03945FC8E671E7705EC90295BB2C3C
:101CB000E3745ACD0691BF28BE2907905BCCE2752C
:101CC00059CEE077BC2B05920493BD2AE17658CF1C
:101CD00051C6E87FB4230D9A0C9BB522E97E50C70C
:101CE000EB7C52C50E99B720B6210F9853C4EA7DFC
:101CF000B2250B9C57C0EE79EF7856C10A9DB324EC
:101D0000089FB126ED7A54C355C2EC7BB027099EDB
:101D1000A2351B8C47D0FE69FF6846D11A8DA334CB
:101D2000188FA136FD6A44D345D2FC6BA037198EBB
:101D300041D6F86FA4331D8A1C8BA532F96E40D7AB
:101D4000FB6C42D51E89A730A6311F8843D4FA6D9B
:101D5000F3644ADD1681AF38AE3917804BDCF2658B
:101D600049DEF067AC3B15821483AD3AF16648DF7B
:101D70001087A93EF5624CDB4DDAF463A83F11866B
:101D8000AA3D13844FD8F661F7604ED91285AB3C5B
:101D90000000000000000000000000003DD1030032
:101DA000E1E602000000000085D0030075D10300C9
:101DB000B9D1030000000000000000000000000096
:101DC0003DD10300E1E602000000000085D00300E1
:101DD00075D10300B9D1030000000000000000002D
:101DE000000000003DD10300E1E602000000000019
:101DF00085D0030075D10300B9D1030000000000B5
:101E000000000000000000003DD10300F1E60200E8
:101E10000000000085D0030079D10300F3D1030056
:101E20000000000000000000000000003DD10300A1
:101E3000F1E602000000000085D0030079D1030024
:101E4000F3D10300000000000000000000000000CB
:101E50003DD10300F1E602000000000085D0030040
:101E600079D10300F3D1030000000000000000005E
:101E7000000000003DD1030001E702000000000067
:101E800085D003007DD103002DD2030000000000A7
:101E900000000000000000003DD1030001E7020047
:101EA0000000000085D003007DD103002DD2030087
:101EB0000000000000000000000000003DD1030011
:101EC00001E702000000000085D003007DD103007F
:101ED0002DD2030000000000000000000000000000
:101EE0003DD1030011E702000000000085D003008F
:101EF00081D1030067D20300000000000000000051
:101F0000000000003DD1030011E7020000000000C6
:101F100085D0030081D1030067D2030000000000D8
:101F200000000000000000003DD1030011E70200A6
:101F30000000000085D0030081D1030067D20300B8
:101F40000000000000000000000000003DD1030080
:101F500021E702000000000085D0030085D10300C6
:101F6000A1D20300000000000000000000000000FB
:101F70003DD1030021E702000000000085D00300EE
:101F800085D10300A1D20300000000000000000082
:101F9000000000003DD1030021E702000000000026
:101FA00085D0030085D10300A1D20300000000000A
:101FB00000000000000000003DD1030031E70200F6
:101FC0000000000085D0030089D10300DBD20300AC
:101FD0000000000000000000000000003DD10300F0
:101FE00031E702000000000085D0030089D1030022
:101FF000DBD2030000000000000000000000000031
:102000003DD1030031E702000000000085D003004D
:1020100089D10300DBD203000000000000000000B3
:10202000000000003DD1030041E702000000000075
:1020300085D003008DD1030015D3030000000000FC
:1020400000000000000000003DD1030041E7020055
:102050000000000085D003008DD1030015D30300DC
:102060000000000000000000000000003DD103005F
:1020700041E702000000000085D003008DD103007D
:1020800015D3030000000000000000000000000065
:102090003DD1030051E702000000000085D003009D
:1020A00091D103004FD303000000000000000000A6
:1020B000000000003DD1030051E7020000000000D5
:1020C00085D0030091D103004FD30300000000002E
:1020D00000000000000000003DD1030051E70200B5
:1020E0000000000085D0030091D103004FD303000E
:1020F0000000000000000000000000003DD10300CF
:1021000061E702000000000085D0030095D10300C4
:1021100089D3030000000000000000000000000060
:102120003DD1030061E702000000000085D00300FC
:1021300095D1030089D303000000000000000000D7
:10214000000000003DD1030061E702000000000034
:1021500085D0030095D1030089D30300000000005F
:1021600000000000000000003DD1030071E7020004
:102170000000000085D0030099D10300C3D3030001
:102180000000000000000000000000003DD103003E
:1021900071E702000000000085D0030099D1030020
:1021A000C3D3030000000000000000000000000096
:1021B0003DD1030071E702000000000085D003005C
:1021C00099D10300C3D30300000000000000000009
:1021D000000000003DD1030081E702000000000084
:1021E00085D003009DD10300FDD303000000000053
:1021F00000000000000000003DD1030081E7020064
:102200000000000085D003009DD10300FDD3030032
:102210000000000000000000000000003DD10300AD
:1022200081E702000000000085D003009DD103007B
:10223000FDD30300000000000000000000000000CB
:102240003DD1030091E702000000000085D00300AB
:10225000A1D1030037D403000000000000000000FB
:10226000000000003DD1030091E7020000000000E3
:1022700085D00300A1D1030037D403000000000083
:1022800000000000000000003DD1030091E70200C3
:102290000000000085D00300A1D1030037D4030063
:1022A0000000000000000000000000003DD103001D
:1022B000A1E702000000000085D00300A5D10300C3
:1022C00071D40300000000000000000000000000C6
:1022D0003DD10300A1E702000000000085D003000B
:1022E000A5D1030071D4030000000000000000002D
:1022F000000000003DD10300A1E702000000000043
:1023000085D00300A5D1030071D4030000000000B4
:1023100000000000000000003DD10300B1E7020012
:102320000000000085D00300A9D10300ABD4030056
:102330000000000000000000000000003DD103008C
:10234000B1E702000000000085D00300A9D103001E
:10235000ABD40300000000000000000000000000FB
:102360003DD10300B1E702000000000085D003006A
:10237000A9D10300ABD4030000000000000000005E
:10238000000000003DD10300C1E702000000000092
:1023900085D00300ADD10300E5D4030000000000A8
:1023A00000000000000000003DD10300C1E7020072
:1023B0000000000085D00300ADD10300E5D4030088
:1023C0000000000000000000000000003DD10300FC
:1023D000C1E702000000000085D00300ADD103007A
:1023E000E5D4030000000000000000000000000031
:1023F0003DD10300D1E702000000000085D00300BA
:10240000B1D103001FD50300000000000000000050
:10241000000000003DD10300D1E7020000000000F1
:1024200085D00300B1D103001FD5030000000000D8
:1024300000000000000000003DD10300D1E70200D1
:102440000000000085D00300B1D103001FD50300B8
:102450000000000000000000000000003DD103006B
:10246000E1E702000000000085D00300B5D10300C1
:1024700059D503000000000000000000000000002B
:102480003DD10300E1E702000000000085D0030019
:10249000B5D1030059D50300000000000000000082
:1024A000000000003DD10300E1E702000000000051
:1024B00085D00300B5D1030059D50300000000000A
:1024C000000000000000000000000000000000000C
:1024D00000000000000000000000000005110300E3
:1024E00000000000F9100300000000004F920000FF
:1024F000000000000778000000000000B39F00000B
:10250000000000003F96000000000000FD120300E4
:10251000C311030033120300D51103009B12030003
:10252000C5130300A11A273F5A5DB03E7C85233FA7
:10253000F086B63EE202203F0A23BC3ED3931C3F06
:10254000AD24C13E9E38193F1D86C53E8BF1153F17
:102550004647C93E1ABF123F6D6CCC3E0AA20F3FE0
:102560000EFDCE3E419B0C3FE702D13EB2AB093F90
:102570002589D23E42D4063FB39BD33EB215043FD9
:10258000B646D43E9370013F1C96D43E7DCAFD3EB4
:102590005295D43EA7E7F83E124FD43E7738F43E2A
:1025A0003FCDD33E5FBCEF3EDC18D33E7B72EB3EAB
:1025B000033AD23E9F59E73EEB37D13E6770E33E88
:1025C000F718D03E44B5DF3EBDE2CE3E8826DC3E65
:1025D0001E9ACD3E6EC2D83E5443CC3E2987D53E8E
:1025E00003E2CA3EE372D23E4979C93ECB83CF3E75
:1025F000CF0BC83E16B8CC3ED89BC63E020ECA3E94
:102600004C2BC53EDC83C73EC4BBC33EFE17C53E54
:10261000964EC23ED3C8C23EDCE4C03ED994C03E12
:10262000807FBF3E9E7ABE3E3D1FBE3EC278BC3E0E
:10263000ACC4BC3EF78DBA3E4470BB3E01B9B83E57
:102640006122BA3EB5F8B63E4ADBB83EF84BB53E1D
:102650002F9BB73EBFB1B33E3262B63E0E29B23EAB
:102660006730B53EF8B0B03ED505B43E9C48AF3EAD
:102670007AE2B23E29EFAD3E4BC6B13ED6A3AC3EA8
:1026800038B1B03EEB65AB3E29A3AF3EB534AA3EB0
:10269000039CAE3E910FA93EA99BAD3EE1F5A73E3E
:1026A000F7A1AC3E12E7A63ECAAEAB3E9BE2A53E0A
:1026B000FEC1AA3EF8E7A43E6ADBA93EAEF6A33E01
:1026C000E8FAA83E4A0EA33E5020A83E5E2EA23E47
:1026D000794BA73E8356A13E3B7CA63E5886A03E42
:1026E0006FB2A53E80BD9F3EECEDA43EA5FB9E3E95
:1026F0008C2EA43E75409E3E2874A33EA28B9D3E28
:102700009BBEA23EE3DC9C3EBF0DA23EF2339C3E4C
:102710007161A13E8E909B3E8CB9A03E7AF29A3EAA
:10272000F015A03E79599A3E7A769F3E54C5993E5F
:1027300009DB9E3ED735993E7F439E3ECEAA983E0A
:10274000BCAF9D3E0B24983EA31F9D3E61A1973ECA
:1027500016939C3EA322973EFA099C3EABA7963E59
:1027600034849B3E5030963EAA019B3E6FBC953E02
:1027700041829A3EE34B953EE3059A3E8DDE943EC0
:10278000768C993E4B74943EE515993E000D943E2F
:1027900018A2983E8FA8933EFB30983EDC46933EAD
:1027A00078C2973ECEE7923E7D56973E4A8B923E48
:1027B000F4EC963E3B31923ECD85963E88D9913ED3
:1027C000F520963E1C84913E5ABE953EE230913EE5
:1027D000EB5D953EC6DF903E99FF943EB690903EED
:1027E00053A3943E9F43903E0C49943E70F88F3E15
:1027F000B2F0933E18AF8F3E3A9A933E87678F3E72
:102800009545933EAE218F3EB5F2923E7EDD8E3EE3
:102810008FA1923EEA9A8E3E1552923EE4598E3E28
:102820003C04923E5F1A8E3EF8B7913E4EDC8D3EE0
:102830003F6D913EA79F8D3E0424913E5C648D3E8A
:102840003FDC903E652A8D3EE595903EB5F18C3E8D
:10285000EB50903E43BA8C3E490D903E05848C3E31
:10286000F6CA8F3EF24E8C3EE8898F3E011B8C3EAD
:10287000184A8F3E29E88B3E7D0B8F3E62B68B3E19
:102880000ECE8E3EA4858B3EC4918E3EE7558B3E88
:1028900098568E3E24278B3E821C8E3E53F98A3EEC
:1028A0007CE38D3E6ECC8A3E7EAB8D3E6EA08A3E32
:1028B00082748D3E4D758A3E813E8D3E044B8A3E2C
:1028C00075098D3E8D218A3E59D58C3EE3F8893EAF
:1028D00026A28C3E00D1893ED66F8C3EDFA9893E70
:1028E000653E8C3E7B83893ECD0D8C3ECE5D893E20
:1028F00008DE8B3ED438893E12AF8B3E8814893E69
:10290000E5808B3EE5F0883E7E538B3EE8CD883EE9
:10291000D7268B3E8BAB883EECFA8A3ECB89883E2D
:10292000B9CF8A3EA468883E3AA58A3E1248883EBE
:10293000697B8A3E1128883E45528A3E9E08883E21
:10294000C7298A3EB6E9873EEE018A3E54CB873ED0
:10295000B5DA893E76AD873E18B4893E1890873E39
:10296000158E893E3773873EA868893ED156873ECB
:10297000CD43893EE33A873E821F893E691F873EE9
:10298000C3FB883E6104873E8ED8883EC8E9863EF8
:10299000DFB5883E9CCF863EB393883EDBB5863E4E
:1029A0000972883E819C863EDD50883E8D83863E3E
:1029B0002C30883EFC6A863EF40F883ECD52863E1F
:1029C00033F0873EFC3A863EE7D0873E8823863E3A
:1029D0000BB2873E6F0C863EA093873EAFF5853ED7
:1029E000A275873E46DF853E0E58873E32C9853E3A
:1029F000E43A873E71B3853E211E873E029E853EA6
:102A0000C201873EE388853EC7E5863E1174853E58
:102A10002CCA863E8D5F853EF0AE863E534B853E8A
:102A20001294863E6237853E9079863EBA23853E73
:102A3000675F863E5810853E9645863E3BFD843E48
:102A40001B2C863E62EA843EF612863ECBD7843E3D
:102A500024FA853E75C5843EA3E1853E5FB3843E7E
:102A600072C9853E87A1843E91B1853EEC8F843E3C
:102A7000FC99853E8E7E843EB482853E6B6D843E9D
:102A8000B66B853E815C843E0155853ED04B843ECD
:102A9000943E853E573B843E6E28853E142B843EF3
:102AA0008D12853E071B843EF0FC843E2E0B843E37
:102AB00096E7843E89FB833E7ED2843E17EC833EBC
:102AC000A7BD843ED6DC833E0FA9843EC6CD833E9F
:102AD000B694843EE6BE833E9A80843E36B0833E02
:102AE000BA6C843EB3A1833E1659843E5E93833E06
:102AF000AC45843E3685833E7B32843E3977833EC7
:102B0000831F843E6769833EC20C843EC05B833E64
:102B100038FA833E424E833EE4E7833EF896002037
:102B2000AC8C0020C09500208C8D0020000000009F
:102B30004493002000970020C0930020D0950020EF
:102B4000B88E00201C4A0000544A0000644A00006D
:102B5000704A0000804A0000E0950020F4970020B1
:102B6000F8970020FC97002058340020009800209F
:102B700004980020089800200C980020109800204D
:102B8000F0950020208D0020C4940020E48E0020C9
:102B9000904A0000044B0000784B0000EC4B000012
:102BA000604C0000D44C0000EC4C0000F84C0000DD
:102BB0004D9900206C9600205C340020DC930020AE
:102BC000809200204E9900204F990020588E0020BE
:102BD000D8940020A888002050990020BC31000023
:102BE000443200000000000000000000044D00001E
:102BF000D085002014980020189800207034002000
:102C0000743400201C980020144D00005C940020B7
:102C1000148900200000000000000000B01C00200B
:102C200000000000000000000000000000000000A4
:102C3000C08D0020808000204C970020014A0310A6
:102C400049480310D5490310154703102B9503007D
:102C50005D49031081470310A146031095480310F6
:102C600045450310254A031021440310ED47031086
:102C700099490310E14803102149031055530310EB
:102C800089520310CD520310655003108D4E03106E
:102C9000C58A0300AF8B03002D8E030000000000E7
:102CA00059510310ED500310CD8F0300CD4B03108D
:102CB0002952031011530310A95503107555031021
:102CC00069530310DD550310355503107F9D030034
:102CD00021540310855C03100D5603104D5D031045
:102CE000A9640310B55B03106D570310E561031071
:102CF000095E0310C558031085600310716103104D
:102D0000B16203109963031055630310FD60031053
:102D1000B15E031049940300D55A0310D55903102E
:102D200009630310D963031019640310555F03107E
:102D3000C56403104D620310716403108D640310A9
:102D400055640310E16403102975031079720310B0
:102D5000A16B0310F57203109D74031079740310B6
:102D60002D74031061730310FD7303105574031069
:102D700015750310D96C0310FD740310459B0300F7
:102D8000E17403103D750310AD9C0300F96403105A
:102D9000CD6803102D710310C1740310F56E03107C
:102DA000B973031029670310056E0310C56F031074
:102DB000599E0300A1770310797D03103D7E031017
:102DC00049750310157E0310357D031099760310A5
:102DD000997C0310257B031071780310B57D0310D7
:102DE000ED7C0310857E03102D790310B97A031052
:102DF000917B0310B1790310ED7B0310E97D031083
:102E0000617E0310357A0310D57E0310457C0310D4
:102E1000A57E0310BD7E031083890300D9800310B3
:102E2000E97E031049830310898403108D81031008
:102E30007D820310E58403102B840310C5830310E7
:102E4000918703106188031045880310F1850310F2
:102E5000B18803107D880310C98803101D870310F3
:102E6000A186031001850310E188031099880310DF
:102E7000F98703101B9A0300359C0310819D0310F2
:102E8000E99A0310359B0310C19B0310419A03106C
:102E9000F18803101D8C0310618F0310F19403104F
:102EA000919E0310C19E03103D9E0310699E031066
:102EB000259E0310619D03100D9E0310819B03103E
:102EC000ED93031055990310C9970310D998031077
:102ED000BD950310959C0310C19D0310A59E031082
:102EE0007D9E0310C99103108D990300699C031006
:102EF000DD9D031095900310FD9B0310CD990310E9
:102F0000158E0310019D0310E19C0310219D0310F9
:102F1000419D0310BD9C0310F59D0310A19D03105E
:102F200055980310E1920310999A0310B99E03106B
:102F3000559E0310AD870300FB87030039A20310E1
:102F40001F88030069A1031075A20310C59E03101A
:102F5000B9A10310F9A1031015A103109DA203103C
:102F60000D9F0300159F0300179F0300559F03004B
:102F7000699F03006F9F030031A90310ADA20310E6
:102F800065920300B9A8031099A503105F8D030093
:102F900039A803106DA903106D8C03006DAC0310EC
:102FA00099B1031009AF031059B1031001B1031017
:102FB0009DA90310F5950300618C0300698C030043
:102FC000F9950300FD950300658C0300019603004D
:102FD00005960300099603000D9603001196030061
:102FE000F1B9031075BA031081BB031045A10300AA
:102FF0007DA103005DA20300FDA20300E7A303007F
:1030000025A40300ABA40300D9A4030039A5030041
:103010006DA503008FA50300ADA503000FA6030057
:103020005BA6030063A603009DA603001FA7030081
:1030300037A70300C1A70300418C0300ED950300EF
:10304000F1950300159603002D980300E9C60310BF
:10305000E9950300D98403004D87030039A00000DF
:10306000D3A000006DA000006F1F0300752F0200A9
:103070004987030043880300478803004988030009
:10308000DF880300757600008B7600007176000003
:10309000737600004176000019D6030025D60300A0
:1030A000A7710000CF71000019740000AD7300001B
:1030B000DB730000AD740000997400009172000091
:1030C000ED710000D9740000E3720000DBFD021016
:1030D000311E010079530000557500003376000061
:1030E00015E400003BE400006DE400004FE4000044
:1030F000C334002054990020559900205399002092
:103100005699002057990020C43400208B360200C5
:10311000376C020025AF0200035B0200735B020004
:1031200081B00200EDB00200DD5B02002B5B02000B
:10313000DF5A02009F5B0200B1AE0200A9AE02009E
:10314000E55E0100B95E01000FCD020081AE020014
:10315000E7AE0200F5AE020003AF0200035D01001E
:10316000C35A0100C15D01007F5E0100CDA00300D4
:10317000F3AF0200B9CC0200C5CC02000000000091
:1031800079B30200A7AE0200B9B202004BB302004D
:1031900000000000FF360200C5680200936F0200C5
:1031A000F15C010000000000000000004D7402000E
:1031B0001DAD0200895D0100D1CC02003600010086
:1031C0000600000000000000000F000000000000EA
:1031D000000000000000000000000300FFFF0000EE
:1031E0000403FFFF0000FFFF0F00E8030005401F7E
:1031F0000310000100000000FF3F0F000800050B56
:1032000000000000000000000300010F00000000AB
:1032100000000000000000000000000000000000AE
:10322000000000000000000000000000000000009E
:10323000000000000000000000000000AD000002DF
:10324000000000000001363601010001020100010A
:103250000301000104010606080400000C0100340B
:103260000D01000F10040101140100FF16080000F9
:1032700020020000220100FF23010001240100FEC2
:103280002501000826020000280100012901000193
:103290002A0200002C01000F2E0200003001000164
:1032A00031010008320200FF34010007350102FF3E
:1032B000360100003701000138010001390100FF2B
:1032C0003A01000F3C0200FF3E01010F3F010001E7
:1032D0004001041F41010001420100FF4301008041
:1032E000440800004E0100084F01000F500100018A
:1032F000510100FF52010000530100005401000180
:10330000580400005C040000600400006404000035
:10331000680400006C0400007004000074040000E5
:10332000780400007C040000800100FF810100019E
:103330008201000183010202840100017B9D0200E1
:103340002DA00200000000000000000000000000AE
:10335000FDA502001BA6020061A5020035A6020021
:1033600065A602006BA602003DA802000000000056
:1033700033A802004DA902007FA1020071A602003D
:1033800091A6020021A70200C9A9020007A202001B
:10339000CDAB0200A9AB02000000000049AC020066
:1033A000EDA10200F1AA02009D4C0200BB4B0200FD
:1033B000F74C0200A94B0200C94B02005F4E02000D
:1033C000634E02001BC002005DBF020095C00200F8
:1033D0003DBF02004FBF0200EBC00200EFC0020081
:1033E0000D59010019590100E02C0020902C0020FB
:1033F00038410000504100006841000008140000FE
:1034000080410000A0410000000000008083868908
:103410008C8F9295989B9EA2A5A7AAADB0B3B6B982
:10342000BCBEC1C4C6C9CBCED0D3D5D7DADCDEE0B2
:10343000E2E4E6E8EAEBEDEEF0F1F3F4F5F6F8F9A4
:10344000FAFAFBFCFDFDFEFEFEFFFFFFFFFFFFFFA4
:10345000FEFEFEFDFDFCFBFAFAF9F8F6F5F4F3F1D9
:10346000F0EEEDEBEAE8E6E4E2E0DEDCDAD7D5D335
:10347000D0CECBC9C6C4C1BEBCB9B6B3B0ADAAA785
:10348000A5A29E9B9895928F8C898683807C797665
:1034900073706D6A6764615D5A5855524F4C494666
:1034A00043413E3B393634312F2C2A282523211F16
:1034B0001D1B1917151412110F0E0C0B0A09070604
:1034C00005050403020201010100000000000000E4
:1034D0000101010202030405050607090A0B0C0E8F
:1034E0000F1112141517191B1D1F212325282A2C13
:1034F0002F313436393B3E414346494C4F525558A3
:103500005A5D6164676A6D707376797C5054564F6A
:103510005349474E31000000000000000000000049
:10352000000000000000000000000000000000009B
:10353000000000000000000000000000000000008B
:10354000000000000000000000000000000000007B
:10355000000000000000000000000000000000006B
:10356000000000003C001001030507090B0D0F00CF
:10357000020406080A0C0DBFFB097074766F2E69F1
:103580006E666F202020202020200B7074766F2E16
:103590007377697463682020202020002020202079
:1035A0002020202020202020202020200A323032FD
:1035B000352D30322D3238010000000000000000AF
:1035C00000000000000000000000000000000000FB
:1035D00000000000000000000000000000000000EB
:1035E00000000000000000000000000000000000DB
:1035F00000000000000000000000000000000000CB
:1036000000000000000000000000000000000000BA
:1036100000000000000000000000000000000000AA
:10362000000000000000000000000000000000009A
:10363000000000000000000000000000000000008A
:10364000000000000000000000000000000000007A
:10365000000000000000000000000000000000006A
:10366000000000000000000000000000000000005A
:10367000000000000000000000000000000000004A
:10368000000000000000000000000000000000003A
:10369000000000000000000000000000000000002A
:1036A000000000000000000000000000000000001A
:1036B000000000000000000000000000000000000A
:1036C0000000000000000000000000005054564FB1
:1036D0005349474E32000000000000000000000087
:1036E00000000000012000006756000000010000FB
:1036F00002200000675600000001000003200000C7
:10370000675600000100000004200000675600001A
:1037100000010000050000000000000000000000A3
:10372000060000000000000000000000070000008C
:103730000000000000000000080000000000000081
:103740000000000000000000000000000000000079
:103750000A00000000000000000000000B00000054
:1037600000000000000000000C020000000000004B
:10377000000000000D00000000000000000000003C
:103780000E20000067560000100100000F2000000E
:10379000675600001000000010800000F13E02009B
:1037A00000000000110000001917030010000000C5
:1037B00012000000151B03001000000013000000A1
:1037C0000000000000000000140000009B1903002E
:1037D00000000000150000000000000000000000D4
:1037E00016000000000000000000000017010000AB
:1037F00000000000000000001801000000000000B0
:103800000000000019000000414401000000000019
:103810001A00000041440100000000001B000000ED
:1038200000000000000000001C010000000000007B
:10383000000100001D010000000000000001000068
:103840001E00000000000000000000001F0100003A
:10385000AFDD020008000000200000007F8E0100A4
:103860000000000021000000AD6501000000000024
:1038700022000000D51C030000000000230000000F
:103880000000000000000000000000000000000038
:103890000000000000000000000000000000000028
:1038A00026000000000000000000000027000000CB
:1038B0000000000000000000280900004381030010
:1038C0000000000029000000B18403001000000087
:1038D0002A00000000000000000000002B00000093
:1038E00000000000000000002C00000000000000AC
:1038F000000000002D00000000000000000000009B
:103900002E00000000000000000000002F0000005A
:1039100000000000000000003000000005840300EB
:103920001000000031010000000000000000000055
:103930003200000000000000000000003300000022
:103940000000000000000000340000000000000043
:103950000000000035000000000000000000000032
:1039600036000000000000000000000037000000EA
:10397000000000000000000038000000000000000F
:1039800000000000390100000000000000010000FC
:103990003A00000000000000000000003B000000B2
:1039A00000000000000000003C00000000000000DB
:1039B000000000003D0000000000000000000000CA
:1039C00002040504030400040C000C040D042A0482
:1039D000040B02070A0011005054564F5349474E3A
:1039E00033BFFB07002802252000000000FFFFFF77
:1039F000FFFF000000000000000000000000505425
:103A0000564F5349474E34004F4144204E564D3196
:103A100000000000000000000000000000000000A6
:103A20000000000000000000000000000000000096
:103A30000000000000000000000000000000000086
:103A40005054564F5349474E3700000000000000C5
:103A50000000000000000000000000000000000066
:103A60000000000000000000000000000000000056
:103A70000000000000000000000000000000000046
:103A80000000000000000000000000000000000036
:103A90000000000000000000000000000000000026
:103AA0000000000000000000000000000000000016
:103AB0000000000000000000000000000000000006
:103AC00000000000000000000000000000000000F6
:103AD00000000000000000000000000000000000E6
:103AE00000000000000000000000000000000000D6
:103AF00000000000000000000000000000000000C6
:103B000000000000000000000000000000000000B5
:103B10000000000000000000000000005054564F5C
:103B20005349474E3800000000000000000020010B
:103B30004F4B010000000000010020014F4B01002D
:103B400000000000020020011262010000000000DD
:103B5000030020014E4B0100000000000400420160
:103B60007935000000000000050042018A350000A0
:103B70000000000006004201AC350000000000001B
:103B800007002001B73500000000000010004201CE
:103B90009B35000000000000110020012299002048
:103BA0000000000000404201AC35000000000000B1
:103BB00000804201493A0000030000000000210398
:103BC000EA9800200600000000001011000000002C
:103BD0000700000000003033000000000700000074
:103BE00010003033000000000700000001402033C7
:103BF0000000000007000000024020330000000029
:103C00000800000000002033000000000C0000004D
:103C100055003933000000000C0000001C00423346
:103C2000000000001200000055002101000000000B
:103C3000190000000000F081D029002019000000C8
:103C400001002381D829002019000000020023016F
:103C500040970020190000000300218182340020D9
:103C60001900000004002381DC2900201900000055
:103C700005002181843400201900000006003081F5
:103C8000209900201900000007002101E69800207B
:103C90001900000008002101E4980020190000002C
:103CA00009002181E298002019000000FDFF218118
:103CB000F650000000040000000021040000000095
:103CC00002040000000029040000000003040000BA
:103CD0000000290400000000050400000000290481
:103CE000000000000C040000000039040000000087
:103CF0000D04000000003904000000002A04000048
:103D00000000390400000000020700000000290440
:103D1000000000000207000000021805FB9C0100E3
:103D20000207000000033005000000000207000049
:103D3000010322050C3F00000207000002032205D8
:103D4000103F00000207000003031801FA9C010065
:103D5000020700000603180100000000040B000029
:103D600000001B05083F0000040B000000012905AE
:103D700000000000040B0000030129050000000002
:103D8000040B00000601290400000000040B0000E1
:103D90000002210576520000040B000001022105FB
:103DA00072580000040B0000020221057652000048
:103DB000040B00000302210596580000040B0000CC
:103DC0000402210576520000040B000005022105C3
:103DD0007A5A0000040B00000003210400000000D8
:103DE000040B00000004210576520000040B0000C3
:103DF00001042105C25C0000040B0000050521053B
:103E000000000000040B0000080521050000000070
:103E1000040B00000B05290400000000040B000047
:103E20001005280400000000040B00000006210516
:103E300076520000040B00000106210572580000B4
:103E4000040B00000206210576520000040B00005E
:103E50000306210596580000040B00000406210506
:103E600076520000040B000005062105CE58000024
:103E7000050B00000100210200000000000300000B
:103E80000000203300000000000300000100203388
:103E900000000000000300000300213300000000C8
:103EA00000030000040021330000000000030000B4
:103EB000070021330000000000030000080030115B
:103EC00000000000000300000F00181100000000B7
:103ED000000300000A401911000000000003000068
:103EE0000B40211100000000000300000C402101E4
:103EF0000000000001000401FEFF000000000000BF
:103F0000000000000000000021000000010000008F
:103F1000E80300000000C8420A00000002000000A0
:103F20000400000008000000100000002000000055
:103F300040000000800000000001000000020000BE
:103F40000004000000080000001000000020000035
:103F500000400000E8030000D0D1D2D3D4D5D6D79A
:103F6000D8D9DADBDCDDDEDF5A6967426565416C92
:103F70006C69616E63653039984D0000B094002023
:103F8000602B0020984D0000B29400206C2B002084
:103F9000984D0000B4940020782B0020984D00002C
:103FA000B6940020842B0020984D0000B894002087
:103FB000902B0020984D0000BA9400209C2B0020EC
:103FC000984D0000BC940020A82B0020984D0000C4
:103FD000BE940020B42B0020984D0000C094002017
:103FE000C02B0020449400202ACC0200108F002017
:103FF0002BCC0200000002400929FF00049300209E
:10400000F43F00000020050000400000B44D000017
:104010002599002004400000DC4D00004896002057
:10402000DC2B0020044E000030850020042C0020F2
:10403000044E000050850020062C0020044E000095
:1040400070850020082C0020044E00009085002080
:104050000A2C0020044E0000B08500200C2C00200B
:1040600000000000CD4E0100ED9B000001010100A9
:1040700000000000FF000100000000000000000040
:10408000284E00004C150020102C0020284E000067
:104090004C160020502C0020FF0000000000000003
:1040A00080A90300588600209840000000000840C6
:1040B000E8030000404E0000388F0020AC400000B4
:1040C000000001401FFF0000170000000010014029
:1040D00021FF0100190000000020014023FF020021
:1040E0001B0000000030014025FF03001D00000000
:1040F0000000014020FF000018000000807900202F
:10410000C040000000000000CC790020CC4000003E
:1041100000000000187A0020D840000000000000D5
:10412000647A0020E440000000000000B07A002023
:10413000F040000001000000020800000000000044
:10414000000000000001010000005328F02C0020B6
:1041500003080000000000000000000000016509E5
:104160000000000000000000012C00000000000022
:10417000000000000001001E000000000000000020
:10418000022C000000000000000000000000000001
:10419000000000000000000000000000000000001F
:1041A000032C0000000000000000000000000000E0
:1041B00000000000000000000000000000000000FF
:1041C00000000000000000000000000001010101EB
:1041D00001010101010101010202020202020202C7
:1041E000030303030303040404040505050505068E
:1041F0000606060707070808080909090A0A0A0B3C
:104200000B0B0C0C0D0D0D0E0E0F0F1010111112CB
:1042100012131314141515161617181819191A1B3A
:104220001B1C1D1D1E1F1F20212222232425262684
:104230002728292A2A2B2C2D2E2F303132333435A2
:10424000363738393A3B3C3D3E3F40414244454693
:104250004748494B4C4D4E50515254555658595A57
:104260005C5D5E606163646667696A6C6D6F7072E5
:10427000737577787A7C7D7F8182848688898B8D3F
:104280008F91929496989A9C9EA0A2A4A6A8AAAC5C
:10429000AEB0B2B4B6B8BABCBFC1C3C5C7CACCCE43
:1042A000D1D3D5D7DADCDFE1E3E6E8EBEDF0F2F5E8
:1042B000F7FAFCFF5374617469630000426C696E25
:1042C0006B0000004272656174680000436F6C6FA0
:1042D0007220576970650000436F6C6F72205769D8
:1042E000706520496E76657273650000436F6C6F70
:1042F000722057697065205265766572736500009B
:10430000436F6C6F722057697065205265766572D5
:10431000736520496E76657273650000436F6C6F3C
:104320007220576970652052616E646F6D000000E5
:1043300052616E646F6D20436F6C6F7200000000FD
:1043400053696E676C652044796E616D6963000026
:104350004D756C74692044796E616D69630000006D
:104360005261696E626F77005261696E626F772089
:104370004379636C650000005363616E00000000C8
:104380004475616C205363616E0000004661646592
:1043900000000000546865617465722043686173B1
:1043A000650000005468656174657220436861733C
:1043B00065205261696E626F7700000052756E6E03
:1043C000696E67204C696768747300005477696E82
:1043D0006B6C65005477696E6B6C652052616E641E
:1043E0006F6D00005477696E6B6C65204661646583
:1043F000000000005477696E6B6C6520466164654F
:104400002052616E646F6D00537061726B6C650059
:10441000466C61736820537061726B6C65000000BC
:10442000487970657220537061726B6C6500000092
:104430005374726F626500005374726F626520522C
:1044400061696E626F7700004D756C7469205374FA
:10445000726F626500000000426C696E6B205261F1
:10446000696E626F7700000043686173652057686A
:1044700069746500436861736520436F6C6F7200F7
:1044800043686173652052616E646F6D00000000C7
:104490004368617365205261696E626F7700000046
:1044A000436861736520466C61736800436861739B
:1044B0006520466C6173682052616E646F6D000008
:1044C0004368617365205261696E626F7720576837
:1044D00069746500436861736520426C61636B6F4A
:1044E00075740000436861736520426C61636B6F93
:1044F0007574205261696E626F770000436F6C6F54
:10450000722053776565702052616E646F6D000094
:1045100052756E6E696E6720436F6C6F720000009B
:1045200052756E6E696E672052656420426C7565C7
:104530000000000052756E6E696E672052616E64F5
:104540006F6D00004C6172736F6E205363616E6E0D
:1045500065720000436F6D65740000004669726506
:10456000776F726B7300000046697265776F726BCC
:10457000732052616E646F6D000000004D657272B1
:1045800079204368726973746D617300466972655E
:1045900020466C69636B65720000000046697265B5
:1045A00020466C69636B65722028736F66742900FE
:1045B0004669726520466C69636B65722028696E76
:1045C00074656E73652900004369726375732043D7
:1045D0006F6D6275737475730000000048616C6CD8
:1045E0006F7765656E0000004269636F6C6F7220C3
:1045F0004368617365000000547269636F6C6F7289
:1046000020436861736500005477696E6B6C654682
:104610004F5800005261696E0000000043757374CA
:104620006F6D203000000000437573746F6D203192
:1046300000000000437573746F6D203200000000AD
:10464000437573746F6D20330000000043757374FD
:104650006F6D203400000000437573746F6D20355A
:1046600000000000437573746F6D20360000000079
:10467000437573746F6D203700000000431601000E
:10468000E3190100871601001D5E000035170100C7
:10469000B51A0100351701001B1C01003717010076
:1046A0001D5E000035170100B51A01009B170100BF
:1046B0001D5E00000000000000000000D518010091
:1046C0001D5E000000000000000000002119010034
:1046D0001D5E0000CD1901001D5E000000000000FD
:1046E00000000000000000000000000000000000CA
:1046F00000000000000000000000000000000000BA
:1047000000000000000000000000000000000000A9
:104710000000000000000000000000000000000099
:104720000000000000000000000000000000000089
:104730000000000013000000290D0200000000002E
:1047400023BB00000100000023BB000002000000AA
:1047500073030200028000007103020003000000E6
:104760009103020004000000D7030200048000004F
:104770002F040200050000003104020006000000C2
:10478000A904020030000000330A020031000000DA
:104790003508020033000000ED0A0200340000007A
:1047A000930B020011000000350C02001400000001
:1047B000910C02001500000005080200FFFF000038
:1047C000000000008F000100BA34002087000100C3
:1047D000B834002035002800888F00202800010010
:1047E0009D340020290001009E3400208400040034
:1047F00078970020860001007D1B00202A00010020
:104800009F3400202B000100A03400202C00010068
:10481000A43400202D000800DC3000202E00010010
:10482000A53400202F000100A63400203000010034
:10483000A73400203200010030990020330001002D
:104840003199002034000100A83400203600010016
:104850003299002038000100A934002039000100FD
:10486000A334002083000200923400206300010082
:104870003699002065000100A13400206D00010080
:104880003799002071000800D096002066000100D2
:10489000B734002043000100B2340020440002007D
:1048A0008834002045000100B33400204600020097
:1048B0008A34002047000800D896002048000100F4
:1048C000B43400204B000100B53400200400010086
:1048D000B9340020A1000100BF34002037000100DE
:1048E000BE34002088000100BB3400203C000100E1
:1048F000AA3400203D000100AB3400204900020032
:104900008C34002067000100389900204D0002001F
:104910008E3400204E000100B63400204F0002000B
:10492000903400203E000100B0340020510001000E
:104930003399002052000100AD34002053000100E3
:10494000AF34002054000100349900200000000022
:10495000000000007B7374617469632D696E737469
:10496000616E63652D6E616D657D00007B656D70A8
:1049700074792D696E7374616E63652D6E616D65FA
:104980007D0000008C310020FFFFFFFFFFFFFFFFD5
:104990000A0000007BC901000200000077C401008A
:1049A0000500000015C601000700000087C50100D2
:1049B0000C0000004FBF01000D0000006DC10100A0
:1049C000FF000000000000008E0000008E000100CB
:1049D0008E0002008E0003008F0000018F00000295
:1049E0008F0000038E0001048E0000058E00080475
:1049F0008E00000489000006500000007F000100C6
:104A00003F0004003F0002003F0001007F00020061
:104A10008E0002048E0001028E00010100000000E1
:104A200002000000020000000A0000000200000076
:104A30000200010000000000000000000000000073
:104A40000000000000000000000000000000000066
:104A50000E00000000A6AAACA4A9A9A399B19ABC13
:104A6000B6A80000020402010101010902000000D1
:104A7000313117191A21241B1D1F31313331000028
:104A8000313118191A22311C1E2031313431000005
:104A9000030071003001600011007000310220033A
:104AA0005004800007001000610000001400630043
:104AB0007300720062004300000013000600000053
:104AC00000000400120000000000000000000400CC
:104AD0000400370037003C024400000000000000E2
:104AE00000006500000035008100000005000000A6
:104AF00083000000660000000000080009000A00B2
:104B00000B0000000101710101010101110101010E
:104B100031010101010180010001100161013B002F
:104B2000140063017301720162014301000113016A
:104B300006013D01350004011201000100010001E0
:104B4000000104010401330133013C01440132013D
:104B500036000001000165010001350081010001FE
:104B600005018201830100016601000100010801C5
:104B700009010A010B010000030271023001600209
:104B800011027002010202020202800200021002FF
:104B900061023A0041006302730272026202430240
:104BA0000002130238000002000204021202000296
:104BB00000020002000204020402370037003C0237
:104BC00044020002390000020002650200023502C0
:104BD00081020002050282028302000266020002D4
:104BE0000002080209020A020B020000010371031D
:104BF0000103010301030103010322030203010373
:104C0000000310030003000300030003000300037C
:104C1000000342030003240306030003000304030C
:104C200012032503230325032303040304030003C2
:104C30000003000344030003000323030003650390
:104C40002100350381030003050300030003000373
:104C5000000325032303080309030A030B030000D1
:104C600003047104020460041104700402040204C9
:104C70000104020400041004610400041404630429
:104C80007304720462044304000413040604000461
:104C9000000404041204000400040004000451048D
:104CA0006400000400040004440400040004000440
:104CB0000004650400043504810464000504000454
:104CC00083040004660400040004080409040A04C0
:104CD0000B04000000000500BD00B700B100BC00DF
:104CE0001C003000380008003801020000012018C4
:104CF0001A18182C34041E000C0E020B040B0A07A1
:104D00000800110F88B22400881300001000000072
:104D100000000001C003000080070000000F000039
:104D2000001E0000003C00000078000000F00000C1
:104D300000E0010000C003000080070000000F0039
:104D400000001E0000003C00000078000000F000A1
:104D50000000F00000000000000000000000000063
:104D60000000000000000000000000000000000043
:104D700000000000000000000000000000BE040A67
:104D800000BE02083031323334353637383961628B
:104D9000636465660000000041AB030079AB03006B
:104DA0007FAB03005BAC030047AD0300A1AD030084
:104DB000A9AD030045AE03004DAE030053AE0300A2
:104DC00083AE03009DAE0300EBAE030003AF030010
:104DD00077AF0300B5AF0300BDAF03004DB20300D2
:104DE000E1B2030057B3030087B3030099B3030094
:104DF000CFB30300E7B303000DB5030051B50300C3
:104E00005DB5030095BD0300AFBD0300E5BA030027
:104E1000E7BA0300E5BB03008DBB030029BC030018
:104E200075BD030059BD0300DDC0030053C103007D
:104E300047C4030051C4030029C6030049C9030045
:104E400031CE030039CE03003BCE030041CE030038
:104E500049CE0300D9CE030001CF03005D400021FD
:104E600089400021954000213B410021074C657994
:104E700000F009F861796940490703D50121044A26
:104E80008903116070BD70B5024908478003002195
:104E9000081104402D59000000F00AF800480047AE
:104EA000577F000000F00AF8004800471B88000008
:104EB000806B0C490007000F48717047094A0A4986
:104EC00018235079CB56497EC018814201DD08462F
:104ED00002E00F2800DD0F20D189090909010143F3
:104EE000D1817047E0020021880000210122274B78
:104EF00002212548184710B5254880472548406AB3
:104F000000280DD124490A200856002809DA401C3F
:104F100007D008462038406A2049884200D180479F
:104F200010BDFFF7E3FF10BD00211E4B1C4A0846D1
:104F3000184701201C49400208601C48FB220178E8
:104F4000114001701248EC38004710B518498847E5
:104F500011492039012807D0020404D50020088512
:104F600014484862012010BD4A6A094BEC3B9A4242
:104F700001D1114A05E007494A6A104B9A42F2D121
:104F80000F4A4A6210BD0000060800009F0600009C
:104F9000A192020008010021540100216392020045
:104FA000E7400021B5B4020080E100E08003002169
:104FB000F7960200DD40002123410021699502009F
:104FC0001941002101020003020001033948006871
:104FD000017800F0C9B8F8B500F03DF817460A6945
:104FE0001E46904780B2854214D206988DF8020082
:104FF0008DF800708DF8016005EB4505206841686B
:105000009DF80020481902709DF8011041709DF82C
:1050100002108170F1BD7CB500F01DF816460A69DA
:10502000904780B2854215D2310A300C8DF80110BC
:105030008DF800008DF8026005EB45052168486891
:105040009DF80010284401709DF8012042709DF8E1
:105050000210817073BD04460D46206801687047D8
:105060002DE9F041044688462068016816460A6921
:105070001F4690470546A9B28E4214D2A8B2390005
:1050800008BF05460CD0BF19BFB2ADB2BD4207DDA7
:105090003D4605E04246B1B22046FFF7BCFF761C14
:1050A000B0B2A842F6DBBDE8F08102480268117098
:1050B00070470000A893002038B5FFF7CCFF0A69BD
:1050C000904780B2854201D3002032BD20684168FC
:1050D00005EB4505294408788DF8000048789DF8CF
:1050E00000208DF80100000289788DF8021040EA56
:1050F0000240084332BD010010B54D4C616851B902
:10510000207828B90121217004F1080000F005F889
:1051100004F108016160606810BDFF210170002288
:105120004FF0FF31816042804221C26042600174D1
:10513000704770B5012B04460D46164603DB06EB9F
:10514000460635441E4621688A6890476560666158
:10515000204621684A699047014635484068012247
:1051600000F052F8204670BD2DE9FC4106460D4680
:10517000304C706830B100F063F861687268401AB2
:105180009042F6D300F05CF86060F2681AB1B16842
:10519000284690470546246815E07088A77C642857
:1051A000BCBF0021A1742A462146684600F058F889
:1051B000D4F800C062696168DCF804806B46204660
:1051C000C047A774A468002CE7D11921304600F02D
:1051D00002F8BDE8F38170B5174C05462068461CFF
:1051E00088420FDB00F031F86168401A08BF0120E7
:1051F0004FF47A714E43B6FBF0F06880002600F061
:1052000024F86060266070BD4AB10A000ED00B4AD7
:10521000436892FBF1F1994207D2194605E00A0072
:105220001ABF064A92FBF1F100214160704700006D
:10523000A4930020909600209896002040420F00F2
:1052400010B500F099F8044606E010B500F094F8A7
:105250004FF47A71B0FBF1F400F08BF8604310BDAD
:1052600010B5144601F10F0301F10C022146BDE80F
:10527000104000F0A7B80100DFF800F001CE0210E6
:10528000DFF800F09DEB0210DFF800F025DB0210E4
:10529000DFF800F0C5E20210DFF800F0C3EC021006
:1052A000DFF800F0E7E90210DFF800F0BBEC0210D5
:1052B000DFF800F08DDD0210DFF800F049E60210A3
:1052C000DFF800F0FDE90210DFF800F011DC021059
:1052D000F0B51C0089B005460E46174605D10023DF
:1052E000FFF7E6FF284609B0F0BD0823242200217D
:1052F0006846FFF7C5FFA16806916B462278ADF8B6
:1053000010203A466068059031462846FFF7D0FFE6
:10531000284609B0F0BDF0B5140089B005460E4628
:10532000264F05D13B460022FFF7AEFF09B0F0BD86
:105330000823242200216846FFF7A2FFA1680691F6
:105340003B462278ADF810206A46606805903146E9
:105350002846FFF799FF09B0F0BD00B581B0009075
:105360006846FFF7A1FF01B000BDFFF7A5BFFFF73B
:10537000A7BF134800687047FFF7A6BF00F03DB80D
:1053800000B581B000F052F8401E8041C043C00F0C
:1053900001B000BD00218160017041607047FFF7DE
:1053A0007BBFFFF77DBFFFF773BF0549096800EBBF
:1053B0005100B0FBF1F0FFF75FBF0000EC300020C0
:1053C000801A000070B504460020207060700D4601
:1053D00000262800A6700FD0915D985D002918BFA7
:1053E000002806D0401C10FB05F0491C4143090C65
:1053F000A155761C022EEFDD70BD70B5044600F09D
:105400001BF80646A08A002501280AD1FFF75CFF99
:105410000546E068A168451BA9423EBF2069A84235
:105420000025304600F009F8284670BD808A704794
:10543000DFF800F07DE8021000E006E0EFF31180F5
:10544000202181F311887047000080F31188704794
:10545000FFF7EEBFF2E7F8E7F0E7F6E70000EDE769
:10546000F3E70E49C20744BF01230B60820744BF24
:105470004FF480730B60400744BF4FF480320A60E2
:10548000704710B5064AC30748BF1160840748BF7C
:105490005160400748BF916010BD000004200940E2
:1054A0001820094070B50446257805F07F050E2DBB
:1054B00002D19FEDAA0A70BDE678032D1CBF042D12
:1054C000012D01D1002000E0802000F08BF90F2D8C
:1054D00014BF012200220321304600F084F90F2D71
:1054E00004D100EE100AB8EE400A70BD00F0C2F917
:1054F000032D41EC100B04D100F0CEF900F0BAF905
:1055000017E0F9D0042D0CD153EC102B9448954999
:1055100000F0DEF900F0C0F900F0ACF90022924B87
:1055200005E000F0B9F900F0A5F900228F4B00F07A
:10553000A5FA00F0C7FB00EE100A207AC10708D5D3
:105540006069D0ED000AB0EE401A90ED010A01EE5C
:10555000200A70BD7FB504462C204443844D281991
:1055600000F108014E88964204BF8988994245D1CE
:1055700008990B0006D10C2A0CBF042102210A98BD
:10558000018017E0012939D1FFF78CFF8DED000A6A
:10559000295D099801F07F01012918BF02290CD06B
:1055A00003291DD0042908D00F2927D104226946D8
:1055B00000F053FC012004B070BD6E49DDED000A1F
:1055C0000A8800EE102AB8EE400A60EE200AFDEECE
:1055D000E00A10EE903A1BB20193022201A9E7E71C
:1055E0006549D1ED000A60EE200AFDEEE00A10EEFA
:1055F000902AADF8042001A90222D9E70020DAE7B9
:1056000070B504462C214C43594D2E192DED028BBB
:105610003046FFF747FF295D01F07F010329B0EE17
:10562000408A0DD1544890ED000A707828EE000AA7
:10563000BDEEC00A10EE101A09B200F0CFFE0EE067
:10564000285D00F07F000F2806D1012001F0BCF892
:1056500030B180ED018A03E0707800F0CFFE0020C9
:10566000BDEC028B70BD2DE9FC478046434F4D7960
:10567000434911F80890484600F08CF8064600F0BF
:1056800092F8002000F0AEF83A7839492C204243D5
:105690008C183C49D4F814A06162012005F07F0504
:1056A00084F8280040F6043161814FF48070032DA6
:1056B000A08105D140F202400926608100214BE023
:1056C000042D08BF08262CD00421484601F05CF9BF
:1056D0000C2010FB06F02C4901F80090012D33D16D
:1056E00008442A4A42600021009101916A46012142
:1056F000404601F047F801AA0221404601F042F875
:105700009DED000AB5EE400AF1EE10FA09D0207ABC
:1057100040F0010020720098CAF800000199CAF810
:10572000041084F8018084F80290E670002120784B
:1057300000F0800005432570A1711548E0613978BB
:10574000491C3970BDE8F387681E0128CBD90E3893
:10575000E7D10C2060815521A181E2E70000000023
:105760009A9999999999B93F0000594000408F4002
:10577000647C002072580000143F00001F99002034
:10578000A896002055550000602B0020308C110099
:1057900001560000A0F11701082902D21738C0B243
:1057A0007047FF2070470C480178CA0700D5704742
:1057B00010B541F0010101700020084905E0C3B2B5
:1057C0000C246343FF22CA54401C054B1C78C2B210
:1057D000A242F4D310BD000024990020602B0020C9
:1057E000FBC202007047134601222DE9FE4309283F
:1057F000044691461D4605D101F047FA01F074FABE
:1058000080B234E05FEA09000BD001F096FA01A8FB
:1058100001F0CEFA01A9204601F0AAFA5FEA0008D9
:1058200001D1002023E000270024002609E069467A
:10583000404601F07CFA18B9BDF80000641C3F181E
:10584000761CF0B24845F2D3E0B20228A4BFE4B21D
:10585000B7FBF4F73DB1B9B2404601F06BFA4FF433
:105860007A71B0FBF1F7404601F05EFAB8B2BDE8DC
:10587000FE83640010F0004160B148BF4042B0FABE
:1058800080F29040D21CC2F5846241EA025202EBDF
:10589000D02140057047E803C1F30A5340F21E428D
:1058A000D31A0CDDCA0283F3070342EA505242F0D6
:1058B0000042DA4002EBE17282EAE17070476FEA7F
:1058C000E17203F2E13008B182F00040704701005C
:1058D00030B540F2FF7C1CEA11541DBF1CEA135581
:1058E000644565453FE0641981EA030C6FF35F533B
:1058F0000CF0004C43F48013C90241F0004141EA2E
:10590000505EC5021100A5FB020200284FF0000006
:10591000EEFB01204FF00001E3FB052118BF42F030
:105920000102401800214941E3FB0E01A4F5806407
:105930000D0302D292184041494154F1010470DD37
:10594000450872F1004250F1000051EB0451A1F5FD
:10595000801102D441EA0C0130BD40F2FF7E4CEAD6
:105960000E51002030BD0CEA1355644518BF654543
:1059700081EA030C0CF0004C41D050EA410E1CBFF0
:1059800052EA430E02E06146002030BD24422C441E
:105990001BD15FEA050EF6D0090302BF01460020C5
:1059A000AEF1140EB1FA81F5AEEB050401FA05FE75
:1059B0000C35C5F1200100FA05F5C8404EEA000E8D
:1059C0006FF35F5343F480139CE733F00043B3FA63
:1059D00083F504BFB2FA82FE75440B3D641BB5F13A
:1059E000200E2FBF02FA0EF3AB40C5F1200E22FAB3
:1059F0000EFE38BF43EA0E03AA40641C7CE750EA5F
:105A0000410E14BF52EA430E6FF000014FF400152F
:105A100015EB430F8EBF194615EB410F9DE7B4D828
:105A200030BDD4F10104B4F120050FDAC4F1200532
:105A3000520828BF42F0010210FA05FE01FA05F5EE
:105A40007244E2BFE0402843E1400FE0352C9ADC8D
:105A5000C5F1200452EA400220FA05F218BF42F0D4
:105A6000010231FA05F0A1400A43002172F100421F
:105A700050F1000051EB0C0130BD0A00F0B540F2CE
:105A8000FF7581EA030C0CF0004C15EA11541DBFA0
:105A900015EA1357AC42AF42E5E0BC41C1F3130134
:105AA000C3F31303801A994143F4801304D2641E94
:105AB0000018494180185941C90241EA5051B1FBCF
:105AC000F3F603FB1611A2FB0675D7EBC020A94124
:105AD00002D2761E80185941C90241EA5051B1FBE9
:105AE000F3FE03FB1E11A2FB0E75D7EBC020A941EC
:105AF00003D2AEF1010E80185941890241EA90515A
:105B0000760546EA8E2EB1FBF3F603FB1611A2FBD7
:105B10000675D7EB8020A94102D2761E8018594124
:105B2000C90241EA50514EEA060EB1FBF3F603FBFF
:105B30001611A2FB0675D7EBC020A94102D2761E32
:105B400080185941C90241EA5051B1FBF3F703FBF8
:105B50001711A2FB0735D3EBC020A94167F100075D
:105B60000CBF004247F0010766F3D5274FEA1E310C
:105B7000B80814F5806412DDBD0775F1004250EBE2
:105B80000E5051EB045111F5801F5CBF41EA0C012E
:105B9000F0BD4CF07F6141F0E0410020F0BDBD0759
:105BA0006D0840EA0E5041F48011D4F10104B4F1C3
:105BB00020060ADAC4F120060200E04001FA06F3EA
:105BC000E1401843B24015430EE0342C13DCC6F11B
:105BD000200445EA40056D0820FA06F2154321FA33
:105BE00006F0A1400D43002175F1004250F1000084
:105BF00051EB0C01F0BD00205FEA0C01F0BDCFB904
:105C000092185B41B3FA83F704BFB2FA82F6BF1968
:105C10000B3FB7F120062FBF02FA06F3BB40C7F1D6
:105C2000200622FA06F638BF3343BA401CB1E41905
:105C3000641E33E77F4231F00041B1FA81F404BFC2
:105C4000B0FA80F6A4190B3CB4F120062FBF00FA7D
:105C500006F1A140C4F1200620FA06F638BF314310
:105C6000A0403C1B1AE7AC421ABF05EA1357AF42EB
:105C700012E050EA41061CBF52EA4306BFE750EA71
:105C80004107304661461CBF41EA0551F0BD52EA6A
:105C9000430C08BFC143F0BD00204FF4001616EBC3
:105CA000410F98BF16EB430F08BF16EB410F24BFFF
:105CB000C14305E016EB430F0CBF61464CEA0551AA
:105CC000F0BD0A0001F000428B1AA3F16051B1F55A
:105CD000801F0ADBB1F17F6F1FD242EAC102C1000F
:105CE00071F1004142EB507070470B15C3F109038D
:105CF000212B10D2890241EA9051800201284941AA
:105D000041F0004121FA03F0C3F12003994071F101
:105D1000004150417047100070476FF0000013EBD6
:105D2000103F5CBF000E42EAC0507047F8B50D4608
:105D300088B00446287800F0BAF800283ED1DFF891
:105D40003C220021131D53F8310018B1491C0829C9
:105D5000F9DB33E005A800230026002780E8C8000F
:105D600002F83140121D42F8315028788DF80000B9
:105D7000A8684188ADF802108188ADF804108079D8
:105D800000F00F008DF80600A868C1798DF80710A3
:105D9000A86881680291007B8DF80C00A8680169F1
:105DA000049105A928788DF814008DF81C30CDF8E1
:105DB00018D0204601F074F8012000E0002009B05E
:105DC000F0BDDFF8BC11086070472DE9F041DFF845
:105DD000B4512C6880460F4600F069F8002630B9AF
:105DE0000020BDE8F081206800B9264604462CB1A9
:105DF00020794045F7D1A7600120F2E70C2001F09F
:105E000037FC0028ECD00022026080F80480876014
:105E10002968002914BF30602860EDE710B55949A2
:105E20000A6800E0126852B1036811791C7DA14232
:105E3000F8D191680029F5D0BDE81040084701204D
:105E400010BD01F015BC10B5044610460A460146C7
:105E5000204601F06DFC204610BD03E011F8013B27
:105E600000F8013B13465A1E002BF7D1704700285B
:105E700018BF01F0FEBB704701700A0A0B0C090E37
:105E800042708370C170001D704700223B4B03EBD2
:105E9000C201496811B10978884203D0521C082A0E
:105EA000F5DB02E013F8320070470020704710B5B0
:105EB00001460022314800EBC203586810B1047853
:105EC000A14203D0521C082AF4DB00E010BD0020E0
:105ED00010BDF0B58BB007460C4615461E462C216A
:105EE000684601F059FC397A8DF80010032906D173
:105EF000082239460DF1020001F0B0FB03E011B1B8
:105F00003988ADF80210797A12988DF80A107989DB
:105F1000ADF80C10810744BF01228DF81C20C1068A
:105F200044BF01228DF81D20010744BF01228DF8D6
:105F30001E20810644BF01228DF81F20410644BF68
:105F400001228DF82020000644BF01218DF8211088
:105F50001398119B109A27788DF822008DF81470F1
:105F6000ADF816500693ADF824600A922078FFF73A
:105F70008CFF694600F098FF0BB0F0BD308C00201C
:105F80005C97002060970020F8B50D2805462DD2BB
:105F900001F070FBDFF8FC351A7800240146BAB135
:105FA00000265FFA86FC2820DFF8EC7510FB0CFC5D
:105FB0006744787C000904D0761CF0B21728F0DD25
:105FC00006E0521E3C461A70607C40F0F00060749F
:105FD000084601F05AFB4CB1280014BF04F11C0024
:105FE0000020A061E57504F10C00F2BD01F0FCFB9E
:105FF00040F20131884206DB05F11006B0B201F033
:10600000D2F8040001D10020F2BDB1B201F0F8FBDA
:10601000280014BF04F110000020E060E572204663
:10602000F2BD38B504462079C0F30210022806D12B
:10603000E06820B1A17A022908BF01F01AFB60795B
:10604000000910D001F016FB05461C21204601F086
:10605000A3FBDFF840050178491C01702846BDE824
:10606000324001F012BB2046BDE8324001F0AFB82B
:106070002DE9F04704468A462668257901F0FAFAA8
:10608000DFF8182580465068C5F302190027002163
:1060900002E0014650F80C0C18B30368B34202BF8B
:1060A0000379C3F3021CCC4504BFDB09B3EBD51F56
:1060B000EFD17F1CBAF1000F13D0FBB29A45E8D1A3
:1060C00050F80C3C44F80C3C5668B04208BF546091
:1060D00009B141F80C4C002140F80C1CFFF7A1FF5E
:1060E00000E00446404601F0D0FA2046BDE8F087C3
:1060F00070B501F0BFFA0646DFF8A0044468002539
:10610000456005E0204654F80C4CFFF78AFF6D1CF3
:10611000002CF7D1304601F0B8FAE8B270BD2DE995
:10612000F0430C468FB0200448BF84F4004000F1D7
:10613000C680E007DFF8646440F1B580707800281D
:1061400084F001091BD101F04FFB002740F201113F
:1061500088424FF0000813DAB078401CB070C0B22B
:106160001F28A4BFB770FFF7C3FFB078052190FBCD
:10617000F1F101EB8101401A03D000F0A3F890E0A7
:10618000B770301D01F048F90400F8D0162106F16F
:10619000080001F001FB21791625080910F007001D
:1061A00003D0022851D014D358E0C809E57A0590ED
:1061B00004970397029701F00F01E068019006F140
:1061C0000800A27A009216352389E28802F0E0FDE9
:1061D00043E0E179FF290AD02C20DFF8C4234143B2
:1061E00057181E2207A9384600F01CFA8046E068BE
:1061F0000168069107AB21790279CDF81080001D66
:106200000290039306A8552302EB0805CA090592DC
:1062100001903922009201F00F010C2206F10800D2
:1062200002F0B6FD1A35010017D12437387901077D
:1062300014D5FF210020009102900190A179E0790E
:106240003F6855230C22B84708E0E288E068E57A09
:1062500001F00F0102F048FD163570B9652D05DB20
:1062600030783222012102F097FE17E030780121C8
:1062700001F037F849F0010910E0607900F00F01F2
:10628000022908DC411C61F3030060712146301DC6
:1062900001F002F9002400F015F814B12046FFF7D0
:1062A000C0FE48460BE0A00708D50021717001210F
:1062B000307801F016F884F0020000E000200FB002
:1062C000BDE8F083012070704FF47A7230780221BB
:1062D00002F062BE4FF6F07300F00F0003EA021303
:1062E000184340EA014070472DE9FE4F0C9DDDF850
:1062F0003490DFF8B0420026471C884692469B4601
:106300001DE0F9B22C22DFF898025143084443788B
:10631000984513D290F828100A060FD5D0F824C05B
:10632000BCF1000F0AD0002002900195FE200090E1
:106330005B4652464946F8B2E047761C7F1C2178FE
:10634000F8B28842DDD3DFF860020278FF2A08BF86
:106350000670BDE8F78F2DE9FE4F8846DFF848123A
:106360008346087891461E4648B10C990091002456
:1063700001944B4642465946FF20FFF7B5FFDDF832
:1063800034A0864F5046FFF7FFFD040021D00E9D3C
:106390004A4641465846FFF79DFF206052460BF0A3
:1063A0000F0040EAC5102071A4F80680A4F80890F8
:1063B000A6720C99E06801F051F9102E0CBF032170
:1063C00001212046FFF754FE18B92146381D00F080
:1063D000EDFF387803B0BDE8F04F84E003B583B03B
:1063E00000F004F8292340F2024110E000210222CB
:1063F00004AB02910192009300227047F8B56B49FB
:1064000000F009F84FF48072FFE740F60431FFF71F
:10641000A2FF05B000BD0A8800EE902AF8EE600ADF
:1064200020EE800ABDEEC00A10EE102AADF80C2056
:106430000023022103AA02930191009229237047AD
:106440001FB50B0018BF012301218DF80C300292FB
:10645000019103AC0094102300220621FFF77BFF7B
:106460001FBD2DE9FC470F464F490A9D0646087897
:106470009046994640B10195CDF8008055230C22F5
:1064800031463846FFF730FF0C20FFF77DFD040052
:10649000DFF808A123D07A1C49463046FFF71AFFDF
:1064A000206006F00F062079A57100F080000643F9
:1064B0003920A07246F01006E0682671E77184F872
:1064C00008900C22414601F0C9F801212046FFF74F
:1064D000CFFD20B921460AF1040000F067FF9AF8C9
:1064E0000000BDE8FC47012100F0FBBE2DE9F047AC
:1064F0008046894614009A4618BFBAF1000F11D0A1
:10650000089E370908BF012706F00F06022E0CBFB0
:1065100000205046FFF738FD050005D116B1204692
:1065200001F0A7F8002031E0002249464046FFF77D
:10653000D1FE286008F00F01287900F080000843A0
:1065400040F02000287185F80BA00020A5F80690E7
:106550002881AE72022E08BFEC6008D0E86852466F
:10656000214601F07BF816B1204601F082F8394649
:106570002846FFF77DFD094C18B92946201D00F07B
:1065800015FF2078012100F0ACFE0120BDE8F08766
:1065900000000000953400208C110020E4920020BF
:1065A000647C00201F990020943400207258000061
:1065B00070B504462C214C43B54D2E19304601F0E0
:1065C0001FF92A5DB34942F080022A55FF20087066
:1065D000304670BDF0B5B04BB04C1B5C245C02463D
:1065E00000E0491CAE4D2E78C8B2B04217D25FFA17
:1065F00081FC2C25A64F15FB0CFC07EB0C0528781D
:10660000C0090CD06878904202BF2F7807F07F074E
:106610009F4204BFA878A042E3D148B2F0BD4FF03A
:10662000FF30F0BDF0B50346002400200EE0E4B2D8
:1066300066440E5507F00F076C1C0A2FACBF3726B7
:106640003026EDB2F6194E55401CC0B29E79B042CC
:10665000E5B212DAEF1CBA420FDB10B12D264E550F
:10666000641C1D182F7AC7F30316651C0A2EB4BFCD
:106670004FF0300C4FF0370CD9E7E0B290423CBFFE
:1066800000204855E0B2F0BD10B500F001F811E06F
:10669000012303FA00F000F0FF0000EB0120814C21
:1066A000704710B5012303FA00F000F0FF0000EB83
:1066B00001207D4C81B22078BDE8104002F06CBC16
:1066C00070B500F006F8784E00F00AF800B90FE057
:1066D00070BD0446012000FA04F404F0FF04704782
:1066E000307804EB0124A4B21546214602F084BCA4
:1066F00030782A462146BDE8704002F04DBC0122A8
:1067000002FA00F000F0FF0000EB0120654B07E00B
:10671000012202FA00F000F0FF0000EB0120624BC2
:1067200081B2187802F03CBC1CB500F045F80CBFF3
:1067300002F1FC0102F1AC01052202F035FD9DF8E9
:106740000000012816D002280FD0032807D0042803
:1067500010D0052809D0062818BF0B2810D10DF13C
:10676000010108682060012016BD0DF101010868D3
:1067700080B2F7E70DF10101086800F0FF00F1E7D2
:10678000002016BD1CB500F017F80CBF02F1FC018B
:1067900002F1AC01052202F007FD9DF80000072878
:1067A00008D10DF10100016800EE101A84ED000A15
:1067B000012016BD002016BD14463C4A00EB8000A7
:1067C000024402296846704770B510260228054623
:1067D00003DB0C2110FB01F6361D304600F048FFAC
:1067E000040003D0314601F00BF82570204670BD3F
:1067F000420602D5491E8941C90F00F01EB92C225C
:10680000234B504318440079002818BFFFF7F0BF0E
:10681000704738B50024224D03E00021FFF7EFFF59
:10682000641C2978E0B28842F7D32148027802F04C
:10683000FD02027031BD70B52C2606E0D5B2144CB5
:1068400075432C44521C20716171D4B29C42F5D323
:1068500070BD70B52C220E4B0446191D54430C5DBF
:1068600000E0401C0E4D2E78C1B2B1420CD2514313
:106870005D18297900291CBFA9780029F1D0297950
:10688000A142EED1012070BD002070BD00000000CB
:10689000647C002094340020A0960020A89600205C
:1068A0001F99002053290020542900200C35000096
:1068B000E8980020C000103070477CB5C000103050
:1068C000461814461D463146102002F0D2FC48B945
:1068D0000095234600223146102002F02FFD08B912
:1068E000012076BD002076BD13460A460EE0C000AA
:1068F00080B510304118102002F0FEFC012002BDCE
:1069000013460A460021F2E70B4604220021D4E791
:1069100002B56B4604220021FFF7E9FF02BDE80340
:1069200000F03F02282A0ADA012200F01F0012FAC2
:1069300000F004D0644A09B11060704710617047DC
:10694000F8B500F04CF81EDA00F043F81BD05F49B0
:106950000A681043086024F0605402F0A2FD00F0C1
:106960004CF830001CBF032E042E02D144F4C04466
:1069700008E0012E08BF44F4804403D0022E08BF73
:1069800044F4005449E0F1BDF8B500F028F81FDAEE
:1069900000F01FF81CD04D490A6822EA0000086088
:1069A00044F0005402F07DFD00F027F830001CBFD9
:1069B000032E042E02D144F4C04408E0012E08BF87
:1069C00044F4804403D0022E08BF44F4005424E071
:1069D000F1BD012100F01F0011FA00F070478500A1
:1069E00005F0FC0505F1804505F501250E462F460D
:1069F00000F03F013C6828297047002139706F1C66
:106A0000220AA91C3A70230C0B704FEA146C05F88B
:106A100003CF24F4C04402F06BBD02F042FD240A0F
:106A20003C70BDE8F24002F063BD840004F0FC0459
:106A300004F1804404F50124704700F03F02282A45
:106A40000DDA012200F01F0012FA00F007D01E4AF2
:106A5000136C0343136409B11060704710617047F1
:106A6000F8B50D4600F03F0128292BDAFFF7DDFFCE
