:020000040000FA
:060000000218BA020BEE2B
:03002B0002165E5C
:03003300020DA813
:03004B000213B3EA
:03005300020B237A
:03005B000213F29B
:0300630002141371
:03006B00020D4E35
:03007B00020D7FF4
:10008300020B8201399A1CA01CA61CAC1CB21CB822
:100093001CBE1CC41CCA1CD01CDC1C0000000000BD
:1000A3000000000000D61CE21CE81C0020FD003903
:1000B3000502010808000000012423362300003C48
:1000C300234223000000004823602366236C23009F
:1000D30000000000000000060004140004FF1806DE
:1000E30012FFFFFFFFFFFFFF0000FFFF08210000DB
:1000F300FFFF0E210000FFFF5C210000FFFF262110
:100103000000FFFF2C210000FFFF32210000FFFF52
:1001130038210000FFFF3E210000FFFF4A210000BD
:10012300FFFF50210000FFFF56210000FFFF742155
:100133000000FFFF7A210000FFFF68210000FFFF9E
:100143006E210000FFFF62210000FFFF8C210000F1
:10015300FFFF92210000FFFF98210000FFFF9E2177
:100163000000FFFFA4210000FFFFAA210000FFFF02
:10017300B0210000FFFFB6210000FFFFBC210000FB
:10018300FFFFC2210000FFFF1A210000FFFF202113
:100193000000FFFFC8210000FFFF14210000FFFF44
:1001A300E0210000FFFFD4210000FFFFE621000053
:1001B300FFFFF2210000FFFFFE210000FFFF0422EA
:1001C3000000FFFFEC210000FFFFDA210000FFFF2A
:1001D300F8210000FFFF44210000FFFF0A22000076
:1001E300FFFF10220000FFFF22220000FFFF282252
:1001F3000000FFFF2E220000FFFF34220000FFFF5C
:100203003A220000FFFF16220000FFFF40220000F9
:10021300FFFF46220000FFFF4C220000FFFF862164
:100223000000FFFF1C220000FFFFCE210000FFFFA4
:1002330080210000FFFF52220000FFFF5822000030
:10024300FFFF5E220000FFFF64220000FFFF6A221F
:100253000000FFFF70220000FFFF76220000FFFF77
:100263007C220000FFFF82220000FFFF88220101A1
:100273000104004219000000E8030000FFFF961983
:10028300E803000064006400B801A0BB0D00A0BB3C
:100293000D00020200F8FF0705021E0401051E02FD
:1002A300051E020A0A0101080803102702803E0105
:1002B30002FEFFE8030A050001FFFF020A1401E042
:1002C3000100B0423BAAB83F0000003F8C90633965
:1002D300AA0CA33A00941E3C8042633DCFFE753EB8
:1002E3001572313F8096184BF304353F1872313F36
:1002F3002292D43EDD9B2A3F04000040FFFF7F7F14
:10030300FFFF7FFF0100803405030101FFC74500A4
:10031300000000FD4400000000FF000000FF00C0DB
:1003230082C0831204124004780080031204CAE8D6
:10033300F4FCEB600814601214601C802BEA600567
:10034300E842808023EC5280801EEA6005E84290F8
:100353008016EC52908011E8C39420500BEA60059C
:10036300E842A08003EC52A002040DC082C08312B5
:1003730004124004780080031204CAE8F4FCE87015
:100383000302040DEB600814602C146050807BECB6
:1003930052F374016A601274026A601574046A701D
:1003A30003E8428FE842FD806153F7DFEC528F8010
:1003B300F343F72080F6EC52F474016A601274027E
:1003C3006A601574046A7003E842F6E842FE803AF4
:1003D30053F7BFEC52F680F343F74080F6E8C3943B
:1003E300205027EC52F574016A601274026A60159A
:1003F30074046A7003E842F7E842FF800D53F77F05
:10040300EC52F780F343F78080F6D083D08222E961
:10041300C4540F5403FB743F59C394302274F8122D
:100423000FA4E9C4540F5403FE743F59C3943040DE
:1004330004780080031204CAE8F4FBE86077EE60F6
:100443000814602B14604E806CEB52F352FD740160
:100453006A600F74026A600F74046A7058E8428F0E
:10046300805353F7DF800343F720EB528F8046EB33
:1004730052F452FE74016A600F74026A600F7404CE
:100483006A7032E842F6802D53F7BF800343F7408A
:10049300EB52F68020E8C39420501AEB44E0FB5261
:1004A300F552FF74016A601274026A601574046A7B
:1004B3007003E842F77F0102133453F77FEB52F7DF
:1004C30080F343F78080F6E95407FC74372CF582F8
:1004D300E43488F583E0F822C082C083120412401A
:1004E30004780080031204CAE8F4FCE8603FEB6080
:1004F300081460151460228034EA6005E8428080A5
:1005030003EC5280E842FD8024EA6005E8429080D3
:1005130003EC5290E842FE8014E8C39420500EEAA4
:100523006005E842A08003EC52A0E842FF02040DFC
:10053300743F59C394305042E9C4540F54036007C5
:10054300146013146020227801E8F4FBEA60241499
:10055300601814601922740F59C39404500478026C
:1005630080E7780480E3780880DFE8428C22E58C1A
:10057300586004EB528C22E8428C221218D9604650
:100583001218CA603DE9687008F618F618F618F6EE
:1005930022748067F71205B2090909748067F7228C
:1005A3001218CA601D1218D97005191919801A1268
:1005B3001782701F121796C37003E6673319191950
:1005C30040071818182208080874FFF618F618F6DA
:1005D30018F622121796601712197F702192F012E3
:1005E30019887019501720F014080808090909E739
:1005F300F61819E7F61819E7F61819E7F62212198B
:100603008860E6E869701F0808E62480F608E43687
:10061300F618547FB47F0CE654806007F6E418F6AE
:1006230018F622181822E9C6CC08C6CD08C6CE088B
:10063300C6CFC0E0E8C0E0EAC0E0EBC0E009E9F8FB
:1006430009E7FA09E7FBE6F918E6F8C3EC98ED9930
:10065300EE9AEBC2E7F5F0EFC2E795F0500E600CAF
:10066300EBCFFBEACEFAE9CDF9E8CCF8EAA2E7D280
:10067300E7FAEB33FB13F5F0EEA2E7D2E7FEEF3335
:10068300FFC5F013A2E730E601B313C5F0C3C0E022
:10069300C0F07F00C39BFB605E9418600F401D1485
:1006A300601AD0E023F9D0E0F80207848AF0E94821
:1006B3006003D2F0E4AFF0FAF9F8803BEB30E40DDD
:1006C30089F0EA6003D2F0E4AFF0F9CAF8EB30E363
:1006D3000D88F0EF6002D2F0AFF0E4CAC9F8EB5432
:1006E300076014FBC3EA13FAE913F9E813F8EF13ED
:1006F3005002D2E0FFDBEDD0E0C0E030E739C3E4E5
:100703009FFFF5F0EC98FC42F0ED99FD42F0EE9A74
:10071300FE42F0D0E0F9D0E0F8E5F0607AE923F9A1
:10072300EE20E742D8028067C3EF33FFEC33FCEDE2
:1007330033FDEE33FE80EAEC28FCED39FDEE3AFEA4
:10074300D0E023F9D0E0F84002801BC3EE13FEEDA6
:1007530013FDEC13FCEF135002D2E0FF08B80006C0
:100763007F7F74FF802EEF3350178CF020F00260F0
:10077300100CBC000C0DBD00080EBE000408E860A0
:10078300DFE933E813FFEE2313FE4F4D4C8008E9F6
:100793005480FFE4FEFDFCEE33EF33F47004FCFD04
:1007A3007E80D0E0FBD0E0FAD0E0F8D0E0CFC618EE
:1007B300CEC618CDC618CCC6F9221218CA700418B2
:1007C3001818221218D9700D74FFF61819F6181993
:1007D300F61819F622E7548066F6121988700F127C
:1007E300197F70F014F608F608F608F680D112198E
:1007F3007F700CF608F608768008E6447F80EC12DA
:100803001799700C12178560BFE65480F6E480BB1D
:10081300121785700519191980A5E869700C763FC0
:1008230018768018F618F6E8F922E6CDC0E018EC41
:10083300C0E0E633CD33CDD313F6E719FCE719193E
:1008430033CC33C3947F400ECD9D502408E65480AF
:10085300F6E418F6800FF4043D14501408E6447FC0
:10086300F6187680E418F618F6D0E0FCD0E0FD2206
:10087300CCD313CCFD18E4C6CBC0E018E4C6CAC081
:10088300E00808ED08C633E613F618E433C675F03E
:1008930003C3CA97CA09CB97CB199C40047D088030
:1008A3002EBD000302096616B6FF050606081618D4
:1008B300C3CA33CACB33CB33CA27CA09CB37CB1905
:1008C3003CC37D08803E187D0820E75CC633C6CA5A
:1008D30033CACB33CB33DDF1D5F0EB30E77BCA97AB
:1008E300CA09CB974ACB199C406F4B7025E620E091
:1008F300218066187D08C3CA97CA09CB97CB199C78
:10090300D3C633C6CA33CACB33CB3350C9DDE7D5DD
:10091300F0E1D3E4C636C608C636C608C636C608EE
:10092300C636C61818188031C3CA97CA09CB97CBE5
:10093300199CB34097C633C6CA33CACB33CB33DD16
:1009430034D5F02EC6A2E0C640C8CA27CA09CB37A1
:10095300194A70BECB3CB480B90808E63308E633C5
:10096300601F181818D0E0FAD0E0FBD0E0FCD0E00C
:10097300FD22187D08CA27CA09CB37CB193CD3807F
:100983008013F618E4B67F11F618B6FF0EF618C6F4
:100993000470D20808768080CAF618F618F680C567
:1009A300001218CA604F1218D96012E7548066F615
:1009B300121782701112197F703B090909F4F61896
:1009C300F618F618F62212179670151219880808E9
:1009D3000860EAE6447FF618768018E4F618F622F3
:1009E300121988601612197F7012E4F608F608F6D9
:1009F30008E65480F609090918181822EAC0E0EB42
:100A0300C0E0ECC0E0EDC0E0E687F0A4FBACF0088A
:100A1300E687F0A42CFCE435F0FA1809E687F0A485
:100A23002C4B60027401CA35F0FCE433FB09E68702
:100A3300F0D2F7A42CCB35F0FC1908E687F0A42BF1
:100A4300CC35F0FBE433FD0819E687F0D2E7A42C9C
:100A53004ACB35F0CD3400FC09E687F0D2E7A42D6C
:100A6300CC35F0FDE433FA0918E687F0D2F7A42C6D
:100A7300CD35F0CA3400FC08E687F0D2E7D2F7A4FC
:100A83002ACC35F07A7E20E70B0ACB33CBCD33CD9E
:100A9300CC33CC33CB3350147004ED30E00ED2F1B1
:100AA300E4CD3DCDCC3CCC3B5005DA05C2F1EB5453
:100AB3007FC63308E63392F0FBE73309E733C39A83
:100AC300502D2B70190C0D4C4D70151806E608C3EC
:100AD30033700D20F10AA2F013F6E418800B4024C2
:100AE300E4F630F002768018F618F618F68024D370
:100AF3003B14501074FFA2F013F6187680E418F636
:100B030018F6800FA2F013F618E63303F618ECF686
:100B130018EDF6D0E0FDD0E0FCD0E0FBD0E0FA2207
:100B2300C0E074F112100AA2AFE433F509D2AF8525
:100B3300A708AFA1EF5508FE74105E6006121EBC35
:100B430075A1EF74085E6008121EC275A1F78024B8
:100B5300EFA2E092F0E508A2E082F05017906198CE
:100B6300E0F8900778E0C398A2D265D0335002E84A
:100B7300F075A1FEE509A2E092AF7F02021069C001
:100B8300E074F212100AA2AFE433FED2AF9061A474
:100B9300E0F8759B00E59158540860087591F712C9
:100BA3001F0A8023E59158541060087591EF121FB6
:100BB300108014E591A2E092F0E8A2E082F05007E1
:100BC300E0C2E0F012205A9061A3E0F8E5E958543E
:100BD30004600E12203075E9FB906193E0A2E640B9
:100BE300F2EEA2E092AF7F01021069C0E074F2124C
:100BF300100AA2AFE433FED2AF9061A5E0F8E5BFDF
:100C0300585404600675BFFB12207280D4120C6521
:100C130030F043120CAA803E8A088B098C0A8D0B94
:100C23007808120C6520F01430E72B74FFFCFBFAF4
:100C3300747F8022E4FCFBFA7480801AB48008BCC1
:100C430000F2BB00EF800F50EBF9E4C39AFAE49B88
:100C5300FBE49CFCE499C6CC18C6CB18C6CA18C6DC
:100C6300F922E4C9C608CAC608CBC6D3330308CCE5
:100C7300C63392F0C3947F402E94184019C9B90724
:100C830004CACBCC225025C309CA33CACB33CBCC3D
:100C930033CC33D9F422F4600DC9CCC313CB13CBBB
:100CA300CA13CAD9F6CC22E4FCFBFA2214FCFBFAE1
:100CB30022C3E498F8E499F9120CF58026C3E49A68
:100CC300FAE49BFBE920E7E9120CF5E498F8E499D0
:100CD300F922C3E498F8E499F9120CF5E498F8E4DE
:100CE30099F9C3E49AFAE49BFB22EB20E7CFE920CE
:100CF300E7E0B90010BB0008E88AF084F8AAF02204
:100D0300E4FBC8FA22EB70227B10C833C8C933C98D
:100D1300335007C39AC3DBF280069A50012ADBEAF9
:100D2300C833F4C8C933F4C9FA2275F008E4C833E8
:100D3300C8C933C933C99AC99B5004C92AC93BD509
:100D4300F0ECFBC833F4C8E4C9FA22C0E074F21231
:100D5300100AA2AFE433FED2AF900A06E0558960D1
:100D63000FE589FA7900122480900A06E0F452898B
:100D7300C2C5EEA2E092AF7F01021069C0E074F237
:100D830012100AA2AFE433FED2AF900A07E0558AED
:100D9300600FE58AFA7901122480900A07E0F45281
:100DA3008AC2EB80CDC0E074F212100AA2AFE43322
:100DB300FED2AF900A08E0558B600FE58BFA7902FB
:100DC300122480900A08E0F4528BC2E880A4080839
:100DD30008EAC0E0EBC0E086F0E7A4FA180986F061
:100DE300E7A42AFA180986F0E7A42AFA180986F074
:100DF300E7A42AFA1986F0E7A4FBE5F02AFA190812
:100E030086F0E7A42BFBE5F03AFA190886F0E7A48D
:100E13002BFBE5F03AFA18180986F0E7A4C5F02B86
:100E2300FBE43AFA1908E7C5F0C6A426F6E5F03B59
:100E3300FBE43AFA1886F0E7A4F6E5F00826F6E4B0
:100E43003B08F6E43A08F6D0E0FBD0E0FA220808C3
:100E530008E630E71112175A120E69080808C6444B
:100E630080C618181822181818E9799EC608CAC629
:100E730008CBC608CCC6C370207996CACBCC7019F0
:100E8300798ECBCC70137986CC700EF9802ACA3355
:100E9300CACB33CBCC33CC331930E7F2CCCBCA3308
:100EA30050147004EA30E00DE4CA3ACACB3BCBCC11
:100EB3003CCC500209C3E913C6CC182313C6CB1884
:100EC300C6CA18C6F922E4CFC0E0E4CEC0E0E4CD40
:100ED300C0E0E4CCC0E075F020E626F608E633F681
:100EE30008E633F608E633F6181818EC33FCED334E
:100EF300FDEE33FEEF33FFC3EC9709ED9709EE9751
:100F030009EF97191919400FFFEC97FC09ED97FDAD
:100F130009EE97FE191906D5F0BFECF709EDF709AD
:100F2300EEF709EFF7191919D0E0FCD0E0FDD0E096
:100F3300FED0E0FF222518C582C0E0E51934FFC5C5
:100F430083C0E0E518C3958224F810AF08858319A0
:100F53008582188008858319858218D2AFCEF0A3C5
:100F6300E520F0A37808E608F0A3DEFAEFF0A3E5A6
:100F73008124FAF8E608F0A3E608F0A3E608F0A354
:100F83000808E608F0A3E608F0A315811581D0E070
:100F9300FED0E0F8158115811581E8C0E0EEC0E0D0
:100FA300222518C582C0E0E51934FFC583C0E0E5FA
:100FB30018C3958224F910AF088583198582188098
:100FC30008858319858218D2AFCEF0A3E520F0A35C
:100FD3007808E608F0A3DEFAEFF0A3E58124FBF836
:100FE300E608F0A3E608F0A30808E608F0A3E6087D
:100FF300F0A315811581D0E0FED0E0F815811581AD
:10100300E8C0E0EEC0E022C0D02518C582C0E0E50C
:101013001934FFC583C0E0E518C3958224F310AFEC
:10102300088583198582188008858319858218D2DB
:10103300AFC8F0A3E9F0A3EAF0A3EBF0A37908E7C4
:1010430009F0A3D8FAECF0A3EDF0A3EEF0A3EFF0D0
:10105300A3D0E0F0A3D0E0F0A3D0E0F0A3E520F02C
:10106300A3E5F0F0A322851983851882E0C0E0A3ED
:10107300E0F9A3E0FAA3E0FBA37808E0F608A3DF16
:10108300FAE0FCA3E0FDA3E0FEA3E0FFA3E0C0E0E1
:10109300A3E0C0E0A3E0F5D0A3E0F520A3E0A3F52F
:1010A300F010AF0885831985821880088583198518
:1010B3008218D2AFD082D083D0E0F8D0E0321217BA
:1010C3005D181818120EC912186919191922121865
:1010D30069191919080808E618181820E7E0120E0C
:1010E300C912175D18181822090909E719191920D7
:1010F300E7DC080808E618181820E703020EC912EF
:10110300175D181818120EC912175D18181812183F
:10111300691919192212196AB90003021157E490C7
:101123000371789579198002F0A3D8FCD9FA7A056E
:101133007B1C900086789D79038015E493A3AD8290
:10114300AE838A828B83F0A3AA82AB838D828E8344
:10115300D8E9D9E775821E75839D74071215D57575
:10116300826E75833974001215D5E4731E75F01001
:101173008E1A8F1B85821F85831E8518828519838E
:10118300E0CEA3E0CF851F82851E83EBC9EAC8EDBD
:10119300CBECCAC3E833C8E933C9EA33CAEB33CB70
:1011A300C3EA9EF51DEB9FF51CB35004AB1CAA1DAF
:1011B300EC33CCED33CDD5F0DAAE1AAF1B221218D7
:1011C300CA601C1218D96017121988700712197F88
:1011D3007001D322C0D012197F7006D0D0B322C3BE
:1011E3002233D0D0501430E0F6C3E7960809E796CF
:1011F3000809E7960809E796B32220E0D5E69708A1
:1012030009E6970809E6970809E697B3221218CA70
:10121300601B1218D96016121988700712197F60A3
:101223000CB322C0D012197F7005D0D022C3223351
:10123300D0D0501330E0EBC3E7960809E7960809CE
:10124300E7960809E7962220E0E4E6970809E6977F
:101253000809E6970809E69722D083D082ECC0E01C
:10126300EDC0E0E493A3FCE493A3FDED4C600D1209
:101273001374EC24FFFCED34FFFD80EFE493A3FC37
:10128300E493A3FDED4C600D1214BAEC24FFFCEDC6
:1012930034FFFD80EFD0E0FDD0E0FCE493A3C0E099
:1012A300E493C0E022851983851882E0A3FEE0A3BE
:1012B300F5207808E0A3F608DFFAE0A3FFE0A3C077
:1012C300E0E0A3C0E0E0A3C0E0E0A3C0E0E0A3C08F
:1012D300E010AF08858218858319800885821885F8
:1012E3008319D2AFD083D0820215DBD083D082E9B9
:1012F300C0E0E493A3C386F0C5F095F0F908E49346
:10130300A386F0C5F095F0700BE493A3C399400551
:10131300E9048002A3E475F002A42582F582E5F0D6
:101323003583F583D0E0F9E493A3C0E0E493C0E010
:1013330022851983851882E0A3FEE0A3F5207808AF
:10134300E0A3F608DFFAE0A3FFE0A3C0E0E0A3C058
:10135300E0E0A3C0E0E0A3C0E010AF0885821885F9
:1013630083198008858218858319D2AFD083D082F0
:1013730022C0E0C3E49396087401939618400FE4E7
:101383009366700808740193661870007019A3A31C
:10139300C3E49396087401939618A3A3400DD0E079
:1013A300D0E0D0E0021298A3A3A3A3A3A3D0E0228A
:1013B300C0E0C0D0E8C0E0C008C009C00AC00BC08C
:1013C30082C083E5AFA2E550109089D7780812193F
:1013D3000690075F7808121830C2C1D083D082D03C
:1013E3000BD00AD009D008D0E0F8D0D0D0E032C07A
:1013F300E074F212100AC2D9901C65E0C39400A2F3
:10140300D265D0334005E0F91227A47F01021069A9
:10141300C0E074F212100AC2DC901C67E0F9C394B6
:1014230000A2D265D03340031227A480DE74048067
:101433000474028000CCC0E0EDC0E0E518C39CCC8E
:10144300AD1950011D10AF068C188D1980068C182C
:101453008D19D2AF121557D0E0FDD0E0FC227402F3
:101463008000CCC0E0EDC0E0E518C39CCCAD1950C2
:10147300011D10AF068C188D1980068C188D19D29A
:10148300AF121535D0E0FDD0E0FC221218CA60255A
:101493001218D96020121988700302197F080808EE
:1014A300E76670101819E766700A1819E766700482
:1014B3001819E76622F422C0E0C0F088F0E49366CE
:1014C30070080874019366187000A8F0A3A3700B4A
:1014D300D0F0D0E0D0E0D0E0021298A3A3D0F0D0B7
:1014E300E022D083D082CCC0E0E493A3600612153F
:1014F300B61470FAE493A360061216F11470FAD0CE
:10150300E0FCE493A3C0E0E493C0E022C008C3E09E
:1015130096F50808A3E096420808A3E09642080857
:10152300A3E0964208A2D265D033E5087001D3D078
:101533000822CAC0E0E493A3C582CCC582C583CD8B
:10154300C583F0A3C582CCC582C583CDC583DAE547
:10155300D0E0CA22CAC0E0E0A3C582CCC582C5835D
:10156300CDC583F0A3C582CCC582C583CDC583DA3F
:10157300E6D0E0CA22C008C3E096F50808A3E096C7
:10158300420808A3E096420808A3E09645087001C4
:10159300D3D008227009080808226016181818C644
:1015A300C333C608C633C608C633C608C633C6D552
:1015B300E0EA22C0E0E493A3D39C5010E493A3C3D6
:1015C3009C400AD0E0D0E0D0E0021502A3A3A3D050
:1015D300E022C09FF59FE473D09F22D083D082C0C6
:1015E3009FE493C0E0740193C0E0740293F59F22DB
:1015F3007404800A74038006740280027401C0E0DC
:10160300F404121629D0E01219152200C0D02518AF
:1016130010AF08F518500C05198008F5185002058D
:1016230019D2AFD0D0222518F58210AF08F5184093
:101633000C15198008F51840021519D2AF851983C6
:1016430022BB0102E722C082C08389828A83BB0056
:1016530003E08002E493D083D08222C0E0C0D0E8CC
:10166300C0E0A8A8D2AFC2C7E8A2E792AFD0E0F823
:10167300D0D0D0E0326017080808C6A2E713C61816
:10168300C613C618C613C618C613C6D5E0E922602A
:1016930016080808C6C313C618C613C618C613C649
:1016A30018C613C6D5E0EA222518F8E43519F9223D
:1016B3002518FAE43519FB222518FCE43519FD2217
:1016C300C3E0C696F608A3E0C696F608A3E0C6965E
:1016D300F608A3E0C696F622251810AF08F51840C1
:1016E3000C15198008F51840021519D2AF22C0E075
:1016F300E493A36C7009D0E0D0E0D0E0021502A31C
:10170300A3D0E022E76670100809E766700A0809AB
:10171300E76670040809E76622E066701008A3E034
:1017230066700A08A3E066700408A3E06622C3E0BB
:101733009608A3E09608A3E09608A3E096A2D265D4
:10174300D03322C3E697F60809E697F60809E69729
:10175300F60809E697F622181818E4C396F608E483
:1017630096F608E496F608E496F622C3E096F008A7
:10177300A3E096F008A3E096F008A3E096F0221801
:101783001818E60846087009E626087005E633F4DB
:10179300220822191919E70947097009E72709706F
:1017A30005E733F4220922C3E49396087401939660
:1017B3000874029396087403939622E026F608A30E
:1017C300E036F608A3E036F608A3E036F622E6276D
:1017D300F60809E637F60809E637F60809E637F6A4
:1017E30022700422600D18C6C333C608C633C6D59B
:1017F300E0F41822E056F008A3E056F008A3E05600
:10180300F008A3E056F022E056F608A3E056F608E7
:10181300A3E056F608A3E056F622E657F60809E6D3
:1018230057F60809E657F60809E657F622E026F0C8
:1018330008A3E036F008A3E036F008A3E036F02270
:10184300E647F60809E647F60809E647F60809E613
:1018530047F622E493F608740193F608740293F6AC
:1018630008740393F622E4C397F709E497F709E4AE
:1018730097F709E497F722600D08C6A2E713C61885
:10188300C613C6D5E0F322C6F4C608C6F4C608C616
:10189300F4C608C6F4C622C3E09608A3E09608A3DC
:1018A300E09608A3E09622C3E7960809E79608099D
:1018B300E7960809E7962275D00075813F75187180
:1018C30075190300021118E6084608C313460833C6
:1018D3006002E633F422E7094709C313470933607B
:1018E30002E733F422600C08C6C313C618C613C636
:1018F300D5E0F422E6F008A3E6F008A3E6F008A397
:10190300E6F022E0F608A3E0F608A3E0F608A3E079
:10191300F622CAC0E0E6F0A308DAFAD0E0FA22E041
:10192300FCA3E0FDA3E0FEA3E0FF22EAF0A3EBF0BB
:10193300A3ECF0A3EDF022E0FAA3E0FBA3E0FCA309
:10194300E0FD22E8F0A3E9F0A3EAF0A3EBF022EC38
:10195300F0A3EDF0A3EEF0A3EFF022E0F8A3E0F99B
:10196300A3E0FAA3E0FB22E5C754F84401F5C779E5
:1019730001222518F582E43519F58322E727194753
:101983001947194722E62618461846184622C2AFB9
:1019930075D69F020000221215DED3C8021215DE8F
:1019A300D6C8021215DEE0C8021215DEEAC802121A
:1019B30015DEF4C8021215DEFEC8021215DE08C9D0
:1019C300021215DE12C9021215DE19C9021215DE42
:1019D30020C9021215DE27C9021215DE2EC9021212
:1019E30015DE35C9021215DE3CC9021215DE43C9E4
:1019F300021215DE4AC9021215DE51C9021215DEA2
:101A030058C9021215DE5FC9021215DEBFC90212E0
:101A130015DE1FCA021215DE7FCA021215DEDFCAE7
:101A2300021215DE3FCB021215DE9FCB021215DE2A
:101A3300FFCB021215DE5FCC021215DEBFCC021201
:101A430015DE1FCD021215DE7FCD021215DE53D037
:101A5300021215DE27D3021215DEFBD5021215DEA4
:101A6300BDD8021215DE91DB021215DE65DE02120D
:101A730015DE39E1021215DE0DE4021215DEE1E690
:101A8300021215DEB5E9021215DEE6E9021215DED1
:101A930017EA021215DE48EA021215DE79EA02128B
:101AA30015DEAAEA021215DEDBEA021215DE0CEBE2
:101AB300021215DE3DEB021215DE6EEB021215DE8D
:101AC3009FEB021215DED0EB021215DE90EE02122E
:101AD30015DEC1EE021215DEF8EE021215DE2FEF4F
:101AE300021215DE08F0021215DE20F0021215DED6
:101AF30038F0021215DE3BF0021215DE7FF00212FF
:101B030015DE82F0021215DEB7F0021215DEBEF00A
:101B1300021215DEF0F2021215DEFAF2021215DEDF
:101B23001BF3021215DE09F4021215DE2AF4021267
:101B330015DE34F4021215DE43F4021215DE74F5D9
:101B4300021215DE27FA021215DE97FA021215DECB
:101B5300BFFB021215DECFFB021215DED9FB021208
:101B630015DE07FC021215DEB19B061215DED69BAD
:101B7300061215DE2B9C061215DE6C9C061215DE72
:101B8300419D061215DEDA9D061215DE229E06120F
:101B930015DEB69E061215DE929F061215DE83A091
:101BA300061215DEBAA1061215DEDDA2061215DE37
:101BB300EDE4061215DE21E5061215DE52E50612E6
:101BC30015DE92E5061215DE19E7061215DE5DE84D
:101BD300061215DEB693051215DEFC94051215DE0A
:101BE300F395051215DE9196051215DEEF96051293
:101BF30015DE8797051215DEA799051215DE459B9D
:101C0300051215DEBC9B051215DEAD9D051215DE12
:101C1300959E051215DE099F051215DE41A10512D9
:101C230015DE98A2051215DE53AB031215DEBEAB0B
:101C3300031215DE6FAC031215DE6AAF031215DE55
:101C430049B2031215DED9B2031215DE34B60312FC
:101C530015DEDAB8031215DE84B9031215DEFABAFB
:101C6300031215DE47BB031215DE40BD031215DE5A
:101C730076BD031215DE3FBE031215DEF1BE03125D
:101C830015DE7BBF031215DEBBC0031215DE68C170
:101C9300031215DE70C2031215DEAEC5031215DE84
:101CA30006C6031215DE6AC6031215DED6C6031274
:101CB30015DE50C7031215DEB2C7031215DE13C8B3
:101CC300031215DE97C8031215DE37C9031215DE9A
:101CD3000BCA031215DEF7CA031215DEFCCA031280
:101CE30015DED3CB031215DEF3CC031215DE1ECEA5
:101CF300061215DE4ACE061215DE8ECE061215DE4C
:101D030041CF061215DEE3D0061215DE83D106128B
:101D130015DE2CD2061215DED6F4061215DE68F592
:101D2300061215DEACF6061215DEC8F6061215DE2F
:101D330025AB071215DE36AB071215DEFBAB071218
:101D430015DE0AAC071215DE15AC071215DEF7FF18
:101D5300011215DE0AB2071215DE2FAE071215DEC9
:101D63003FAE071215DE51AE071215DEB7AE0712EE
:101D730015DE2DAC071215DEB0AC071215DE16AD5D
:101D8300071215DEBD96071215DEF896071215DE4B
:101D93006097071215DEB897071215DE46980712EB
:101DA30015DE9998071215DEF7B1071215DE07B293
:101DB300071215DEF6EC061215DE59ED061215DED6
:101DC300A8ED061215DED5ED061215DE2BEE061272
:101DD30015DEC2FF021215DEFE9E071215DEBFEEF0
:101DE300051215DE2BEF051215DEDBEF051215DEEE
:101DF300A6F0051215DEFCF1051215DEEAF2051256
:101E030015DEF1F3051215DEEFF5051215DE22F6E8
:101E1300051215DE8CF6051215DEB3F6051215DE76
:101E230030F8051215DEB4F8051215DEC8F80512F0
:101E330015DE3EF9051215DE28A2071215DE3CA2B7
:101E4300071215DE7DA2071215DE53A3071215DE56
:101E530067A3071215DE18C4061215DE44C4061262
:101E630015DEB5C6061215DEF5C6061215DE35C734
:101E7300061215DE49C7061215DE62C7061215DE05
:101E830053C8061215DEF8C8061215DE0CC9061271
:101E930015DE94A3071215DEB8A3071215DED1A32E
:101EA300071215DE03A4071215DE33A4071215DE8D
:101EB30060A4071215DEC2A4071215DED1A407120F
:101EC30015DEDBA4071215DEE8A4071215DECF9199
:101ED300071215DEEF91071215DE2E92071215DE9B
:101EE3004992071215DE6892071215DECE92071289
:101EF30015DED792071215DE3493071215DE5893B9
:101F0300071215DE1994071215DE2694071215DE43
:101F13003794071215DED3B0071215DEEBB00712A4
:101F230015DE17B1071215DEBFD7061215DE19D954
:101F3300061215DE27D9061215DE3AD9061215DE6A
:101F43004FD9061215DE64D9061215DE77D90612AB
:101F530015DEEBD9061215DE50DA061215DEF2DABB
:101F6300061215DEB6DB061215DEC6DB061215DE1B
:101F7300D5DB061215DE65FF041215DE89FF041298
:101F830015DEB1FF041215DED9FF041215DEEC983D
:101F9300071215DE1399071215DE3199071215DEA4
:101FA300A499071215DEFC8E071215DE158F071292
:101FB30015DE218F071215DE358F071215DE538FBD
:101FC300071215DE5D8F071215DE678F071215DE08
:101FD3007A8F071215DE0090071215DE759007122F
:101FE30015DEA490071215DEF290071215DE41915B
:101FF300071215DE5C91071215DE6691071215DED6
:102003007791071215DEBA91071215DE88B0071211
:1020130015DE9A76001215DEC476001215DEE1761F
:10202300001215DEF476001215DE0A77001215DEB3
:102033006877001215DEA077001215DE947B00127C
:1020430015DED97C001215DE0C7D001215DE6F7DC6
:10205300001215DECF7E001215DEF77E001215DEAC
:102063000C7F001215DE1C7F001215DE607F00124C
:1020730015DEBB7F001215DECB7F001215DECEFE10
:10208300061215DEE8FE061215DE10FF061215DE37
:1020930029FF061215DE4DFF061215DE6BFF061231
:1020A30015DE82FF061215DEB0FF061215DECBFF2A
:1020B300061215DE1AB1071215DE3BFC021215DEFD
:1020C3004BFC021215DE50FD021215DE82FD0212D8
:1020D30015DEA8FD021215DECBFD021215DEE2FDB0
:1020E300021215DE1CFE021215DE81FE021215DE3F
:1020F300C3FE021215DE02FF021215DE33FF0212C7
:1021030015DE6AFF021215DE0D9A041215DE3D9AE2
:10211300041215DE5E9A041215DE7C9A041215DE93
:10212300999A041215DEE39A041215DEFB9A04123F
:1021330015DE0A9B041215DE429B041215DE629B18
:10214300041215DE9E9B041215DEFD9B041215DEA0
:102153006E9C041215DE239D041215DEB29D04123B
:1021630015DEB69E041215DE919F041215DEBB9F89
:10217300041215DED89F041215DE59A0041215DED1
:102183006EA1041215DE9CA1041215DEB1A1041286
:1021930015DEFEA1041215DE51A2041215DEC5A33D
:1021A300041215DEE4A3041215DE0AA4041215DEDC
:1021B3001BA4041215DE34A4041215DE65A4041254
:1021C30015DE8EA4041215DE8DA5041215DE06A7F6
:1021D300041215DE45A7041215DE55A7041215DEF9
:1021E30065A7041215DEA4A7041215DE09A80412BC
:1021F30015DEB5A8041215DE1DA9041215DE6DA99E
:10220300041215DE83A9041215DEC9A9041215DE12
:10221300E2A9041215DEECA9041215DEF6A90412D4
:1022230015DE06AA041215DEA6AA041215DEEBAB10
:10223300041215DEC3AC041215DE1BAD041215DE49
:1022430046AD041215DE54AD041215DE5CAD041266
:1022530015DE64AD041215DEA0AF041215DEA9B1BC
:10226300041215DEB2B1041215DEBBB1041215DE81
:10227300C4B1041215DEDAB1041215DEE3B104129F
:1022830015DEECB1041215DEF3B1041215DEF5B15F
:10229300041215DEFCB2041215DE1CB4041215DEA2
:1022A300EAB5041215DED4B7041215DE00B9041220
:1022B30015DE20B9041215DE03BC041215DE58BC6A
:1022C300041215DE3BBD041215DEF5BD041215DE46
:1022D30010BF041215DE15C2041215DEF5C3041275
:1022E30015DE8DC5041215DEADC7041215DE21CE31
:1022F300031215DE61CE031215DE62D0031215DE62
:1023030088D0031215DE84D3031215DE04D403121E
:1023130015DE3CD5031215DEAED8031215DE22D925
:10232300031215DEBCD9031215DE0CDA031215DE17
:1023330074DA031215DEC4DA031215DEFBDA0312B4
:1023430015DEFEDA031215DE0EDB031215DE20DBCB
:10235300031215DE65DB031215DE1FDD031215DE26
:102363008CDD031215DED7DD031215DE73DE0312D7
:1023730015DEFFDE031215DEEAE0031215DE91E23D
:10238300031215DE30E3031215DE56E5031215DEE4
:1023930041E6031215DEECE7031215DE99A70712D7
:1023A30015DEB3A7071215DEF5A7071215DE28A859
:1023B300071215DE41A8071215DE88A8071215DEDD
:1023C300AFA8071215DE29B9061215DE60B9061289
:1023D30015DEB4B9061215DE84BA061215DEBABAD2
:1023E300061215DEE7BA061215DE39BB061215DE34
:1023F30057BB061215DE7BBB061215DEFDBB0612AC
:1024030015DE87BC061215DECDBC061215DEEBBC4D
:10241300061215DE19BD061215DE3DBD061215DEC8
:1024230073BD061215DED2BD061215DEF4BD06120B
:1024330015DE53BE061215DE5DBE061215DE96BE10
:10244300061215DEA5BE061215DEB3BE061215DE94
:10245300808A061215DEBA8A061215DEF98B061279
:1024630015DE298D061215DE3793061215DE0EDCF6
:10247300061215DE4FDC061215DEFEDC061215DE33
:10248300EFFE031215DE60FF031215DEC3FF031216
:1024930015DE50D9051215DE74DA051215DE01DCDE
:1024A300051215DE5CDD051215DEC7DD051215DE2E
:1024B3000ADE051215DE18DE051215DE48DE0512EA
:1024C30015DEDADE051215DE77DF051215DE9CE078
:1024D300051215DE4EE2051215DEFFE3051215DEC9
:1024E30037F8061215DE99F8061215DED2F8061231
:1024F30015DED1FA061215DED2D2061215DE17D377
:10250300061215DE4DD3061215DE04D4061215DEAF
:10251300A5D5061215DE0FD6061215DE5FD70612F5
:1025230015DE0BC2051215DE0FC3051215DE7FC3C0
:10253300051215DE65C4051215DEB1C4051215DEDC
:1025430019C8051215DE61C8051215DE27C9051263
:1025530015DE18CA051215DE62CA051215DE04CB94
:10256300051215DE69CB051215DE61CC051215DEE9
:1025730096A0071215DED3A0071215DEF8A00712E6
:1025830015DE14A1071215DE29A1071215DE5D93CE
:10259300061215DEBF93061215DE6394061215DECE
:1025A300E295061215DE9F98061215DEB5980612FF
:1025B30015DE7799061215DEF2A4071215DE04A5BF
:1025C300071215DE18A6071215DE1BA6071215DE65
:1025D3001BFF051215DE51FF051215DE6BFF0512F9
:1025E30015DEADFF051215DEBDFF051215DE38B28F
:1025F300061215DE72B2061215DEDBB2061215DE06
:10260300F8B2061215DE9AB3061215DEA3B306124C
:1026130015DEE8B3061215DE11B4061215DE1EB47C
:10262300061215DE8FB4061215DE1AB5061215DE74
:1026330068B5061215DEA6B5061215DE0BB6061230
:1026430015DE2EB6061215DEA5B6061215DEFCB68D
:10265300061215DE37B7061215DE6CB7061215DE45
:102663007EB7061215DE90B7061215DEAFB7061257
:1026730015DEB8B7061215DE73B8061215DEBFB83D
:10268300061215DEFDB8061215DE48A6071215DE82
:1026930088A7071215DEC0B1071215DE4E86071292
:1026A30015DE9286071215DEDA86071215DEC0885C
:1026B300071215DE4F89071215DE41AF071215DE2B
:1026C3000080051215DE2481051215DE5E810512D8
:1026D30015DE0883051215DE3283051215DEA78584
:1026E300051215DEE785051215DE7D87051215DE59
:1026F3001A88051215DE6C88051215DE0F8905127E
:1027030015DE4789051215DE8989051215DEF88A5B
:10271300051215DE468C051215DE778E051215DEC1
:10272300A58E051215DECC8E051215DED58E05128B
:1027330015DE258F051215DEB78F051215DEE6921D
:10274300051215DE6993051215DEE6FF051215DE87
:10275300F2E8061215DE08E9061215DEACE90612E8
:1027630015DEEBE9061215DE08EA061215DE39EA74
:10277300061215DE86EA061215DEB9EA061215DE22
:10278300F4EA061215DEE9EC061215DE58F9051215
:1027930015DEFEFA051215DE3FFC051215DE57FCA9
:1027A300051215DE23E9031215DED4E9031215DE43
:1027B30025EA031215DE3BEA031215DEECEA0312E7
:1027C30015DE4BEB031215DE92EE031215DE02EF5C
:1027D300031215DE0BF1031215DE44F1031215DEAD
:1027E300E4F3031215DEFCF3031215DE24F40312E3
:1027F30015DEA7F4031215DE22F5031215DEE8F643
:10280300031215DE36F8031215DEB6F8031215DED1
:10281300CDFE031215DE6594071215DE7D940712B3
:1028230015DE7C95071215DE8395071215DEAC9530
:10283300071215DE2FAD071215DE8EAD071215DE5A
:10284300CCAD071215DE0DAE071215DEB3AF0712BE
:1028530015DEF2AF071215DEE7A8071215DEF6A89C
:10286300071215DE56A9071215DEC7FF051215DE7E
:10287300CDFF051215DED3FF051215DE32AD0612AC
:1028830015DED8CF051215DE2BD0051215DEB4D018
:10289300051215DE2FD1051215DEF1D1051215DE55
:1028A3001BD2051215DE3BD2051215DE4AD20512E4
:1028B30015DE8DD2051215DE99D2051215DED0D2A2
:1028C300051215DE19D3051215DE33D3051215DEF5
:1028D3005FD3051215DECFD3051215DE64D40512BE
:1028E30015DE88D4051215DEFDD4051215DEF2D5EA
:1028F300051215DE73D6051215DEC0D6051215DED8
:10290300F4D6051215DE64D7051215DE99C8021236
:1029130015DE51D8051215DE8ED8051215DEA1D8A5
:10292300051215DEBED8051215DEF1D8051215DE27
:1029330015D9051215DEA548001215DEB14800129F
:1029430015DE1349001215DE1D49001215DEB049CC
:10295300001215DEEC49001215DEA84A001215DE3E
:10296300BB4A001215DE0B4B001215DE754B00122D
:1029730015DEDA4B001215DE104C001215DE924CF8
:10298300001215DE414E001215DE1550001215DE41
:10299300FB50001215DE4D52001215DEA354001237
:1029A30015DE0C56001215DEA956001215DE515B1A
:1029B300001215DE3F5C001215DEDD5C001215DE31
:1029C300095D001215DEA55D001215DEBA5D001269
:1029D30015DEDE5D001215DE445E001215DE615E5B
:1029E300001215DE8B5E001215DE0860001215DE84
:1029F3002960001215DEAF60001215DE556100126A
:102A030015DE9C61001215DE0F62001215DE9B625B
:102A1300001215DEFF62001215DE5F63001215DE81
:102A2300F563001215DE7064001215DEA364001254
:102A330015DE0565001215DE6766001215DED76622
:102A4300001215DE8667001215DEDC68001215DE43
:102A53007469001215DEE069001215DE236C0012A2
:102A630015DEAF6D001215DEDA6D001215DEC06FD4
:102A7300001215DE5671001215DE5F72001215DEAC
:102A830031B4051215DEE8B4051215DEEFB50512F3
:102A930015DE6DB6051215DEAFB7051215DED0B71C
:102AA300051215DE88B8051215DE33B9051215DED9
:102AB30013BD051215DE2FBF051215DE96C00512D4
:102AC30015DE5EB1071215DEC4A3061215DE64A47B
:102AD300061215DED5A4061215DE90A9061215DE20
:102AE3001EAA061215DE0080041215DE5880041299
:102AF30015DEDE80041215DEF081041215DE3D8240
:102B0300041215DE2383041215DE3A83041215DE44
:102B13008C83041215DEC483041215DED7830412DA
:102B230015DE2D84041215DE8684041215DE9E84C0
:102B3300041215DE0E87041215DEA587041215DEB6
:102B4300CF87041215DE0788041215DE2D8A0412BE
:102B530015DE738A041215DEBD8A041215DE918B0D
:102B6300041215DED28B041215DEF58B041215DE6A
:102B73003C8C041215DE5E8C041215DEDF8C04120D
:102B830015DE6C8D041215DEC68D041215DE0E8E55
:102B9300041215DE838F041215DEFF91041215DE75
:102BA3008C92041215DEB893041215DEF39304120B
:102BB30015DEC094041215DE0095041215DE03958C
:102BC300041215DE0D95041215DE2095041215DE90
:102BD300A195041215DED795041215DE039604128F
:102BE30015DE2A96041215DE4E96041215DEE596BE
:102BF300041215DEFE96041215DE3197041215DE5B
:102C03005197041215DE8E97041215DEC597041230
:102C130015DEC498041215DEF799041215DEBAAE58
:102C2300071215DEC6AE071215DE0CAF071215DE4E
:102C3300FB7F001215DE1CC9041215DE3FC9041206
:102C430015DE16CA041215DE5FCA041215DEB7CAF2
:102C5300041215DE11CB041215DE5DCB041215DE52
:102C6300D3CB041215DE61CC041215DED9CC0412C9
:102C730015DE1CCD041215DEF9D0041215DE40D387
:102C8300041215DE73D3041215DEF1D3041215DE1C
:102C930076D4041215DE4ED5041215DE78D604124E
:102CA30015DE63D7041215DE40D8041215DE7CD975
:102CB300041215DE20DB041215DEB2DB041215DE6E
:102CC300B9DD041215DEA2A4051215DE42A5051214
:102CD30015DEACA5051215DE53A6051215DEB7A643
:102CE300051215DEEAA7051215DE10A9051215DE79
:102CF30089A9051215DE61AB051215DE01AC0512BB
:102D030015DEA4AC051215DE03AD051215DEBEAD4E
:102D1300051215DE84AF051215DE27B1051215DE87
:102D2300D3B1051215DEE8B2051215DE49DE041231
:102D330015DEC1DE041215DE09DF041215DE4DDFD8
:102D4300041215DE96DF041215DEE0DF041215DE31
:102D530015E0041215DE93E0041215DEEDE0041213
:102D630015DE46E2041215DECFE2041215DE2BE374
:102D7300041215DE45E3041215DE6CE3041215DEBE
:102D8300C4E3041215DE2EE5041215DE4DE504122C
:102D930015DE75E6041215DEF2E6041215DE5FE7B2
:102DA300041215DEC1E7041215DE71E8041215DE04
:102DB30043EA041215DE2EEB041215DE28EC04128E
:102DC30015DE2EED041215DE4AEE041215DE58EE62
:102DD300041215DE31EF041215DED1EF041215DEF5
:102DE30015F0041215DE2AF0041215DE3BF104126D
:102DF30015DEDEF1041215DE36F2041215DE2E8C1A
:102E0300071215DE678D071215DE248E071215DEF5
:102E1300888E071215DE2A83071215DE45830712F3
:102E230015DE8983071215DEAF83071215DED583FE
:102E3300071215DEED83071215DE5084071215DE27
:102E43006584071215DE8785071215DE9085071244
:102E530015DE9985071215DEA285071215DEAC85EE
:102E6300071215DE9FE0061215DE7FE4061215DE5B
:102E730084E4061215DE86E4061215DE8B9D071226
:102E830015DEA2B1071215DE5889071215DE07AA4F
:102E9300071215DE1FB0071215DE0F9B071215DE92
:102EA300CBFF011215DEEBF0061215DEDCDB01129F
:102EB30015DE33DC011215DE9FDC011215DE2BDD7E
:102EC300011215DEE1DD011215DE29DE011215DE28
:102ED30042DE011215DE65DE011215DE87DE011208
:102EE30015DEC5DE011215DE14DF011215DE3FDF2C
:102EF300011215DE9DDF011215DE44E0011215DE1D
:102F0300ECE0011215DE68E1011215DE35E2011273
:102F130015DE81E2011215DE09E3011215DE42E33B
:102F2300011215DED3E3011215DEE4E3011215DE0F
:102F330056E4011215DEEFE4011215DE59E5011224
:102F430015DE49E6011215DE6EE6011215DE6BE7AA
:102F5300011215DE78E7011215DE81E7011215DE95
:102F63006AE9011215DE86EA011215DE17EB01127A
:102F730015DE88EB011215DE62ED011215DE2DF16F
:102F8300011215DE41F1011215DE51F1011215DEB8
:102F93005BF1011215DE64F1011215DE6DF1011210
:102FA30015DE77F1011215DEA6F1011215DED4F15B
:102FB300011215DEDFF1011215DE03F2011215DE37
:102FC30027F2011215DE99F2011215DEE2F2011267
:102FD30015DEFEF2011215DE6FF3011215DEBBF3EF
:102FE300011215DE04F4011215DE42F4011215DE9E
:102FF300C3F4011215DE8EF6011215DE2DF7011250
:1030030015DEF5F7011215DE81FA011215DED6FA87
:10301300011215DEFEFA011215DE31FC011215DE76
:1030230076FC011215DECBFC011215DE79FD0112CF
:1030330015DE1EFE011215DE53FE011215DEF3FE30
:10304300011215DE6FFF011215DEA68A011215DECD
:10305300D88A011215DE0C8B011215DEC08C011209
:1030630015DE948D011215DEF38D011215DE098F25
:10307300011215DE558F011215DEF291011215DED4
:103083006794011215DEB395011215DE4B960112FA
:1030930015DE5796011215DEA096011215DED396A2
:1030A300011215DE5F97011215DE7198011215DE0C
:1030B300B299011215DEB19A011215DEDB9A0112E3
:1030C30015DE469B011215DE9F9B011215DE129C35
:1030D300011215DE489E011215DECE9F011215DE88
:1030E300B9A0011215DE07A2011215DE3FA40112D9
:1030F30015DE36A7011215DE45A7011215DED9A785
:10310300011215DE84A8011215DEC7A8011215DE0F
:1031130010A9011215DE60A9011215DECDA9011255
:1031230015DE39AA011215DE55AA011215DE84AA8D
:10313300011215DEC3AA011215DEABAB011215DEB7
:103143005AAC011215DED1AE011215DE03B0011225
:1031530015DED2B0011215DE54B1011215DE96B59B
:10316300011215DEADB5011215DEDCB5011215DE57
:1031730037B6011215DE6AB6011215DEC5B60112A5
:1031830015DEE1B6011215DE42B7011215DE92B764
:10319300011215DE41B8011215DE04B9011215DE64
:1031A300CCB9011215DE18BC011215DEA4BD011243
:1031B30015DEFBBE011215DE17C0011215DE1AC0A3
:1031C300011215DE49C0011215DE38C2011215DEE7
:1031D30001C3011215DE42C3011215DE98C40112A8
:1031E30015DE0EC5011215DE41C5011215DEA5C59A
:1031F300011215DEC6C7011215DE25C8011215DE40
:10320300FBC8011215DE0FC9011215DE23C9011215
:1032130015DE50C9011215DE80C9011215DE24CB5B
:10322300011215DE21CC011215DE6FCC011215DE61
:1032330096CC011215DE71CD011215DE17CE0112E7
:1032430015DE9DCF011215DEE4CF011215DE51D03C
:10325300011215DEA6D1011215DE4FD2011215DEC1
:1032630083D2011215DE9BD2011215DE3ED3011269
:1032730015DEBAD5011215DE62D7011215DE86D727
:10328300011215DEA4D7011215DE70D8011215DE66
:10329300BEDB011215DE0080021215DE328002123F
:1032A30015DEB284021215DE0185021215DE478592
:1032B300021215DEEA85021215DE4F86021215DEB2
:1032C3009386021215DEFA87021215DE2689021290
:1032D30015DE238D021215DEA28D021215DEC88EB5
:1032E300021215DE2B8F021215DE7790021215DE05
:1032F3000F93021215DE9C93021215DEA69302129F
:1033030015DECE93021215DE9694021215DE2B956E
:10331300021215DE5495021215DE8195021215DE96
:10332300D697021215DEA398021215DEE298021256
:1033330015DE6499021215DE0F9A021215DE419A08
:10334300021215DE8C9A021215DEC59A021215DEE0
:10335300149B021215DE709B021215DEF29B021201
:1033630015DE579C021215DECF9C021215DE789EE5
:10337300021215DE709F021215DEB1A0021215DED5
:1033830005A4021215DE61A6021215DE1AA70212A7
:1033930015DE62A7021215DE43A9021215DE7EA90D
:1033A300021215DE87A9021215DE90A9021215DE9C
:1033B3009BA9021215DEBAA9021215DE6DAA02122A
:1033C30015DECAAA021215DED4AA021215DEDEAA7F
:1033D300021215DE2AAB021215DE72AB021215DEE3
:1033E30076AC021215DE0FAD021215DED6AD021257
:1033F30015DE00AF021215DE2BB0021215DE21B16D
:10340300021215DE39B1021215DE6DB1021215DE9C
:103413008BB1021215DED3B1021215DE0CB2021209
:1034230015DEC3B2021215DE84B3021215DEF7B342
:10343300021215DE73B4021215DE0FB5021215DE89
:1034430035B6021215DEF1B6021215DE91B702127D
:1034530015DE7EB8021215DED6B8021215DE9CB94F
:10346300021215DEBFB9021215DED4BA021215DE3E
:103473001FBB021215DE7BBB021215DEE3BB021279
:1034830015DE07BC021215DE2FBC021215DE74BC5A
:10349300021215DE98BC021215DE1CBD021215DEE7
:1034A30005BE021215DE4ABE021215DE73BE0212FB
:1034B30015DE11BF021215DE7CBF021215DE8ABFB4
:1034C300021215DEB6BF021215DE97C0021215DE18
:1034D3000080061215DE3880061215DE59800612AA
:1034E30015DE9B80061215DEFF80061215DE0981AC
:1034F300061215DE1981061215DE5081061215DE3D
:10350300F984061215DEC186061215DEA588061299
:1035130015DE4789061215DED189061215DE2F81C5
:10352300031215DE9381031215DEF181031215DEFA
:103533003C82031215DE5782031215DE7E820312CC
:1035430015DE9B82031215DEA782031215DE388473
:10355300031215DE5184031215DECD84031215DE2A
:10356300E084031215DEF084031215DE9485031242
:1035730015DE0087031215DE1388031215DEB388E8
:10358300031215DEBD88031215DE3C89031215DE16
:103593004D89031215DE8C89031215DEBA890312D5
:1035A30015DE878A031215DEDE8A031215DE178BFA
:1035B300031215DE6D8B031215DE8B8B031215DEE2
:1035C300D98B031215DEA48C031215DEF28C0312C1
:1035D30015DE3F8D031215DEC28D031215DEEC8D51
:1035E300031215DE228E031215DE318E031215DE51
:1035F300908E031215DE088F031215DE498F031216
:1036030015DE998F031215DEC48F031215DEDE8FCC
:10361300031215DEF88F031215DECD90031215DEAB
:10362300D790031215DE1291031215DE22910312B5
:1036330015DE2B91031215DE7C91031215DE90919A
:10364300031215DEB292031215DEC792031215DEC2
:103653005A93031215DECE93031215DE73940312ED
:1036630015DE7E94031215DEDE95031215DEFA9540
:10367300031215DE4696031215DEB496031215DE09
:10368300E696031215DE0097031215DE4297031226
:1036930015DE9599031215DE2D9A031215DEA49AF1
:1036A300031215DE019D031215DE199D031215DEAB
:1036B3001C9D031215DE289D031215DE3C9D03128B
:1036C30015DE449D031215DE7B9D031215DE6F9EEE
:1036D300031215DEF99E031215DE7B9F031215DE1E
:1036E300FB9F031215DED2A0031215DEF4A0031212
:1036F30015DE8DA1031215DEEAA1031215DEEDA17D
:10370300031215DE5CA2031215DEA8A3031215DE55
:10371300BBA4031215DE46A5031215DE59A6031238
:1037230015DE1EA7031215DE4FA7031215DE75A7BC
:10373300031215DE7EA7031215DEADA7031215DEF5
:103743005DA8031215DE0DA9031215DE80A903126D
:1037530015DE23AA031215DE96AA031215DED5AAD7
:10376300031215DE1EAB031215DE23AD061215DEA2
:103773004EAC061215DE00AC061215DE06AB0612C1
:1037830015DEDCB1071215DE74FE061215DE02FE2D
:10379300061215DE83FC061215DE39FC061215DE51
:1037A30023FC061215DE8CFB061215DE8FC80212EF
:1037B30015DE85C8021215DE85FE041215DEABFD8B
:1037C300041215DE7BC8021215DE50C7021215DE85
:1037D300E1FC041215DE50FB041215DE19FB041282
:1037E30015DEEBFA041215DE9FFA041215DE08FA51
:1037F300041215DE78F9041215DE52F9041215DEEF
:1038030007F9041215DED1F8041215DE54F8041278
:1038130015DEEFF7041215DE9EF7041215DEC6F669
:10382300041215DE36F6041215DEEAF5041215DE6F
:1038330065F5041215DE20F5041215DE04F50412F5
:1038430015DEACF3041215DE7EF3041215DE4BF322
:10385300041215DECFF2041215DE72CC061215DE49
:10386300CDCA061215DE59C6021215DEDBC90612D1
:1038730015DE0CC6021215DE4DC5021215DEBFC4DD
:10388300021215DE6EC3021215DE55C3021215DED7
:1038930041C2021215DE00C2021215DE58C1021225
:1038A30015DE20C9061215DE74EE051215DE1BEEB9
:1038B300051215DEE6ED051215DE00AF061215DE64
:1038C300B1ED051215DE7DED051215DE10ED0512C5
:1038D30015DEF8EC051215DE35AE061215DED3EC57
:1038E300051215DE17D8051215DEA4E9051215DE3B
:1038F30077E7051215DE77E5051215DEFDE40512FF
:1039030015DEAEE4051215DE68E4051215DE0AE4E1
:10391300051215DE17C2061215DE99C1061215DE51
:103923006EC0061215DEF0BE061215DEE1BE0612EB
:1039330015DE3082071215DE1882071215DE8E811E
:10394300071215DEFA80071215DE8FAD061215DE9B
:103953009080071215DE4880071215DE2F800712AC
:1039630015DE0080071215DEC1CD0500000080FBC7
:10397300A11A273F5A5DB03E7C85233FF086B63EB1
:10398300E202203F0A23BC3ED3931C3FAD24C13E39
:103993009E38193F1D86C53E8BF1153F4647C93EEC
:1039A3001ABF123F6D6CCC3E0AA20F3F0EFDCE3EF6
:1039B300419B0C3FE702D13EB2AB093F2589D23E82
:1039C30042D4063FB39BD33EB215043FB646D43E22
:1039D3009370013F1C96D43E7DCAFD3E5295D43E62
:1039E300A7E7F83E124FD43E7738F43E3FCDD33E9F
:1039F3005FBCEF3EDC18D33E7B72EB3E033AD23E14
:103A03009F59E73EEB37D13E6770E33EF718D03E50
:103A130044B5DF3EBDE2CE3E8826DC3E1E9ACD3E57
:103A23006EC2D83E5443CC3E2987D53E03E2CA3EFC
:103A3300E372D23E4979C93ECB83CF3ECF0BC83E1A
:103A430016B8CC3ED89BC63E020ECA3E4C2BC53E92
:103A5300DC83C73EC4BBC33EFE17C53E964EC23E83
:103A6300D3C8C23EDCE4C03ED994C03E807FBF3E93
:103A73009E7ABE3E3D1FBE3EC278BC3EACC4BC3E39
:103A8300F78DBA3E4470BB3E01B9B83E6122BA3EDF
:103A9300B5F8B63E4ADBB83EF84BB53E2F9BB73E72
:103AA300BFB1B33E3262B63E0E29B23E6730B53E79
:103AB300F8B0B03ED505B43E9C48AF3E7AE2B23E84
:103AC30029EFAD3E4BC6B13ED6A3AC3E38B1B03EB6
:103AD300EB65AB3E29A3AF3EB534AA3E039CAE3E95
:103AE300910FA93EA99BAD3EE1F5A73EF7A1AC3EE0
:103AF30012E7A63ECAAEAB3E9BE2A53EFEC1AA3E7E
:103B0300F8E7A43E6ADBA93EAEF6A33EE8FAA83E78
:103B13004A0EA33E5020A83E5E2EA23E794BA73EFE
:103B23008356A13E3B7CA63E5886A03E6FB2A53E7F
:103B330080BD9F3EECEDA43EA5FB9E3E8C2EA43E95
:103B430075409E3E2874A33EA28B9D3E9BBEA23E23
:103B5300E3DC9C3EBF0DA23EF2339C3E7161A13E6D
:103B63008E909B3E8CB9A03E7AF29A3EF015A03E11
:103B730079599A3E7A769F3E54C5993E09DB9E3E1B
:103B8300D735993E7F439E3ECEAA983EBCAF9D3E1D
:103B93000B24983EA31F9D3E61A1973E16939C3E26
:103BA300A322973EFA099C3EABA7963E34849B3EE4
:103BB3005030963EAA019B3E6FBC953E41829A3E91
:103BC300E34B953EE3059A3E8DDE943E768C993E1B
:103BD3004B74943EE515993E000D943E18A2983E11
:103BE3008FA8933EFB30983EDC46933E78C2973EC7
:103BF300CEE7923E7D56973E4A8B923EF4EC963E3C
:103C03003B31923ECD85963E88D9913EF520963E36
:103C13001C84913E5ABE953EE230913EEB5D953E4B
:103C2300C6DF903E99FF943EB690903E53A3943ED8
:103C33009F43903E0C49943E70F88F3EB2F0933E02
:103C430018AF8F3E3A9A933E87678F3E9545933ED2
:103C5300AE218F3EB5F2923E7EDD8E3E8FA1923E27
:103C6300EA9A8E3E1552923EE4598E3E3C04923EB1
:103C73005F1A8E3EF8B7913E4EDC8D3E3F6D913E0E
:103C8300A79F8D3E0424913E5C648D3E3FDC903EB5
:103C9300652A8D3EE595903EB5F18C3EEB50903E06
:103CA30043BA8C3E490D903E05848C3EF6CA8F3E46
:103CB300F24E8C3EE8898F3E011B8C3E184A8F3EA4
:103CC30029E88B3E7D0B8F3E62B68B3E0ECE8E3E39
:103CD300A4858B3EC4918E3EE7558B3E98568E3E0F
:103CE30024278B3E821C8E3E53F98A3E7CE38D3E15
:103CF3006ECC8A3E7EAB8D3E6EA08A3E82748D3E34
:103D03004D758A3E813E8D3E044B8A3E75098D3E3C
:103D13008D218A3E59D58C3EE3F8893E26A28C3EFE
:103D230000D1893ED66F8C3EDFA9893E653E8C3E2D
:103D33007B83893ECD0D8C3ECE5D893E08DE8B3E76
:103D4300D438893E12AF8B3E8814893EE5808B3E82
:103D5300E5F0883E7E538B3EE8CD883ED7268B3EEA
:103D63008BAB883EECFA8A3ECB89883EB9CF8A3E3C
:103D7300A468883E3AA58A3E1248883E697B8A3EFB
:103D83001128883E45528A3E9E08883EC7298A3EAE
:103D9300B6E9873EEE018A3E54CB873EB5DA893ECB
:103DA30076AD873E18B4893E1890873E158E893EBE
:103DB3003773873EA868893ED156873ECD43893EF7
:103DC300E33A873E821F893E691F873EC3FB883ED5
:103DD3006104873E8ED8883EC8E9863EDFB5883EBB
:103DE3009CCF863EB393883EDBB5863E0972883E00
:103DF300819C863EDD50883E8D83863E2C30883EF6
:103E0300FC6A863EF40F883ECD52863E33F0873EF1
:103E1300FC3A863EE7D0873E8823863E0BB2873E38
:103E23006F0C863EA093873EAFF5853EA275873E15
:103E330046DF853E0E58873E32C9853EE43A873ECB
:103E430071B3853E211E873E029E853EC201873E99
:103E5300E388853EC7E5863E1174853E2CCA863EBF
:103E63008D5F853EF0AE863E534B853E1294863E73
:103E73006237853E9079863EBA23853E675F863EEC
:103E83005810853E9645863E3BFD843E1B2C863E60
:103E930062EA843EF612863ECBD7843E24FA853E00
:103EA30075C5843EA3E1853E5FB3843E72C9853EFA
:103EB30087A1843E91B1853EEC8F843EFC99853E7B
:103EC3008E7E843EB482853E6B6D843EB66B853EAA
:103ED300815C843E0155853ED04B843E943E853EB5
:103EE300573B843E6E28853E142B843E8D12853EBF
:103EF300071B843EF0FC843E2E0B843E96E7843EF3
:103F030089FB833E7ED2843E17EC833EA7BD843E6D
:103F1300D6DC833E0FA9843EC6CD833EB694843E51
:103F2300E6BE833E9A80843E36B0833EBA6C843EBE
:103F3300B3A1833E1659843E5E93833EAC45843ED3
:103F43003685833E7B32843E3977833E831F843EAE
:103F53006769833EC20C843EC05B833E38FA833E6E
:103F6300424E833EE4E7833E0000000020019F8A27
:103F73000000010020019F8A0000020020019E8AA8
:103F8300000003002001A08A0000040042016D80AC
:103F93000000050042017E80000006004201A0806F
:103FA300000007002001AB800000100042018F8059
:103FB3000000110020012F0D000000404201A080ED
:103FC300000000804201D2830600000010110000AF
:103FD30007000000303300000700100030330000FA
:103FE3000700014020330000070002402033000097
:103FF30008000000203300000C0055003933000096
:104003000C001C0042330000120055002101000087
:104013000004000021040000020400002904000041
:104023000304000029040000050400002904000023
:104033000C040000390400000D04000039040000E2
:104043002A040000390400000207000029040000CC
:104053000207000218059B8A0207000330050000CF
:10406300020701032205538A020702032205578A26
:104073000207030318019C8A0207060318010000C4
:10408300040B00001B053B8A040B000129050000FB
:10409300040B030129050000040B06012904000099
:1040A300040B00022105998A040B010221058F8A62
:1040B300040B02022105998A040B03022105938A4A
:1040C300040B04022105998A040B05022105958A34
:1040D300040B000321040000040B00042105998A4A
:1040E300040B01042105918A040B05052105000039
:1040F300040B080521050000040B0B05290400002F
:10410300040B100528040000040B00062105998AFE
:10411300040B010621058F8A040B02062105998AE7
:10412300040B03062105938A040B04062105998ACF
:10413300040B05062105978A0003000020330000C5
:1041430000030100203300000003030021330000BB
:1041530000030400213300000003070021330000A3
:10416300000308003011000000030F0018110000C5
:1041730000030A401911000000030B402111000045
:1041830000030C402101000000000000000001209A
:1041930014390001022014390001032014390100ED
:1041A300042014390001050000000000060000008F
:1041B30000000700000000000800000000000000ED
:1041C300000000000A00000000000B0000000000D7
:1041D3000C02000000000D00000000000E20143946
:1041E30010010F2014391000104CBA3800001100D0
:1041F300F21B10001200101C10001300000000003E
:104203001400041C0000150000000000160000004C
:104213000000170100000000180100000000190051
:10422300102800001A00102800001B0000000000E6
:104233001C01000000011D01000000011E00000020
:1042430000001F015A3808002000642800002100E4
:104253002A1D00002200221C000023000000000091
:104263000000000000000000000000002600000025
:10427300000027000000000028099E2700002900F5
:10428300522810002A00000000002B00000000004C
:104293002C00000000002D00000000002E00000094
:1042A30000002F000000000030002E281000310114
:1042B3000000000032000000000033000000000096
:1042C300340000000000350000000000360000004C
:1042D3000000370000000000380000000000390132
:1042E300000000013A00000000003B000000000055
:1042F3003C00000000003D00000000008F000100B2
:10430300331A870001003D1E35000400021E2500FC
:104313000200061E26000200081E270002000A1ED5
:1043230028000100141E29000100151E840004004A
:10433300161E860001001A1E2A0001001B1E2B00F8
:1043430001001C1E2C000100201E2D000800161A5F
:104353002E000100211E2F000100221E300001004B
:10436300231E31000100241E320001001E1A3300F7
:1043730001001F1A34000100251E36000100201A17
:1043830038000100261E390001001F1E83000200B1
:104393003B1E63000100301A640001001D1E65000E
:1043A30001001E1E6D000100311A710008000E1A73
:1043B300660001003A1E430001002B1E4400020068
:1043C3002C1E450001002E1E460002002F1E470032
:1043D3000800281A48000100311E4B000100321E5C
:1043E300040001003E1EA1000100411E3700010030
:1043F300401E880001003F1E3C000100211A3D00C1
:104403000100271E49000200331E67000100321A13
:104413004D000200351E4E000100371E4F00020002
:10442300381E3E000100271A51000100281E5200C9
:104433000100291E530001002A1E54000100221A04
:1044430000000000000000013636010100010201F6
:104453000001030100010401060605020000070133
:1044630000340801000F090401010D0100FF0E08CB
:10447300000017020000190100FF1A0100011B01CF
:1044830000FE1C0100081D0200001F0100012001A5
:104493000001210200002301000F24020000260175
:1044A300000127010008280200FF2A0100072B0151
:1044B30002402C0100002D0100012E0100012F01FB
:1044C30000FF30010B1D310800003A0100083B01D9
:1044D300000F3C0100013D0100FF3E0400004204C7
:1044E3000000460400004A0400004E040000520489
:1044F3000000560400005A04000001037103010385
:104503000103010301030103220302030103100357
:10451300000300030003000300030003000342033E
:10452300000324030603000300030403120325030B
:1045330023032503230304030403000300030003ED
:104543004403000300032303000365032100350331
:104553008103000305030003000300030003250395
:104563002303010171010101010111010101310164
:10457300010101018001100161013B00140063018D
:1045830073017201620143010001130106013D0140
:1045930035000401120100010001000100010401C2
:1045A3000401330133013C014401320136000001AF
:1045B300000165010001350081010001050182014F
:1045C30083010001030071003001600011007000DD
:1045D3003102200350048000100061000000140029
:1045E30063007300720062004300000013000600C2
:1045F30000000000040012000000000000000000A2
:1046030004000400370037003C02440000000000AF
:104613000000000065000000350081000000050077
:1046230000008300000003027102300160021102E6
:1046330070020102020202028002100261023A00C9
:104643004100630273027202620243020002130218
:1046530038000002000204021202000200020002FB
:10466300000204020402370037003C024402000245
:1046730039000002000265020002350281020002D5
:1046830005028202830200023600010006000000D8
:104693000F0000000000000000000000000003FF06
:1046A300FF00000403FFFF0000FFFF0FF4010005FC
:1046B300C4040320000100000B0000000000000000
:1046C3000003010F000000000000000000000000D4
:1046D30000000000000000000000000000000000D7
:1046E3000000000000002C2A682A322A5429382AA4
:1046F3006E2A382A7A2A3E2A5429382A6E2A442ACC
:1047030054294A2A5429502A5429562A54295C2ABE
:104713005429622A54290000000000000000000010
:104723000000000000000000000000000000000086
:104733000000000000000000000000000000000076
:1047430000000000DE2C1300AE2C0100DE2C020062
:10475300542C03005A2C0400602C0500662C060020
:10476300722C30008A2C3300962C34009C2C1100C0
:10477300A22C1400A82C1500842CFFFF00000A00B3
:104783000000020000000400000008000000100008
:104793000000200000004000000080000000000135
:1047A30000000002000000040000000800000010E8
:1047B3000000002000000040000007ECFDFDFDECC0
:1047C300DCDCCCBCACAC9C9C8C7C7C6C6C5C5C5CA6
:1047D3004C4C3C3C2C2C1C1C03EAF5E5D5D5C5B54B
:1047E300A595958585757565655555454535352576
:1047F300251515050A083302D83205EA3207DE32D9
:104803000CC0320DCC32FF000000160F00000B1558
:104813000B020002220F3300000E01030507090BF0
:104823000D0F00020406080A0C0D5A6967426565FC
:10483300416C6C69616E6365303900393D3F373CCB
:104843003C362C442D00034A49434E181A250502D1
:1048530000011916181616182303003030171819FB
:1048630021301B1D1F30303016181920231A1C1E2F
:10487300300C0E020B040B0A0708000F020402019E
:104883000101010902E803000000BE040A0E00E86A
:10489300032810041EFF0C08040409080503030A77
:1048A3000C04C082C083E99018F7F0024AB474F490
:1048B300120F388A088B09EB5480604D800EEEFA94
:1048C300EFFB1229A8EEFAEFFB1226129018F7E07D
:1048D300F91226248A0A8B0BAE0AAF0BEE4F602027
:1048E3008E828F83E0641A60D5EEFAEFFB12294EB5
:1048F300E9F974FF6960CEEEFAEFFB12261880CC5B
:10490300AA08E5096480FB80047A007B00024C86D8
:1049130074F7120F387AFF025CD574F6120F38E978
:10492300FEEAFF7A047B00124FDCA808A909EA49D2
:104933006034EF8A828B83A3A3A3F0EE8A828B83F6
:10494300A31249A1E4F0A3F09019041250017009D5
:10495300901904E8F0A3E9803FE0FB8A828B83A3EC
:10496300A3A3E06F700479008031EAFCEBFD8A8237
:104973008B8312500170E474FF6F700C8C828D83F3
:104983001249A8E4F0A380109019041264669019E8
:10499300041249A8EAF0A3EBF07901025DCDA3F07C
:1049A3008A828B8322126FBA8882898322C082C053
:1049B30083EA12724D3BF583E0FA90190480048870
:1049C300828983126295601C88828983A3A3A3E0F2
:1049D300FBEA6B600574FF6B70E588828983A3A390
:1049E300E0F9800279FF024AB474F4120F38EAFE48
:1049F300EBFF8A82F58312646612294EE9F5087487
:104A0300FF697003024AA37A197B0012260CEA4B52
:104A13007003024AA38A828B837434125FFEA3A3BA
:104A2300EA2402FCE43BFD74061215578E828F8341
:104A3300125692126F958A828B83A3A3A3A3A3A377
:104A4300A3A3ECF0A3ED1256A2A3A3A3A3A3EA246A
:104A53000AFCE43BFD740C1215578E828F8312659A
:104A630000C812724D38F583E0C0E0EA2416F582DF
:104A7300E43BF583D0E0F0EE240CF8E43FF98882C0
:104A8300F583126F99EA2417F582E43BF583ECF082
:104A9300A3EDF088828983E4F0A3F0A90812261815
:104AA3007901024C86C082C0839019021264668029
:104AB30000D083D0820215DB74F4120F388A088B7E
:104AC30009ECFEEDFF7A08124B597004791080351A
:104AD300124BCBA3124BB5740C1219751275A0A30C
:104AE300A3A3A31276929018FC1250019018FC60B5
:104AF30011124FE48003EAFCEB124FFC70F88C8236
:104B03008D83124B69024C8674F4120F3889088A1C
:104B130009ECFEEDFF7A0A124B59700479108033C9
:104B2300124BC0E4F0A3124B6FE509124B6FA3EED7
:104B3300F0A3EFF09018FE1250019018FE601112CE
:104B43004FE48003EAFCEB124FFC70F88C828D83F8
:104B5300124B69024C867B001226A88A0A8B0BA88B
:104B63000AA90BEA4922126FBA790022125CC6A382
:104B7300A32274F4120F3889088A09ECFEEDFF7A38
:104B830006124B59700479108025124BC0124BB595
:104B93009019001250019019006011124FE4800324
:104BA300EAFCEB124FFC70F88C828D83124B690286
:104BB3004C86E509125CCBEEF0A3EFF022124BCB4F
:104BC3008A828B83A3A3A3228A828B83E4F0124974
:104BD300A1A3A3E508F02274F2120F38EAFEEBFF5B
:104BE3008C088D091229BA8B0DA90DEA4960198A1F
:104BF300828B83A3A3A3EEF0A3EF125CC2E508F0BC
:104C0300A3E509F079008002790102645C74F4126F
:104C13000F3874F71216DBE9FE8518828519837441
:104C230001F0EC7006EDC39406404D74036A4B60CB
:104C33004774011216AB880A890B780A1215FB7C9C
:104C4300127D007A007B00EE124C8B12160EE96087
:104C53001CE4F50AF50B780A1215FB74031216BB54
:104C630074021216B3122A02740212160E851882E7
:104C7300851983E064017004790180027900740965
:104C830012160E7F040212A8F91229C074022274AC
:104C9300E8120F3874FA1216DB89128A168B178CF6
:104CA300088D091238D28A148B15EA4B70057902E4
:104CB300024E21AA08AB09A9121229D8E9F50FA2BD
:104CC300E6401C9019021262956014E82419F582DB
:104CD300E439F583E064017006E50FD2E6F50F7C55
:104CE300067D007900AA18AB191225FA741F121950
:104CF3007512569A6009E054FCF0E044018003E029
:104D030054FC127678126295602B741E121975E0AA
:104D1300FE88828983A3121434EEFD74021219757E
:104D2300E05403FCAA08AB09A912122978740212F1
:104D3300160EE970057901024E21742212197512BB
:104D430062956012851882851983E04404F0740229
:104D5300121975126FB6742012197512569A6005DE
:104D6300E044088003E054F7F074211219751256D9
:104D73009A6005E044108003E054EFF074241219A4
:104D830075E0C0E07404121975D0E0F074051219CF
:104D930075EEF07803851882851983E05404600268
:104DA3007805742512197512542EE82510FEE43582
:104DB30011FF1250D26063AC0AAD0BAA18AB1912E3
:104DC30029B474271219751263EC1215F7AC10ADE0
:104DD3001112665412160E750C1E780C1215FF75FF
:104DE3000CFA750D18780C1215FB780A1215FB8E48
:104DF3000C8F0D780C1215FB78081215FBA90FAC5C
:104E030014AD15AA16AB171238EA740912160EE977
:104E1300FEAA0AAB0B1226AE80027E10EEF97406D0
:104E23008004EEF9740212160E7F100212A8EEFC33
:104E3300EFFDAA10AB11A90A12297E740B2274EAA2
:104E4300120F3874FE1216DB890B8A148B158C0E25
:104E53008D0F7E007F00750A0074181219751254A5
:104E63002E8011124FF2122A0E8B09EE2AFEEF3515
:104E730009FF050A126F9D502EE50A75F0061253BD
:104E8300E52403FEE43FFFA3A3E070E60EEE70010A
:104E93000F88828983A3A3A3A312500188828983E5
:104EA30060C112620680C2EEFAEFFB124FDC8A0C7D
:104EB3008B0DEA4B7003024FD1750A008030A8189E
:104EC300A9198812891378121215FB78081215FB99
:104ED3008A828B83124FF2122A14740412160E1252
:104EE3007590E50828F508E50939F509050A126FF3
:104EF3009D5077E50A75F006A4F8A9F0E51028F5AA
:104F030082E511126F79124FE98A828B83A3125CB7
:104F130031F0125C9A125C2CF0E5082403F508507A
:104F230002050988828983E070C2EA240308125CBF
:104F33009E124FE9A38582088583098A828B83A306
:104F4300A3A3A3124FE48C82F583E5824583700308
:104F5300024EC1AC08AD09AA82AB8388828983E083
:104F6300F91229E48A088B098082780C1215FB8ECA
:104F7300088F0978081215FB74201219751254242E
:104F83001215FFE4F508F50978081215FB742212CF
:104F930019751254241215FF742212197512542410
:104FA3001215FF75080078081215FF7508017808B7
:104FB3001215FFAC0EAD0FAA14AB15A90B124E3B85
:104FC30012160EE9FEAA0CAB0D1226AE80027E105D
:104FD300EEF9740212160E802F1226A88A088B0986
:104FE30022E0FCA3E022E0850882850983F02212F7
:104FF3007666AA0EAB0FA90B22FD8C828D831264F9
:105003006AEA4B22AA12AB137F0E0212A8EEF90230
:10501300500B74EC120F38890A8A108B11ECFEEDD9
:10502300FF741412197512522870030250B8A8089D
:10503300A9097C00800D12520B50010B12523B50F8
:1050430001090C850C82850D83E0FAECC39A40E6D6
:1050530074016A700AA3E07006750E01750F00787B
:10506300081215FB780E1215FB741C1219751252D7
:10507300051215FFE4F50CF50D780C1215FB741EE3
:105083001219751252051215FF741E121975125258
:10509300051215FF750B00780B1215FF750B0478BD
:1050A3000B1215FF124E3112160EE9FEAA08AB09B8
:1050B3001226AE80027E100251F2AA0EAB0F7F0CB5
:1050C3000212A8850A82850B83E0F91229F622EEE3
:1050D300FAEFFB1226A88A0A8B0BEA4B22F8E43577
:1050E3000DF98882F583125414A322851082851149
:1050F30083E0F8E508C3982274EC120F38890A8A12
:10510300108B11ECFEEDFF74141219751251F7F5A3
:1051130008750900740278081217E485080E8509DA
:105123000FAA0EAB0F126F9170030251F07900803A
:105133004AE9F512751300740278121217E4E50CAC
:105143002512FCE50D3513FD8C82F583A3125FF95F
:105153008C828D83A3126743F0EC2403FC50010D72
:10516300F5828D83126744A3F08C828D831267438B
:10517300A3A3F0EA2404FA50010B09850C82850DE0
:1051830083E0F8E9C39840A9740168700AA3E0704A
:1051930006750E01750F0078081215FB780E1215AF
:1051A300FB741C1219751252051215FFE4F50CF568
:1051B3000D780C1215FB741E121975125205121577
:1051C300FF741E1219751252051215FF750B007824
:1051D3000B1215FF750B07780B1215FF124E3112C8
:1051E300160EE9FEAA08AB091226AE80027E10EE67
:1051F300F90250C11251FB22125B00850C82F58328
:10520300E022E0F50B780B22EC75F003A4FAABF087
:10521300E50C2AFAE50D3BFB8A82F583125441F033
:10522300EA2402FA221251FB75F003A4F50EE5F00D
:10523300F50FAA0E1275FD22F5828B831255F61215
:10524300543AA3A3F0E82403F82274E8120F387445
:10525300FE1216DB12548812197512542E8009EEB1
:105263002402FEE43FFF05081250EE502FE50875B7
:10527300F00D1253E52404FEE43FFFE070E8A3E0E1
:1052830070DDEE2405FEE43FFFE82404F50AE4396B
:1052930012540060D11250C6EE2980C61250D2704B
:1052A300030253E08A0E8B0F7508008018E50C2467
:1052B30009FAE4350DFB8A8212540E125436F08C2F
:1052C3000E8D0F05081250EE400302537DE508755D
:1052D300F00D125448AA82AB831250E9F0E50C2476
:1052E300021250E012545DA3F0E50E2404F50E50B3
:1052F30002050F850C82850D83E070C7E50E24023D
:10530300FCE4350FFD850E82850F83A3A882A98354
:105313008A828B83E07096E50C2404F512E4350D44
:10532300F51385128212540EF0E50C2405F516E4EC
:10533300350DF51785168212696E1254722407F81B
:10534300E4350DF9888212540E125480F0E50E24D0
:1053530005F50E5002050F8512828513831254073B
:1053630070030252C6AC0EAD0FE50C240BF582E4BC
:10537300350DF58312541C0252C6780A1215FB8EA2
:105383000C8F0D780C1215FB74221219751254240C
:105393001215FFE4F50CF50D780C1215FB742412AD
:1053A30019751254241215FF7424121975125424FA
:1053B3001215FF75080078081215FF75080978089B
:1053C3001215FFAC14AD15740B1219751253F512A7
:1053D300160EE9FEAA0AAB0B1226AE80027E10025D
:1053E3004E25A4F8A9F0E51028F582E5111255928F
:1053F300EE2212646AA90912297E740B22F50B8529
:105403000A82F583E0F91229EAE922F5831254149A
:1054130022E0850E82850F83221255FB8A0E8B0FA5
:1054230022E0F5087808228E828F83E0F510A3E04E
:10543300F5112212543A221249A212544122A3E036
:10544300888289832212712B85820C85830D1254E5
:1054530014F0850C82850D83A32212546122A3F0DC
:1054630088828983A3E0850E82850F83A3A322F01C
:10547300851682851783125CAFF0E50C22A3A31275
:105483005461A3A322851882851983EAF0A3EBF064
:1054930089098C148D157E007F00750800741A220B
:1054A30074EA120F38890B8A108B118C0E8D0F7EC4
:1054B300007F00750A007416121975125AFC8003D6
:1054C30012555F850C82850D83126FA340F2126F14
:1054D3008D607EA808A909750A00800312559B8573
:1054E3000C82850D83E0FAE50AC39A40EF7808122F
:1054F30015FB8E0C8F0D780C1215FB741E1219758B
:105503001255591215FFE4F50CF50D780C1215FB25
:1055130074201219751255591215FF74201219753A
:105523001255591215FF750A00780A1215FF750AEC
:105533000A780A1215FFAC0EAD0FAA10AB11A90B16
:10554300124E3B12160EE9FEAA08AB091226AE80D4
:10555300027E10025010E0F50A780A22E50A75F07F
:1055630005A4F8A9F0E50C28F582E50D125592A3E0
:10557300A3A31275A4A3A3E0F91229FC8B09EA24BF
:1055830003F8E43509F9EE28FEEF39FF050A22395D
:10559300F583A3A882A98322E50A75F005A4FAABD3
:1055A300F01255EA85821485831512544212767ED1
:1055B3001255F6F0E5142402FAE435158A12F513B0
:1055C3008A82F5831255F6A3F0E82403FCE439FD3F
:1055D300851482851583A3A3A31255FB8A128B130B
:1055E300A812A913050A22E50C2AF582E50D3BF55D
:1055F30083A322125442A322E0FAA3E0FB85128282
:10560300851383E0F91229E42274F6120F3874FE2D
:105613001216DBE9FE740C12197512569212569A81
:105623001256A2E0C0E07401121975D0E0F0A81878
:10563300A9198808890978081215FB7508027509E4
:105643000078081215FB74161219751254241215DA
:10565300FF74151219751214347416121975125435
:10566300241215FF74161219751254241215FF759E
:10567300080078081215FF75080B78081215FFEE5D
:10568300F9124E3B12160E740212160E025DCD1263
:10569300759B8882F58322E085188285198322F021
:1056A30088828983A32274F1120F3874EB1216DBFC
:1056B300EAFEEBFFC200EA2420F8E43F8808F5097C
:1056C3008882F583C3E09403A3E094005005790135
:1056D300025ADD9019021276947402121975127629
:1056E30094740E121975E4F0A3F0740A121975E498
:1056F300F0A3F0740C121975E4F0A3F0EA2422F875
:10570300E43F880AF50B8882F583126F99740412BB
:105713001975AA82AB831229AE8A0C8B0DA80CA92A
:105723000D740A12197512769485088285098312FD
:105733006466EAC398F8EB99F9850A82850B83E0DE
:1057430028F8A3E039F9740C121975126FB67408AE
:10575300121975E09018FBF0EE2414F508E43FF5F8
:1057630009850882F583E0F91238D28A828B83E5B2
:10577300824583700C901902E4F0A3F07902025A77
:10578300DD125B30602BEE2404F50AE43FF50BA336
:10579300121434740B121975E0FD7406121975E0B6
:1057A3005403FC125B3F122978740212160EE9703F
:1057B3000C901902E4F0A3F07903025ADD125B3F67
:1057C3001229D8E9F50E850A82850B83126466EAED
:1057D300FCEBFD9018FC800488828983126295702B
:1057E300030258D088828983A3A3125AFCC3EA9583
:1057F3000CEB950D40E288828983A3A3A3A3C3E0A6
:105803009CA3E09D40D2E8FCE9FD7404121975E005
:105813005407700D7409121975E0640B7003025874
:10582300D4E50EA2E640030258D4EE2419F582E42F
:105833003FF583E060030258D47402121975125BBA
:1058430008707E740212197512629070747C008560
:105853000882850983E0F91229DE7401121975742F
:1058630001F07409121975125AE5121975E0F50C55
:10587300780C1215FF7407121975121434750C0184
:10588300780C1215FF740812197512714BF50C7808
:105893000C1215FF74051216AB880C890D780C12C7
:1058A30015FB7409121975125B27121975125AF038
:1058B300121975125B1612160E7C01125B3F122928
:1058C300DE901902E4F0A3F07905025ADD7C007D35
:1058D300007404121975E0F8540360030259F8E8E0
:1058E300540460057E84025A377409121975E0F86E
:1058F300C3941740030259F4E8F50A750B007402C8
:10590300780A1217E474E9250AF5827446350BF513
:1059130083E493F8740193F9E84970030259F48519
:105923000882850983E0C0E07410121975D0E0F095
:10593300740C121975126466741112197512769427
:10594300740A121975126466741312197512769417
:1059530074101216B38882898312116D8B09A909F9
:10596300740E121975127694EA49604B7409121970
:1059730075E0F508750900740278081217E474EBF2
:105983002508F58274463509F583E493F874019389
:105993008882F583E5824583601274021216B3127E
:1059A300116D740E121975126295600B740E121933
:1059B300751264661226AE7409121975E0F8605404
:1059C300740268604F740368604A740668604574C3
:1059D30008686040740C68603B7411686036741327
:1059E300686031741568602C740B6860277E0080D2
:1059F300437E82803FEC4D602B8C828D83A3A3A3D7
:105A0300125B30601F74021216B312116DE9FE743B
:105A1300FF6E700B901902E4F0A3F0F9025ADD74E3
:105A2300016E70107404121975E0540460047E83CF
:105A330080027E817402121975125B0870757402FC
:105A4300121975126290706B7404121975E0FA548E
:105A53001070607401121975EEF074091219751241
:105A63005AE51219751254241215FF740712197589
:105A730012143475080178081215FFEA131313542E
:105A83001F64015401F50878081215FF74051216F6
:105A9300AB8808890978081215FB74091219751265
:105AA3005B27121975125AF0121975125B1612162A
:105AB3000ED200901902E4F0A3F0EE700479008096
:105AC3001974846EA200700A50047907800C790659
:105AD30080085004790980027908741512160E02A1
:105AE3006200E0851882851983F0740822E0240699
:105AF300FAA3E03400FB740922125B0022E0F50CE8
:105B0300A3E0F50D22126500C82415F582E438F5EB
:105B130083E022A3E0C812725138F583E0F9122919
