:020000040000FA
:0600000002180F020A863F
:03001300020B429B
:03002B0002153289
:03003300020CD3E9
:03003B00020B971E
:03004B0002149705
:030053000209B5EA
:03005B000212EF9F
:0300630002131075
:03006B00020C760E
:03007B00020CAACA
:10008300020A1701010020FD000201FD0500000026
:10009300010D1F1F1F0000251F2B1F000000003133
:1000A3001F491F4F1F551F000000000000000006DE
:1000B3000004140004FFFFFF1801FF0D010612FFE7
:1000C300FFFFFFFFFFFF01010104000A180000000A
:1000D300E8030000FFFF5E18E8030000640064000B
:1000E300B801A0BB0D00A0BB0D00020200F8FF0782
:1000F30005021E0401051E02051E020A0A0101086B
:100103000803102702803E0102FEFFE8030A0500F0
:1001130001FFFF020A1401E002000000C503423F91
:100123001A51123FF304B53F0000803EFFFFFF006A
:1001330005030101FF5940000000002D3F000000AE
:1001430000FF000000FF00C082C083E9FA5407F8F3
:10015300744F28F582E43484F583E0F87900602253
:10016300EAC4540F5403600814600914600D80122C
:10017300E5808002E5905870078007E5A05860028B
:100183007901020273C082C08312027840047800AE
:100193008003120330E8F4FCEB600814601214606F
:1001A3001C802BEA6005E842808023EC5280801E8D
:1001B300EA6005E842908016EC52908011E8C394FF
:1001C30020500BEA6005E842A08003EC52A0020233
:1001D30073C082C083120278400478008003120344
:1001E30030E8F4FCE87003020273EB600814602C3F
:1001F300146050807BEC52F374016A601274026ADB
:10020300601574046A7003E8428FE842FD8061530D
:10021300F7DFEC528F80F343F72080F6EC52F4744F
:10022300016A601274026A601574046A7003E8421A
:10023300F6E842FE803A53F7BFEC52F680F343F7F9
:100243004080F6E8C394205027EC52F574016A60AD
:100253001274026A601574046A7003E842F7E84294
:10026300FF800D53F77FEC52F780F343F78080F65E
:10027300D083D08222E9C4540F5403FB743F59C383
:1002830094302274F8120F37E9C4540F5403FE74E8
:100293003F59C39430400478008003120330E8F4DC
:1002A300FBE86077EE600814602B14604E806CEB03
:1002B30052F352FD74016A600F74026A600F740492
:1002C3006A7058E8428F805353F7DF800343F72067
:1002D300EB528F8046EB52F452FE74016A600F7446
:1002E300026A600F74046A7032E842F6802D53F795
:1002F300BF800343F740EB52F68020E8C3942050BD
:100303001AEB44E0FB52F552FF74016A6012740267
:100313006A601574046A7003E842F77F0102127081
:1003230053F77FEB52F780F343F78080F6E95407E6
:10033300FC744F2CF582E43484F583E0F822C08208
:10034300C083120278400478008003120330E8F47B
:10035300FCE86038EB600814601214601C802DEA1E
:100363006005E842FD8025EC52FD8020EA6005E847
:1003730042FE8018EC52FE8013E8C39420500DEA2D
:100383006005E842FF800574E04C52FF020273C02F
:1003930082C083120278400478008003120330E89D
:1003A300F4FCE8603FEB60081460151460228034AD
:1003B300EA6005E842808003EC5280E842FD802435
:1003C300EA6005E842908003EC5290E842FE801414
:1003D300E8C39420500EEA6005E842A08003EC5283
:1003E300A0E842FF020273743F59C394305042E9BC
:1003F300C4540F540360071460131460202278015F
:10040300E8F4FBEA602414601814601922740F598D
:10041300C394045004780280E7780480E37808806A
:10042300DFE8428C22E58C586004EB528C22E842D0
:100433008C2212181F601D12182E700519191980AD
:100443001A121688701F1216B0C37003E6673319A9
:10045300191940071818182208080874FFF618F627
:1004630018F618F6221216B060171218D4702192DB
:10047300F01218DD7019501720F014080808090944
:1004830009E7F61819E7F61819E7F61819E7F62237
:100493001218DD60E6E869701F0808E62480F60894
:1004A300E436F618547FB47F0CE654806007F6E414
:1004B30018F618F622181822E9C6CC08C6CD08C6C5
:1004C300CE08C6CFC0E0E8C0E0EAC0E0EBC0E00978
:1004D300E9F809E7FA09E7FBE6F918E6F8C3EC9847
:1004E300ED99EE9AEBC2E7F5F0EFC2E795F0500E07
:1004F300600CEBCFFBEACEFAE9CDF9E8CCF8EAA23F
:10050300E7D2E7FAEB33FB13F5F0EEA2E7D2E7FE0F
:10051300EF33FFC5F013A2E730E601B313C5F0C311
:10052300C0E0C0F07F00C39BFB605E9418600F4087
:100533001D14601AD0E023F9D0E0F80206168AF001
:10054300E9486003D2F0E4AFF0FAF9F8803BEB300E
:10055300E40D89F0EA6003D2F0E4AFF0F9CAF8EBF6
:1005630030E30D88F0EF6002D2F0AFF0E4CAC9F8CF
:10057300EB54076014FBC3EA13FAE913F9E813F821
:10058300EF135002D2E0FFDBEDD0E0C0E030E739FB
:10059300C3E49FFFF5F0EC98FC42F0ED99FD42F0C7
:1005A300EE9AFE42F0D0E0F9D0E0F8E5F0607AE9A7
:1005B30023F9EE20E742D8028067C3EF33FFEC3321
:1005C300FCED33FDEE33FE80EAEC28FCED39FDEE65
:1005D3003AFED0E023F9D0E0F84002801BC3EE13CB
:1005E300FEED13FDEC13FCEF135002D2E0FF08B84D
:1005F30000067F7F74FF802EEF3350178CF020F0BE
:100603000260100CBC000C0DBD00080EBE000408F7
:10061300E860DFE933E813FFEE2313FE4F4D4C8010
:1006230008E95480FFE4FEFDFCEE33EF33F470047D
:10063300FCFD7E80D0E0FBD0E0FAD0E0F8D0E0CF44
:10064300C618CEC618CDC618CCC6F92212181F700C
:10065300041818182212182E700D74FFF61819F6C4
:100663001819F61819F622E7548066F61218DD7089
:100673000F1218D470F014F608F608F608F680D1B5
:100683001218D4700CF608F608768008E6447F80CA
:10069300EC1216B3700C12168B60BFE65480F6E4AE
:1006A30080BB12168B700519191980A5E869700CA7
:1006B300763F18768018F618F6E8F922E6CDC0E002
:1006C30018ECC0E0E633CD33CDD313F6E719FCE7DE
:1006D300191933CC33C3947F400ECD9D502408E6C3
:1006E3005480F6E418F6800FF4043D14501408E621
:1006F300447FF6187680E418F618F6D0E0FCD0E0D4
:10070300FD22CCD313CCFD18E4C6CBC0E018E4C65D
:10071300CAC0E00808ED08C633E613F618E433C68A
:1007230075F003C3CA97CA09CB97CB199C40047DC4
:1007330008802EBD00030207F816B6FF050606085B
:100743001618C3CA33CACB33CB33CA27CA09CB372C
:10075300CB193CC37D08803E187D0820E75CC63377
:10076300C6CA33CACB33CB33DDF1D5F0EB30E77BED
:10077300CA97CA09CB974ACB199C406F4B7025E6A1
:1007830020E0218066187D08C3CA97CA09CB97CB9E
:10079300199CD3C633C6CA33CACB33CB3350C9DD56
:1007A300E7D5F0E1D3E4C636C608C636C608C63672
:1007B300C608C636C61818188031C3CA97CA09CBEB
:1007C30097CB199CB34097C633C6CA33CACB33CB36
:1007D30033DD34D5F02EC6A2E0C640C8CA27CA0905
:1007E300CB37194A70BECB3CB480B90808E633084E
:1007F300E633601F181818D0E0FAD0E0FBD0E0FC15
:10080300D0E0FD22187D08CA27CA09CB37CB193C93
:10081300D3808013F618E4B67F11F618B6FF0EF6F0
:1008230018C60470D20808768080CAF618F618F63F
:1008330080C50012181F604F12182E6012E75480F3
:1008430066F612168870111218D4703B090909F460
:10085300F618F618F618F6221216B070151218DDEF
:1008630008080860EAE6447FF618768018E4F6186C
:10087300F6221218DD60161218D47012E4F608F688
:1008830008F608E65480F609090918181822EAC080
:10089300E0EBC0E0ECC0E0EDC0E0E687F0A4FBAC29
:1008A300F008E687F0A42CFCE435F0FA1809E68793
:1008B300F0A42C4B60027401CA35F0FCE433FB094D
:1008C300E687F0D2F7A42CCB35F0FC1908E687F0C5
:1008D300A42BCC35F0FBE433FD0819E687F0D2E70F
:1008E300A42C4ACB35F0CD3400FC09E687F0D2E7DF
:1008F300A42DCC35F0FDE433FA0918E687F0D2F7DE
:10090300A42CCD35F0CA3400FC08E687F0D2E7D238
:10091300F7A42ACC35F07A7E20E70B0ACB33CBCD74
:1009230033CDCC33CC33CB3350147004ED30E00EE5
:10093300D2F1E4CD3DCDCC3CCC3B5005DA05C2F140
:10094300EB547FC63308E63392F0FBE73309E73312
:10095300C39A502D2B70190C0D4C4D70151806E6CB
:1009630008C333700D20F10AA2F013F6E418800BCC
:100973004024E4F630F002768018F618F618F68074
:1009830024D33B14501074FFA2F013F6187680E4BE
:1009930018F618F6800FA2F013F618E63303F618CC
:1009A300ECF618EDF6D0E0FDD0E0FCD0E0FBD0E0B3
:1009B300FA22C0E074F1120F9DA2AFE433F509D21D
:1009C300AF85A708AFA1EF5508FE74105E6006124D
:1009D3001BE375A1EF74085E6008121BE975A1F7AC
:1009E3008024EFA2E092F0E508A2E082F050179095
:1009F3006198E0F890056DE0C398A2D265D03350BA
:100A030002E8F075A1FE751A00E509A2E092AF7F36
:100A130002020FFCC0E074F2120F9DA2AFE433FE9A
:100A2300D2AF9061A4E0F8759B00E591585408603B
:100A3300087591F7121C318023E591585410600812
:100A43007591EF121C378014E591A2E092F0E8A2B1
:100A5300E082F05007E0C2E0F0121D8D9061A3E048
:100A6300F8E5E9585404600E121D6375E9FB9061C3
:100A730093E0A2E640F2751A00EEA2E092AF7F0186
:100A8300020FFCC0E074F2120F9DA2AFE433FED25A
:100A9300AF9061A5E0F8E5BF585404600675BFFB4D
:100AA300121DA580D1C3E498F8E499F9120AE980EC
:100AB30026C3E49AFAE49BFBE920E7E9120AE9E496
:100AC30098F8E499F922C3E498F8E499F9120AE949
:100AD300E498F8E499F9C3E49AFAE49BFB22EB2047
:100AE300E7CFE920E7E0B90010BB0008E88AF0840B
:100AF300F8AAF022E4FBC8FA22EB70227B10C83379
:100B0300C8C933C9335007C39AC3DBF280069A506E
:100B1300012ADBEAC833F4C8C933F4C9FA2275F0F1
:100B230008E4C833C8C933C933C99AC99B5004C937
:100B33002AC93BD5F0ECFBC833F4C8E4C9FA22C098
:100B4300E0C0D0E8C0E0E9C0E0C082C083A8C1E84B
:100B5300C0E09004DAE0F8745928F582E43404F52F
:100B630083D0E0F09004D9E0F8A3E0687006E5953F
:100B73009004DCF09004DAE004F0C394804002E4D3
:100B8300F0A374C6F0D083D082D0E0F9D0E0F8D0DF
:100B9300D0D0E032C0E0C0D0E8C0E0E9C0E0C0821D
:100BA300C08390055DE0F8A3E0687008539AFBA347
:100BB30074018022C2E990055DE0F8740128F074A5
:100BC300DD28F582E43404F583E0F5C190055DE0AA
:100BD300C394804002E4F080AC120C2730F0391249
:100BE3000C6C8034120C2720F01430E72B74FFFCBC
:100BF300FBFA747F8022E4FCFBFA7480801AB480D1
:100C030008BC00F2BB00EF800F50EBF9E4C39AFA83
:100C1300E49BFBE49CFCE499C6CC18C6CB18C6CA7B
:100C230018C6F922E4C9C608CAC608CBC6D333031B
:100C330008CCC63392F0C3947F402E94184019C950
:100C4300B90704CACBCC225025C309CA33CACB3354
:100C5300CBCC33CC33D9F422F4600DC9CCC313CB42
:100C630013CBCA13CAD9F6CC22E4FCFBFA2214FC38
:100C7300FBFA22C0E074F2120F9DA2AFE433FED25E
:100C8300AF90070FE05589600FE589FA79001220CC
:100C93008790070FE0F45289C2C5751A00EEA2E0EF
:100CA30092AF7F01020FFCC0E074F2120F9DA2AF5E
:100CB300E433FED2AF900710E0558A600FE58AFA5D
:100CC3007901122087900710E0F4528AC2EB80CAA0
:100CD300C0E074F2120F9DA2AFE433FED2AF9007CF
:100CE30011E0558B600FE58BFA790212208790078C
:100CF30011E0F4528BC2E880A1080808EAC0E0EBD7
:100D0300C0E086F0E7A4FA180986F0E7A42AFA18E7
:100D13000986F0E7A42AFA180986F0E7A42AFA1943
:100D230086F0E7A4FBE5F02AFA190886F0E7A42B7E
:100D3300FBE5F03AFA190886F0E7A42BFBE5F03A55
:100D4300FA18180986F0E7A4C5F02BFBE43AFA1960
:100D530008E7C5F0C6A426F6E5F03BFBE43AFA182B
:100D630086F0E7A4F6E5F00826F6E43B08F6E43A55
:100D730008F6D0E0FBD0E0FA22080808E630E711D5
:100D83001216EC120D94080808C64480C6181818E9
:100D930022181818E9799EC608CAC608CBC608CC1B
:100DA300C6C370207996CACBCC7019798ECBCC7020
:100DB300137986CC700EF9802ACA33CACB33CBCCD5
:100DC30033CC331930E7F2CCCBCA3350147004EA76
:100DD30030E00DE4CA3ACACB3BCBCC3CCC50020941
:100DE300C3E913C6CC182313C6CB18C6CA18C6F951
:100DF30022E4CFC0E0E4CEC0E0E4CDC0E0E4CCC068
:100E0300E075F020E626F608E633F608E633F60842
:100E1300E633F6181818EC33FCED33FDEE33FEEF32
:100E230033FFC3EC9709ED9709EE9709EF9719196B
:100E330019400FFFEC97FC09ED97FD09EE97FE199A
:100E43001906D5F0BFECF709EDF709EEF709EFF74F
:100E5300191919D0E0FCD0E0FDD0E0FED0E0FF226C
:100E63002518C582C0E0E51934FFC583C0E0E51845
:100E7300C3958224F810AF088583198582188008EA
:100E8300858319858218D2AFCEF0A3E520F0A3782D
:100E930008E608F0A3DEFAEFF0A3E58124FAF8E60A
:100EA30008F0A3E608F0A3E608F0A30808E608F0B4
:100EB300A3E608F0A315811581D0E0FED0E0F81574
:100EC3008115811581E8C0E0EEC0E0221218BFB998
:100ED3000003020F21E490040178CD79178002F01A
:100EE300A3D8FCD9FA781A9000867A01BA00028056
:100EF30007E493A3F608DAF97ACD7B1A9000877892
:100F0300C479018015E493A3AD82AE838A828B8377
:100F1300F0A3AA82AB838D828E83D8E9D9E7758249
:100F2300007583AA74071215147582937583387438
:100F3300001215142518C582C0E0E51934FFC583D6
:100F4300C0E0E518C3958224F910AF08858319859D
:100F530082188008858319858218D2AFCEF0A3E565
:100F630020F0A37808E608F0A3DEFAEFF0A3E5810A
:100F730024FBF8E608F0A3E608F0A30808E608F067
:100F8300A3E608F0A315811581D0E0FED0E0F815A3
:100F9300811581E8C0E0EEC0E022C0D02518C582EB
:100FA300C0E0E51934FFC583C0E0E518C39582248A
:100FB300F310AF0885831985821880088583198506
:100FC3008218D2AFC8F0A3E9F0A3EAF0A3EBF0A331
:100FD3007908E709F0A3D8FAECF0A3EDF0A3EEF05B
:100FE300A3EFF0A3D0E0F0A3D0E0F0A3D0E0F0A310
:100FF300E520F0A3E5F0F0A322851983851882E0AC
:10100300C0E0A3E0F9A3E0FAA3E0FBA37808E0F6CD
:1010130008A3DFFAE0FCA3E0FDA3E0FEA3E0FFA347
:10102300E0C0E0A3E0C0E0A3E0F5D0A3E0F520A397
:10103300E0A3F5F010AF0885831985821880088531
:101043008319858218D2AFD082D083D0E0F8D0E064
:10105300321216EF181818120DF41217BE191919B7
:10106300221217BE191919080808E618181820E7DC
:10107300E0120DF41216EF18181822090909E719DE
:10108300191920E7DC080808E618181820E70302F6
:101093000DF41216EF181818120DF41216EF181893
:1010A300181217BE19191922FF75F0108E218F22FD
:1010B300858226858325851882851983E0CEA3E062
:1010C300CF852682852583EBC9EAC8EDCBECCAC35D
:1010D300E833C8E933C9EA33CAEB33CBC3EA9EF535
:1010E30024EB9FF523B35004AB23AA24EC33CCEDBC
:1010F30033CDD5F0DAAE21AF222212181F601C12B5
:10110300182E60171218DD70071218D47001D3223D
:10111300C0D01218D47006D0D0B322C32233D0D09B
:10112300501430E0F6C3E7960809E7960809E796F6
:101133000809E796B32220E0D5E6970809E6970861
:1011430009E6970809E697B322D083D082ECC0E082
:10115300EDC0E0E493A3FCE493A3FDED4C600D121A
:1011630012B0EC24FFFCED34FFFD80EFE493A3FC0D
:10117300E493A3FDED4C600D1213B7EC24FFFCEDDB
:1011830034FFFD80EFD0E0FDD0E0FCE493A3C0E0AA
:10119300E493C0E02212181F601B12182E6016126F
:1011A30018DD70071218D4600CB322C0D01218D403
:1011B3007005D0D022C32233D0D0501330E0EBC31C
:1011C300E7960809E7960809E7960809E7962220B3
:1011D300E0E4E6970809E6970809E6970809E69721
:1011E30022D083D082E9C0E0E493A3C386F0C5F0A4
:1011F30095F0F908E493A386F0C5F095F0700BE43D
:1012030093A3C3994005E9048002A3E475F002A403
:101213002582F582E5F03583F583D0E0F9E493A3E5
:10122300C0E0E493C0E022851983851882E0A3FE21
:10123300E0A3F5207808E0A3F608DFFAE0A3FFE0D7
:10124300A3C0E0E0A3C0E0E0A3C0E0E0A3C0E0E00F
:10125300A3C0E010AF0885821885831980088582B2
:1012630018858319D2AFD083D08202151A851983CA
:10127300851882E0A3FEE0A3F5207808E0A3F60832
:10128300DFFAE0A3FFE0A3C0E0E0A3C0E0E0A3C077
:10129300E0E0A3C0E010AF088582188583198008B9
:1012A300858218858319D2AFD083D08222C0E0C350
:1012B300E49396087401939618400FE493667008BC
:1012C30008740193661870007019A3A3C3E493967E
:1012D300087401939618A3A3400DD0E0D0E0D0E0AA
:1012E300021188A3A3A3A3A3A3D0E022C0E074F2B6
:1012F300120F9DC2D9901B0AE0C39400A2D265D0FD
:10130300334005E0F91225077F01020FFCC0E074AA
:10131300F2120F9DC2DC901B0CE0F9C39400A2D221
:1013230065D033400312250780DE74048004740201
:101333008000CCC0E0EDC0E0E518C39CCCAD1950F3
:10134300011D10AF068C188D1980068C188D19D2CB
:10135300AF121476D0E0FDD0E0FC2274028000CC02
:10136300C0E0EDC0E0E518C39CCCAD1950011D10E1
:10137300AF068C188D1980068C188D19D2AF1214F4
:1013830032D0E0FDD0E0FC2212181F602512182E87
:1013930060201218DD70030218D4080808E766708D
:1013A300101819E766700A1819E76670041819E728
:1013B3006622F422C0E0C0F088F0E4936670080867
:1013C30074019366187000A8F0A3A3700BD0F0D03B
:1013D300E0D0E0D0E0021188A3A3D0F0D0E022D087
:1013E30083D082CCC0E0E493A360061214F514709A
:1013F300FAE493A3600612161D1470FAD0E0FCE41D
:1014030093A3C0E0E493C0E022C008C3E096F508CC
:1014130008A3E096420808A3E096420808A3E096D2
:101423004208A2D265D033E5087001D3D00822CA9E
:10143300C0E0E493A3C582CCC582C583CDC583F048
:10144300A3C582CCC582C583CDC583DAE5D0E0CA06
:1014530022A2E792D65002F40430F70663F0FF05A8
:10146300F0B3400384800384F40430D60563F0FFB3
:1014730005F022CAC0E0E0A3C582CCC582C583CDF6
:10148300C583F0A3C582CCC582C583CDC583DAE607
:10149300D0E0CA22C0E0C0D0C082C08375AF009044
:1014A300074EE02401F0A3E03400F0D083D082D0D3
:1014B300D0D0E0327009080808226016181818C640
:1014C300C333C608C633C608C633C608C633C6D533
:1014D300E0EA22C008C3E096F50808A3E0964208B4
:1014E30008A3E096420808A3E09645087001D3D00C
:1014F3000822C0E0E493A3D39C5010E493A3C39CBD
:10150300400AD0E0D0E0D0E00213FFA3A3A3D0E0D1
:1015130022C09FF59FE473D09F22D083D082C09FC7
:10152300E493C0E0740193C0E0740293F59F22C07A
:10153300E0C0D0E8C0E0A8A8D2AFC2C7751A00E8DF
:10154300A2E792AFD0E0F8D0D0D0E03200C0D025EF
:101553001810AF08F518500C05198008F51850023B
:101563000519D2AFD0D0222518F58210AF08F5188F
:10157300400C15198008F51840021519D2AF8519CA
:1015830083227404800A7403800674028002740147
:10159300C0E0F40412156AD0E012186A22BB0102FB
:1015A300E722C082C08389828A83BB0003E0800272
:1015B300E493D083D082226017080808C6A2E713F9
:1015C300C618C613C618C613C618C613C6D5E0E98F
:1015D300226016080808C6C313C618C613C618C661
:1015E30013C618C613C6D5E0EA222518F8E4351940
:1015F300F9222518FAE43519FB222518FCE43519DC
:10160300FD22C3E0C696F608A3E0C696F608A3E05B
:10161300C696F608A3E0C696F622C0E0E493A36C50
:101623007009D0E0D0E0D0E00213FFA3A3D0E02202
:10163300251810AF08F518400C15198008F5184047
:10164300021519D2AF22C3E09608A3E09608A3E0DF
:101653009608A3E096A2D265D03322E766701008FD
:1016630009E766700A0809E76670040809E7662255
:10167300E066701008A3E066700A08A3E0667004D1
:1016830008A3E06622181818E60846087009E6263B
:10169300087005E633F4220822C3E4939608740124
:1016A3009396087402939608740393962219191952
:1016B300E70947097009E727097005E733F42209A9
:1016C30022C3E096F008A3E096F008A3E096F008A2
:1016D300A3E096F022C3E697F60809E697F6080911
:1016E300E697F60809E697F622181818E4C396F663
:1016F30008E496F608E496F608E496F622E026F661
:1017030008A3E036F608A3E036F608A3E036F6228F
:10171300E627F60809E637F60809E637F60809E684
:1017230037F622E493F608740193F608740293F6ED
:1017330008740393F622E657F60809E657F60809F4
:10174300E657F60809E657F622E056F608A3E056F0
:10175300F608A3E056F608A3E056F622E647F60895
:1017630009E647F60809E647F60809E647F6227050
:101773000422600D18C6C333C608C633C6D5E0F4C9
:101783001822E667F60809E667F60809E667F60829
:1017930009E667F622E026F008A3E036F008A3E0A6
:1017A30036F008A3E036F022E056F008A3E056F046
:1017B30008A3E056F008A3E056F022E4C397F70924
:1017C300E497F709E497F709E497F722600D08C651
:1017D300A2E713C618C613C6D5E0F322C6F4C6089B
:1017E300C6F4C608C6F4C608C6F4C622C3E0960803
:1017F300A3E09608A3E09608A3E09622C3E7960821
:1018030009E7960809E7960809E7962275D0007557
:10181300813F75180175190400020ECFE6084608CA
:10182300C3134608336002E633F422E7094709C3CA
:10183300134709336002E733F422600C08C6C3136D
:10184300C618C613C6D5E0F422E6F008A3E6F008EE
:10185300A3E6F008A3E6F022E0F608A3E0F608A367
:10186300E0F608A3E0F622CAC0E0E6F0A308DAFA3D
:10187300D0E0FA22E0FCA3E0FDA3E0FEA3E0FF2218
:10188300EAF0A3EBF0A3ECF0A3EDF022E0FAA3E07F
:10189300FBA3E0FCA3E0FD22E8F0A3E9F0A3EAF058
:1018A300A3EBF022ECF0A3EDF0A3EEF0A3EFF02214
:1018B300E0F8A3E0F9A3E0FAA3E0FB22E5C754F8BC
:1018C3004401F5C77901222518F582E43519F5831A
:1018D30022E72719471947194722E62618461846CB
:1018E300184622C2AF75D69F0200002212151D9D15
:1018F300CC0512151DCBCE0512151DF8CF051215FB
:101903001D7D960712151DE7960712151D089707EB
:1019130012151D46970712151D8B970712151DB13A
:10192300970712151DBA970712151D689807121508
:101933001DCC980712151D257F0012151D55C907CB
:1019430012151D70C90712151D07CD0412151DE6CA
:10195300CD0412151DE6CE0412151DBACF041215BF
:101963001D9CD20412151D00D30412151D93D4041B
:1019730012151D4BD50412151D5CD60412151DE757
:10198300D70412151D00800612151D0E80061215B0
:101993001D1F810612151DCF810612151D5B8306BF
:1019A30012151D05860612151DFCCD0612151D8880
:1019B300CE0612151D95CF0612151DB1CF061215B1
:1019C3001DFBD00612151D3AC00712151D4BC0078B
:1019D30012151D10C10712151D1FC10712151D2A4F
:1019E300C10712151DF57F0012151DEDFF04121519
:1019F3001D12FF0212151D22FF0212151D37FF02D1
:101A030012151DE9FF0212151D42C10712151DC54E
:101A1300C10712151D2BC20712151DC5FD06121590
:101A23001D00FE0612151D5CFE0612151DB4FE06F2
:101A330012151D3BFF0612151D77FF0612151DC556
:101A4300FF0612151DDCFF0612151DDC7F001215A3
:101A53001DEC7F0012151DEF7F0012151DF27F0094
:101A630012151DFFFB0512151D62FC0512151DB194
:101A7300FC0512151DDEFC0512151D34FD0512159E
:101A83001DF87F0012151DE7A70712151D1FA807D4
:101A930012151D79A90712151DFDA90712151DB2EF
:101AA3009E0712151DFC9E0712151D929F07121506
:101AB3001D18A00712151D49A00712151D61A007C7
:101AC30012151DD5A00712151DEBA00712151DFE3B
:101AD300A00712151D08A10712151D17BE05121523
:101AE3001D71C30512151DA3C30512151DCFC30513
:101AF30012151D5CC40512151D43C60512151D00E4
:101B0300800512151D6C800512151D1C810512150B
:101B13001DE7810512151D3D830512151D2B840537
:101B230012151D32850512151D30870512151D630B
:101B3300870512151DCD870512151DF4870512158E
:101B43001D71890512151DE3890512151D188A05D6
:101B530012151D2C8A0512151DA28A0512151DEFDB
:101B6300F60312151D66F90312151DC7FA031215A4
:101B73001DCEFC0312151DFBB90612151D27BA064F
:101B830012151D98BC0612151DD8BC0612151D187A
:101B9300BD0612151D2CBD0612151D45BD061215D9
:101BA3001D36BE0612151DDBBE0612151DEFBE0641
:101BB30012151D59B70712151D7DB70712151D966E
:101BC300B70712151DC8B70712151DF8B707121569
:101BD3001D25B80712151D2FB80712151D91B8073B
:101BE30012151DA0B80712151DAAB80712151DB7A7
:101BF300B80712151D1C9C0712151D3C9C071215D6
:101C03001D7B9C0712151D969C0712151DB59C077D
:101C130012151D1B9D0712151D249D0712151D81ED
:101C23009D0712151DA59D0712151D669E0712150A
:101C33001D739E0712151D849E0712151D84C80768
:101C430012151D9CC80712151DC8C80712151D4B78
:101C5300C90612151DA5CA0612151DB3CA0612150B
:101C63001DC6CA0612151DDBCA0612151DF0CA06CB
:101C730012151D03CB0612151D77CB0612151DDC9D
:101C8300CB0612151D64CC0612151DE0CC061215E9
:101C93001DA4CD0612151DB4CD0612151DC3CD0608
:101CA30012151DFDC30712151D21C40712151D4969
:101CB300C40712151D71C40712151DC4A5071215FB
:101CC3001DEBA50712151D09A60712151D7CA607F6
:101CD30012151D49990712151D62990712151D6EDC
:101CE300990712151D82990712151DA09907121540
:101CF3001DAA990712151DB4990712151DC7990737
:101D030012151D4D9A0712151DC29A0712151DF1C2
:101D13009A0712151D3F9B0712151D8E9B0712155F
:101D23001DA99B0712151DB39B0712151DC49B0705
:101D330012151D079C0712151D27C70712151D72C3
:101D4300C70712151D52D10512151D7CD105121599
:101D53001D99D10512151DACD10512151DC2D10552
:101D630012151D20D20512151D58D20512151D4C32
:101D7300D60512151D91D70512151DC4D7051215C9
:101D83001D27D80512151D87D90512151DAFD905B5
:101D930012151DC4D90512151DD4D90512151D1808
:101DA300DA0512151D73DA0512151D83DA051215EE
:101DB3001DEBBD0712151D05BE0712151D2DBE0710
:101DC30012151D46BE0712151D6ABE0712151D8882
:101DD300BE0712151D9FBE0712151DCDBE07121596
:101DE3001DE8BE0712151D44C30712151D88C3073E
:101DF30012151D99830712151DA9830712151DAE10
:101E0300840712151DE0840712151D068507121598
:101E13001D29850712151D40850712151D7A850793
:101E230012151DDF850712151D21860712151D606A
:101E3300860712151D91860712151DC886071215F0
:101E43001DB0A20612151D86A30612151DB1A30609
:101E530012151DCEA30612151DC9A40612151D0BBE
:101E6300A50612151D79A50612151DCBA50612157B
:101E73001D33A60612151D15A70612151DEEA7067E
:101E830012151D59F60612151DAEF60612151D0084
:101E9300F70612151D41F70612151D54F706121504
:101EA3001D8CF70612151DF3F70612151D89F8068A
:101EB30012151DD3E30512151DFEE30512151DC9E9
:101EC300E40512151D10E50512151DA1E5051215F2
:101ED3001D1AE90512151D8DEA0512151D00800353
:101EE30012151D38800312151D37820312151D327A
:101EF300850312151DB2850312151D2487031215C0
:101F03001D8A8B0312151DF48B0312151D8E8C0372
:101F130012151DDE8C0312151D468D0312151D9619
:101F23008D0312151DCD8D0312151DD08D031215B2
:101F33001DE08D0312151DF28D0312151D378E033F
:101F430012151DEC8F0312151D59900312151DA4B4
:101F5300900312151D40910312151DCC9103121508
:101F63001DB6930312151D5C950312151DFB9503F6
:101F730012151D12980312151D9C980312151D505E
:101F83009A0312151DE0AB0712151D14B1071215A4
:101F93001D2EB10712151D70B10712151D80B10753
:101FA30012151DB3B10712151DCDB10712151DE78B
:101FB300B10712151D00B20712151D42B207121503
:101FC3001D77B20712151DFC9B0612151D339C06C7
:101FD30012151D879C0612151D579D0612151D8D82
:101FE3009D0612151DBA9D0612151D0C9E0612158F
:101FF3001D2A9E0612151D4E9E0612151D749E0661
:1020030012151DF69E0612151D809F0612151DB191
:102013009F0612151DF79F0612151D16A006121511
:102023001DF7A00612151D25A10612151D5BA1069D
:1020330012151DBAA10612151DDCA10612151D3BB2
:10204300A20612151D74A20612151D82A2061215F0
:102053001D72AA0512151DACAA0512151DEBAB05C1
:1020630012151D1BAD0512151D2AB40512151DF100
:10207300A80612151DDAA90612151D1BAA061215AC
:102083001DCAAA0612151D1BBF0712151DA3BF07E4
:1020930012151D06C00712151D56E40412151D93D3
:1020A300E50412151D0BE70412151D63E804121550
:1020B3001DBBE80412151DFBE80412151D83E9047A
:1020C30012151D91E90412151DBBE90412151D39E2
:1020D300EA0412151DD6EA0412151DE2EB041215CB
:1020E3001D7EED0412151D54EF0412151D5B8A07A6
:1020F30012151DB68A0712151DEF8A0712151DD773
:102103008C0712151D03BF0612151D48BF061215B5
:102113001D7EBF0612151D35C00612151DFEC10614
:1021230012151D6BC20612151DEDC30612151D7A7D
:10213300A30412151D7EA40412151DEEA40412158A
:102143001DD4A50412151D20A60412151D93A90460
:1021530012151DDBA90412151D99AA0412151D8859
:10216300AB0412151DD2AB0412151D09AC041215D4
:102173001D72AC0412151DB7AC0412151D09AD0474
:1021830012151D5BAD0412151DB4AD0412151D17F8
:10219300AE0412151D85AE0412151DDAAE04121518
:1021A3001DD8AF0412151D3DB00412151D3CB1041A
:1021B30012151DD9ED0612151D56EE0612151D6AD0
:1021C300EE0612151D07EF0612151DAFB207121505
:1021D3001DBAB20712151DF7B20712151D1CB3075E
:1021E30012151D38B30712151D4DB30712151DC95E
:1021F300E00612151DD8E10612151D83E20612151D
:102203001D7DE30612151D9EE30612151DB8E30698
:1022130012151D5AE40612151D8BE40612151D0B2B
:10222300E50612151D71950512151DD39505121599
:102233001D67960512151DF6970512151D379B058B
:1022430012151D529B0512151D079C0512151D3DE8
:102253009E0512151DC1B80712151DD3B807121517
:102263001DE7B90712151DEAB90712151D68BB074B
:1022730012151D9EBB0712151DB8BB0712151DFABB
:10228300BB0712151D0ABC0712151DA4BC071215A6
:102293001D3D8E0612151D478E0612151D818E06D5
:1022A30012151DEA8E0612151D078F0612151DA99C
:1022B3008F0612151DB28F0612151DF78F06121504
:1022C3001D20900612151D2D900612151D9E9006B9
:1022D30012151D29910612151D77910612151DB5AC
:1022E300910612151D1A920612151D3D920612151E
:1022F3001DB4920612151D0B930612151D46930667
:1023030012151D7B930612151D8D930612151D9F25
:10231300930612151DBE930612151DC793061215BB
:102323001D87940612151DD3940612151D119506CB
:1023330012151DD0D20612151D10D40612151D3309
:10234300D40612151D44D40612151D43D6061215C4
:102353001D63D60612151D7EC70712151D99C707E3
:1023630012151DBBC70712151DA5900712151DE9F0
:10237300900712151D31910712151D17930712159A
:102383001DA6930712151D8CFF0312151D39E303B8
:1023930012151D5DE40312151D97E40312151D416B
:1023A300E60312151D6BE60312151DE0E803121573
:1023B3001D20E90312151DB6EA0312151D53EB0385
:1023C30012151DA5EB0312151D48EC0312151D80F4
:1023D300EC0312151DC2EC0312151D31EE03121589
:1023E3001D7FEF0312151DB0F10312151DDEF1035E
:1023F30012151D05F20312151D0EF20312151D5EB3
:10240300F20312151DF0F20312151D1FF603121528
:102413001DA2F60312151D96C40712151DACC407A1
:1024230012151DB6C40712151D0AC50712151D5A2C
:10243300DC0612151D70DC0612151D11DD061215C2
:102443001D50DD0612151D6DDD0612151D9EDD06E0
:1024530012151DEBDD0612151D1EDE0612151D5984
:10246300DE0612151D54E00612151DBCE0061215FA
:102473001D2AFA0412151DD0FB0412151D11FD04AB
:1024830012151D29FD0412151D33E50612151D6ACB
:10249300E60612151DC9E70612151DB3DA05121556
:1024A3001DDFDA0512151D19DB0512151DDFDD050C
:1024B30012151D37DE0512151D81DE0512151DA52A
:1024C300DE0512151D22E00512151D7FE00512150C
:1024D3001DDCE20512151D50EC0512151D79ED05E5
:1024E30012151D78EE0512151DBCEF0512151DDB27
:1024F300F00512151DADF10512151DE9FD011215AB
:102503001DB7FE0112151D61ED0212151D26EE0207
:1025130012151D31EE0212151DE2EE0212151D41B8
:10252300EF0212151D3DF10212151DADF102121538
:102533001DB2F30212151DEBF30212151D91F602E3
:1025430012151DB9F60212151D3BF70212151DB621
:10255300F70212151D19F90212151D76F90212154B
:102563001DF4F90212151DF0FE0212151D99D7066E
:1025730012151DC0D70612151DCED90612151DF54D
:10258300D90612151D4ADA0612151D18DB06121597
:102593001D90DB0612151D1BA10712151D33A10784
:1025A30012151D32A20712151D39A20712151D623D
:1025B300A20712151D44C20712151DA3C207121547
:1025C3001DE1C20712151D22C30712151DCBB40648
:1025D30012151DF1B40612151D31B60612151D266E
:1025E300B70612151D4DB70612151DE6B7061215CF
:1025F3001D3AB80612151D55B90612151DE0AE0693
:1026030012151D82AF0612151DA2B00612151DF478
:10261300B10612151DB2B30612151D5FEF04121594
:102623001DB3EF0412151DDDF00412151D09F2048C
:1026330012151DF7F20412151D93F50412151D4A08
:10264300F70412151D95F70412151DA3F9041215AD
:102653001D00800712151D53800712151DD6800714
:1026630012151D62830712151D17BA0712151D9146
:10267300BA0712151DACBA0712151D63AF07121561
:102683001D66B00712151DCEB00712151DACAD07A0
:1026930012151DF7AD0712151D47AE0712151D6262
:1026A300AE0712151DD2B50712151D2DB60712154B
:1026B3001D29B70712151D73A30712151DDCA307E8
:1026C30012151D52A40712151D6DA40712151D50D6
:1026D300F40512151DC9F40512151DE1F5051215B2
:1026E3001D34F70512151DD9F80512151D22F9051C
:1026F30012151D95F90512151DD8FA0512151D1E83
:10270300FA0612151DA6FB0612151DEFFB06121580
:102713001DC8FC0612151D42FD0612151DEC7000A6
:1027230012151D5D710012151DC4710012151D488F
:10273300720012151D43730012151D7773001215D5
:102743001D98750012151D87760012151DEF760072
:1027530012151D2A770012151D64780012151D0C21
:10276300790012151D55790012151DBF7900121538
:102773001D107A0012151DCA7B0012151D047C0062
:1027830012151D52C60712151D91C60712151D2BD2
:10279300870612151D85870612151D418806121519
:1027A3001D6A890612151D9A890612151DACBB03F5
:1027B30012151D338B0612151DB18B0612151D96AE
:1027C3008C0612151D11CA0712151D24CA071215EE
:1027D3001DAEBC0712151DBDBC0712151D3ABD0762
:1027E30012151DE4FF0112151DF8D80412151D63FF
:1027F300D90412151D3CDA0412151D93DB041215BE
:102803001D02DC0412151DB0DC0412151D89DD0444
:1028130012151D78DE0412151DCEDF0412151D21BD
:10282300E20412151DF7420012151D034300121591
:102833001D65430012151D6F430012151D02440050
:1028430012151D3E440012151D73C90512151D0DE9
:10285300450012151D5D450012151DC745001215D3
:102863001D2C460012151D62460012151DE446007C
:1028730012151D93480012151D674A0012151D4DB0
:102883004B0012151D9F4C0012151DF54E0012151D
:102893001D5E500012151DFB500012151DA355009F
:1028A30012151D91560012151D2F570012151D5B91
:1028B300570012151DF7570012151D0C580012155D
:1028C3001D30580012151D96580012151DB35800DF
:1028D30012151DDD580012151D5A5A0012151D7BC5
:1028E3005A0012151D015B0012151DA75B0012157E
:1028F3001DEE5B0012151D615C0012151DED5C00E1
:1029030012151D515D0012151DB15D0012151D47F5
:102913005E0012151DC25E0012151DF55E00121534
:102923001D575F0012151DB9600012151D296100A6
:1029330012151DD8610012151D2E630012151DC638
:10294300630012151D32640012151D756600121501
:102953001D01680012151D2C680012151D126A0056
:1029630012151DA86B0012151DB16C0012151D9ECA
:10297300B20412151D55B30412151D5CB4041215CF
:102983001DDAB40412151D1CB60412151D3DB60440
:1029930012151DF5B60412151DA0B70412151D80DE
:1029A300BB0412151D9CBD0412151D03BF04121593
:1029B3001D11C90712151D8F9B0312151DE79B03DC
:1029C30012151D6D9C0312151D7F9D0312151DCC41
:1029D3009D0312151DB29E0312151DC99E031215E8
:1029E3001D1B9F0312151D589F0312151D6B9F037B
:1029F30012151DC19F0312151D1AA00312151D32B6
:102A0300A00312151DA2A20312151D39A30312154B
:102A13001D63A30312151D9BA30312151DCBA50351
:102A230012151D11A60312151D5BA60312151D2FEA
:102A3300A70312151D70A70312151D93A7031215E3
:102A43001DDAA70312151DFCA70312151D7DA8038C
:102A530012151D0AA90312151D64A90312151DAC35
:102A6300A90312151D21AB0312151D9DAD031215EC
:102A73001D2AAE0312151D56AF0312151D91AF0388
:102A830012151D5EB00312151D9EB00312151DA174
:102A9300B00312151DABB00312151DBEB003121502
:102AA3001D3FB10312151D75B10312151DA1B1030D
:102AB30012151DC8B10312151DECB10312151D83A8
:102AC300B20312151DF5B20312151D0EB303121531
:102AD3001D41B30312151D61B30312151D9EB303EC
:102AE30012151DD5B30312151DD4B40312151D07FA
:102AF300B60312151DCBC50712151DD7C507121531
:102B03001D1DC60712151DF7FF0112151D008004B8
:102B130012151D23800412151DFA800412151D437E
:102B2300810412151D9B810412151DF581041215D4
:102B33001D41820412151DB7820412151D4583041D
:102B430012151DBD830412151D00840412151DDD0D
:102B5300870412151D248A0412151D578A041215A1
:102B63001DD58A0412151D548B0412151D2C8C04BB
:102B730012151D568D0412151D418E0412151D1EAE
:102B83008F0412151D83900412151D15910412153F
:102B93001D44930412151DE4930412151D4E940451
:102BA30012151DF5940412151D54950412151D00DC
:102BB300960412151D33970412151D599804121506
:102BC3001DD2980412151DAA9A0412151D4A9B04BE
:102BD30012151DED9B0412151D4C9C0412151D07A7
:102BE3009D0412151DCD9E0412151D70A00412150F
:102BF3001D1CA10412151D31A20412151DB3CE0311
:102C030012151D2BCF0312151D73CF0312151DB7FC
:102C1300CF0312151D00D00312151D4AD003121540
:102C23001D7FD00312151DFDD00312151D57D103AF
:102C330012151DB0D20312151D39D30312151D959C
:102C4300D30312151DAFD30312151DD6D3031215CB
:102C53001D2ED40312151D98D50312151DB7D503C8
:102C630012151DDFD60312151D5CD70312151DC9DE
:102C7300D70312151D2BD80312151DDBD80312150C
:102C83001DADDA0312151D98DB0312151D92DC032B
:102C930012151D98DD0312151DB4DE0312151DC296
:102CA300DE0312151D9BDF0312151D3BE0031215F6
:102CB3001D7FE00312151D94E00312151DA5E1030A
:102CC30012151D48E20312151DA0E20312151DAFD4
:102CD300930712151DE8940712151DA595071215E4
:102CE3001D09960712151D818D0712151D9C8D0751
:102CF30012151DE08D0712151D068E0712151D2CCA
:102D03008E0712151D448E0712151DA78E07121567
:102D13001DBC8E0712151DDE8F0712151DE78F07C9
:102D230012151DF08F0712151DF98F0712151D03BC
:102D3300900712151D8BE90612151D6BED06121572
:102D43001D70ED0612151D72ED0612151D6DAA07F5
:102D530012151D53CA0712151DBEC60712151DCB2A
:102D6300C80712151D97C90712151D25F20612155E
:102D73001D35C50712151D5FC50712151D46B4077E
:102D830012151DC3C90712151D35CA0712151DDA01
:102D9300C70712151D34C80712151D208707121502
:102DA3001D9AD80112151DF1D80112151D5DD90107
:102DB30012151DE9D90112151D9FDA0112151DE720
:102DC300DA0112151D00DB0112151D23DB0112159B
:102DD3001D45DB0112151D83DB0112151DD2DB011D
:102DE30012151DFDDB0112151D5BDC0112151D0201
:102DF300DD0112151DAADD0112151D26DE011215B6
:102E03001DF3DE0112151D3FDF0112151DC7DF0182
:102E130012151D00E00112151D56E00112151D09C2
:102E2300E10112151DEDE10112151DFEE10112155F
:102E33001D70E20112151D09E30112151D73E30153
:102E430012151D63E40112151D88E40112151D8579
:102E5300E50112151D92E50112151D9BE5011215E1
:102E63001D84E70112151DA0E80112151D31E901AA
:102E730012151DA2E90112151D7CEB0112151D4748
:102E8300EF0112151D5BEF0112151D6BEF011215FA
:102E93001D75EF0112151D7EEF0112151D87EF0140
:102EA30012151D91EF0112151DC0EF0112151DEE34
:102EB300EF0112151DF9EF0112151D1DF001121579
:102EC3001D41F00112151DB3F00112151DFCF00197
:102ED30012151D18F10112151D89F10112151DD5C9
:102EE300F10112151D1EF20112151D5CF2011215DE
:102EF3001DDDF20112151DACF40112151D4BF50178
:102F030012151D13F60112151D9FF80112151DF45C
:102F1300F80112151D1CF90112151D4FFA011215A6
:102F23001D94FA0112151DE9FA0112151D97FB01F3
:102F330012151D3CFC0112151D71FC0112151D110A
:102F4300FD0112151D8DFD0112151D64870112155A
:102F53001D96870112151DCA870112151D7E890151
:102F630012151D528A0112151DB18A0112151DC7B2
:102F73008B0112151D138C0112151DB08E01121534
:102F83001D25910112151D71920112151D09930141
:102F930012151D15930112151D5E930112151D9136
:102FA300930112151D1D940112151D2F9501121564
:102FB3001D70960112151D6F970112151D9997012A
:102FC30012151D04980112151D5D980112151DD0CF
:102FD300980112151D069B0112151D8C9C011215DB
:102FE3001D779D0112151DC59E0112151DFDA00122
:102FF30012151DF4A30112151D03A40112151D972B
:10300300A40112151D42A50112151D85A501121556
:103013001DCEA50112151D1EA60112151D8BA6019D
:1030230012151DF7A60112151D13A70112151D4236
:10303300A70112151D81A70112151D69A8011215FB
:103043001D18A90112151D8FAB0112151DC1AC016D
:1030530012151D90AD0112151D12AE0112151D544E
:10306300B20112151D6BB20112151D9AB201121590
:103073001DF5B20112151D28B30112151D83B301ED
:1030830012151D9FB30112151D00B40112151D5019
:10309300B40112151DFFB40112151DC2B50112159D
:1030A3001D8AB60112151DD6B80112151D62BA018B
:1030B30012151DB9BB0112151DD5BC0112151DD862
:1030C300BC0112151D07BD0112151DF6BE01121517
:1030D3001DBFBF0112151D00C00112151D56C101F0
:1030E30012151DCCC10112151DFFC10112151D635F
:1030F300C20112151D84C40112151DE3C40112156A
:103103001DB9C50112151DCDC50112151DE1C5015E
:1031130012151D0EC60112151D3EC60112151DE224
:10312300C70112151DDFC80112151D2DC901121586
:103133001D54C90112151D2FCA0112151DD5CA012F
:1031430012151D5BCC0112151DA2CC0112151D0F0A
:10315300CD0112151D64CE0112151D0DCF011215DF
:103163001D41CF0112151D59CF0112151DFCCF01B1
:1031730012151D78D20112151D20D40112151D44FC
:10318300D40112151D62D40112151D2ED50112157D
:103193001D7CD80112151D00800212151D328002FC
:1031A30012151DB2840212151D01850212151D4749
:1031B300850212151DEA850212151D4F860212158E
:1031C3001D93860212151DFA870212151D26890208
:1031D30012151D238D0212151DA28D0212151DC875
:1031E3008E0212151D2B8F0212151D7790021215D8
:1031F3001D0F930212151D9C930212151DA6930217
:1032030012151DCE930212151D96940212151D2B35
:10321300950212151D54950212151D819502121562
:103223001DD6970212151DA3980212151DE29802CE
:1032330012151D64990212151D0F9A0212151D41D4
:103243009A0212151D8C9A0212151DC59A021215A7
:103253001D149B0212151D709B0212151DF29B0279
:1032630012151D579C0212151DCF9C0212151D78B5
:103273009E0212151D709F0212151DB1A002121598
:103283001D05A40212151D61A60212151D1AA7021F
:1032930012151D62A70212151D43A90212151D7EE8
:1032A300A90212151D87A90212151D90A902121554
:1032B3001D9BA90212151DBAA90212151D6DAA02A2
:1032C30012151DCAAA0212151DD4AA0212151DDE5B
:1032D300AA0212151D2AAB0212151D72AB0212159A
:1032E3001D76AC0212151D0FAD0212151DD6AD02CF
:1032F30012151D00AF0212151D2BB00212151D2150
:10330300B10212151D39B10212151D6DB10212154C
:103313001D8BB10212151DD3B10212151D0CB20281
:1033230012151DC3B20212151D84B30212151DF727
:10333300B30212151D73B40212151D0FB502121537
:103343001D35B60212151DF1B60212151D91B702F5
:1033530012151D7EB80212151DD6B80212151D9C3A
:10336300B90212151DBFB90212151DD4BA021215E6
:103373001D1FBB0212151D7BBB0212151DE3BB02F1
:1033830012151D07BC0212151D2FBC0212151D7448
:10339300BC0212151D98BC0212151D1CBD0212158C
:1033A3001D05BE0212151D4ABE0212151D73BE0273
:1033B30012151D11BF0212151D7CBF0212151DA887
:1033C300BF0212151D89C00212151DF29F051215A9
:1033D3001D2AA00512151D4BA00512151D8DA00554
:1033E30012151DF1A00512151DFBA00512151D0BCD
:1033F300A10512151D42A10512151DEBA4051215F9
:103403001DB3A60512151D97A80512151D39A9058B
:1034130012151DC3A90512151D79C20212151DDD52
:10342300C20212151D3BC30212151D86C3021215DB
:103433001DA1C30212151DC8C30212151DE5C30247
:1034430012151DF1C30212151D82C50212151D9B13
:10345300C50212151D17C60212151D2AC602121522
:103463001D3AC60212151DDEC60212151D4AC802F8
:1034730012151D5DC90212151DFDC90212151D0786
:10348300CA0212151D86CA0212151D97CA02121509
:103493001DD6CA0212151D04CB0212151DD1CB0273
:1034A30012151D28CC0212151D61CC0212151DB771
:1034B300CC0212151DD5CC0212151D23CD021215F7
:1034C3001DEECD0212151D3CCE0212151D89CE0232
:1034D30012151D0CCF0212151D36CF0212151D6CCD
:1034E300CF0212151D7BCF0212151DDACF02121562
:1034F3001D52D00212151D93D00212151DE3D002E6
:1035030012151D0ED10212151D28D10212151D42CE
:10351300D10212151D17D20212151D21D202121546
:103523001D5CD20212151D6CD20212151D75D2023A
:1035330012151DC6D20212151DDAD20212151DFC78
:10354300D30212151D13D40212151D28D40212150D
:103553001DBBD40212151D2FD50212151DD4D50281
:1035630012151DDFD50212151D3FD70212151D5B63
:10357300D70212151DA7D70212151D15D802121551
:103583001D47D80212151D61D80212151DA3D802BA
:1035930012151DF6DA0212151D8EDB0212151D051A
:1035A300DC0212151D62DE0212151D7ADE021215EF
:1035B3001D7DDE0212151D89DE0212151D9DDE0220
:1035C30012151DA5DE0212151DDCDE0212151DD01B
:1035D300DF0212151D5AE00212151DDCE00212155E
:1035E3001D5CE10212151D33E20212151D55E202A4
:1035F30012151DEEE20212151D4BE30212151D4EAC
:10360300E30212151D7BE30212151D90E30212154E
:103613001DFFE30212151D4BE50212151D5EE602A6
:1036230012151DE9E60212151DFCE70212151DC154
:10363300E80212151DF2E80212151D18E90212150F
:103643001D21E90212151D50E90212151D00EA029F
:1036530012151DB0EA0212151D23EB0212151DC629
:10366300EB0212151D39EC0212151D78EC0212152E
:103673001DC1EC0212151DF6EC0212151D17BB033A
:1036830012151DCABA0312151D48BA0312151DCD12
:10369300B90312151D4DB90312151D03B9031215F4
:1036A3001DA7B80312151D56B80312151D19B8032B
:1036B30012151DD3B70312151D98B70312151D8ECE
:1036C300B70312151D17C90512151D89C805121553
:1036D3001D71B70312151D99B60312151D2DC805CB
:1036E30012151DDBC70512151D1DB60312151D226C
:1036F300990612151DFA960612151D4B96061215FC
:103703001D3D950612151D2ECC0412151D54CB0418
:1037130012151D8ACA0412151DF9C80412151DC2FB
:10372300C80412151D94C80412151D48C8041215A7
:103733001DB1C70412151D21C70412151DFBC604B4
:1037430012151DB0C60412151D7AC60412151DFDEF
:10375300C50412151D98C50412151D47C50412157D
:103763001D6FC40412151DDFC30412151D93C3047A
:1037730012151D0EC30412151DC9C20412151DAD69
:10378300C20412151DECC90712151D55C1041215EB
:103793001D48CD0312151D1DCA0312151DA5C70310
:1037A30012151D93C50312151D57C50312151D517F
:1037B300C40312151DF9C10312151D85C10312158A
:1037C3001D27C10412151DF4C00412151D78C00471
:1037D30012151D5DC70612151D4AC00312151DB82B
:1037E300C50612151DC6C40612151D0BC4061215F7
:1037F3001D26950512151D09C00312151DCD94052F
:1038030012151DFA440012151D98940512151D6317
:10381300940512151D2F940512151DC2930512153B
:103823001DAA930512151D85930512151D569005A6
:1038330012151D298E0512151D298C0512151DAF94
:103843008B0512151D608B0512151D1A8B0512159C
:103853001DBC8A0512151D09BC0512151D8EBB055D
:1038630012151D26BA0512151DA7BC0312151DAD91
:10387300B80512151D36B60512151DBBB405121574
:103883001D5FB40512151D50B40512151DBC8A0623
:1038930000000080FBE4730000000020115E87003D
:1038A30000010020115E870000020020115F8700E5
:1038B30000030020115D870000040042116D8000A9
:1038C30000050042117E80000006004211A0800026
:1038D3000007002011AB800000100042118F800010
:1038E3000011002011BE0A000000404211A0800018
:1038F3000000804211D281010020002011FE1A0134
:103903000021002011FF1A0600000010110000071B
:1039130000000030330000070010003033000007C0
:10392300000140203300000700024020330000085C
:10393300000000203300000A000000E23300000A08
:10394300000100183300000C005500393300000C4F
:10395300001C004233000011000400423300001138
:103963000043002333000011005100101100001127
:10397300005500101100001100670018110000111C
:10398300006F0018110000120055002101000014FF
:10399300000E004222000000040000210400000287
:1039A30004000029040000030400002904000005AA
:1039B300040000290400000C040000390400000D79
:1039C300040000390400002A040000390400000246
:1039D300070000290400000207000218055B8702A4
:1039E300070003300500000207010322055B86027E
:1039F30007020322055F86020703031801598702A2
:103A030007060318010000040B00001B054386048E
:103A13000B000129050000040B0301290500000424
:103A23000B060129040000040B0002210549870449
:103A33000B010221054D87040B020221054987046E
:103A43000B030221054F87040B0402210549870458
:103A53000B050221053F87040B000321040000042A
:103A63000B000421054987040B010421054B87043E
:103A73000B050521050000040B08052105000004C2
:103A83000B0B0529040000040B1005280400000497
:103A93000B000621054987040B010621054D870408
:103AA3000B020621054987040B030621054F8704F2
:103AB3000B040621054987040B05062105518700E0
:103AC3000000000000012057380001022057380091
:103AD3000103205738010004205738000105006F07
:103AE30020000006000000000007007F1900000806
:103AF30000012500000000000000000A0000000093
:103B0300000B20F52410000C02EF3600000D00001E
:103B13000000000E20573810010F20573810000006
:103B23000000000000000000000000000000000092
:103B33000013001526000000000000000015007DA2
:103B43001E410016007D1E500017011526000018A7
:103B530001F92600001900672500001A00672500F7
:103B6300001B00F72510001C01711B00011D0171D2
:103B73001B00011E00912510031F01D337080020ED
:103B830000DD2700002100C11900002200D71E100C
:103B9300002300EF360000000000000000000000DA
:103BA30000000026019524100027111F281000286B
:103BB30009832400002900892710002A60F91A00CC
:103BC300032B22F52410002C00BF2710002D02BF69
:103BD3002710002E01A31900042F00FB1800083042
:103BE30000AF25100031010000000032000000008A
:103BF3000033000000000034000000000035000026
:103C0300000000360000000000370000000000380C
:103C130000000000003901711B00013A007D2700FC
:103C2300003B00D12413003C00000000003D0000D5
:103C33000000008F000100FB18870001005C1B35AA
:103C4300000400211B25000200251B26000200277B
:103C53001B27000200291B28000100331B29000138
:103C630000341B84000400351B86000100391B2A25
:103C73000001003A1B2B0001003B1B2C0001003FFD
:103C83001B2D000800DE182E000100401B2F000131
:103C930000411B30000100421B31000100431B3275
:103CA300000100E61833000100E718340001004466
:103CB3001B36000100E81838000100451B390001DC
:103CC300003E1B830002005A1B63000100F81864C6
:103CD3000001003C1B650001003D1B6D000100F964
:103CE3001871000800D61866000100591B43000133
:103CF300004A1B440002004B1B450001004D1B46BC
:103D03000002004E1B47000800F018480001005055
:103D13001B4B000100511B040001005D1BA10001AE
:103D230000601B370001005F1B880001005E1B3C25
:103D3300000100E9183D000100461B490002005242
:103D43001B67000100FA184D000200541B4E0001CE
:103D530000561B4F000200571B3E000100EF185195
:103D6300000100471B52000100481B53000100499A
:103D73001B54000100EA1800000000000000013697
:103D830036010100010201000103010001040106E3
:103D93000605020000070100340801000F090401B1
:103DA300010D0100FF0E08000017020000190100B9
:103DB300FF1A0100011B0100FE1C0100081D020087
:103DC300001F010001200100012102000023010066
:103DD3000F24020000260100012701000828020029
:103DE300FF2A0100072B0102402C0100002D0100D6
:103DF300012E0100012F0100FF30010B1D310800CE
:103E0300003A0100083B01000F3C0100013D0100A5
:103E1300FF3E04000042040000460400004A040080
:103E2300004E04000052040000560400005A04002F
:103E33000000202020202020202020282828282897
:103E4300202020202020202020202020202020206F
:103E530020208810101010101010101010101010C7
:103E630010100404040404040404040410101010C7
:103E73001010104141414141410101010101010182
:103E830001010101010101010101010101101010F2
:103E93001010104242424242420202020202020255
:103EA30002020202020202020202020202101010C5
:103EB30010206A007800BD26C326C9266C00F000D6
:103EC30069266F2675266B00F00081268726C92692
:103ED3006600F00081268726C92667001400932612
:103EE30099269F2669001400A526B126AB26EE224B
:103EF300E8032D264B264526640001000000000040
:103F030063266300010000000000632662000100D5
:103F1300000000006326610001000000000063262A
:103F23007000010000000000632601037103010318
:103F3300010301030103010322030203010310032D
:103F43000003000300030003000300030003420314
:103F530000032403060300030003040312032503E1
:103F630023032503230304030403000300030003C3
:103F73004403000300032303000365032100350307
:103F8300810300030503000300030003000325036B
:103F9300230301017101010101011101010131013A
:103FA300010101018001100161013B001400630163
:103FB30073017201620143010001130106013D0116
:103FC3003500040112010001000100010001040198
:103FD3000401330133013C01440132013600000185
:103FE3000001650100013500810100010501820125
:103FF30083010001030271023001600211027002A9
:104003000102020202028002100261023A00410030
:104013006302730272026202430200021302380057
:104023000002000204021202000200020002000267
:1040330004020402370037003C0244020002390044
:10404300000200026502000235028102000205023D
:10405300820283020002030071003001600011003C
:104063007000310220035004800010006100000042
:104073001400630073007200620043000000130029
:104083000600000000000400120000000000000011
:10409300000004000400370037003C024400000025
:1040A30000000000000065000000350081000000F2
:1040B3000500000083000000360001000600000038
:1040C3000F0000000000000000000000000003FFDC
:1040D300FF00000403FFFF0000FFFF0FF4010005D2
:1040E300C4040320000100000B00000000000000D6
:1040F3000003010F000000000000000000000000AA
:1041030000000000000000000000000000000000AC
:104113000000000000001B295729212943282729D3
:104123005D29272969292D29432827295D29332931
:104133004328392943283F294328452943284B2924
:10414300432851294328000000000000000000001C
:10415300000000000000000000000000000000005C
:10416300000000000000000000000000000000004C
:1041730000000A0000000200000004000000080024
:10418300000010000000200000004000000080003C
:10419300000000010000000200000004000000080D
:1041A300000000100000002000000040000001009B
:1041B300AF2B02002B2B0300312B0400372B050000
:1041C3003D2B0600492B3000612B33006D2B34004F
:1041D300732B1100792B14007F2B15005B2BFFFF32
:1041E300000007ECFDFDFDECDCDCCCBCACAC9C9C26
:1041F3008C7C7C6C6C5C5C5C4C4C3C3C2C2C1C1CAC
:104203005100100000550010000067001800006FF7
:10421300001800000400420000430023000003EAEA
:10422300F5E5D5D5C5B5A5959585857575656555AB
:10423300554545353525251515050A093202D93168
:1042430005EB3107DF310CC1310DCD31FF0000002B
:10425300160F00000B150B020002220F3300000E95
:104263005A6967426565416C6C69616E6365303993
:1042730001030507090B0D0F00020406080A0C0DC4
:10428300015000D0070B27112717273030171819B3
:1042930021301B1D1F3000034A49434E181A2505C0
:1042A3000200011916181616182303000C0E020B30
:1042B300040B0A0708000F303016181920231A1CA4
:1042C3001E3000393D3F373C3C362C442D0204025E
:1042D300010101010902E803000000BE040AE8032A
:1042E3000E001E1E040903100A0C040408280C0502
:1042F30008150304C082C083E99017C2F002450683
:1043030074F4120E638A088B09EB5480604D800E9F
:10431300EEFAEFFB122897EEFAEFFB1222BB90178F
:10432300C2E0F91222CD8A0A8B0BAE0AAF0BEE4F15
:1043330060208E828F83E0641A60D5EEFAEFFB1261
:10434300283DE9F974FF6960CEEEFAEFFB1222C152
:1043530080CCAA08E5096480FB80047A007B000214
:1043630046D874F7120E637AFF02572774F6120EBB
:1043730063E9FEEAFF7A047B00124A2EA808A90922
:10438300EA496034EF8A828B83A3A3A3F0EE8A8287
:104393008B83A31243F3E4F0A3F09017CF124A5395
:1043A30070099017CFE8F0A3E9803FE0FB8A828B86
:1043B30083A3A3A3E06F700479008031EAFCEBFDD3
:1043C3008A828B83124A5370E474FF6F700C8C8261
:1043D3008D831243FAE4F0A380109017CF125EB8D6
:1043E3009017CF1243FAEAF0A3EBF0790102581FBA
:1043F300A3F08A828B8322126A0C8882898322C06B
:1044030082C083EA126C9F3BF583E0FA9017CF805A
:104413000488828983125CE7601C88828983A3A352
:10442300A3E0FBEA6B600574FF6B70E58882898308
:10443300A3A3E0F9800279FF02450674F4120E6328
:10444300EAFEEBFF8A82F583125EB812283DE9F596
:104453000874FF6970030244F57A197B001222B5D0
:10446300EA4B70030244F58A828B837434125A50E8
:10447300A3A3EA2402FCE43BFD74061214768E82A5
:104483008F831250E41269E78A828B83A3A3A3A3C9
:10449300A3A3A3A3ECF0A3ED1250F4A3A3A3A3A39C
:1044A300EA240AFCE43BFD740C1214768E828F839B
:1044B300125F52C8126C9F38F583E0C0E0EA2416FD
:1044C300F582E43BF583D0E0F0EE240CF8E43FF909
:1044D3008882F5831269EBEA2417F582E43BF583BE
:1044E300ECF0A3EDF088828983E4F0A3F0A908122D
:1044F30022C179010246D8C082C0839017CD125ED3
:10450300B88000D083D08202151A74F4120E638A25
:10451300088B09ECFEEDFF7A081245AB70047910A5
:10452300803512461DA3124607740C1218CA126F67
:10453300F2A3A3A3A31270E49017C7124A539017D0
:10454300C76011124A368003EAFCEB124A4E70F838
:104553008C828D831245BB0246D874F4120E638994
:10456300088A09ECFEEDFF7A0A1245AB7004791054
:104573008033124612E4F0A31245C1E5091245C186
:10458300A3EEF0A3EFF09017C9124A539017C96036
:1045930011124A368003EAFCEB124A4E70F88C8201
:1045A3008D831245BB0246D87B001223758A0A8B82
:1045B3000BA80AA90BEA4922126A0C7900221257A6
:1045C30018A3A32274F4120E6389088A09ECFEED82
:1045D300FF7A061245AB7004791080251246121239
:1045E30046079017CB124A539017CB6011124A36E5
:1045F3008003EAFCEB124A4E70F88C828D831245DD
:10460300BB0246D8E50912571DEEF0A3EFF02212C4
:10461300461D8A828B83A3A3A3228A828B83E4F021
:104623001243F3A3A3E508F02274F2120E63EAFE29
:10463300EBFF8C088D091228A98B0DA90DEA49609F
:10464300198A828B83A3A3A3EEF0A3EF125714E579
:1046530008F0A3E509F0790080027901025EAE74E7
:10466300F4120E6374F7121633E9FE851882851966
:10467300837401F0EC7006EDC39406404D74036A35
:104683004B604774011215ED880A890B780A1215DD
:104693008D7C127D007A007B00EE1246DD12154FF1
:1046A300E9601CE4F50AF50B780A12158D74031200
:1046B30015FD74021215F51228F1740212154F85B7
:1046C3001882851983E064017004790180027900FE
:1046D300740912154F7F0402122AF91228AF7402CB
:1046E3002274E8120E6374FA12163389128A168B37
:1046F300178C088D091238218A148B15EA4B700523
:104703007902024873AA08AB09A9121228C7E9F56E
:104713000FA2E6401C9017CD125CE76014E8241941
:10472300F582E439F583E064017006E50FD2E6F51E
:104733000F7C067D007900AA18AB191222A3741FFF
:104743001218CA1250EC6009E054FCF0E0440180F6
:1047530003E054FC1270CA125CE7602B741E12183B
:10476300CAE0FE88828983A3121331EEFD7402121C
:1047730018CAE05403FCAA08AB09A91212286774EB
:104783000212154FE9700579010248737422121859
:10479300CA125CE76012851882851983E04404F02D
:1047A30074021218CA126A0874201218CA1250EC42
:1047B3006005E044088003E054F7F074211218CA3E
:1047C3001250EC6005E044108003E054EFF07424D1
:1047D3001218CAE0C0E074041218CAD0E0F07405DD
:1047E3001218CAEEF07803851882851983E0540401
:1047F3006002780574251218CA124E80E82510FE4F
:10480300E43511FF124B246063AC0AAD0BAA18AB5D
:10481300191228A374271218CA125E3E121589AC06
:1048230010AD111260A612154F750C1E780C1215DF
:1048330091750CC5750D17780C12158D780A121524
:104843008D8E0C8F0D780C12158D780812158DA98D
:104853000FAC14AD15AA16AB1712382D7409121527
:104863004FE9FEAA0AAB0B12237B80027E10EEF9FE
:1048730074068004EEF9740212154F7F1002122A97
:10488300EEFCEFFDAA10AB11A90A12286D740B22DE
:1048930074EA120E6374FE121633890B8A148B1595
:1048A3008C0E8D0F7E007F00750A0074181218CAD3
:1048B300124E808011124A441228FD8B09EE2AFE03
:1048C300EF3509FF050A1269EF502EE50A75F00668
:1048D300124E372403FEE43FFFA3A3E070E60EEE7F
:1048E30070010F88828983A3A3A3A3124A538882EA
:1048F300898360C1125C5880C2EEFAEFFB124A2E24
:104903008A0C8B0DEA4B7003024A23750A00803030
:10491300A818A91988128913781212158D7808120C
:10492300158D8A828B83124A44122903740412154B
:104933004F126FE2E50828F508E50939F509050A7C
:104943001269EF5077E50A75F006A4F8A9F0E510AF
:1049530028F582E5111269CB124A3B8A828B83A325
:10496300125683F01256EC12567EF0E5082403F536
:10497300085002050988828983E070C2EA2403088B
:104983001256F0124A3BA38582088583098A828BDB
:1049930083A3A3A3A3124A368C82F583E5824583BE
:1049A3007003024913AC08AD09AA82AB83888289DC
:1049B30083E0F91228D38A088B098082780C1215B8
:1049C3008D8E088F09780812158D74201218CA125B
:1049D3004E76121591E4F508F509780812158D74D1
:1049E300221218CA124E7612159174221218CA1284
:1049F3004E76121591750800780812159175080105
:104A03007808121591AC0EAD0FAA14AB15A90B12B1
:104A1300488D12154FE9FEAA0CAB0D12237B8002C1
:104A23007E10EEF9740212154F802F1223758A0837
:104A33008B0922E0FCA3E022E0850882850983F04C
:104A4300221270B8AA0EAB0FA90B22FD8C828D83A4
:104A5300125EBCEA4B22AA12AB137F0E02122AEE9D
:104A6300F9024A5D74EC120E63890A8A108B11EC09
:104A7300FEEDFF74141218CA124C7A7003024B0A2B
:104A8300A808A9097C00800D124C5D50010B124C43
:104A93008D5001090C850C82850D83E0FAECC39AD5
:104AA30040E674016A700AA3E07006750E01750F83
:104AB30000780812158D780E12158D741C1218CA01
:104AC300124C57121591E4F50CF50D780C12158D57
:104AD300741E1218CA124C57121591741E1218CA5A
:104AE300124C57121591750B00780B121591750B1B
:104AF30004780B12159112488312154FE9FEAA0888
:104B0300AB0912237B80027E10024C44AA0EAB0F2A
:104B13007F0C02122A850A82850B83E0F91228E5AD
:104B230022EEFAEFFB1223758A0A8B0BEA4B22F86B
:104B3300E4350DF98882F583124E66A3228510822F
:104B4300851183E0F8E508C3982274EC120E63899B
:104B53000A8A108B11ECFEEDFF74141218CA124C62
:104B630049F5087509007402780812177285080E52
:104B730085090FAA0EAB0F1269E37003024C427949
:104B830000804AE9F5127513007402781212177245
:104B9300E50C2512FCE50D3513FD8C82F583A3127C
:104BA3005A4B8C828D83A3126195F0EC2403FC5045
:104BB300010DF5828D83126196A3F08C828D831291
:104BC3006195A3A3F0EA2404FA50010B09850C8232
:104BD300850D83E0F8E9C39840A9740168700AA3BE
:104BE300E07006750E01750F00780812158D780EAA
:104BF30012158D741C1218CA124C57121591E4F534
:104C03000CF50D780C12158D741E1218CA124C5720
:104C1300121591741E1218CA124C57121591750B66
:104C230000780B121591750B07780B12159112482A
:104C33008312154FE9FEAA08AB0912237B80027E7B
:104C430010EEF9024B13124C4D22125552850C8271
:104C5300F583E022E0F50B780B22EC75F003A4FA60
:104C6300ABF0E50C2AFAE50D3BFB8A82F583124E85
:104C730093F0EA2402FA22124C4D75F003A4F50EC8
:104C8300E5F0F50FAA0E12704F22F5828B831250B6
:104C930048124E8CA3A3F0E82403F82274E8120E02
:104CA3006374FE121633124EDA1218CA124E808043
:104CB30009EE2402FEE43FFF0508124B40502FE5A6
:104CC3000875F00D124E372404FEE43FFFE070E850
:104CD300A3E070DDEE2405FEE43FFFE82404F50ABB
:104CE300E439124E5260D1124B18EE2980C6124B92
:104CF300247003024E328A0E8B0F7508008018E56C
:104D03000C2409FAE4350DFB8A82124E60124E8898
:104D1300F08C0E8D0F0508124B404003024DCFE57A
:104D23000875F00D124E9AAA82AB83124B3BF0E545
:104D33000C2402124B32124EAFA3F0E50E2404F5FD
:104D43000E5002050F850C82850D83E070C7E50EBA
:104D53002402FCE4350FFD850E82850F83A3A88210
:104D6300A9838A828B83E07096E50C2404F512E410
:104D7300350DF513851282124E60F0E50C2405F50E
:104D830016E4350DF5178516821263C0124EC4243E
:104D930007F8E4350DF98882124E60124ED2F0E521
:104DA3000E2405F50E5002050F851282851383121A
:104DB3004E597003024D18AC0EAD0FE50C240BF5E4
:104DC30082E4350DF583124E6E024D18780A1215E2
:104DD3008D8E0C8F0D780C12158D74221218CA1239
:104DE3004E76121591E4F50CF50D780C12158D74B1
:104DF300241218CA124E7612159174241218CA126C
:104E03004E761215917508007808121591750809E8
:104E13007808121591AC14AD15740B1218CA124E02
:104E23004712154FE9FEAA0AAB0B12237B80027EC1
:104E330010024877A4F8A9F0E51028F582E51112CD
:104E43004FE4EE22125EBCA90912286D740B22F501
:104E53000B850A82F583E0F91228D9E922F583123A
:104E63004E6622E0850E82850F832212504D8A0EF4
:104E73008B0F22E0F5087808228E828F83E0F510ED
:104E8300A3E0F51122124E8C221243F4124E932208
:104E9300A3E08882898322126B7D85820C85830D32
:104EA300124E66F0850C82850D83A322124EB32227
:104EB300A3F088828983A3E0850E82850F83A3A351
:104EC30022F0851682851783125701F0E50C22A381
:104ED300A3124EB3A3A322851882851983EAF0A3F4
:104EE300EBF089098C148D157E007F007508007422
:104EF3001A2274EA120E63890B8A108B118C0E8DA1
:104F03000F7E007F00750A0074161218CA12554EE0
:104F13008003124FB1850C82850D831269F540F22F
:104F23001269DF607EA808A909750A008003124F81
:104F3300ED850C82850D83E0FAE50AC39A40EF788C
:104F43000812158D8E0C8F0D780C12158D741E1290
:104F530018CA124FAB121591E4F50CF50D780C122B
:104F6300158D74201218CA124FAB121591742012AA
:104F730018CA124FAB121591750A00780A121591CF
:104F8300750A0A780A121591AC0EAD0FAA10AB116F
:104F9300A90B12488D12154FE9FEAA08AB0912237B
:104FA3007B80027E10024A62E0F50A780A22E50A53
:104FB30075F005A4F8A9F0E50C28F582E50D124F6C
:104FC300E4A3A3A3126FF6A3A3E0F91228EB8B09C2
:104FD300EA2403F8E43509F9EE28FEEF39FF050A60
:104FE3002239F583A3A882A98322E50A75F005A4D3
:104FF300FAABF012503C858214858315124E94123D
:1050030070D0125048F0E5142402FAE435158A12E0
:10501300F5138A82F583125048A3F0E82403FCE4D5
:1050230039FD851482851583A3A3A312504D8A12DB
:105033008B13A812A913050A22E50C2AF582E50DA4
:105043003BF583A322124E94A322E0FAA3E0FB854F
:105053001282851383E0F91228D32274F6120E63A9
:1050630074FE121633E9FE740C1218CA1250E412BD
:1050730050EC1250F4E0C0E074011218CAD0E0F012
:10508300A818A91988088909780812158D750802C6
:10509300750900780812158D74161218CA124E7607
:1050A30012159174151218CA12133174161218CAF4
:1050B300124E7612159174161218CA124E761215E4
:1050C30091750800780812159175080B7808121568
:1050D30091EEF912488D12154F740212154F0258B2
:1050E3001F126FED8882F58322E08518828519836C
:1050F30022F088828983A32274F1120E6374EB1267
:105103001633EAFEEBFFC200EA2420F8E43F8808E6
:10511300F5098882F583C3E09403A3E09400500566
:10512300790102552F9017CD1270E674021218CA36
:105133001270E6740E1218CAE4F0A3F0740A12187F
:10514300CAE4F0A3F0740C1218CAE4F0A3F0EA2442
:1051530022F8E43F880AF50B8882F5831269EB7421
:10516300041218CAAA82AB8312289D8A0C8B0DA83D
:105173000CA90D740A1218CA1270E68508828509F3
:1051830083125EB8EAC398F8EB99F9850A82850B16
:1051930083E028F8A3E039F9740C1218CA126A08DC
:1051A30074081218CAE09017C6F0EE2414F508E448
:1051B3003FF509850882F583E0F91238218A828B4D
:1051C30083E5824583700C9017CDE4F0A3F0790258
:1051D30002552F125582602BEE2404F50AE43FF5A5
:1051E3000BA3121331740B1218CAE0FD74061218C4
:1051F300CAE05403FC125591122867740212154F2A
:10520300E9700C9017CDE4F0A3F0790302552F1247
:1052130055911228C7E9F50E850A82850B83125E24
:10522300B8EAFCEBFD9017C7800488828983125C7F
:10523300E7700302532288828983A3A312554EC3C6
:10524300EA950CEB950D40E288828983A3A3A3A37F
:10525300C3E09CA3E09D40D2E8FCE9FD740412186E
:10526300CAE05407700D74091218CAE0640B700386
:10527300025326E50EA2E64003025326EE2419F557
:1052830082E43FF583E0600302532674021218CAD6
:1052930012555A707E74021218CA125CE270747C42
:1052A30000850882850983E0F91228CD740112185C
:1052B300CA7401F074091218CA1255371218CAE0D9
:1052C300F50C780C12159174071218CA1213317564
:1052D3000C01780C12159174081218CA126B9DF503
:1052E3000C780C12159174051215ED880C890D7844
:1052F3000C12158D74091218CA1255791218CA1294
:1053030055421218CA12556812154F7C0112559155
:105313001228CD9017CDE4F0A3F0790502552F7C28
:10532300007D0074041218CAE0F8540360030254A9
:105333004AE8540460057E8402548974091218CA29
:10534300E0F8C394174003025446E8F50A750B00CE
:105353007402780A1217727419250AF5827441359A
:105363000BF583E493F8740193F9E849700302544D
:1053730046850882850983E0C0E074101218CAD0FC
:10538300E0F0740C1218CA125EB874111218CA1223
:1053930070E6740A1218CA125EB874131218CA128D
:1053A30070E674101215F5888289831238988B0978
:1053B300A909740E1218CA1270E6EA49604B7409FF
:1053C3001218CAE0F50875090074027808121772FA
:1053D300741B2508F58274413509F583E493F87449
:1053E30001938882F583E582458360127402121566
:1053F300F5123898740E1218CA125CE7600B740E1B
:105403001218CA125EB812237B74091218CAE0F884
:105413006054740268604F740368604A740668607D
:10542300457408686040740C68603B7411686036AA
:105433007413686031741568602C740B6860277E80
:105443000080437E82803FEC4D602B8C828D83A352
:10545300A3A3125582601F74021215F5123898E93E
:10546300FE74FF6E700B9017CDE4F0A3F0F90255B4
:105473002F74016E701074041218CAE0540460048F
:105483007E8380027E8174021218CA12555A707587
:1054930074021218CA125CE2706B74041218CAE028
:1054A300FA5410706074011218CAEEF074091218DD
:1054B300CA1255371218CA124E7612159174071272
:1054C30018CA1213317508017808121591EA1313DB
:1054D30013541F64015401F50878081215917405DB
:1054E3001215ED88088909780812158D74091218A8
:1054F300CA1255791218CA1255421218CA1255689F
:1055030012154FD2009017CDE4F0A3F0EE7004799A
:1055130000801974846EA200700A50047907800C0D
:1055230079068008500479098002790874151215E8
:105533004F025C52E0851882851983F0740822E0DB
:105543002406FAA3E03400FB74092212555222E028
:10555300F50CA3E0F50D22125F52C82415F582E481
:1055630038F583E022A3E0C8126CA338F583E0F991
:10557300122891740722126F941270B4740922A333
:10558300A3A3125F528882F583E582458322850AAD
:1055930082850B83125EBC850882850983E0F9222C
:1055A30074F4120E638A088B09ECFEEDFF7C067D12
:1055B3000079001222A3850882850983E054FCF850
:1055C300A3E0F98E828F83E05403FAE84A850882C8
:1055D300850983F0A3E912568CA2E25004D2F0802D
:1055E30002C2F0850882850983E054FBF0A2F0E44F
:1055F30033F50A750B007402780A121772E0450A34
:1056030012568CA2E3850882850983E0500444087E
:10561300800254F712568CA2E45004D2F08002C2E6
:10562300F0850882850983E054EFF0A2F0E433F5B6
:105633000A7404780A121772E0450A1260AC8508EE
:1056430082850983E0540460108E828F83E0FAA37D
:10565300E0F9EA12663A50010F8E828F8312567E6A
:10566300A3A312661A850882850983A3A3A3A3A310
:10567300F0EE2402FAE43FFB0246D8125683A3223B
:10568300E0850882850983A322125A54E02274F725
:10569300120E638A828B83E054038C828D831257AC
:1056A3000F540412570854081257085410F88C82E8
:1056B3008D83E048F0A3AC82AD838A828B83E05470
:1056C3000460101256EC1257021250F41256F8FCF2
:1056D30050010D8A828B83A3A3A31257011257147F
:1056E3001256F8FAE43DFB803EEA2402F8E43BF963
:1056F3008882F58322125702A3F0EC240222A3E04E
:105703008C828D8322F88C828D83E0481243F4E0EF
:10571300221257182212571DA322F08A828B83A3C9
:10572300A3A3A3221228377F0102122AC082C083B7
:105733009017C980048A828B83124A5360138A822A
:105743008B83A3A3E0F8E968600B74FF6870E680BD
:10575300047A007B0002450674F0120E638A088BFC
:1057630009ECFEEDFF1228A98A0C8B0DEA4B607839
:105773007C0080010C850C82850D83A3A3A3A3A3C6
:10578300A3A3E0F8ECC398505FECF50E750F00741B
:1057930003780E121772850C82850D83A3A3A3A32E
:1057A300A3A3A3A3E0250EF8A3E0350FF98882F5A0
:1057B30083E493FA740193FBE5086A7003E5096BCC
:1057C30070B2A3A3E493FA740193FBEE6A7002EF41
:1057D3006B70A174101218CA1269EB8983888274E2
:1057E30008121432790180027900800312154F7F69
:1057F3000802122A74F6120E631258246005125E10
:10580300B580047A007B00801374F6120E6312587D
:10581300246005125EB380047A007B007F020212CB
:105823002A1228A98A828B83E58245832274F71280
:105833000E63E9FFEAFCEBFD9017CB8004888289B5
:1058430083125CE7604688828983A3A3E06F70EDCF
:105853007E0080010E88828983A3A3A3E0FAEEC3AE
:105863009A50DAEE75F003A4FA85F008AB08888243
:105873008983A3A3A3A3E02AFAA3E03BFB8A82F5CF
:1058830083E06C7003A3E06D70CA80047A007B0030
:1058930002572A74F6120E631228C18A828B83E59B
:1058A3008245836006A3A3E0F98002790002581FB2
:1058B30074F6120E63ECFF1228C18B09A909EA4999
:1058C3006015EA2402F582E439F583EF6005E0D23E
:1058D300E68003E0C2E6F002581F74F1120E63EA99
:1058E300FEEBFFECFAEDFBEE4F7003025A48EC249B
:1058F30002F50CE43BF50D8C828D83A3AC82AD8362
:105903008E088F09750A00E91213E2044142155A01
:105913004344275AE0E2E059E8E9935921088559BD
:105923000993590AA2590BE0591085591885591939
:1059330093591AA2591BE05920855921935922A240
:105943005923E05924F15925FA5926035A270C5AA9
:105953002885592993592AA2592BE0592CF1592DFD
:10596300FA592E035A2F0C5A3085593193593893CB
:105973005939E0593A0C5AEAE059F00C5AF1395ABC
:10598300485A8E828F83125A4BECFAEDFB025A4827
:105993001266138C828D83F00A0AAB0D025A488E6D
:1059A300828F83780812185B8A828B83E508125AE8
:1059B30050780812185BE5098C828D83125A50784F
:1059C3000812185B741078081215D4850C82850DA3
:1059D30083E508F0EA2403FA506B0B80688E828F0C
:1059E3008312132D122321740412154F8057780844
:1059F3001215897C05804678081215897C06803D3E
:105A030078081215897C07803478081215897C0878
:105A1300802B78081215898E828F83E02401FCE4A1
:105A23003400800F78081215898E828F83125BE60B
:105A3300FCE439FD800978081215897C107D001279
:105A430060A612154F025C5212619BF022125A5447
:105A530022F08E828F8322C082C083E91213E20375
:105A6300202F725A383A725AE0E2725A00765A7903
:105A7300018002790002450674F2120E6374FE126D
:105A83001633EAFEEBFF8C088D091228EB8518828A
:105A93008519837401F0A3E4F0851882851983E0E6
:105AA300600C750C01750D00780079008038750C59
:105AB300FF750DFFEA24FFF8EB34FF802885088289
:105AC300850983E0C0E0EE28F582EF39F583D0E065
:105AD300F0850882850983A3858208858309E825E3
:105AE3000CF8E9350DF9EAFCEBFDEC24FF1AED3473
:105AF300FFFBEC4D70C7740212154F025EAEE92432
:105B0300F8607814607914607A14607B24FB606B0E
